{
  "abi": [
    {
      "inputs": [
        {
          "internalType": "contract IERC721",
          "name": "_nftCollection",
          "type": "address"
        },
        {
          "internalType": "contract IERC20",
          "name": "_rewardsToken",
          "type": "address"
        }
      ],
      "stateMutability": "nonpayable",
      "type": "constructor"
    },
    {
      "inputs": [
        {
          "internalType": "address",
          "name": "_staker",
          "type": "address"
        }
      ],
      "name": "availableRewards",
      "outputs": [
        {
          "internalType": "uint256",
          "name": "",
          "type": "uint256"
        }
      ],
      "stateMutability": "view",
      "type": "function"
    },
    {
      "inputs": [],
      "name": "claimRewards",
      "outputs": [],
      "stateMutability": "nonpayable",
      "type": "function"
    },
    {
      "inputs": [
        {
          "internalType": "address",
          "name": "_user",
          "type": "address"
        }
      ],
      "name": "getStakedTokens",
      "outputs": [
        {
          "components": [
            {
              "internalType": "address",
              "name": "staker",
              "type": "address"
            },
            {
              "internalType": "uint256",
              "name": "tokenId",
              "type": "uint256"
            }
          ],
          "internalType": "struct ERC721Staking.StakedToken[]",
          "name": "",
          "type": "tuple[]"
        }
      ],
      "stateMutability": "view",
      "type": "function"
    },
    {
      "inputs": [],
      "name": "getTotalStakedTokens",
      "outputs": [
        {
          "internalType": "uint256",
          "name": "",
          "type": "uint256"
        }
      ],
      "stateMutability": "view",
      "type": "function"
    },
    {
      "inputs": [],
      "name": "nftCollection",
      "outputs": [
        {
          "internalType": "contract IERC721",
          "name": "",
          "type": "address"
        }
      ],
      "stateMutability": "view",
      "type": "function"
    },
    {
      "inputs": [],
      "name": "rewardsToken",
      "outputs": [
        {
          "internalType": "contract IERC20",
          "name": "",
          "type": "address"
        }
      ],
      "stateMutability": "view",
      "type": "function"
    },
    {
      "inputs": [
        {
          "internalType": "uint256",
          "name": "_tokenId",
          "type": "uint256"
        }
      ],
      "name": "stake",
      "outputs": [],
      "stateMutability": "nonpayable",
      "type": "function"
    },
    {
      "inputs": [
        {
          "internalType": "uint256",
          "name": "",
          "type": "uint256"
        }
      ],
      "name": "stakerAddress",
      "outputs": [
        {
          "internalType": "address",
          "name": "",
          "type": "address"
        }
      ],
      "stateMutability": "view",
      "type": "function"
    },
    {
      "inputs": [
        {
          "internalType": "address",
          "name": "",
          "type": "address"
        }
      ],
      "name": "stakers",
      "outputs": [
        {
          "internalType": "uint256",
          "name": "amountStaked",
          "type": "uint256"
        },
        {
          "internalType": "uint256",
          "name": "timeOfLastUpdate",
          "type": "uint256"
        },
        {
          "internalType": "uint256",
          "name": "unclaimedRewards",
          "type": "uint256"
        }
      ],
      "stateMutability": "view",
      "type": "function"
    },
    {
      "inputs": [
        {
          "internalType": "uint256",
          "name": "_tokenId",
          "type": "uint256"
        }
      ],
      "name": "withdraw",
      "outputs": [],
      "stateMutability": "nonpayable",
      "type": "function"
    }
  ],
  "devdoc": {
    "kind": "dev",
    "methods": {},
    "version": 1
  },
  "evm": {
    "assembly": "    /* \"SafuStaking.sol\":303:8005  contract ERC721Staking is ReentrancyGuard {... */\n  mstore(0x40, 0xc0)\n    /* \"SafuStaking.sol\":1387:1402  10**uint256(18) */\n  tag_1\n    /* \"SafuStaking.sol\":1399:1401  18 */\n  0x12\n    /* \"SafuStaking.sol\":1387:1389  10 */\n  0x0a\n    /* \"SafuStaking.sol\":1387:1402  10**uint256(18) */\n  tag_2\n  jump\t// in\ntag_1:\n    /* \"SafuStaking.sol\":1379:1403  1142 * (10**uint256(18)) */\n  tag_3\n  swap1\n    /* \"SafuStaking.sol\":1379:1383  1142 */\n  0x0476\n    /* \"SafuStaking.sol\":1379:1403  1142 * (10**uint256(18)) */\n  tag_4\n  jump\t// in\ntag_3:\n    /* \"SafuStaking.sol\":1346:1403  uint256 private rewardsPerHour = 1142 * (10**uint256(18)) */\n  0x01\n  sstore\n    /* \"SafuStaking.sol\":1489:1490  0 */\n  0x00\n    /* \"SafuStaking.sol\":1453:1490  uint256 private stakedTokensCount = 0 */\n  0x02\n  sstore\n    /* \"SafuStaking.sol\":596:739  constructor(IERC721 _nftCollection, IERC20 _rewardsToken) {... */\n  callvalue\n  dup1\n  iszero\n  tag_5\n  jumpi\n  0x00\n  dup1\n  revert\ntag_5:\n  pop\n  mload(0x40)\n  sub(codesize, bytecodeSize)\n  dup1\n  bytecodeSize\n  dup4\n  codecopy\n  dup2\n  add\n  0x40\n  dup2\n  swap1\n  mstore\n  tag_6\n  swap2\n  tag_7\n  jump\t// in\ntag_6:\n    /* \"@openzeppelin/contracts/security/ReentrancyGuard.sol\":1701:1702   */\n  0x01\n    /* \"@openzeppelin/contracts/security/ReentrancyGuard.sol\":1806:1813   */\n  0x00\n    /* \"@openzeppelin/contracts/security/ReentrancyGuard.sol\":1806:1828   */\n  sstore\n  sub(shl(0xa0, 0x01), 0x01)\n    /* \"SafuStaking.sol\":664:694  nftCollection = _nftCollection */\n  swap2\n  dup3\n  and\n  0xa0\n  mstore\n    /* \"SafuStaking.sol\":704:732  rewardsToken = _rewardsToken */\n  and\n  0x80\n  mstore\n    /* \"SafuStaking.sol\":303:8005  contract ERC721Staking is ReentrancyGuard {... */\n  jump(tag_17)\n    /* \"#utility.yul\":14:141   */\ntag_13:\n    /* \"#utility.yul\":75:85   */\n  0x4e487b71\n    /* \"#utility.yul\":70:73   */\n  0xe0\n    /* \"#utility.yul\":66:86   */\n  shl\n    /* \"#utility.yul\":63:64   */\n  0x00\n    /* \"#utility.yul\":56:87   */\n  mstore\n    /* \"#utility.yul\":106:110   */\n  0x11\n    /* \"#utility.yul\":103:104   */\n  0x04\n    /* \"#utility.yul\":96:111   */\n  mstore\n    /* \"#utility.yul\":130:134   */\n  0x24\n    /* \"#utility.yul\":127:128   */\n  0x00\n    /* \"#utility.yul\":120:135   */\n  revert\n    /* \"#utility.yul\":146:568   */\ntag_14:\n    /* \"#utility.yul\":235:236   */\n  0x01\n    /* \"#utility.yul\":278:283   */\n  dup2\n    /* \"#utility.yul\":235:236   */\n  dup2\n    /* \"#utility.yul\":292:562   */\ntag_20:\n    /* \"#utility.yul\":313:320   */\n  dup1\n    /* \"#utility.yul\":303:311   */\n  dup6\n    /* \"#utility.yul\":300:321   */\n  gt\n    /* \"#utility.yul\":292:562   */\n  iszero\n  tag_22\n  jumpi\n    /* \"#utility.yul\":372:376   */\n  dup2\n    /* \"#utility.yul\":368:369   */\n  0x00\n    /* \"#utility.yul\":364:370   */\n  not\n    /* \"#utility.yul\":360:377   */\n  div\n    /* \"#utility.yul\":354:358   */\n  dup3\n    /* \"#utility.yul\":351:378   */\n  gt\n    /* \"#utility.yul\":348:401   */\n  iszero\n  tag_24\n  jumpi\n    /* \"#utility.yul\":381:399   */\n  tag_24\n  tag_13\n  jump\t// in\ntag_24:\n    /* \"#utility.yul\":431:438   */\n  dup1\n    /* \"#utility.yul\":421:429   */\n  dup6\n    /* \"#utility.yul\":417:439   */\n  and\n    /* \"#utility.yul\":414:469   */\n  iszero\n  tag_25\n  jumpi\n    /* \"#utility.yul\":451:467   */\n  swap2\n  dup2\n  mul\n  swap2\n    /* \"#utility.yul\":414:469   */\ntag_25:\n    /* \"#utility.yul\":530:552   */\n  swap4\n  dup5\n  shr\n  swap4\n    /* \"#utility.yul\":490:505   */\n  swap1\n  dup1\n  mul\n  swap1\n    /* \"#utility.yul\":292:562   */\n  jump(tag_20)\ntag_22:\n    /* \"#utility.yul\":296:299   */\n  pop\n    /* \"#utility.yul\":146:568   */\n  swap3\n  pop\n  swap3\n  swap1\n  pop\n  jump\t// out\n    /* \"#utility.yul\":573:1379   */\ntag_15:\n    /* \"#utility.yul\":622:627   */\n  0x00\n    /* \"#utility.yul\":652:660   */\n  dup3\n    /* \"#utility.yul\":642:722   */\n  tag_27\n  jumpi\n  pop\n    /* \"#utility.yul\":693:694   */\n  0x01\n    /* \"#utility.yul\":707:712   */\n  jump(tag_26)\n    /* \"#utility.yul\":642:722   */\ntag_27:\n    /* \"#utility.yul\":741:745   */\n  dup2\n    /* \"#utility.yul\":731:807   */\n  tag_28\n  jumpi\n  pop\n    /* \"#utility.yul\":778:779   */\n  0x00\n    /* \"#utility.yul\":792:797   */\n  jump(tag_26)\n    /* \"#utility.yul\":731:807   */\ntag_28:\n    /* \"#utility.yul\":823:827   */\n  dup2\n    /* \"#utility.yul\":841:842   */\n  0x01\n    /* \"#utility.yul\":836:895   */\n  dup2\n  eq\n  tag_30\n  jumpi\n    /* \"#utility.yul\":909:910   */\n  0x02\n    /* \"#utility.yul\":904:1034   */\n  dup2\n  eq\n  tag_31\n  jumpi\n    /* \"#utility.yul\":816:1034   */\n  jump(tag_29)\n    /* \"#utility.yul\":836:895   */\ntag_30:\n    /* \"#utility.yul\":866:867   */\n  0x01\n    /* \"#utility.yul\":857:867   */\n  swap2\n  pop\n    /* \"#utility.yul\":880:885   */\n  pop\n  jump(tag_26)\n    /* \"#utility.yul\":904:1034   */\ntag_31:\n    /* \"#utility.yul\":941:944   */\n  0xff\n    /* \"#utility.yul\":931:939   */\n  dup5\n    /* \"#utility.yul\":928:945   */\n  gt\n    /* \"#utility.yul\":925:968   */\n  iszero\n  tag_33\n  jumpi\n    /* \"#utility.yul\":948:966   */\n  tag_33\n  tag_13\n  jump\t// in\ntag_33:\n  pop\n  pop\n    /* \"#utility.yul\":1004:1005   */\n  0x01\n    /* \"#utility.yul\":990:1006   */\n  dup3\n  shl\n    /* \"#utility.yul\":1019:1024   */\n  jump(tag_26)\n    /* \"#utility.yul\":816:1034   */\ntag_29:\n  pop\n    /* \"#utility.yul\":1118:1120   */\n  0x20\n    /* \"#utility.yul\":1108:1116   */\n  dup4\n    /* \"#utility.yul\":1105:1121   */\n  lt\n    /* \"#utility.yul\":1099:1102   */\n  0x0133\n    /* \"#utility.yul\":1093:1097   */\n  dup4\n    /* \"#utility.yul\":1090:1103   */\n  lt\n    /* \"#utility.yul\":1086:1122   */\n  and\n    /* \"#utility.yul\":1080:1082   */\n  0x4e\n    /* \"#utility.yul\":1070:1078   */\n  dup5\n    /* \"#utility.yul\":1067:1083   */\n  lt\n    /* \"#utility.yul\":1062:1064   */\n  0x0b\n    /* \"#utility.yul\":1056:1060   */\n  dup5\n    /* \"#utility.yul\":1053:1065   */\n  lt\n    /* \"#utility.yul\":1049:1084   */\n  and\n    /* \"#utility.yul\":1046:1123   */\n  or\n    /* \"#utility.yul\":1043:1202   */\n  iszero\n  tag_34\n  jumpi\n  pop\n    /* \"#utility.yul\":1155:1174   */\n  dup2\n  dup2\n  exp\n    /* \"#utility.yul\":1187:1192   */\n  jump(tag_26)\n    /* \"#utility.yul\":1043:1202   */\ntag_34:\n    /* \"#utility.yul\":1234:1268   */\n  tag_35\n    /* \"#utility.yul\":1259:1267   */\n  dup4\n    /* \"#utility.yul\":1253:1257   */\n  dup4\n    /* \"#utility.yul\":1234:1268   */\n  tag_14\n  jump\t// in\ntag_35:\n    /* \"#utility.yul\":1304:1310   */\n  dup1\n    /* \"#utility.yul\":1300:1301   */\n  0x00\n    /* \"#utility.yul\":1296:1302   */\n  not\n    /* \"#utility.yul\":1292:1311   */\n  div\n    /* \"#utility.yul\":1283:1290   */\n  dup3\n    /* \"#utility.yul\":1280:1312   */\n  gt\n    /* \"#utility.yul\":1277:1335   */\n  iszero\n  tag_37\n  jumpi\n    /* \"#utility.yul\":1315:1333   */\n  tag_37\n  tag_13\n  jump\t// in\ntag_37:\n    /* \"#utility.yul\":1353:1373   */\n  mul\n  swap1\n  pop\n    /* \"#utility.yul\":573:1379   */\ntag_26:\n  swap3\n  swap2\n  pop\n  pop\n  jump\t// out\n    /* \"#utility.yul\":1384:1515   */\ntag_2:\n    /* \"#utility.yul\":1444:1449   */\n  0x00\n    /* \"#utility.yul\":1473:1509   */\n  tag_39\n    /* \"#utility.yul\":1500:1508   */\n  dup4\n    /* \"#utility.yul\":1494:1498   */\n  dup4\n    /* \"#utility.yul\":1473:1509   */\n  tag_15\n  jump\t// in\ntag_39:\n    /* \"#utility.yul\":1464:1509   */\n  swap4\n    /* \"#utility.yul\":1384:1515   */\n  swap3\n  pop\n  pop\n  pop\n  jump\t// out\n    /* \"#utility.yul\":1520:1688   */\ntag_4:\n    /* \"#utility.yul\":1560:1567   */\n  0x00\n    /* \"#utility.yul\":1626:1627   */\n  dup2\n    /* \"#utility.yul\":1622:1623   */\n  0x00\n    /* \"#utility.yul\":1618:1624   */\n  not\n    /* \"#utility.yul\":1614:1628   */\n  div\n    /* \"#utility.yul\":1611:1612   */\n  dup4\n    /* \"#utility.yul\":1608:1629   */\n  gt\n    /* \"#utility.yul\":1603:1604   */\n  dup3\n    /* \"#utility.yul\":1596:1605   */\n  iszero\n    /* \"#utility.yul\":1589:1606   */\n  iszero\n    /* \"#utility.yul\":1585:1630   */\n  and\n    /* \"#utility.yul\":1582:1653   */\n  iszero\n  tag_42\n  jumpi\n    /* \"#utility.yul\":1633:1651   */\n  tag_42\n  tag_13\n  jump\t// in\ntag_42:\n  pop\n    /* \"#utility.yul\":1673:1682   */\n  mul\n  swap1\n    /* \"#utility.yul\":1520:1688   */\n  jump\t// out\n    /* \"#utility.yul\":1693:1833   */\ntag_16:\n  sub(shl(0xa0, 0x01), 0x01)\n    /* \"#utility.yul\":1777:1808   */\n  dup2\n  and\n    /* \"#utility.yul\":1767:1809   */\n  dup2\n  eq\n    /* \"#utility.yul\":1757:1827   */\n  tag_44\n  jumpi\n    /* \"#utility.yul\":1823:1824   */\n  0x00\n    /* \"#utility.yul\":1820:1821   */\n  dup1\n    /* \"#utility.yul\":1813:1825   */\n  revert\n    /* \"#utility.yul\":1757:1827   */\ntag_44:\n    /* \"#utility.yul\":1693:1833   */\n  pop\n  jump\t// out\n    /* \"#utility.yul\":1838:2271   */\ntag_7:\n    /* \"#utility.yul\":1947:1953   */\n  0x00\n    /* \"#utility.yul\":1955:1961   */\n  dup1\n    /* \"#utility.yul\":2008:2010   */\n  0x40\n    /* \"#utility.yul\":1996:2005   */\n  dup4\n    /* \"#utility.yul\":1987:1994   */\n  dup6\n    /* \"#utility.yul\":1983:2006   */\n  sub\n    /* \"#utility.yul\":1979:2011   */\n  slt\n    /* \"#utility.yul\":1976:2028   */\n  iszero\n  tag_46\n  jumpi\n    /* \"#utility.yul\":2024:2025   */\n  0x00\n    /* \"#utility.yul\":2021:2022   */\n  dup1\n    /* \"#utility.yul\":2014:2026   */\n  revert\n    /* \"#utility.yul\":1976:2028   */\ntag_46:\n    /* \"#utility.yul\":2056:2065   */\n  dup3\n    /* \"#utility.yul\":2050:2066   */\n  mload\n    /* \"#utility.yul\":2075:2115   */\n  tag_47\n    /* \"#utility.yul\":2109:2114   */\n  dup2\n    /* \"#utility.yul\":2075:2115   */\n  tag_16\n  jump\t// in\ntag_47:\n    /* \"#utility.yul\":2184:2186   */\n  0x20\n    /* \"#utility.yul\":2169:2187   */\n  dup5\n  add\n    /* \"#utility.yul\":2163:2188   */\n  mload\n    /* \"#utility.yul\":2134:2139   */\n  swap1\n  swap3\n  pop\n    /* \"#utility.yul\":2197:2239   */\n  tag_48\n    /* \"#utility.yul\":2163:2188   */\n  dup2\n    /* \"#utility.yul\":2197:2239   */\n  tag_16\n  jump\t// in\ntag_48:\n    /* \"#utility.yul\":2258:2265   */\n  dup1\n    /* \"#utility.yul\":2248:2265   */\n  swap2\n  pop\n  pop\n    /* \"#utility.yul\":1838:2271   */\n  swap3\n  pop\n  swap3\n  swap1\n  pop\n  jump\t// out\ntag_17:\n    /* \"SafuStaking.sol\":303:8005  contract ERC721Staking is ReentrancyGuard {... */\n  mload(0x80)\n  mload(0xa0)\n  codecopy(0x00, dataOffset(sub_0), dataSize(sub_0))\n  0x00\n  assignImmutable(\"0x8e8fab5f003314da8d1873ea7720e8d9f47650136d916064d1edb8a11d682624\")\n  0x00\n  assignImmutable(\"0x5c4c6aa067b6f8e6cb38e6ab843832a94d1712d661a04d73c517d6a1931a9e5d\")\n  return(0x00, dataSize(sub_0))\nstop\n\nsub_0: assembly {\n        /* \"SafuStaking.sol\":303:8005  contract ERC721Staking is ReentrancyGuard {... */\n      mstore(0x40, 0x80)\n      callvalue\n      dup1\n      iszero\n      tag_1\n      jumpi\n      0x00\n      dup1\n      revert\n    tag_1:\n      pop\n      jumpi(tag_2, lt(calldatasize, 0x04))\n      shr(0xe0, calldataload(0x00))\n      dup1\n      0x9168ae72\n      gt\n      tag_13\n      jumpi\n      dup1\n      0xa694fc3a\n      gt\n      tag_14\n      jumpi\n      dup1\n      0xa694fc3a\n      eq\n      tag_10\n      jumpi\n      dup1\n      0xd1af0c7d\n      eq\n      tag_11\n      jumpi\n      dup1\n      0xf854a27f\n      eq\n      tag_12\n      jumpi\n      0x00\n      dup1\n      revert\n    tag_14:\n      dup1\n      0x9168ae72\n      eq\n      tag_8\n      jumpi\n      dup1\n      0x94067045\n      eq\n      tag_9\n      jumpi\n      0x00\n      dup1\n      revert\n    tag_13:\n      dup1\n      0x51d18598\n      gt\n      tag_15\n      jumpi\n      dup1\n      0x51d18598\n      eq\n      tag_5\n      jumpi\n      dup1\n      0x63c28db1\n      eq\n      tag_6\n      jumpi\n      dup1\n      0x6588103b\n      eq\n      tag_7\n      jumpi\n      0x00\n      dup1\n      revert\n    tag_15:\n      dup1\n      0x2e1a7d4d\n      eq\n      tag_3\n      jumpi\n      dup1\n      0x372500ab\n      eq\n      tag_4\n      jumpi\n    tag_2:\n      0x00\n      dup1\n      revert\n        /* \"SafuStaking.sol\":3557:5386  function withdraw(uint256 _tokenId) external nonReentrant {... */\n    tag_3:\n      tag_16\n      tag_17\n      calldatasize\n      0x04\n      tag_18\n      jump\t// in\n    tag_17:\n      tag_19\n      jump\t// in\n    tag_16:\n      stop\n        /* \"SafuStaking.sol\":5564:5943  function claimRewards() external {... */\n    tag_4:\n      tag_16\n      tag_21\n      jump\t// in\n        /* \"SafuStaking.sol\":6206:6309  function getTotalStakedTokens() public view returns (uint256) {... */\n    tag_5:\n        /* \"SafuStaking.sol\":6285:6302  stakedTokensCount */\n      sload(0x02)\n        /* \"SafuStaking.sol\":6206:6309  function getTotalStakedTokens() public view returns (uint256) {... */\n    tag_22:\n      mload(0x40)\n        /* \"#utility.yul\":345:370   */\n      swap1\n      dup2\n      mstore\n        /* \"#utility.yul\":333:335   */\n      0x20\n        /* \"#utility.yul\":318:336   */\n      add\n        /* \"SafuStaking.sol\":6206:6309  function getTotalStakedTokens() public view returns (uint256) {... */\n    tag_24:\n      mload(0x40)\n      dup1\n      swap2\n      sub\n      swap1\n      return\n        /* \"SafuStaking.sol\":6315:7216  function getStakedTokens(address _user)... */\n    tag_6:\n      tag_26\n      tag_27\n      calldatasize\n      0x04\n      tag_28\n      jump\t// in\n    tag_27:\n      tag_29\n      jump\t// in\n    tag_26:\n      mload(0x40)\n      tag_24\n      swap2\n      swap1\n      tag_31\n      jump\t// in\n        /* \"SafuStaking.sol\":465:503  IERC721 public immutable nftCollection */\n    tag_7:\n      tag_32\n      immutable(\"0x8e8fab5f003314da8d1873ea7720e8d9f47650136d916064d1edb8a11d682624\")\n      dup2\n      jump\n    tag_32:\n      mload(0x40)\n      sub(shl(0xa0, 0x01), 0x01)\n        /* \"#utility.yul\":1818:1873   */\n      swap1\n      swap2\n      and\n        /* \"#utility.yul\":1800:1874   */\n      dup2\n      mstore\n        /* \"#utility.yul\":1788:1790   */\n      0x20\n        /* \"#utility.yul\":1773:1791   */\n      add\n        /* \"SafuStaking.sol\":465:503  IERC721 public immutable nftCollection */\n      tag_24\n        /* \"#utility.yul\":1638:1880   */\n      jump\n        /* \"SafuStaking.sol\":1543:1584  mapping(address => Staker) public stakers */\n    tag_8:\n      tag_36\n      tag_37\n      calldatasize\n      0x04\n      tag_28\n      jump\t// in\n    tag_37:\n      0x03\n      0x20\n      dup2\n      swap1\n      mstore\n      0x00\n      swap2\n      dup3\n      mstore\n      0x40\n      swap1\n      swap2\n      keccak256\n      dup1\n      sload\n      0x02\n      dup3\n      add\n      sload\n      swap2\n      swap1\n      swap3\n      add\n      sload\n      dup4\n      jump\n    tag_36:\n      0x40\n      dup1\n      mload\n        /* \"#utility.yul\":2087:2112   */\n      swap4\n      dup5\n      mstore\n        /* \"#utility.yul\":2143:2145   */\n      0x20\n        /* \"#utility.yul\":2128:2146   */\n      dup5\n      add\n        /* \"#utility.yul\":2121:2155   */\n      swap3\n      swap1\n      swap3\n      mstore\n        /* \"#utility.yul\":2171:2189   */\n      swap1\n      dup3\n      add\n        /* \"#utility.yul\":2164:2198   */\n      mstore\n        /* \"#utility.yul\":2075:2077   */\n      0x60\n        /* \"#utility.yul\":2060:2078   */\n      add\n        /* \"SafuStaking.sol\":1543:1584  mapping(address => Staker) public stakers */\n      tag_24\n        /* \"#utility.yul\":1885:2204   */\n      jump\n        /* \"SafuStaking.sol\":1702:1750  mapping(uint256 => address) public stakerAddress */\n    tag_9:\n      tag_32\n      tag_42\n      calldatasize\n      0x04\n      tag_18\n      jump\t// in\n    tag_42:\n      mstore(0x20, 0x04)\n      0x00\n      swap1\n      dup2\n      mstore\n      0x40\n      swap1\n      keccak256\n      sload\n      sub(shl(0xa0, 0x01), 0x01)\n      and\n      dup2\n      jump\n        /* \"SafuStaking.sol\":2018:3313  function stake(uint256 _tokenId) external nonReentrant {... */\n    tag_10:\n      tag_16\n      tag_47\n      calldatasize\n      0x04\n      tag_18\n      jump\t// in\n    tag_47:\n      tag_48\n      jump\t// in\n        /* \"SafuStaking.sol\":423:459  IERC20 public immutable rewardsToken */\n    tag_11:\n      tag_32\n      immutable(\"0x5c4c6aa067b6f8e6cb38e6ab843832a94d1712d661a04d73c517d6a1931a9e5d\")\n      dup2\n      jump\n        /* \"SafuStaking.sol\":5995:6200  function availableRewards(address _staker) public view returns (uint256) {... */\n    tag_12:\n      tag_22\n      tag_54\n      calldatasize\n      0x04\n      tag_28\n      jump\t// in\n    tag_54:\n      tag_55\n      jump\t// in\n        /* \"SafuStaking.sol\":3557:5386  function withdraw(uint256 _tokenId) external nonReentrant {... */\n    tag_19:\n        /* \"@openzeppelin/contracts/security/ReentrancyGuard.sol\":1744:1745   */\n      0x02\n        /* \"@openzeppelin/contracts/security/ReentrancyGuard.sol\":2325:2332   */\n      sload(0x00)\n        /* \"@openzeppelin/contracts/security/ReentrancyGuard.sol\":2325:2344   */\n      sub\n        /* \"@openzeppelin/contracts/security/ReentrancyGuard.sol\":2317:2380   */\n      tag_58\n      jumpi\n      mload(0x40)\n      shl(0xe5, 0x461bcd)\n      dup2\n      mstore\n        /* \"#utility.yul\":2887:2889   */\n      0x20\n        /* \"@openzeppelin/contracts/security/ReentrancyGuard.sol\":2317:2380   */\n      0x04\n      dup3\n      add\n        /* \"#utility.yul\":2869:2890   */\n      mstore\n        /* \"#utility.yul\":2926:2928   */\n      0x1f\n        /* \"#utility.yul\":2906:2924   */\n      0x24\n      dup3\n      add\n        /* \"#utility.yul\":2899:2929   */\n      mstore\n        /* \"#utility.yul\":2965:2998   */\n      0x5265656e7472616e637947756172643a207265656e7472616e742063616c6c00\n        /* \"#utility.yul\":2945:2963   */\n      0x44\n      dup3\n      add\n        /* \"#utility.yul\":2938:2999   */\n      mstore\n        /* \"#utility.yul\":3016:3034   */\n      0x64\n      add\n        /* \"@openzeppelin/contracts/security/ReentrancyGuard.sol\":2317:2380   */\n    tag_59:\n      mload(0x40)\n      dup1\n      swap2\n      sub\n      swap1\n      revert\n    tag_58:\n        /* \"@openzeppelin/contracts/security/ReentrancyGuard.sol\":1744:1745   */\n      0x02\n        /* \"@openzeppelin/contracts/security/ReentrancyGuard.sol\":2455:2462   */\n      0x00\n        /* \"@openzeppelin/contracts/security/ReentrancyGuard.sol\":2455:2473   */\n      swap1\n      dup2\n      sstore\n        /* \"SafuStaking.sol\":3733:3743  msg.sender */\n      caller\n        /* \"SafuStaking.sol\":3725:3744  stakers[msg.sender] */\n      dup2\n      mstore\n        /* \"SafuStaking.sol\":3725:3732  stakers */\n      0x03\n        /* \"SafuStaking.sol\":3725:3744  stakers[msg.sender] */\n      0x20\n      mstore\n      0x40\n      swap1\n      keccak256\n        /* \"SafuStaking.sol\":3725:3757  stakers[msg.sender].amountStaked */\n      sload\n        /* \"SafuStaking.sol\":3704:3812  require(... */\n      tag_62\n      jumpi\n      mload(0x40)\n      shl(0xe5, 0x461bcd)\n      dup2\n      mstore\n        /* \"#utility.yul\":3247:3249   */\n      0x20\n        /* \"SafuStaking.sol\":3704:3812  require(... */\n      0x04\n      dup3\n      add\n        /* \"#utility.yul\":3229:3250   */\n      mstore\n        /* \"#utility.yul\":3286:3288   */\n      0x19\n        /* \"#utility.yul\":3266:3284   */\n      0x24\n      dup3\n      add\n        /* \"#utility.yul\":3259:3289   */\n      mstore\n        /* \"#utility.yul\":3325:3352   */\n      0x596f752068617665206e6f20746f6b656e73207374616b656400000000000000\n        /* \"#utility.yul\":3305:3323   */\n      0x44\n      dup3\n      add\n        /* \"#utility.yul\":3298:3353   */\n      mstore\n        /* \"#utility.yul\":3370:3388   */\n      0x64\n      add\n        /* \"SafuStaking.sol\":3704:3812  require(... */\n      tag_59\n        /* \"#utility.yul\":3045:3394   */\n      jump\n        /* \"SafuStaking.sol\":3704:3812  require(... */\n    tag_62:\n        /* \"SafuStaking.sol\":3909:3932  stakerAddress[_tokenId] */\n      0x00\n      dup2\n      dup2\n      mstore\n        /* \"SafuStaking.sol\":3909:3922  stakerAddress */\n      0x04\n        /* \"SafuStaking.sol\":3909:3932  stakerAddress[_tokenId] */\n      0x20\n      mstore\n      0x40\n      swap1\n      keccak256\n      sload\n      sub(shl(0xa0, 0x01), 0x01)\n      and\n        /* \"SafuStaking.sol\":3936:3946  msg.sender */\n      caller\n        /* \"SafuStaking.sol\":3909:3946  stakerAddress[_tokenId] == msg.sender */\n      eq\n        /* \"SafuStaking.sol\":3888:3997  require(... */\n      tag_65\n      jumpi\n      mload(0x40)\n      shl(0xe5, 0x461bcd)\n      dup2\n      mstore\n        /* \"#utility.yul\":3601:3603   */\n      0x20\n        /* \"SafuStaking.sol\":3888:3997  require(... */\n      0x04\n      dup3\n      add\n        /* \"#utility.yul\":3583:3604   */\n      mstore\n        /* \"#utility.yul\":3640:3642   */\n      0x19\n        /* \"#utility.yul\":3620:3638   */\n      0x24\n      dup3\n      add\n        /* \"#utility.yul\":3613:3643   */\n      mstore\n        /* \"#utility.yul\":3679:3706   */\n      0x596f7520646f6e2774206f776e207468697320746f6b656e2100000000000000\n        /* \"#utility.yul\":3659:3677   */\n      0x44\n      dup3\n      add\n        /* \"#utility.yul\":3652:3707   */\n      mstore\n        /* \"#utility.yul\":3724:3742   */\n      0x64\n      add\n        /* \"SafuStaking.sol\":3888:3997  require(... */\n      tag_59\n        /* \"#utility.yul\":3399:3748   */\n      jump\n        /* \"SafuStaking.sol\":3888:3997  require(... */\n    tag_65:\n        /* \"SafuStaking.sol\":4106:4121  uint256 rewards */\n      0x00\n        /* \"SafuStaking.sol\":4124:4152  calculateRewards(msg.sender) */\n      tag_68\n        /* \"SafuStaking.sol\":4141:4151  msg.sender */\n      caller\n        /* \"SafuStaking.sol\":4124:4140  calculateRewards */\n      tag_69\n        /* \"SafuStaking.sol\":4124:4152  calculateRewards(msg.sender) */\n      jump\t// in\n    tag_68:\n        /* \"SafuStaking.sol\":4170:4180  msg.sender */\n      caller\n        /* \"SafuStaking.sol\":4162:4181  stakers[msg.sender] */\n      0x00\n      swap1\n      dup2\n      mstore\n        /* \"SafuStaking.sol\":4162:4169  stakers */\n      0x03\n        /* \"SafuStaking.sol\":4162:4181  stakers[msg.sender] */\n      0x20\n      dup2\n      swap1\n      mstore\n      0x40\n      dup3\n      keccak256\n        /* \"SafuStaking.sol\":4162:4198  stakers[msg.sender].unclaimedRewards */\n      add\n        /* \"SafuStaking.sol\":4162:4209  stakers[msg.sender].unclaimedRewards += rewards */\n      dup1\n      sload\n        /* \"SafuStaking.sol\":4106:4152  uint256 rewards = calculateRewards(msg.sender) */\n      swap3\n      swap4\n      pop\n      dup4\n      swap3\n        /* \"SafuStaking.sol\":4162:4198  stakers[msg.sender].unclaimedRewards */\n      swap1\n      swap2\n        /* \"SafuStaking.sol\":4162:4181  stakers[msg.sender] */\n      swap1\n        /* \"SafuStaking.sol\":4162:4209  stakers[msg.sender].unclaimedRewards += rewards */\n      tag_70\n      swap1\n        /* \"SafuStaking.sol\":4106:4152  uint256 rewards = calculateRewards(msg.sender) */\n      dup5\n      swap1\n        /* \"SafuStaking.sol\":4162:4209  stakers[msg.sender].unclaimedRewards += rewards */\n      tag_71\n      jump\t// in\n    tag_70:\n      swap1\n      swap2\n      sstore\n      pop\n        /* \"SafuStaking.sol\":4289:4302  uint256 index */\n      0x00\n      swap1\n      pop\n      dup1\n        /* \"SafuStaking.sol\":4316:4642  for (uint256 i = 0; i < stakers[msg.sender].stakedTokens.length; i++) {... */\n    tag_72:\n        /* \"SafuStaking.sol\":4348:4358  msg.sender */\n      caller\n        /* \"SafuStaking.sol\":4340:4359  stakers[msg.sender] */\n      0x00\n      swap1\n      dup2\n      mstore\n        /* \"SafuStaking.sol\":4340:4347  stakers */\n      0x03\n        /* \"SafuStaking.sol\":4340:4359  stakers[msg.sender] */\n      0x20\n      mstore\n      0x40\n      swap1\n      keccak256\n        /* \"SafuStaking.sol\":4340:4372  stakers[msg.sender].stakedTokens */\n      0x01\n      add\n        /* \"SafuStaking.sol\":4340:4379  stakers[msg.sender].stakedTokens.length */\n      sload\n        /* \"SafuStaking.sol\":4336:4379  i < stakers[msg.sender].stakedTokens.length */\n      dup2\n      lt\n        /* \"SafuStaking.sol\":4316:4642  for (uint256 i = 0; i < stakers[msg.sender].stakedTokens.length; i++) {... */\n      iszero\n      tag_73\n      jumpi\n        /* \"SafuStaking.sol\":4429:4439  msg.sender */\n      caller\n        /* \"SafuStaking.sol\":4421:4440  stakers[msg.sender] */\n      0x00\n      swap1\n      dup2\n      mstore\n        /* \"SafuStaking.sol\":4421:4428  stakers */\n      0x03\n        /* \"SafuStaking.sol\":4421:4440  stakers[msg.sender] */\n      0x20\n      mstore\n      0x40\n      swap1\n      keccak256\n        /* \"SafuStaking.sol\":4421:4453  stakers[msg.sender].stakedTokens */\n      0x01\n      add\n        /* \"SafuStaking.sol\":4421:4456  stakers[msg.sender].stakedTokens[i] */\n      dup1\n      sload\n        /* \"SafuStaking.sol\":4468:4476  _tokenId */\n      dup6\n      swap2\n        /* \"SafuStaking.sol\":4421:4453  stakers[msg.sender].stakedTokens */\n      swap1\n        /* \"SafuStaking.sol\":4454:4455  i */\n      dup4\n      swap1\n        /* \"SafuStaking.sol\":4421:4456  stakers[msg.sender].stakedTokens[i] */\n      dup2\n      lt\n      tag_76\n      jumpi\n      tag_76\n      tag_77\n      jump\t// in\n    tag_76:\n      swap1\n      0x00\n      mstore\n      keccak256(0x00, 0x20)\n      swap1\n      0x02\n      mul\n      add\n        /* \"SafuStaking.sol\":4421:4464  stakers[msg.sender].stakedTokens[i].tokenId */\n      0x01\n      add\n      sload\n        /* \"SafuStaking.sol\":4421:4476  stakers[msg.sender].stakedTokens[i].tokenId == _tokenId */\n      eq\n        /* \"SafuStaking.sol\":4421:4552  stakers[msg.sender].stakedTokens[i].tokenId == _tokenId &&... */\n      dup1\n      iszero\n      tag_79\n      jumpi\n      pop\n        /* \"SafuStaking.sol\":4504:4514  msg.sender */\n      caller\n        /* \"SafuStaking.sol\":4550:4551  0 */\n      0x00\n        /* \"SafuStaking.sol\":4496:4515  stakers[msg.sender] */\n      swap1\n      dup2\n      mstore\n        /* \"SafuStaking.sol\":4496:4503  stakers */\n      0x03\n        /* \"SafuStaking.sol\":4496:4515  stakers[msg.sender] */\n      0x20\n      mstore\n      0x40\n      dup2\n      keccak256\n        /* \"SafuStaking.sol\":4496:4528  stakers[msg.sender].stakedTokens */\n      0x01\n      add\n        /* \"SafuStaking.sol\":4496:4531  stakers[msg.sender].stakedTokens[i] */\n      dup1\n      sload\n        /* \"SafuStaking.sol\":4529:4530  i */\n      dup4\n      swap1\n        /* \"SafuStaking.sol\":4496:4531  stakers[msg.sender].stakedTokens[i] */\n      dup2\n      lt\n      tag_81\n      jumpi\n      tag_81\n      tag_77\n      jump\t// in\n    tag_81:\n      0x00\n      swap2\n      dup3\n      mstore\n      0x20\n      swap1\n      swap2\n      keccak256\n      0x02\n      swap1\n      swap2\n      mul\n      add\n        /* \"SafuStaking.sol\":4496:4538  stakers[msg.sender].stakedTokens[i].staker */\n      sload\n      sub(shl(0xa0, 0x01), 0x01)\n      and\n        /* \"SafuStaking.sol\":4496:4552  stakers[msg.sender].stakedTokens[i].staker != address(0) */\n      eq\n      iszero\n        /* \"SafuStaking.sol\":4421:4552  stakers[msg.sender].stakedTokens[i].tokenId == _tokenId &&... */\n    tag_79:\n        /* \"SafuStaking.sol\":4400:4632  if (... */\n      iszero\n      tag_83\n      jumpi\n        /* \"SafuStaking.sol\":4593:4594  i */\n      dup1\n        /* \"SafuStaking.sol\":4585:4594  index = i */\n      swap2\n      pop\n        /* \"SafuStaking.sol\":4612:4617  break */\n      jump(tag_73)\n        /* \"SafuStaking.sol\":4400:4632  if (... */\n    tag_83:\n        /* \"SafuStaking.sol\":4381:4384  i++ */\n      dup1\n      tag_84\n      dup2\n      tag_85\n      jump\t// in\n    tag_84:\n      swap2\n      pop\n      pop\n        /* \"SafuStaking.sol\":4316:4642  for (uint256 i = 0; i < stakers[msg.sender].stakedTokens.length; i++) {... */\n      jump(tag_72)\n    tag_73:\n      pop\n        /* \"SafuStaking.sol\":4743:4753  msg.sender */\n      caller\n        /* \"SafuStaking.sol\":4792:4793  0 */\n      0x00\n        /* \"SafuStaking.sol\":4735:4754  stakers[msg.sender] */\n      swap1\n      dup2\n      mstore\n        /* \"SafuStaking.sol\":4735:4742  stakers */\n      0x03\n        /* \"SafuStaking.sol\":4735:4754  stakers[msg.sender] */\n      0x20\n      mstore\n      0x40\n      dup2\n      keccak256\n        /* \"SafuStaking.sol\":4735:4767  stakers[msg.sender].stakedTokens */\n      0x01\n      add\n        /* \"SafuStaking.sol\":4735:4774  stakers[msg.sender].stakedTokens[index] */\n      dup1\n      sload\n        /* \"SafuStaking.sol\":4768:4773  index */\n      dup4\n      swap1\n        /* \"SafuStaking.sol\":4735:4774  stakers[msg.sender].stakedTokens[index] */\n      dup2\n      lt\n      tag_87\n      jumpi\n      tag_87\n      tag_77\n      jump\t// in\n    tag_87:\n      0x00\n      swap2\n      dup3\n      mstore\n      0x20\n      dup1\n      dup4\n      keccak256\n      0x02\n      swap3\n      swap1\n      swap3\n      mul\n      swap1\n      swap2\n      add\n        /* \"SafuStaking.sol\":4735:4794  stakers[msg.sender].stakedTokens[index].staker = address(0) */\n      dup1\n      sload\n      not(sub(shl(0xa0, 0x01), 0x01))\n      and\n      sub(shl(0xa0, 0x01), 0x01)\n      swap5\n      swap1\n      swap5\n      and\n      swap4\n      swap1\n      swap4\n      or\n      swap1\n      swap3\n      sstore\n        /* \"SafuStaking.sol\":4868:4878  msg.sender */\n      caller\n        /* \"SafuStaking.sol\":4860:4879  stakers[msg.sender] */\n      dup2\n      mstore\n        /* \"SafuStaking.sol\":4860:4867  stakers */\n      0x03\n        /* \"SafuStaking.sol\":4860:4879  stakers[msg.sender] */\n      swap1\n      swap2\n      mstore\n      0x40\n      dup2\n      keccak256\n        /* \"SafuStaking.sol\":4860:4894  stakers[msg.sender].amountStaked-- */\n      dup1\n      sload\n      swap2\n      tag_89\n      dup4\n      tag_90\n      jump\t// in\n    tag_89:\n      swap1\n      swap2\n      sstore\n      pop\n      pop\n        /* \"SafuStaking.sol\":4950:4967  stakedTokensCount */\n      0x02\n        /* \"SafuStaking.sol\":4950:4969  stakedTokensCount-- */\n      dup1\n      sload\n      swap1\n        /* \"SafuStaking.sol\":4950:4967  stakedTokensCount */\n      0x00\n        /* \"SafuStaking.sol\":4950:4969  stakedTokensCount-- */\n      tag_91\n      dup4\n      tag_90\n      jump\t// in\n    tag_91:\n      swap1\n      swap2\n      sstore\n      pop\n      pop\n        /* \"SafuStaking.sol\":5127:5128  0 */\n      0x00\n        /* \"SafuStaking.sol\":5093:5116  stakerAddress[_tokenId] */\n      dup4\n      dup2\n      mstore\n        /* \"SafuStaking.sol\":5093:5106  stakerAddress */\n      0x04\n        /* \"SafuStaking.sol\":5093:5116  stakerAddress[_tokenId] */\n      0x20\n      dup2\n      swap1\n      mstore\n      0x40\n      swap2\n      dup3\n      swap1\n      keccak256\n        /* \"SafuStaking.sol\":5093:5129  stakerAddress[_tokenId] = address(0) */\n      dup1\n      sload\n      not(sub(shl(0xa0, 0x01), 0x01))\n      and\n      swap1\n      sstore\n        /* \"SafuStaking.sol\":5193:5256  nftCollection.transferFrom(address(this), msg.sender, _tokenId) */\n      swap1\n      mload\n      shl(0xe0, 0x23b872dd)\n      dup2\n      mstore\n        /* \"SafuStaking.sol\":5228:5232  this */\n      address\n        /* \"SafuStaking.sol\":5193:5256  nftCollection.transferFrom(address(this), msg.sender, _tokenId) */\n      swap2\n      dup2\n      add\n        /* \"#utility.yul\":4694:4728   */\n      swap2\n      swap1\n      swap2\n      mstore\n        /* \"SafuStaking.sol\":5235:5245  msg.sender */\n      caller\n        /* \"#utility.yul\":4744:4762   */\n      0x24\n      dup3\n      add\n        /* \"#utility.yul\":4737:4780   */\n      mstore\n        /* \"#utility.yul\":4796:4814   */\n      0x44\n      dup2\n      add\n        /* \"#utility.yul\":4789:4823   */\n      dup5\n      swap1\n      mstore\n      sub(shl(0xa0, 0x01), 0x01)\n        /* \"SafuStaking.sol\":5193:5206  nftCollection */\n      immutable(\"0x8e8fab5f003314da8d1873ea7720e8d9f47650136d916064d1edb8a11d682624\")\n        /* \"SafuStaking.sol\":5193:5219  nftCollection.transferFrom */\n      and\n      swap1\n      0x23b872dd\n      swap1\n        /* \"#utility.yul\":4606:4624   */\n      0x64\n      add\n        /* \"SafuStaking.sol\":5193:5256  nftCollection.transferFrom(address(this), msg.sender, _tokenId) */\n      0x00\n      mload(0x40)\n      dup1\n      dup4\n      sub\n      dup2\n      0x00\n      dup8\n      dup1\n      extcodesize\n      iszero\n      dup1\n      iszero\n      tag_94\n      jumpi\n      0x00\n      dup1\n      revert\n    tag_94:\n      pop\n      gas\n      call\n      iszero\n      dup1\n      iszero\n      tag_96\n      jumpi\n      returndatasize\n      0x00\n      dup1\n      returndatacopy\n      revert(0x00, returndatasize)\n    tag_96:\n      pop\n      pop\n        /* \"SafuStaking.sol\":5333:5343  msg.sender */\n      caller\n        /* \"SafuStaking.sol\":5325:5344  stakers[msg.sender] */\n      0x00\n      swap1\n      dup2\n      mstore\n        /* \"SafuStaking.sol\":5325:5332  stakers */\n      0x03\n        /* \"SafuStaking.sol\":5325:5344  stakers[msg.sender] */\n      0x20\n      mstore\n      0x40\n      dup2\n      keccak256\n        /* \"SafuStaking.sol\":5364:5379  block.timestamp */\n      timestamp\n        /* \"SafuStaking.sol\":5325:5361  stakers[msg.sender].timeOfLastUpdate */\n      0x02\n      swap1\n      swap2\n      add\n        /* \"SafuStaking.sol\":5325:5379  stakers[msg.sender].timeOfLastUpdate = block.timestamp */\n      sstore\n        /* \"@openzeppelin/contracts/security/ReentrancyGuard.sol\":1701:1702   */\n      0x01\n        /* \"@openzeppelin/contracts/security/ReentrancyGuard.sol\":2628:2650   */\n      swap1\n      sstore\n      pop\n      pop\n      pop\n      pop\n      pop\n        /* \"SafuStaking.sol\":3557:5386  function withdraw(uint256 _tokenId) external nonReentrant {... */\n      jump\t// out\n        /* \"SafuStaking.sol\":5564:5943  function claimRewards() external {... */\n    tag_21:\n        /* \"SafuStaking.sol\":5676:5686  msg.sender */\n      caller\n        /* \"SafuStaking.sol\":5607:5622  uint256 rewards */\n      0x00\n        /* \"SafuStaking.sol\":5668:5687  stakers[msg.sender] */\n      dup2\n      dup2\n      mstore\n        /* \"SafuStaking.sol\":5668:5675  stakers */\n      0x03\n        /* \"SafuStaking.sol\":5668:5687  stakers[msg.sender] */\n      0x20\n      dup2\n      swap1\n      mstore\n      0x40\n      dup3\n      keccak256\n        /* \"SafuStaking.sol\":5668:5704  stakers[msg.sender].unclaimedRewards */\n      add\n      sload\n        /* \"SafuStaking.sol\":5607:5622  uint256 rewards */\n      swap1\n      swap2\n        /* \"SafuStaking.sol\":5625:5653  calculateRewards(msg.sender) */\n      tag_98\n      swap1\n        /* \"SafuStaking.sol\":5625:5641  calculateRewards */\n      tag_69\n        /* \"SafuStaking.sol\":5625:5653  calculateRewards(msg.sender) */\n      jump\t// in\n    tag_98:\n        /* \"SafuStaking.sol\":5625:5704  calculateRewards(msg.sender) +... */\n      tag_99\n      swap2\n      swap1\n      tag_71\n      jump\t// in\n    tag_99:\n        /* \"SafuStaking.sol\":5607:5704  uint256 rewards = calculateRewards(msg.sender) +... */\n      swap1\n      pop\n        /* \"SafuStaking.sol\":5732:5733  0 */\n      0x00\n        /* \"SafuStaking.sol\":5722:5729  rewards */\n      dup2\n        /* \"SafuStaking.sol\":5722:5733  rewards > 0 */\n      gt\n        /* \"SafuStaking.sol\":5714:5766  require(rewards > 0, \"You have no rewards to claim\") */\n      tag_100\n      jumpi\n      mload(0x40)\n      shl(0xe5, 0x461bcd)\n      dup2\n      mstore\n        /* \"#utility.yul\":5036:5038   */\n      0x20\n        /* \"SafuStaking.sol\":5714:5766  require(rewards > 0, \"You have no rewards to claim\") */\n      0x04\n      dup3\n      add\n        /* \"#utility.yul\":5018:5039   */\n      mstore\n        /* \"#utility.yul\":5075:5077   */\n      0x1c\n        /* \"#utility.yul\":5055:5073   */\n      0x24\n      dup3\n      add\n        /* \"#utility.yul\":5048:5078   */\n      mstore\n        /* \"#utility.yul\":5114:5144   */\n      0x596f752068617665206e6f207265776172647320746f20636c61696d00000000\n        /* \"#utility.yul\":5094:5112   */\n      0x44\n      dup3\n      add\n        /* \"#utility.yul\":5087:5145   */\n      mstore\n        /* \"#utility.yul\":5162:5180   */\n      0x64\n      add\n        /* \"SafuStaking.sol\":5714:5766  require(rewards > 0, \"You have no rewards to claim\") */\n      tag_59\n        /* \"#utility.yul\":4834:5186   */\n      jump\n        /* \"SafuStaking.sol\":5714:5766  require(rewards > 0, \"You have no rewards to claim\") */\n    tag_100:\n        /* \"SafuStaking.sol\":5784:5794  msg.sender */\n      caller\n        /* \"SafuStaking.sol\":5776:5795  stakers[msg.sender] */\n      0x00\n      dup2\n      dup2\n      mstore\n        /* \"SafuStaking.sol\":5776:5783  stakers */\n      0x03\n        /* \"SafuStaking.sol\":5776:5795  stakers[msg.sender] */\n      0x20\n      dup2\n      swap1\n      mstore\n      0x40\n      dup3\n      keccak256\n        /* \"SafuStaking.sol\":5815:5830  block.timestamp */\n      timestamp\n        /* \"SafuStaking.sol\":5776:5812  stakers[msg.sender].timeOfLastUpdate */\n      0x02\n      dup3\n      add\n        /* \"SafuStaking.sol\":5776:5830  stakers[msg.sender].timeOfLastUpdate = block.timestamp */\n      sstore\n        /* \"SafuStaking.sol\":5840:5876  stakers[msg.sender].unclaimedRewards */\n      add\n        /* \"SafuStaking.sol\":5840:5880  stakers[msg.sender].unclaimedRewards = 0 */\n      sstore\n        /* \"SafuStaking.sol\":5890:5936  rewardsToken.safeTransfer(msg.sender, rewards) */\n      tag_103\n      swap1\n        /* \"SafuStaking.sol\":5890:5902  rewardsToken */\n      immutable(\"0x5c4c6aa067b6f8e6cb38e6ab843832a94d1712d661a04d73c517d6a1931a9e5d\")\n      sub(shl(0xa0, 0x01), 0x01)\n        /* \"SafuStaking.sol\":5890:5915  rewardsToken.safeTransfer */\n      and\n      swap1\n        /* \"SafuStaking.sol\":5928:5935  rewards */\n      dup4\n        /* \"SafuStaking.sol\":5890:5915  rewardsToken.safeTransfer */\n      tag_104\n        /* \"SafuStaking.sol\":5890:5936  rewardsToken.safeTransfer(msg.sender, rewards) */\n      jump\t// in\n    tag_103:\n        /* \"SafuStaking.sol\":5597:5943  {... */\n      pop\n        /* \"SafuStaking.sol\":5564:5943  function claimRewards() external {... */\n      jump\t// out\n        /* \"SafuStaking.sol\":6315:7216  function getStakedTokens(address _user)... */\n    tag_29:\n      sub(shl(0xa0, 0x01), 0x01)\n        /* \"SafuStaking.sol\":6478:6492  stakers[_user] */\n      dup2\n      and\n        /* \"SafuStaking.sol\":6508:6509  0 */\n      0x00\n        /* \"SafuStaking.sol\":6478:6492  stakers[_user] */\n      swap1\n      dup2\n      mstore\n        /* \"SafuStaking.sol\":6478:6485  stakers */\n      0x03\n        /* \"SafuStaking.sol\":6478:6492  stakers[_user] */\n      0x20\n      mstore\n      0x40\n      swap1\n      keccak256\n        /* \"SafuStaking.sol\":6478:6505  stakers[_user].amountStaked */\n      sload\n        /* \"SafuStaking.sol\":6400:6420  StakedToken[] memory */\n      0x60\n      swap1\n        /* \"SafuStaking.sol\":6478:6509  stakers[_user].amountStaked > 0 */\n      iszero\n        /* \"SafuStaking.sol\":6474:7210  if (stakers[_user].amountStaked > 0) {... */\n      tag_107\n      jumpi\n      sub(shl(0xa0, 0x01), 0x01)\n        /* \"SafuStaking.sol\":6689:6703  stakers[_user] */\n      dup3\n      and\n        /* \"SafuStaking.sol\":6617:6651  StakedToken[] memory _stakedTokens */\n      0x00\n        /* \"SafuStaking.sol\":6689:6703  stakers[_user] */\n      swap1\n      dup2\n      mstore\n        /* \"SafuStaking.sol\":6689:6696  stakers */\n      0x03\n        /* \"SafuStaking.sol\":6689:6703  stakers[_user] */\n      0x20\n      mstore\n      0x40\n      dup2\n      keccak256\n        /* \"SafuStaking.sol\":6689:6716  stakers[_user].amountStaked */\n      sload\n        /* \"SafuStaking.sol\":6654:6730  new StakedToken[](... */\n      0xffffffffffffffff\n      dup2\n      gt\n      iszero\n      tag_109\n      jumpi\n      tag_109\n      tag_110\n      jump\t// in\n    tag_109:\n      mload(0x40)\n      swap1\n      dup1\n      dup3\n      mstore\n      dup1\n      0x20\n      mul\n      0x20\n      add\n      dup3\n      add\n      0x40\n      mstore\n      dup1\n      iszero\n      tag_111\n      jumpi\n      dup2\n      0x20\n      add\n    tag_112:\n      0x40\n      dup1\n      mload\n      dup1\n      dup3\n      add\n      swap1\n      swap2\n      mstore\n      0x00\n      dup1\n      dup3\n      mstore\n      0x20\n      dup3\n      add\n      mstore\n      dup2\n      mstore\n      0x20\n      add\n      swap1\n      0x01\n      swap1\n      sub\n      swap1\n      dup2\n      tag_112\n      jumpi\n      swap1\n      pop\n    tag_111:\n      pop\n        /* \"SafuStaking.sol\":6617:6730  StakedToken[] memory _stakedTokens = new StakedToken[](... */\n      swap1\n      pop\n        /* \"SafuStaking.sol\":6744:6758  uint256 _index */\n      0x00\n        /* \"SafuStaking.sol\":6782:6791  uint256 j */\n      dup1\n        /* \"SafuStaking.sol\":6777:7058  for (uint256 j = 0; j < stakers[_user].stakedTokens.length; j++) {... */\n    tag_115:\n      sub(shl(0xa0, 0x01), 0x01)\n        /* \"SafuStaking.sol\":6801:6815  stakers[_user] */\n      dup6\n      and\n      0x00\n      swap1\n      dup2\n      mstore\n        /* \"SafuStaking.sol\":6801:6808  stakers */\n      0x03\n        /* \"SafuStaking.sol\":6801:6815  stakers[_user] */\n      0x20\n      mstore\n      0x40\n      swap1\n      keccak256\n        /* \"SafuStaking.sol\":6801:6828  stakers[_user].stakedTokens */\n      0x01\n      add\n        /* \"SafuStaking.sol\":6801:6835  stakers[_user].stakedTokens.length */\n      sload\n        /* \"SafuStaking.sol\":6797:6835  j < stakers[_user].stakedTokens.length */\n      dup2\n      lt\n        /* \"SafuStaking.sol\":6777:7058  for (uint256 j = 0; j < stakers[_user].stakedTokens.length; j++) {... */\n      iszero\n      tag_116\n      jumpi\n      sub(shl(0xa0, 0x01), 0x01)\n        /* \"SafuStaking.sol\":6864:6878  stakers[_user] */\n      dup6\n      and\n        /* \"SafuStaking.sol\":6914:6915  0 */\n      0x00\n        /* \"SafuStaking.sol\":6864:6878  stakers[_user] */\n      swap1\n      dup2\n      mstore\n        /* \"SafuStaking.sol\":6864:6871  stakers */\n      0x03\n        /* \"SafuStaking.sol\":6864:6878  stakers[_user] */\n      0x20\n      mstore\n      0x40\n      dup2\n      keccak256\n        /* \"SafuStaking.sol\":6864:6891  stakers[_user].stakedTokens */\n      0x01\n      add\n        /* \"SafuStaking.sol\":6864:6894  stakers[_user].stakedTokens[j] */\n      dup1\n      sload\n        /* \"SafuStaking.sol\":6892:6893  j */\n      dup4\n      swap1\n        /* \"SafuStaking.sol\":6864:6894  stakers[_user].stakedTokens[j] */\n      dup2\n      lt\n      tag_119\n      jumpi\n      tag_119\n      tag_77\n      jump\t// in\n    tag_119:\n      0x00\n      swap2\n      dup3\n      mstore\n      0x20\n      swap1\n      swap2\n      keccak256\n      0x02\n      swap1\n      swap2\n      mul\n      add\n        /* \"SafuStaking.sol\":6864:6901  stakers[_user].stakedTokens[j].staker */\n      sload\n      sub(shl(0xa0, 0x01), 0x01)\n      and\n        /* \"SafuStaking.sol\":6864:6917  stakers[_user].stakedTokens[j].staker != (address(0)) */\n      eq\n        /* \"SafuStaking.sol\":6860:7044  if (stakers[_user].stakedTokens[j].staker != (address(0))) {... */\n      tag_121\n      jumpi\n      sub(shl(0xa0, 0x01), 0x01)\n        /* \"SafuStaking.sol\":6965:6979  stakers[_user] */\n      dup6\n      and\n      0x00\n      swap1\n      dup2\n      mstore\n        /* \"SafuStaking.sol\":6965:6972  stakers */\n      0x03\n        /* \"SafuStaking.sol\":6965:6979  stakers[_user] */\n      0x20\n      mstore\n      0x40\n      swap1\n      keccak256\n        /* \"SafuStaking.sol\":6965:6992  stakers[_user].stakedTokens */\n      0x01\n      add\n        /* \"SafuStaking.sol\":6965:6995  stakers[_user].stakedTokens[j] */\n      dup1\n      sload\n        /* \"SafuStaking.sol\":6993:6994  j */\n      dup3\n      swap1\n        /* \"SafuStaking.sol\":6965:6995  stakers[_user].stakedTokens[j] */\n      dup2\n      lt\n      tag_123\n      jumpi\n      tag_123\n      tag_77\n      jump\t// in\n    tag_123:\n      0x00\n      swap2\n      dup3\n      mstore\n      0x20\n      swap2\n      dup3\n      swap1\n      keccak256\n        /* \"SafuStaking.sol\":6941:6995  _stakedTokens[_index] = stakers[_user].stakedTokens[j] */\n      0x40\n      dup1\n      mload\n      dup1\n      dup3\n      add\n      swap1\n      swap2\n      mstore\n        /* \"SafuStaking.sol\":6965:6995  stakers[_user].stakedTokens[j] */\n      0x02\n      swap1\n      swap3\n      mul\n      add\n        /* \"SafuStaking.sol\":6941:6995  _stakedTokens[_index] = stakers[_user].stakedTokens[j] */\n      dup1\n      sload\n      sub(shl(0xa0, 0x01), 0x01)\n      and\n      dup3\n      mstore\n      0x01\n      add\n      sload\n      swap2\n      dup2\n      add\n      swap2\n      swap1\n      swap2\n      mstore\n        /* \"SafuStaking.sol\":6941:6962  _stakedTokens[_index] */\n      dup4\n      mload\n        /* \"SafuStaking.sol\":6941:6954  _stakedTokens */\n      dup5\n      swap1\n        /* \"SafuStaking.sol\":6955:6961  _index */\n      dup5\n      swap1\n        /* \"SafuStaking.sol\":6941:6962  _stakedTokens[_index] */\n      dup2\n      lt\n      tag_126\n      jumpi\n      tag_126\n      tag_77\n      jump\t// in\n    tag_126:\n      0x20\n      mul\n      0x20\n      add\n      add\n        /* \"SafuStaking.sol\":6941:6995  _stakedTokens[_index] = stakers[_user].stakedTokens[j] */\n      dup2\n      swap1\n      mstore\n      pop\n        /* \"SafuStaking.sol\":7017:7025  _index++ */\n      dup2\n      dup1\n      tag_127\n      swap1\n      tag_85\n      jump\t// in\n    tag_127:\n      swap3\n      pop\n      pop\n        /* \"SafuStaking.sol\":6860:7044  if (stakers[_user].stakedTokens[j].staker != (address(0))) {... */\n    tag_121:\n        /* \"SafuStaking.sol\":6837:6840  j++ */\n      dup1\n      tag_128\n      dup2\n      tag_85\n      jump\t// in\n    tag_128:\n      swap2\n      pop\n      pop\n        /* \"SafuStaking.sol\":6777:7058  for (uint256 j = 0; j < stakers[_user].stakedTokens.length; j++) {... */\n      jump(tag_115)\n    tag_116:\n      pop\n        /* \"SafuStaking.sol\":7079:7092  _stakedTokens */\n      swap1\n      swap4\n        /* \"SafuStaking.sol\":6315:7216  function getStakedTokens(address _user)... */\n      swap3\n      pop\n      pop\n      pop\n      jump\t// out\n        /* \"SafuStaking.sol\":6474:7210  if (stakers[_user].amountStaked > 0) {... */\n    tag_107:\n        /* \"SafuStaking.sol\":7179:7199  new StakedToken[](0) */\n      0x40\n      dup1\n      mload\n        /* \"SafuStaking.sol\":7197:7198  0 */\n      0x00\n        /* \"SafuStaking.sol\":7179:7199  new StakedToken[](0) */\n      dup1\n      dup3\n      mstore\n      0x20\n      dup3\n      add\n      swap1\n      swap3\n      mstore\n      swap1\n      jump(tag_132)\n    tag_133:\n      0x40\n      dup1\n      mload\n      dup1\n      dup3\n      add\n      swap1\n      swap2\n      mstore\n      0x00\n      dup1\n      dup3\n      mstore\n      0x20\n      dup3\n      add\n      mstore\n      dup2\n      mstore\n      0x20\n      add\n      swap1\n      0x01\n      swap1\n      sub\n      swap1\n      dup2\n      tag_133\n      jumpi\n      swap1\n      pop\n    tag_132:\n      pop\n        /* \"SafuStaking.sol\":7172:7199  return new StakedToken[](0) */\n      swap3\n        /* \"SafuStaking.sol\":6315:7216  function getStakedTokens(address _user)... */\n      swap2\n      pop\n      pop\n      jump\t// out\n        /* \"SafuStaking.sol\":2018:3313  function stake(uint256 _tokenId) external nonReentrant {... */\n    tag_48:\n        /* \"@openzeppelin/contracts/security/ReentrancyGuard.sol\":1744:1745   */\n      0x02\n        /* \"@openzeppelin/contracts/security/ReentrancyGuard.sol\":2325:2332   */\n      sload(0x00)\n        /* \"@openzeppelin/contracts/security/ReentrancyGuard.sol\":2325:2344   */\n      sub\n        /* \"@openzeppelin/contracts/security/ReentrancyGuard.sol\":2317:2380   */\n      tag_136\n      jumpi\n      mload(0x40)\n      shl(0xe5, 0x461bcd)\n      dup2\n      mstore\n        /* \"#utility.yul\":2887:2889   */\n      0x20\n        /* \"@openzeppelin/contracts/security/ReentrancyGuard.sol\":2317:2380   */\n      0x04\n      dup3\n      add\n        /* \"#utility.yul\":2869:2890   */\n      mstore\n        /* \"#utility.yul\":2926:2928   */\n      0x1f\n        /* \"#utility.yul\":2906:2924   */\n      0x24\n      dup3\n      add\n        /* \"#utility.yul\":2899:2929   */\n      mstore\n        /* \"#utility.yul\":2965:2998   */\n      0x5265656e7472616e637947756172643a207265656e7472616e742063616c6c00\n        /* \"#utility.yul\":2945:2963   */\n      0x44\n      dup3\n      add\n        /* \"#utility.yul\":2938:2999   */\n      mstore\n        /* \"#utility.yul\":3016:3034   */\n      0x64\n      add\n        /* \"@openzeppelin/contracts/security/ReentrancyGuard.sol\":2317:2380   */\n      tag_59\n        /* \"#utility.yul\":2685:3040   */\n      jump\n        /* \"@openzeppelin/contracts/security/ReentrancyGuard.sol\":2317:2380   */\n    tag_136:\n        /* \"@openzeppelin/contracts/security/ReentrancyGuard.sol\":1744:1745   */\n      0x02\n        /* \"@openzeppelin/contracts/security/ReentrancyGuard.sol\":2455:2462   */\n      0x00\n        /* \"@openzeppelin/contracts/security/ReentrancyGuard.sol\":2455:2473   */\n      swap1\n      dup2\n      sstore\n        /* \"SafuStaking.sol\":2185:2195  msg.sender */\n      caller\n        /* \"SafuStaking.sol\":2177:2196  stakers[msg.sender] */\n      dup2\n      mstore\n        /* \"SafuStaking.sol\":2177:2184  stakers */\n      0x03\n        /* \"SafuStaking.sol\":2177:2196  stakers[msg.sender] */\n      0x20\n      mstore\n      0x40\n      swap1\n      keccak256\n        /* \"SafuStaking.sol\":2177:2209  stakers[msg.sender].amountStaked */\n      sload\n        /* \"SafuStaking.sol\":2177:2213  stakers[msg.sender].amountStaked > 0 */\n      iszero\n        /* \"SafuStaking.sol\":2173:2347  if (stakers[msg.sender].amountStaked > 0) {... */\n      tag_139\n      jumpi\n        /* \"SafuStaking.sol\":2229:2244  uint256 rewards */\n      0x00\n        /* \"SafuStaking.sol\":2247:2275  calculateRewards(msg.sender) */\n      tag_140\n        /* \"SafuStaking.sol\":2264:2274  msg.sender */\n      caller\n        /* \"SafuStaking.sol\":2247:2263  calculateRewards */\n      tag_69\n        /* \"SafuStaking.sol\":2247:2275  calculateRewards(msg.sender) */\n      jump\t// in\n    tag_140:\n        /* \"SafuStaking.sol\":2297:2307  msg.sender */\n      caller\n        /* \"SafuStaking.sol\":2289:2308  stakers[msg.sender] */\n      0x00\n      swap1\n      dup2\n      mstore\n        /* \"SafuStaking.sol\":2289:2296  stakers */\n      0x03\n        /* \"SafuStaking.sol\":2289:2308  stakers[msg.sender] */\n      0x20\n      dup2\n      swap1\n      mstore\n      0x40\n      dup3\n      keccak256\n        /* \"SafuStaking.sol\":2289:2325  stakers[msg.sender].unclaimedRewards */\n      add\n        /* \"SafuStaking.sol\":2289:2336  stakers[msg.sender].unclaimedRewards += rewards */\n      dup1\n      sload\n        /* \"SafuStaking.sol\":2229:2275  uint256 rewards = calculateRewards(msg.sender) */\n      swap3\n      swap4\n      pop\n      dup4\n      swap3\n        /* \"SafuStaking.sol\":2289:2325  stakers[msg.sender].unclaimedRewards */\n      swap1\n      swap2\n        /* \"SafuStaking.sol\":2289:2308  stakers[msg.sender] */\n      swap1\n        /* \"SafuStaking.sol\":2289:2336  stakers[msg.sender].unclaimedRewards += rewards */\n      tag_141\n      swap1\n        /* \"SafuStaking.sol\":2229:2275  uint256 rewards = calculateRewards(msg.sender) */\n      dup5\n      swap1\n        /* \"SafuStaking.sol\":2289:2336  stakers[msg.sender].unclaimedRewards += rewards */\n      tag_71\n      jump\t// in\n    tag_141:\n      swap1\n      swap2\n      sstore\n      pop\n      pop\n      pop\n        /* \"SafuStaking.sol\":2173:2347  if (stakers[msg.sender].amountStaked > 0) {... */\n    tag_139:\n        /* \"SafuStaking.sol\":2440:2471  nftCollection.ownerOf(_tokenId) */\n      mload(0x40)\n      shl(0xe1, 0x31a9108f)\n      dup2\n      mstore\n      0x04\n      dup2\n      add\n        /* \"#utility.yul\":345:370   */\n      dup3\n      swap1\n      mstore\n        /* \"SafuStaking.sol\":2475:2485  msg.sender */\n      caller\n      swap1\n      sub(shl(0xa0, 0x01), 0x01)\n        /* \"SafuStaking.sol\":2440:2453  nftCollection */\n      immutable(\"0x8e8fab5f003314da8d1873ea7720e8d9f47650136d916064d1edb8a11d682624\")\n        /* \"SafuStaking.sol\":2440:2461  nftCollection.ownerOf */\n      and\n      swap1\n      0x6352211e\n      swap1\n        /* \"#utility.yul\":318:336   */\n      0x24\n      add\n        /* \"SafuStaking.sol\":2440:2471  nftCollection.ownerOf(_tokenId) */\n      0x20\n      mload(0x40)\n      dup1\n      dup4\n      sub\n      dup2\n      dup7\n      gas\n      staticcall\n      iszero\n      dup1\n      iszero\n      tag_144\n      jumpi\n      returndatasize\n      0x00\n      dup1\n      returndatacopy\n      revert(0x00, returndatasize)\n    tag_144:\n      pop\n      pop\n      pop\n      pop\n      mload(0x40)\n      returndatasize\n      not(0x1f)\n      0x1f\n      dup3\n      add\n      and\n      dup3\n      add\n      dup1\n      0x40\n      mstore\n      pop\n      dup2\n      add\n      swap1\n      tag_145\n      swap2\n      swap1\n      tag_146\n      jump\t// in\n    tag_145:\n      sub(shl(0xa0, 0x01), 0x01)\n        /* \"SafuStaking.sol\":2440:2485  nftCollection.ownerOf(_tokenId) == msg.sender */\n      and\n      eq\n        /* \"SafuStaking.sol\":2419:2536  require(... */\n      tag_147\n      jumpi\n      mload(0x40)\n      shl(0xe5, 0x461bcd)\n      dup2\n      mstore\n        /* \"#utility.yul\":3601:3603   */\n      0x20\n        /* \"SafuStaking.sol\":2419:2536  require(... */\n      0x04\n      dup3\n      add\n        /* \"#utility.yul\":3583:3604   */\n      mstore\n        /* \"#utility.yul\":3640:3642   */\n      0x19\n        /* \"#utility.yul\":3620:3638   */\n      0x24\n      dup3\n      add\n        /* \"#utility.yul\":3613:3643   */\n      mstore\n        /* \"#utility.yul\":3679:3706   */\n      0x596f7520646f6e2774206f776e207468697320746f6b656e2100000000000000\n        /* \"#utility.yul\":3659:3677   */\n      0x44\n      dup3\n      add\n        /* \"#utility.yul\":3652:3707   */\n      mstore\n        /* \"#utility.yul\":3724:3742   */\n      0x64\n      add\n        /* \"SafuStaking.sol\":2419:2536  require(... */\n      tag_59\n        /* \"#utility.yul\":3399:3748   */\n      jump\n        /* \"SafuStaking.sol\":2419:2536  require(... */\n    tag_147:\n        /* \"SafuStaking.sol\":2615:2678  nftCollection.transferFrom(msg.sender, address(this), _tokenId) */\n      mload(0x40)\n      shl(0xe0, 0x23b872dd)\n      dup2\n      mstore\n        /* \"SafuStaking.sol\":2642:2652  msg.sender */\n      caller\n        /* \"SafuStaking.sol\":2615:2678  nftCollection.transferFrom(msg.sender, address(this), _tokenId) */\n      0x04\n      dup3\n      add\n        /* \"#utility.yul\":4694:4728   */\n      mstore\n        /* \"SafuStaking.sol\":2662:2666  this */\n      address\n        /* \"#utility.yul\":4744:4762   */\n      0x24\n      dup3\n      add\n        /* \"#utility.yul\":4737:4780   */\n      mstore\n        /* \"#utility.yul\":4796:4814   */\n      0x44\n      dup2\n      add\n        /* \"#utility.yul\":4789:4823   */\n      dup3\n      swap1\n      mstore\n        /* \"SafuStaking.sol\":2615:2628  nftCollection */\n      immutable(\"0x8e8fab5f003314da8d1873ea7720e8d9f47650136d916064d1edb8a11d682624\")\n      sub(shl(0xa0, 0x01), 0x01)\n        /* \"SafuStaking.sol\":2615:2641  nftCollection.transferFrom */\n      and\n      swap1\n      0x23b872dd\n      swap1\n        /* \"#utility.yul\":4606:4624   */\n      0x64\n      add\n        /* \"SafuStaking.sol\":2615:2678  nftCollection.transferFrom(msg.sender, address(this), _tokenId) */\n      0x00\n      mload(0x40)\n      dup1\n      dup4\n      sub\n      dup2\n      0x00\n      dup8\n      dup1\n      extcodesize\n      iszero\n      dup1\n      iszero\n      tag_150\n      jumpi\n      0x00\n      dup1\n      revert\n    tag_150:\n      pop\n      gas\n      call\n      iszero\n      dup1\n      iszero\n      tag_152\n      jumpi\n      returndatasize\n      0x00\n      dup1\n      returndatacopy\n      revert(0x00, returndatasize)\n    tag_152:\n      pop\n      pop\n        /* \"SafuStaking.sol\":2752:2785  StakedToken(msg.sender, _tokenId) */\n      0x40\n      dup1\n      mload\n      dup1\n      dup3\n      add\n      dup3\n      mstore\n        /* \"SafuStaking.sol\":2764:2774  msg.sender */\n      caller\n        /* \"SafuStaking.sol\":2752:2785  StakedToken(msg.sender, _tokenId) */\n      dup1\n      dup3\n      mstore\n      0x20\n      dup1\n      dup4\n      add\n      dup8\n      dup2\n      mstore\n      0x00\n        /* \"SafuStaking.sol\":2847:2866  stakers[msg.sender] */\n      dup4\n      dup2\n      mstore\n        /* \"SafuStaking.sol\":2847:2854  stakers */\n      0x03\n        /* \"SafuStaking.sol\":2847:2866  stakers[msg.sender] */\n      dup4\n      mstore\n      swap5\n      dup6\n      keccak256\n        /* \"SafuStaking.sol\":2847:2879  stakers[msg.sender].stakedTokens */\n      0x01\n      dup1\n      dup3\n      add\n        /* \"SafuStaking.sol\":2847:2897  stakers[msg.sender].stakedTokens.push(stakedToken) */\n      dup1\n      sload\n      dup1\n      dup4\n      add\n      dup3\n      sstore\n      swap1\n      dup9\n      mstore\n      swap4\n      dup8\n      keccak256\n      dup7\n      mload\n      0x02\n      swap1\n      swap6\n      mul\n      add\n      dup1\n      sload\n      not(sub(shl(0xa0, 0x01), 0x01))\n      and\n      sub(shl(0xa0, 0x01), 0x01)\n      swap1\n      swap6\n      and\n      swap5\n      swap1\n      swap5\n      or\n      dup5\n      sstore\n      swap2\n      mload\n      swap3\n      swap1\n      swap2\n      add\n      swap2\n      swap1\n      swap2\n      sstore\n        /* \"SafuStaking.sol\":2963:2982  stakers[msg.sender] */\n      swap1\n      dup4\n      mstore\n        /* \"SafuStaking.sol\":2963:2997  stakers[msg.sender].amountStaked++ */\n      dup1\n      sload\n        /* \"SafuStaking.sol\":2752:2785  StakedToken(msg.sender, _tokenId) */\n      swap2\n      swap5\n      pop\n        /* \"SafuStaking.sol\":2963:2997  stakers[msg.sender].amountStaked++ */\n      swap1\n      swap3\n      pop\n        /* \"SafuStaking.sol\":2847:2866  stakers[msg.sender] */\n      swap1\n        /* \"SafuStaking.sol\":2963:2997  stakers[msg.sender].amountStaked++ */\n      tag_154\n      dup4\n      tag_85\n      jump\t// in\n    tag_154:\n      swap1\n      swap2\n      sstore\n      pop\n      pop\n        /* \"SafuStaking.sol\":3052:3069  stakedTokensCount */\n      0x02\n        /* \"SafuStaking.sol\":3052:3071  stakedTokensCount++ */\n      dup1\n      sload\n      swap1\n        /* \"SafuStaking.sol\":3052:3069  stakedTokensCount */\n      0x00\n        /* \"SafuStaking.sol\":3052:3071  stakedTokensCount++ */\n      tag_155\n      dup4\n      tag_85\n      jump\t// in\n    tag_155:\n      swap1\n      swap2\n      sstore\n      pop\n      pop\n      pop\n        /* \"SafuStaking.sol\":3151:3174  stakerAddress[_tokenId] */\n      0x00\n      swap1\n      dup2\n      mstore\n        /* \"SafuStaking.sol\":3151:3164  stakerAddress */\n      0x04\n        /* \"SafuStaking.sol\":3151:3174  stakerAddress[_tokenId] */\n      0x20\n      swap1\n      dup2\n      mstore\n      0x40\n      dup1\n      dup4\n      keccak256\n        /* \"SafuStaking.sol\":3151:3187  stakerAddress[_tokenId] = msg.sender */\n      dup1\n      sload\n      not(sub(shl(0xa0, 0x01), 0x01))\n      and\n        /* \"SafuStaking.sol\":3177:3187  msg.sender */\n      caller\n        /* \"SafuStaking.sol\":3151:3187  stakerAddress[_tokenId] = msg.sender */\n      swap1\n      dup2\n      or\n      swap1\n      swap2\n      sstore\n        /* \"SafuStaking.sol\":3252:3271  stakers[msg.sender] */\n      dup4\n      mstore\n        /* \"SafuStaking.sol\":3252:3259  stakers */\n      0x03\n        /* \"SafuStaking.sol\":3252:3271  stakers[msg.sender] */\n      swap1\n      swap2\n      mstore\n      dup2\n      keccak256\n        /* \"SafuStaking.sol\":3291:3306  block.timestamp */\n      timestamp\n        /* \"SafuStaking.sol\":3252:3288  stakers[msg.sender].timeOfLastUpdate */\n      0x02\n      swap1\n      swap2\n      add\n        /* \"SafuStaking.sol\":3252:3306  stakers[msg.sender].timeOfLastUpdate = block.timestamp */\n      sstore\n        /* \"SafuStaking.sol\":3151:3187  stakerAddress[_tokenId] = msg.sender */\n      0x01\n        /* \"@openzeppelin/contracts/security/ReentrancyGuard.sol\":2628:2650   */\n      swap1\n      sstore\n        /* \"SafuStaking.sol\":2018:3313  function stake(uint256 _tokenId) external nonReentrant {... */\n      jump\t// out\n        /* \"SafuStaking.sol\":5995:6200  function availableRewards(address _staker) public view returns (uint256) {... */\n    tag_55:\n      sub(shl(0xa0, 0x01), 0x01)\n        /* \"SafuStaking.sol\":6136:6152  stakers[_staker] */\n      dup2\n      and\n        /* \"SafuStaking.sol\":6059:6066  uint256 */\n      0x00\n        /* \"SafuStaking.sol\":6136:6152  stakers[_staker] */\n      swap1\n      dup2\n      mstore\n        /* \"SafuStaking.sol\":6136:6143  stakers */\n      0x03\n        /* \"SafuStaking.sol\":6136:6152  stakers[_staker] */\n      0x20\n      dup2\n      swap1\n      mstore\n      0x40\n      dup3\n      keccak256\n        /* \"SafuStaking.sol\":6136:6169  stakers[_staker].unclaimedRewards */\n      add\n      sload\n        /* \"SafuStaking.sol\":6059:6066  uint256 */\n      dup2\n      swap1\n        /* \"SafuStaking.sol\":6096:6121  calculateRewards(_staker) */\n      tag_157\n        /* \"SafuStaking.sol\":6144:6151  _staker */\n      dup5\n        /* \"SafuStaking.sol\":6096:6112  calculateRewards */\n      tag_69\n        /* \"SafuStaking.sol\":6096:6121  calculateRewards(_staker) */\n      jump\t// in\n    tag_157:\n        /* \"SafuStaking.sol\":6096:6169  calculateRewards(_staker) +... */\n      tag_158\n      swap2\n      swap1\n      tag_71\n      jump\t// in\n    tag_158:\n        /* \"SafuStaking.sol\":6078:6169  uint256 rewards = calculateRewards(_staker) +... */\n      swap4\n        /* \"SafuStaking.sol\":5995:6200  function availableRewards(address _staker) public view returns (uint256) {... */\n      swap3\n      pop\n      pop\n      pop\n      jump\t// out\n        /* \"SafuStaking.sol\":7494:8003  function calculateRewards(address _staker)... */\n    tag_69:\n        /* \"SafuStaking.sol\":7584:7600  uint256 _rewards */\n      0x00\n        /* \"SafuStaking.sol\":7717:7747  uint256 stakedTokensCountRatio */\n      dup1\n        /* \"SafuStaking.sol\":7771:7772  0 */\n      0x00\n        /* \"SafuStaking.sol\":7751:7768  stakedTokensCount */\n      sload(0x02)\n        /* \"SafuStaking.sol\":7751:7772  stakedTokensCount > 0 */\n      gt\n        /* \"SafuStaking.sol\":7751:7796  stakedTokensCount > 0 ? stakedTokensCount : 1 */\n      tag_160\n      jumpi\n        /* \"SafuStaking.sol\":7795:7796  1 */\n      0x01\n        /* \"SafuStaking.sol\":7751:7796  stakedTokensCount > 0 ? stakedTokensCount : 1 */\n      jump(tag_161)\n    tag_160:\n        /* \"SafuStaking.sol\":7775:7792  stakedTokensCount */\n      sload(0x02)\n        /* \"SafuStaking.sol\":7751:7796  stakedTokensCount > 0 ? stakedTokensCount : 1 */\n    tag_161:\n        /* \"SafuStaking.sol\":7947:7961  rewardsPerHour */\n      sload(0x01)\n      sub(shl(0xa0, 0x01), 0x01)\n        /* \"SafuStaking.sol\":7904:7920  stakers[_staker] */\n      dup6\n      and\n      0x00\n      swap1\n      dup2\n      mstore\n        /* \"SafuStaking.sol\":7904:7911  stakers */\n      0x03\n        /* \"SafuStaking.sol\":7904:7920  stakers[_staker] */\n      0x20\n      mstore\n      0x40\n      swap1\n      keccak256\n        /* \"SafuStaking.sol\":7904:7933  stakers[_staker].amountStaked */\n      dup1\n      sload\n        /* \"SafuStaking.sol\":7851:7884  stakers[_staker].timeOfLastUpdate */\n      0x02\n      swap1\n      swap2\n      add\n      sload\n        /* \"SafuStaking.sol\":7717:7797  uint256 stakedTokensCountRatio = (stakedTokensCount > 0 ? stakedTokensCount : 1) */\n      swap3\n      swap4\n      pop\n        /* \"SafuStaking.sol\":7991:7995  3600 */\n      0x0e10\n      swap3\n        /* \"SafuStaking.sol\":7717:7797  uint256 stakedTokensCountRatio = (stakedTokensCount > 0 ? stakedTokensCount : 1) */\n      dup5\n      swap3\n        /* \"SafuStaking.sol\":7947:7961  rewardsPerHour */\n      swap2\n        /* \"SafuStaking.sol\":7904:7933  stakers[_staker].amountStaked */\n      swap1\n        /* \"SafuStaking.sol\":7833:7884  block.timestamp - stakers[_staker].timeOfLastUpdate */\n      tag_162\n      swap1\n        /* \"SafuStaking.sol\":7833:7848  block.timestamp */\n      timestamp\n        /* \"SafuStaking.sol\":7833:7884  block.timestamp - stakers[_staker].timeOfLastUpdate */\n      tag_163\n      jump\t// in\n    tag_162:\n        /* \"SafuStaking.sol\":7832:7933  (block.timestamp - stakers[_staker].timeOfLastUpdate) *... */\n      tag_164\n      swap2\n      swap1\n      tag_165\n      jump\t// in\n    tag_164:\n        /* \"SafuStaking.sol\":7817:7961  (... */\n      tag_166\n      swap2\n      swap1\n      tag_165\n      jump\t// in\n    tag_166:\n        /* \"SafuStaking.sol\":7816:7987  ((... */\n      tag_167\n      swap2\n      swap1\n      tag_168\n      jump\t// in\n    tag_167:\n        /* \"SafuStaking.sol\":7815:7995  (((... */\n      tag_158\n      swap2\n      swap1\n      tag_168\n      jump\t// in\n        /* \"@openzeppelin/contracts/token/ERC20/utils/SafeERC20.sol\":763:968   */\n    tag_104:\n        /* \"@openzeppelin/contracts/token/ERC20/utils/SafeERC20.sol\":902:960   */\n      0x40\n      dup1\n      mload\n      sub(shl(0xa0, 0x01), 0x01)\n        /* \"#utility.yul\":6296:6351   */\n      dup5\n      and\n        /* \"@openzeppelin/contracts/token/ERC20/utils/SafeERC20.sol\":902:960   */\n      0x24\n      dup3\n      add\n        /* \"#utility.yul\":6278:6352   */\n      mstore\n        /* \"#utility.yul\":6368:6386   */\n      0x44\n      dup1\n      dup3\n      add\n        /* \"#utility.yul\":6361:6395   */\n      dup5\n      swap1\n      mstore\n        /* \"@openzeppelin/contracts/token/ERC20/utils/SafeERC20.sol\":902:960   */\n      dup3\n      mload\n      dup1\n      dup4\n      sub\n      swap1\n      swap2\n      add\n      dup2\n      mstore\n        /* \"#utility.yul\":6251:6269   */\n      0x64\n      swap1\n      swap2\n      add\n        /* \"@openzeppelin/contracts/token/ERC20/utils/SafeERC20.sol\":902:960   */\n      swap1\n      swap2\n      mstore\n      0x20\n      dup2\n      add\n      dup1\n      mload\n      0xffffffffffffffffffffffffffffffffffffffffffffffffffffffff\n      and\n      shl(0xe0, 0xa9059cbb)\n      or\n      swap1\n      mstore\n        /* \"@openzeppelin/contracts/token/ERC20/utils/SafeERC20.sol\":875:961   */\n      tag_171\n      swap1\n        /* \"@openzeppelin/contracts/token/ERC20/utils/SafeERC20.sol\":895:900   */\n      dup5\n      swap1\n        /* \"@openzeppelin/contracts/token/ERC20/utils/SafeERC20.sol\":875:894   */\n      tag_174\n        /* \"@openzeppelin/contracts/token/ERC20/utils/SafeERC20.sol\":875:961   */\n      jump\t// in\n    tag_171:\n        /* \"@openzeppelin/contracts/token/ERC20/utils/SafeERC20.sol\":763:968   */\n      pop\n      pop\n      pop\n      jump\t// out\n        /* \"@openzeppelin/contracts/token/ERC20/utils/SafeERC20.sol\":3747:4453   */\n    tag_174:\n        /* \"@openzeppelin/contracts/token/ERC20/utils/SafeERC20.sol\":4166:4189   */\n      0x00\n        /* \"@openzeppelin/contracts/token/ERC20/utils/SafeERC20.sol\":4192:4261   */\n      tag_176\n        /* \"@openzeppelin/contracts/token/ERC20/utils/SafeERC20.sol\":4220:4224   */\n      dup3\n        /* \"@openzeppelin/contracts/token/ERC20/utils/SafeERC20.sol\":4192:4261   */\n      mload(0x40)\n      dup1\n      0x40\n      add\n      0x40\n      mstore\n      dup1\n      0x20\n      dup2\n      mstore\n      0x20\n      add\n      0x5361666545524332303a206c6f772d6c6576656c2063616c6c206661696c6564\n      dup2\n      mstore\n      pop\n        /* \"@openzeppelin/contracts/token/ERC20/utils/SafeERC20.sol\":4200:4205   */\n      dup6\n      sub(shl(0xa0, 0x01), 0x01)\n        /* \"@openzeppelin/contracts/token/ERC20/utils/SafeERC20.sol\":4192:4219   */\n      and\n      tag_177\n      swap1\n        /* \"@openzeppelin/contracts/token/ERC20/utils/SafeERC20.sol\":4192:4261   */\n      swap3\n      swap2\n      swap1\n      0xffffffff\n      and\n      jump\t// in\n    tag_176:\n        /* \"@openzeppelin/contracts/token/ERC20/utils/SafeERC20.sol\":4275:4292   */\n      dup1\n      mload\n        /* \"@openzeppelin/contracts/token/ERC20/utils/SafeERC20.sol\":4166:4261   */\n      swap1\n      swap2\n      pop\n        /* \"@openzeppelin/contracts/token/ERC20/utils/SafeERC20.sol\":4275:4296   */\n      iszero\n        /* \"@openzeppelin/contracts/token/ERC20/utils/SafeERC20.sol\":4271:4447   */\n      tag_171\n      jumpi\n        /* \"@openzeppelin/contracts/token/ERC20/utils/SafeERC20.sol\":4370:4380   */\n      dup1\n        /* \"@openzeppelin/contracts/token/ERC20/utils/SafeERC20.sol\":4359:4389   */\n      dup1\n      0x20\n      add\n      swap1\n      mload\n      dup2\n      add\n      swap1\n      tag_179\n      swap2\n      swap1\n      tag_180\n      jump\t// in\n    tag_179:\n        /* \"@openzeppelin/contracts/token/ERC20/utils/SafeERC20.sol\":4351:4436   */\n      tag_171\n      jumpi\n      mload(0x40)\n      shl(0xe5, 0x461bcd)\n      dup2\n      mstore\n        /* \"#utility.yul\":6890:6892   */\n      0x20\n        /* \"@openzeppelin/contracts/token/ERC20/utils/SafeERC20.sol\":4351:4436   */\n      0x04\n      dup3\n      add\n        /* \"#utility.yul\":6872:6893   */\n      mstore\n        /* \"#utility.yul\":6929:6931   */\n      0x2a\n        /* \"#utility.yul\":6909:6927   */\n      0x24\n      dup3\n      add\n        /* \"#utility.yul\":6902:6932   */\n      mstore\n        /* \"#utility.yul\":6968:7002   */\n      0x5361666545524332303a204552433230206f7065726174696f6e20646964206e\n        /* \"#utility.yul\":6948:6966   */\n      0x44\n      dup3\n      add\n        /* \"#utility.yul\":6941:7003   */\n      mstore\n        /* \"#utility.yul\":7039:7051   */\n      0x6f74207375636365656400000000000000000000000000000000000000000000\n        /* \"#utility.yul\":7019:7037   */\n      0x64\n      dup3\n      add\n        /* \"#utility.yul\":7012:7052   */\n      mstore\n        /* \"#utility.yul\":7069:7088   */\n      0x84\n      add\n        /* \"@openzeppelin/contracts/token/ERC20/utils/SafeERC20.sol\":4351:4436   */\n      tag_59\n        /* \"#utility.yul\":6688:7094   */\n      jump\n        /* \"@openzeppelin/contracts/utils/Address.sol\":3861:4084   */\n    tag_177:\n        /* \"@openzeppelin/contracts/utils/Address.sol\":3994:4006   */\n      0x60\n        /* \"@openzeppelin/contracts/utils/Address.sol\":4025:4077   */\n      tag_185\n        /* \"@openzeppelin/contracts/utils/Address.sol\":4047:4053   */\n      dup5\n        /* \"@openzeppelin/contracts/utils/Address.sol\":4055:4059   */\n      dup5\n        /* \"@openzeppelin/contracts/utils/Address.sol\":4061:4062   */\n      0x00\n        /* \"@openzeppelin/contracts/utils/Address.sol\":4064:4076   */\n      dup6\n        /* \"@openzeppelin/contracts/utils/Address.sol\":4025:4046   */\n      tag_186\n        /* \"@openzeppelin/contracts/utils/Address.sol\":4025:4077   */\n      jump\t// in\n    tag_185:\n        /* \"@openzeppelin/contracts/utils/Address.sol\":4018:4077   */\n      swap5\n        /* \"@openzeppelin/contracts/utils/Address.sol\":3861:4084   */\n      swap4\n      pop\n      pop\n      pop\n      pop\n      jump\t// out\n        /* \"@openzeppelin/contracts/utils/Address.sol\":4948:5447   */\n    tag_186:\n        /* \"@openzeppelin/contracts/utils/Address.sol\":5113:5125   */\n      0x60\n        /* \"@openzeppelin/contracts/utils/Address.sol\":5170:5175   */\n      dup3\n        /* \"@openzeppelin/contracts/utils/Address.sol\":5145:5166   */\n      selfbalance\n        /* \"@openzeppelin/contracts/utils/Address.sol\":5145:5175   */\n      lt\n      iszero\n        /* \"@openzeppelin/contracts/utils/Address.sol\":5137:5218   */\n      tag_188\n      jumpi\n      mload(0x40)\n      shl(0xe5, 0x461bcd)\n      dup2\n      mstore\n        /* \"#utility.yul\":7301:7303   */\n      0x20\n        /* \"@openzeppelin/contracts/utils/Address.sol\":5137:5218   */\n      0x04\n      dup3\n      add\n        /* \"#utility.yul\":7283:7304   */\n      mstore\n        /* \"#utility.yul\":7340:7342   */\n      0x26\n        /* \"#utility.yul\":7320:7338   */\n      0x24\n      dup3\n      add\n        /* \"#utility.yul\":7313:7343   */\n      mstore\n        /* \"#utility.yul\":7379:7413   */\n      0x416464726573733a20696e73756666696369656e742062616c616e636520666f\n        /* \"#utility.yul\":7359:7377   */\n      0x44\n      dup3\n      add\n        /* \"#utility.yul\":7352:7414   */\n      mstore\n        /* \"#utility.yul\":7450:7458   */\n      0x722063616c6c0000000000000000000000000000000000000000000000000000\n        /* \"#utility.yul\":7430:7448   */\n      0x64\n      dup3\n      add\n        /* \"#utility.yul\":7423:7459   */\n      mstore\n        /* \"#utility.yul\":7476:7495   */\n      0x84\n      add\n        /* \"@openzeppelin/contracts/utils/Address.sol\":5137:5218   */\n      tag_59\n        /* \"#utility.yul\":7099:7501   */\n      jump\n        /* \"@openzeppelin/contracts/utils/Address.sol\":5137:5218   */\n    tag_188:\n      sub(shl(0xa0, 0x01), 0x01)\n        /* \"@openzeppelin/contracts/utils/Address.sol\":1465:1484   */\n      dup6\n      and\n      extcodesize\n        /* \"@openzeppelin/contracts/utils/Address.sol\":5228:5288   */\n      tag_193\n      jumpi\n      mload(0x40)\n      shl(0xe5, 0x461bcd)\n      dup2\n      mstore\n        /* \"#utility.yul\":7708:7710   */\n      0x20\n        /* \"@openzeppelin/contracts/utils/Address.sol\":5228:5288   */\n      0x04\n      dup3\n      add\n        /* \"#utility.yul\":7690:7711   */\n      mstore\n        /* \"#utility.yul\":7747:7749   */\n      0x1d\n        /* \"#utility.yul\":7727:7745   */\n      0x24\n      dup3\n      add\n        /* \"#utility.yul\":7720:7750   */\n      mstore\n        /* \"#utility.yul\":7786:7817   */\n      0x416464726573733a2063616c6c20746f206e6f6e2d636f6e7472616374000000\n        /* \"#utility.yul\":7766:7784   */\n      0x44\n      dup3\n      add\n        /* \"#utility.yul\":7759:7818   */\n      mstore\n        /* \"#utility.yul\":7835:7853   */\n      0x64\n      add\n        /* \"@openzeppelin/contracts/utils/Address.sol\":5228:5288   */\n      tag_59\n        /* \"#utility.yul\":7506:7859   */\n      jump\n        /* \"@openzeppelin/contracts/utils/Address.sol\":5228:5288   */\n    tag_193:\n        /* \"@openzeppelin/contracts/utils/Address.sol\":5300:5312   */\n      0x00\n        /* \"@openzeppelin/contracts/utils/Address.sol\":5314:5337   */\n      dup1\n        /* \"@openzeppelin/contracts/utils/Address.sol\":5341:5347   */\n      dup7\n      sub(shl(0xa0, 0x01), 0x01)\n        /* \"@openzeppelin/contracts/utils/Address.sol\":5341:5352   */\n      and\n        /* \"@openzeppelin/contracts/utils/Address.sol\":5360:5365   */\n      dup6\n        /* \"@openzeppelin/contracts/utils/Address.sol\":5367:5371   */\n      dup8\n        /* \"@openzeppelin/contracts/utils/Address.sol\":5341:5372   */\n      mload(0x40)\n      tag_196\n      swap2\n      swap1\n      tag_197\n      jump\t// in\n    tag_196:\n      0x00\n      mload(0x40)\n      dup1\n      dup4\n      sub\n      dup2\n      dup6\n      dup8\n      gas\n      call\n      swap3\n      pop\n      pop\n      pop\n      returndatasize\n      dup1\n      0x00\n      dup2\n      eq\n      tag_200\n      jumpi\n      mload(0x40)\n      swap2\n      pop\n      and(add(returndatasize, 0x3f), not(0x1f))\n      dup3\n      add\n      0x40\n      mstore\n      returndatasize\n      dup3\n      mstore\n      returndatasize\n      0x00\n      0x20\n      dup5\n      add\n      returndatacopy\n      jump(tag_199)\n    tag_200:\n      0x60\n      swap2\n      pop\n    tag_199:\n      pop\n        /* \"@openzeppelin/contracts/utils/Address.sol\":5299:5372   */\n      swap2\n      pop\n      swap2\n      pop\n        /* \"@openzeppelin/contracts/utils/Address.sol\":5389:5440   */\n      tag_201\n        /* \"@openzeppelin/contracts/utils/Address.sol\":5406:5413   */\n      dup3\n        /* \"@openzeppelin/contracts/utils/Address.sol\":5415:5425   */\n      dup3\n        /* \"@openzeppelin/contracts/utils/Address.sol\":5427:5439   */\n      dup7\n        /* \"@openzeppelin/contracts/utils/Address.sol\":5389:5405   */\n      tag_202\n        /* \"@openzeppelin/contracts/utils/Address.sol\":5389:5440   */\n      jump\t// in\n    tag_201:\n        /* \"@openzeppelin/contracts/utils/Address.sol\":5382:5440   */\n      swap8\n        /* \"@openzeppelin/contracts/utils/Address.sol\":4948:5447   */\n      swap7\n      pop\n      pop\n      pop\n      pop\n      pop\n      pop\n      pop\n      jump\t// out\n        /* \"@openzeppelin/contracts/utils/Address.sol\":7561:8303   */\n    tag_202:\n        /* \"@openzeppelin/contracts/utils/Address.sol\":7707:7719   */\n      0x60\n        /* \"@openzeppelin/contracts/utils/Address.sol\":7735:7742   */\n      dup4\n        /* \"@openzeppelin/contracts/utils/Address.sol\":7731:8297   */\n      iszero\n      tag_205\n      jumpi\n      pop\n        /* \"@openzeppelin/contracts/utils/Address.sol\":7765:7775   */\n      dup2\n        /* \"@openzeppelin/contracts/utils/Address.sol\":7758:7775   */\n      jump(tag_158)\n        /* \"@openzeppelin/contracts/utils/Address.sol\":7731:8297   */\n    tag_205:\n        /* \"@openzeppelin/contracts/utils/Address.sol\":7876:7893   */\n      dup3\n      mload\n        /* \"@openzeppelin/contracts/utils/Address.sol\":7876:7897   */\n      iszero\n        /* \"@openzeppelin/contracts/utils/Address.sol\":7872:8287   */\n      tag_207\n      jumpi\n        /* \"@openzeppelin/contracts/utils/Address.sol\":8120:8130   */\n      dup3\n        /* \"@openzeppelin/contracts/utils/Address.sol\":8114:8131   */\n      mload\n        /* \"@openzeppelin/contracts/utils/Address.sol\":8180:8195   */\n      dup1\n        /* \"@openzeppelin/contracts/utils/Address.sol\":8167:8177   */\n      dup5\n        /* \"@openzeppelin/contracts/utils/Address.sol\":8163:8165   */\n      0x20\n        /* \"@openzeppelin/contracts/utils/Address.sol\":8159:8178   */\n      add\n        /* \"@openzeppelin/contracts/utils/Address.sol\":8152:8196   */\n      revert\n        /* \"@openzeppelin/contracts/utils/Address.sol\":7872:8287   */\n    tag_207:\n        /* \"@openzeppelin/contracts/utils/Address.sol\":8259:8271   */\n      dup2\n        /* \"@openzeppelin/contracts/utils/Address.sol\":8252:8272   */\n      mload(0x40)\n      shl(0xe5, 0x461bcd)\n      dup2\n      mstore\n      0x04\n      add\n      tag_59\n      swap2\n      swap1\n      tag_210\n      jump\t// in\n        /* \"#utility.yul\":14:194   */\n    tag_18:\n        /* \"#utility.yul\":73:79   */\n      0x00\n        /* \"#utility.yul\":126:128   */\n      0x20\n        /* \"#utility.yul\":114:123   */\n      dup3\n        /* \"#utility.yul\":105:112   */\n      dup5\n        /* \"#utility.yul\":101:124   */\n      sub\n        /* \"#utility.yul\":97:129   */\n      slt\n        /* \"#utility.yul\":94:146   */\n      iszero\n      tag_216\n      jumpi\n        /* \"#utility.yul\":142:143   */\n      0x00\n        /* \"#utility.yul\":139:140   */\n      dup1\n        /* \"#utility.yul\":132:144   */\n      revert\n        /* \"#utility.yul\":94:146   */\n    tag_216:\n      pop\n        /* \"#utility.yul\":165:188   */\n      calldataload\n      swap2\n        /* \"#utility.yul\":14:194   */\n      swap1\n      pop\n      jump\t// out\n        /* \"#utility.yul\":381:535   */\n    tag_211:\n      sub(shl(0xa0, 0x01), 0x01)\n        /* \"#utility.yul\":460:465   */\n      dup2\n        /* \"#utility.yul\":456:510   */\n      and\n        /* \"#utility.yul\":449:454   */\n      dup2\n        /* \"#utility.yul\":446:511   */\n      eq\n        /* \"#utility.yul\":436:529   */\n      tag_103\n      jumpi\n        /* \"#utility.yul\":525:526   */\n      0x00\n        /* \"#utility.yul\":522:523   */\n      dup1\n        /* \"#utility.yul\":515:527   */\n      revert\n        /* \"#utility.yul\":540:787   */\n    tag_28:\n        /* \"#utility.yul\":599:605   */\n      0x00\n        /* \"#utility.yul\":652:654   */\n      0x20\n        /* \"#utility.yul\":640:649   */\n      dup3\n        /* \"#utility.yul\":631:638   */\n      dup5\n        /* \"#utility.yul\":627:650   */\n      sub\n        /* \"#utility.yul\":623:655   */\n      slt\n        /* \"#utility.yul\":620:672   */\n      iszero\n      tag_221\n      jumpi\n        /* \"#utility.yul\":668:669   */\n      0x00\n        /* \"#utility.yul\":665:666   */\n      dup1\n        /* \"#utility.yul\":658:670   */\n      revert\n        /* \"#utility.yul\":620:672   */\n    tag_221:\n        /* \"#utility.yul\":707:716   */\n      dup2\n        /* \"#utility.yul\":694:717   */\n      calldataload\n        /* \"#utility.yul\":726:757   */\n      tag_158\n        /* \"#utility.yul\":751:756   */\n      dup2\n        /* \"#utility.yul\":726:757   */\n      tag_211\n      jump\t// in\n        /* \"#utility.yul\":792:1633   */\n    tag_31:\n        /* \"#utility.yul\":1017:1019   */\n      0x20\n        /* \"#utility.yul\":1069:1090   */\n      dup1\n      dup3\n      mstore\n        /* \"#utility.yul\":1139:1152   */\n      dup3\n      mload\n        /* \"#utility.yul\":1042:1060   */\n      dup3\n      dup3\n      add\n        /* \"#utility.yul\":1161:1183   */\n      dup2\n      swap1\n      mstore\n        /* \"#utility.yul\":988:992   */\n      0x00\n      swap2\n        /* \"#utility.yul\":1017:1019   */\n      swap1\n        /* \"#utility.yul\":1202:1204   */\n      0x40\n      swap1\n        /* \"#utility.yul\":1220:1238   */\n      dup2\n      dup6\n      add\n      swap1\n        /* \"#utility.yul\":1261:1276   */\n      dup7\n      dup5\n      add\n        /* \"#utility.yul\":988:992   */\n      dup6\n        /* \"#utility.yul\":1304:1607   */\n    tag_224:\n        /* \"#utility.yul\":1318:1324   */\n      dup3\n        /* \"#utility.yul\":1315:1316   */\n      dup2\n        /* \"#utility.yul\":1312:1325   */\n      lt\n        /* \"#utility.yul\":1304:1607   */\n      iszero\n      tag_226\n      jumpi\n        /* \"#utility.yul\":1377:1390   */\n      dup2\n      mload\n        /* \"#utility.yul\":1419:1428   */\n      dup1\n      mload\n      sub(shl(0xa0, 0x01), 0x01)\n        /* \"#utility.yul\":1415:1473   */\n      and\n        /* \"#utility.yul\":1403:1474   */\n      dup6\n      mstore\n        /* \"#utility.yul\":1514:1525   */\n      dup7\n      add\n        /* \"#utility.yul\":1508:1526   */\n      mload\n        /* \"#utility.yul\":1494:1506   */\n      dup7\n      dup6\n      add\n        /* \"#utility.yul\":1487:1527   */\n      mstore\n        /* \"#utility.yul\":1547:1559   */\n      swap3\n      dup5\n      add\n      swap3\n        /* \"#utility.yul\":1582:1597   */\n      swap1\n      dup6\n      add\n      swap1\n        /* \"#utility.yul\":1340:1341   */\n      0x01\n        /* \"#utility.yul\":1333:1342   */\n      add\n        /* \"#utility.yul\":1304:1607   */\n      jump(tag_224)\n    tag_226:\n      pop\n        /* \"#utility.yul\":1624:1627   */\n      swap2\n      swap8\n        /* \"#utility.yul\":792:1633   */\n      swap7\n      pop\n      pop\n      pop\n      pop\n      pop\n      pop\n      pop\n      jump\t// out\n        /* \"#utility.yul\":3753:3880   */\n    tag_212:\n        /* \"#utility.yul\":3814:3824   */\n      0x4e487b71\n        /* \"#utility.yul\":3809:3812   */\n      0xe0\n        /* \"#utility.yul\":3805:3825   */\n      shl\n        /* \"#utility.yul\":3802:3803   */\n      0x00\n        /* \"#utility.yul\":3795:3826   */\n      mstore\n        /* \"#utility.yul\":3845:3849   */\n      0x11\n        /* \"#utility.yul\":3842:3843   */\n      0x04\n        /* \"#utility.yul\":3835:3850   */\n      mstore\n        /* \"#utility.yul\":3869:3873   */\n      0x24\n        /* \"#utility.yul\":3866:3867   */\n      0x00\n        /* \"#utility.yul\":3859:3874   */\n      revert\n        /* \"#utility.yul\":3885:4013   */\n    tag_71:\n        /* \"#utility.yul\":3925:3928   */\n      0x00\n        /* \"#utility.yul\":3956:3957   */\n      dup3\n        /* \"#utility.yul\":3952:3958   */\n      not\n        /* \"#utility.yul\":3949:3950   */\n      dup3\n        /* \"#utility.yul\":3946:3959   */\n      gt\n        /* \"#utility.yul\":3943:3982   */\n      iszero\n      tag_237\n      jumpi\n        /* \"#utility.yul\":3962:3980   */\n      tag_237\n      tag_212\n      jump\t// in\n    tag_237:\n      pop\n        /* \"#utility.yul\":3998:4007   */\n      add\n      swap1\n        /* \"#utility.yul\":3885:4013   */\n      jump\t// out\n        /* \"#utility.yul\":4018:4145   */\n    tag_77:\n        /* \"#utility.yul\":4079:4089   */\n      0x4e487b71\n        /* \"#utility.yul\":4074:4077   */\n      0xe0\n        /* \"#utility.yul\":4070:4090   */\n      shl\n        /* \"#utility.yul\":4067:4068   */\n      0x00\n        /* \"#utility.yul\":4060:4091   */\n      mstore\n        /* \"#utility.yul\":4110:4114   */\n      0x32\n        /* \"#utility.yul\":4107:4108   */\n      0x04\n        /* \"#utility.yul\":4100:4115   */\n      mstore\n        /* \"#utility.yul\":4134:4138   */\n      0x24\n        /* \"#utility.yul\":4131:4132   */\n      0x00\n        /* \"#utility.yul\":4124:4139   */\n      revert\n        /* \"#utility.yul\":4150:4285   */\n    tag_85:\n        /* \"#utility.yul\":4189:4192   */\n      0x00\n        /* \"#utility.yul\":4210:4227   */\n      0x01\n      dup3\n      add\n        /* \"#utility.yul\":4207:4250   */\n      tag_241\n      jumpi\n        /* \"#utility.yul\":4230:4248   */\n      tag_241\n      tag_212\n      jump\t// in\n    tag_241:\n      pop\n        /* \"#utility.yul\":4277:4278   */\n      0x01\n        /* \"#utility.yul\":4266:4279   */\n      add\n      swap1\n        /* \"#utility.yul\":4150:4285   */\n      jump\t// out\n        /* \"#utility.yul\":4290:4426   */\n    tag_90:\n        /* \"#utility.yul\":4329:4332   */\n      0x00\n        /* \"#utility.yul\":4357:4362   */\n      dup2\n        /* \"#utility.yul\":4347:4386   */\n      tag_244\n      jumpi\n        /* \"#utility.yul\":4366:4384   */\n      tag_244\n      tag_212\n      jump\t// in\n    tag_244:\n      pop\n      not(0x00)\n        /* \"#utility.yul\":4402:4420   */\n      add\n      swap1\n        /* \"#utility.yul\":4290:4426   */\n      jump\t// out\n        /* \"#utility.yul\":5191:5318   */\n    tag_110:\n        /* \"#utility.yul\":5252:5262   */\n      0x4e487b71\n        /* \"#utility.yul\":5247:5250   */\n      0xe0\n        /* \"#utility.yul\":5243:5263   */\n      shl\n        /* \"#utility.yul\":5240:5241   */\n      0x00\n        /* \"#utility.yul\":5233:5264   */\n      mstore\n        /* \"#utility.yul\":5283:5287   */\n      0x41\n        /* \"#utility.yul\":5280:5281   */\n      0x04\n        /* \"#utility.yul\":5273:5288   */\n      mstore\n        /* \"#utility.yul\":5307:5311   */\n      0x24\n        /* \"#utility.yul\":5304:5305   */\n      0x00\n        /* \"#utility.yul\":5297:5312   */\n      revert\n        /* \"#utility.yul\":5323:5574   */\n    tag_146:\n        /* \"#utility.yul\":5393:5399   */\n      0x00\n        /* \"#utility.yul\":5446:5448   */\n      0x20\n        /* \"#utility.yul\":5434:5443   */\n      dup3\n        /* \"#utility.yul\":5425:5432   */\n      dup5\n        /* \"#utility.yul\":5421:5444   */\n      sub\n        /* \"#utility.yul\":5417:5449   */\n      slt\n        /* \"#utility.yul\":5414:5466   */\n      iszero\n      tag_249\n      jumpi\n        /* \"#utility.yul\":5462:5463   */\n      0x00\n        /* \"#utility.yul\":5459:5460   */\n      dup1\n        /* \"#utility.yul\":5452:5464   */\n      revert\n        /* \"#utility.yul\":5414:5466   */\n    tag_249:\n        /* \"#utility.yul\":5494:5503   */\n      dup2\n        /* \"#utility.yul\":5488:5504   */\n      mload\n        /* \"#utility.yul\":5513:5544   */\n      tag_158\n        /* \"#utility.yul\":5538:5543   */\n      dup2\n        /* \"#utility.yul\":5513:5544   */\n      tag_211\n      jump\t// in\n        /* \"#utility.yul\":5579:5704   */\n    tag_163:\n        /* \"#utility.yul\":5619:5623   */\n      0x00\n        /* \"#utility.yul\":5647:5648   */\n      dup3\n        /* \"#utility.yul\":5644:5645   */\n      dup3\n        /* \"#utility.yul\":5641:5649   */\n      lt\n        /* \"#utility.yul\":5638:5672   */\n      iszero\n      tag_253\n      jumpi\n        /* \"#utility.yul\":5652:5670   */\n      tag_253\n      tag_212\n      jump\t// in\n    tag_253:\n      pop\n        /* \"#utility.yul\":5689:5698   */\n      sub\n      swap1\n        /* \"#utility.yul\":5579:5704   */\n      jump\t// out\n        /* \"#utility.yul\":5709:5877   */\n    tag_165:\n        /* \"#utility.yul\":5749:5756   */\n      0x00\n        /* \"#utility.yul\":5815:5816   */\n      dup2\n        /* \"#utility.yul\":5811:5812   */\n      0x00\n        /* \"#utility.yul\":5807:5813   */\n      not\n        /* \"#utility.yul\":5803:5817   */\n      div\n        /* \"#utility.yul\":5800:5801   */\n      dup4\n        /* \"#utility.yul\":5797:5818   */\n      gt\n        /* \"#utility.yul\":5792:5793   */\n      dup3\n        /* \"#utility.yul\":5785:5794   */\n      iszero\n        /* \"#utility.yul\":5778:5795   */\n      iszero\n        /* \"#utility.yul\":5774:5819   */\n      and\n        /* \"#utility.yul\":5771:5842   */\n      iszero\n      tag_256\n      jumpi\n        /* \"#utility.yul\":5822:5840   */\n      tag_256\n      tag_212\n      jump\t// in\n    tag_256:\n      pop\n        /* \"#utility.yul\":5862:5871   */\n      mul\n      swap1\n        /* \"#utility.yul\":5709:5877   */\n      jump\t// out\n        /* \"#utility.yul\":5882:6099   */\n    tag_168:\n        /* \"#utility.yul\":5922:5923   */\n      0x00\n        /* \"#utility.yul\":5948:5949   */\n      dup3\n        /* \"#utility.yul\":5938:6070   */\n      tag_258\n      jumpi\n        /* \"#utility.yul\":5992:6002   */\n      0x4e487b71\n        /* \"#utility.yul\":5987:5990   */\n      0xe0\n        /* \"#utility.yul\":5983:6003   */\n      shl\n        /* \"#utility.yul\":5980:5981   */\n      0x00\n        /* \"#utility.yul\":5973:6004   */\n      mstore\n        /* \"#utility.yul\":6027:6031   */\n      0x12\n        /* \"#utility.yul\":6024:6025   */\n      0x04\n        /* \"#utility.yul\":6017:6032   */\n      mstore\n        /* \"#utility.yul\":6055:6059   */\n      0x24\n        /* \"#utility.yul\":6052:6053   */\n      0x00\n        /* \"#utility.yul\":6045:6060   */\n      revert\n        /* \"#utility.yul\":5938:6070   */\n    tag_258:\n      pop\n        /* \"#utility.yul\":6084:6093   */\n      div\n      swap1\n        /* \"#utility.yul\":5882:6099   */\n      jump\t// out\n        /* \"#utility.yul\":6406:6683   */\n    tag_180:\n        /* \"#utility.yul\":6473:6479   */\n      0x00\n        /* \"#utility.yul\":6526:6528   */\n      0x20\n        /* \"#utility.yul\":6514:6523   */\n      dup3\n        /* \"#utility.yul\":6505:6512   */\n      dup5\n        /* \"#utility.yul\":6501:6524   */\n      sub\n        /* \"#utility.yul\":6497:6529   */\n      slt\n        /* \"#utility.yul\":6494:6546   */\n      iszero\n      tag_261\n      jumpi\n        /* \"#utility.yul\":6542:6543   */\n      0x00\n        /* \"#utility.yul\":6539:6540   */\n      dup1\n        /* \"#utility.yul\":6532:6544   */\n      revert\n        /* \"#utility.yul\":6494:6546   */\n    tag_261:\n        /* \"#utility.yul\":6574:6583   */\n      dup2\n        /* \"#utility.yul\":6568:6584   */\n      mload\n        /* \"#utility.yul\":6627:6632   */\n      dup1\n        /* \"#utility.yul\":6620:6633   */\n      iszero\n        /* \"#utility.yul\":6613:6634   */\n      iszero\n        /* \"#utility.yul\":6606:6611   */\n      dup2\n        /* \"#utility.yul\":6603:6635   */\n      eq\n        /* \"#utility.yul\":6593:6653   */\n      tag_158\n      jumpi\n        /* \"#utility.yul\":6649:6650   */\n      0x00\n        /* \"#utility.yul\":6646:6647   */\n      dup1\n        /* \"#utility.yul\":6639:6651   */\n      revert\n        /* \"#utility.yul\":7864:8122   */\n    tag_213:\n        /* \"#utility.yul\":7936:7937   */\n      0x00\n        /* \"#utility.yul\":7946:8059   */\n    tag_267:\n        /* \"#utility.yul\":7960:7966   */\n      dup4\n        /* \"#utility.yul\":7957:7958   */\n      dup2\n        /* \"#utility.yul\":7954:7967   */\n      lt\n        /* \"#utility.yul\":7946:8059   */\n      iszero\n      tag_269\n      jumpi\n        /* \"#utility.yul\":8036:8047   */\n      dup2\n      dup2\n      add\n        /* \"#utility.yul\":8030:8048   */\n      mload\n        /* \"#utility.yul\":8017:8028   */\n      dup4\n      dup3\n      add\n        /* \"#utility.yul\":8010:8049   */\n      mstore\n        /* \"#utility.yul\":7982:7984   */\n      0x20\n        /* \"#utility.yul\":7975:7985   */\n      add\n        /* \"#utility.yul\":7946:8059   */\n      jump(tag_267)\n    tag_269:\n        /* \"#utility.yul\":8077:8083   */\n      dup4\n        /* \"#utility.yul\":8074:8075   */\n      dup2\n        /* \"#utility.yul\":8071:8084   */\n      gt\n        /* \"#utility.yul\":8068:8116   */\n      iszero\n      tag_270\n      jumpi\n        /* \"#utility.yul\":8112:8113   */\n      0x00\n        /* \"#utility.yul\":8103:8109   */\n      dup5\n        /* \"#utility.yul\":8098:8101   */\n      dup5\n        /* \"#utility.yul\":8094:8110   */\n      add\n        /* \"#utility.yul\":8087:8114   */\n      mstore\n        /* \"#utility.yul\":8068:8116   */\n    tag_270:\n      pop\n        /* \"#utility.yul\":7864:8122   */\n      pop\n      pop\n      pop\n      jump\t// out\n        /* \"#utility.yul\":8127:8401   */\n    tag_197:\n        /* \"#utility.yul\":8256:8259   */\n      0x00\n        /* \"#utility.yul\":8294:8300   */\n      dup3\n        /* \"#utility.yul\":8288:8301   */\n      mload\n        /* \"#utility.yul\":8310:8363   */\n      tag_272\n        /* \"#utility.yul\":8356:8362   */\n      dup2\n        /* \"#utility.yul\":8351:8354   */\n      dup5\n        /* \"#utility.yul\":8344:8348   */\n      0x20\n        /* \"#utility.yul\":8336:8342   */\n      dup8\n        /* \"#utility.yul\":8332:8349   */\n      add\n        /* \"#utility.yul\":8310:8363   */\n      tag_213\n      jump\t// in\n    tag_272:\n        /* \"#utility.yul\":8379:8395   */\n      swap2\n      swap1\n      swap2\n      add\n      swap3\n        /* \"#utility.yul\":8127:8401   */\n      swap2\n      pop\n      pop\n      jump\t// out\n        /* \"#utility.yul\":8406:8789   */\n    tag_210:\n        /* \"#utility.yul\":8555:8557   */\n      0x20\n        /* \"#utility.yul\":8544:8553   */\n      dup2\n        /* \"#utility.yul\":8537:8558   */\n      mstore\n        /* \"#utility.yul\":8518:8522   */\n      0x00\n        /* \"#utility.yul\":8587:8593   */\n      dup3\n        /* \"#utility.yul\":8581:8594   */\n      mload\n        /* \"#utility.yul\":8630:8636   */\n      dup1\n        /* \"#utility.yul\":8625:8627   */\n      0x20\n        /* \"#utility.yul\":8614:8623   */\n      dup5\n        /* \"#utility.yul\":8610:8628   */\n      add\n        /* \"#utility.yul\":8603:8637   */\n      mstore\n        /* \"#utility.yul\":8646:8712   */\n      tag_274\n        /* \"#utility.yul\":8705:8711   */\n      dup2\n        /* \"#utility.yul\":8700:8702   */\n      0x40\n        /* \"#utility.yul\":8689:8698   */\n      dup6\n        /* \"#utility.yul\":8685:8703   */\n      add\n        /* \"#utility.yul\":8680:8682   */\n      0x20\n        /* \"#utility.yul\":8672:8678   */\n      dup8\n        /* \"#utility.yul\":8668:8683   */\n      add\n        /* \"#utility.yul\":8646:8712   */\n      tag_213\n      jump\t// in\n    tag_274:\n        /* \"#utility.yul\":8773:8775   */\n      0x1f\n        /* \"#utility.yul\":8752:8767   */\n      add\n      not(0x1f)\n        /* \"#utility.yul\":8748:8777   */\n      and\n        /* \"#utility.yul\":8733:8778   */\n      swap2\n      swap1\n      swap2\n      add\n        /* \"#utility.yul\":8780:8782   */\n      0x40\n        /* \"#utility.yul\":8729:8783   */\n      add\n      swap3\n        /* \"#utility.yul\":8406:8789   */\n      swap2\n      pop\n      pop\n      jump\t// out\n\n    auxdata: 0xa2646970667358221220d14e275dc9e09519ae8e4d8b55e3c62d889cb6ad8a9c1430a8513ef26e763b1664736f6c634300080d0033\n}\n",
    "bytecode": {
      "linkReferences": {},
      "object": "60c0604052620000126012600a6200018a565b62000020906104766200019f565b60015560006002553480156200003557600080fd5b506040516200137f3803806200137f8339810160408190526200005891620001da565b60016000556001600160a01b0391821660a0521660805262000219565b634e487b7160e01b600052601160045260246000fd5b600181815b80851115620000cc578160001904821115620000b057620000b062000075565b80851615620000be57918102915b93841c939080029062000090565b509250929050565b600082620000e55750600162000184565b81620000f45750600062000184565b81600181146200010d5760028114620001185762000138565b600191505062000184565b60ff8411156200012c576200012c62000075565b50506001821b62000184565b5060208310610133831016604e8410600b84101617156200015d575081810a62000184565b6200016983836200008b565b806000190482111562000180576200018062000075565b0290505b92915050565b6000620001988383620000d4565b9392505050565b6000816000190483118215151615620001bc57620001bc62000075565b500290565b6001600160a01b0381168114620001d757600080fd5b50565b60008060408385031215620001ee57600080fd5b8251620001fb81620001c1565b60208401519092506200020e81620001c1565b809150509250929050565b60805160a0516111246200025b6000396000818161011c015281816104fd0152818161090101526109e40152600081816101e0015261061101526111246000f3fe608060405234801561001057600080fd5b50600436106100be5760003560e01c80639168ae7211610076578063a694fc3a1161005b578063a694fc3a146101c8578063d1af0c7d146101db578063f854a27f1461020257600080fd5b80639168ae7214610156578063940670451461019f57600080fd5b806351d18598116100a757806351d18598146100e057806363c28db1146100f75780636588103b1461011757600080fd5b80632e1a7d4d146100c3578063372500ab146100d8575b600080fd5b6100d66100d1366004610eab565b610215565b005b6100d6610578565b6002545b6040519081526020015b60405180910390f35b61010a610105366004610ed9565b610643565b6040516100ee9190610ef6565b61013e7f000000000000000000000000000000000000000000000000000000000000000081565b6040516001600160a01b0390911681526020016100ee565b610184610164366004610ed9565b600360208190526000918252604090912080546002820154919092015483565b604080519384526020840192909252908201526060016100ee565b61013e6101ad366004610eab565b6004602052600090815260409020546001600160a01b031681565b6100d66101d6366004610eab565b61083d565b61013e7f000000000000000000000000000000000000000000000000000000000000000081565b6100e4610210366004610ed9565b610b12565b60026000540361026c5760405162461bcd60e51b815260206004820152601f60248201527f5265656e7472616e637947756172643a207265656e7472616e742063616c6c0060448201526064015b60405180910390fd5b60026000908155338152600360205260409020546102cc5760405162461bcd60e51b815260206004820152601960248201527f596f752068617665206e6f20746f6b656e73207374616b6564000000000000006044820152606401610263565b6000818152600460205260409020546001600160a01b031633146103325760405162461bcd60e51b815260206004820152601960248201527f596f7520646f6e2774206f776e207468697320746f6b656e21000000000000006044820152606401610263565b600061033d33610b4a565b33600090815260036020819052604082200180549293508392909190610364908490610f64565b9091555060009050805b33600090815260036020526040902060010154811015610429573360009081526003602052604090206001018054859190839081106103af576103af610f7c565b90600052602060002090600202016001015414801561040a57503360009081526003602052604081206001018054839081106103ed576103ed610f7c565b60009182526020909120600290910201546001600160a01b031614155b1561041757809150610429565b8061042181610f92565b91505061036e565b5033600090815260036020526040812060010180548390811061044e5761044e610f7c565b6000918252602080832060029290920290910180546001600160a01b0319166001600160a01b03949094169390931790925533815260039091526040812080549161049883610fab565b9091555050600280549060006104ad83610fab565b909155505060008381526004602081905260409182902080546001600160a01b031916905590516323b872dd60e01b81523091810191909152336024820152604481018490526001600160a01b037f000000000000000000000000000000000000000000000000000000000000000016906323b872dd90606401600060405180830381600087803b15801561054157600080fd5b505af1158015610555573d6000803e3d6000fd5b505033600090815260036020526040812042600290910155600190555050505050565b33600081815260036020819052604082200154909161059690610b4a565b6105a09190610f64565b9050600081116105f25760405162461bcd60e51b815260206004820152601c60248201527f596f752068617665206e6f207265776172647320746f20636c61696d000000006044820152606401610263565b33600081815260036020819052604082204260028201550155610640907f00000000000000000000000000000000000000000000000000000000000000006001600160a01b03169083610bc2565b50565b6001600160a01b038116600090815260036020526040902054606090156107f9576001600160a01b03821660009081526003602052604081205467ffffffffffffffff81111561069557610695610fc2565b6040519080825280602002602001820160405280156106da57816020015b60408051808201909152600080825260208201528152602001906001900390816106b35790505b5090506000805b6001600160a01b0385166000908152600360205260409020600101548110156107f0576001600160a01b038516600090815260036020526040812060010180548390811061073157610731610f7c565b60009182526020909120600290910201546001600160a01b0316146107de576001600160a01b038516600090815260036020526040902060010180548290811061077d5761077d610f7c565b60009182526020918290206040805180820190915260029092020180546001600160a01b03168252600101549181019190915283518490849081106107c4576107c4610f7c565b602002602001018190525081806107da90610f92565b9250505b806107e881610f92565b9150506106e1565b50909392505050565b6040805160008082526020820190925290610836565b604080518082019091526000808252602082015281526020019060019003908161080f5790505b5092915050565b60026000540361088f5760405162461bcd60e51b815260206004820152601f60248201527f5265656e7472616e637947756172643a207265656e7472616e742063616c6c006044820152606401610263565b6002600090815533815260036020526040902054156108e15760006108b333610b4a565b336000908152600360208190526040822001805492935083929091906108da908490610f64565b9091555050505b6040516331a9108f60e11b81526004810182905233906001600160a01b037f00000000000000000000000000000000000000000000000000000000000000001690636352211e90602401602060405180830381865afa158015610948573d6000803e3d6000fd5b505050506040513d601f19601f8201168201806040525081019061096c9190610fd8565b6001600160a01b0316146109c25760405162461bcd60e51b815260206004820152601960248201527f596f7520646f6e2774206f776e207468697320746f6b656e21000000000000006044820152606401610263565b6040516323b872dd60e01b8152336004820152306024820152604481018290527f00000000000000000000000000000000000000000000000000000000000000006001600160a01b0316906323b872dd90606401600060405180830381600087803b158015610a3057600080fd5b505af1158015610a44573d6000803e3d6000fd5b5050604080518082018252338082526020808301878152600083815260038352948520600180820180548083018255908852938720865160029095020180546001600160a01b0319166001600160a01b0390951694909417845591519290910191909155908352805491945090925090610abd83610f92565b909155505060028054906000610ad283610f92565b909155505050600090815260046020908152604080832080546001600160a01b031916339081179091558352600390915281204260029091015560019055565b6001600160a01b0381166000908152600360208190526040822001548190610b3984610b4a565b610b439190610f64565b9392505050565b600080600060025411610b5e576001610b62565b6002545b6001546001600160a01b03851660009081526003602052604090208054600290910154929350610e109284929190610b9a9042610ff5565b610ba4919061100c565b610bae919061100c565b610bb8919061102b565b610b43919061102b565b604080516001600160a01b038416602482015260448082018490528251808303909101815260649091019091526020810180517bffffffffffffffffffffffffffffffffffffffffffffffffffffffff1663a9059cbb60e01b179052610c29908490610c2e565b505050565b6000610c83826040518060400160405280602081526020017f5361666545524332303a206c6f772d6c6576656c2063616c6c206661696c6564815250856001600160a01b0316610d139092919063ffffffff16565b805190915015610c295780806020019051810190610ca1919061104d565b610c295760405162461bcd60e51b815260206004820152602a60248201527f5361666545524332303a204552433230206f7065726174696f6e20646964206e60448201527f6f742073756363656564000000000000000000000000000000000000000000006064820152608401610263565b6060610d228484600085610d2a565b949350505050565b606082471015610da25760405162461bcd60e51b815260206004820152602660248201527f416464726573733a20696e73756666696369656e742062616c616e636520666f60448201527f722063616c6c00000000000000000000000000000000000000000000000000006064820152608401610263565b6001600160a01b0385163b610df95760405162461bcd60e51b815260206004820152601d60248201527f416464726573733a2063616c6c20746f206e6f6e2d636f6e74726163740000006044820152606401610263565b600080866001600160a01b03168587604051610e15919061109f565b60006040518083038185875af1925050503d8060008114610e52576040519150601f19603f3d011682016040523d82523d6000602084013e610e57565b606091505b5091509150610e67828286610e72565b979650505050505050565b60608315610e81575081610b43565b825115610e915782518084602001fd5b8160405162461bcd60e51b815260040161026391906110bb565b600060208284031215610ebd57600080fd5b5035919050565b6001600160a01b038116811461064057600080fd5b600060208284031215610eeb57600080fd5b8135610b4381610ec4565b602080825282518282018190526000919060409081850190868401855b82811015610f4157815180516001600160a01b03168552860151868501529284019290850190600101610f13565b5091979650505050505050565b634e487b7160e01b600052601160045260246000fd5b60008219821115610f7757610f77610f4e565b500190565b634e487b7160e01b600052603260045260246000fd5b600060018201610fa457610fa4610f4e565b5060010190565b600081610fba57610fba610f4e565b506000190190565b634e487b7160e01b600052604160045260246000fd5b600060208284031215610fea57600080fd5b8151610b4381610ec4565b60008282101561100757611007610f4e565b500390565b600081600019048311821515161561102657611026610f4e565b500290565b60008261104857634e487b7160e01b600052601260045260246000fd5b500490565b60006020828403121561105f57600080fd5b81518015158114610b4357600080fd5b60005b8381101561108a578181015183820152602001611072565b83811115611099576000848401525b50505050565b600082516110b181846020870161106f565b9190910192915050565b60208152600082518060208401526110da81604085016020870161106f565b601f01601f1916919091016040019291505056fea2646970667358221220d14e275dc9e09519ae8e4d8b55e3c62d889cb6ad8a9c1430a8513ef26e763b1664736f6c634300080d0033",
      "opcodes": "PUSH1 0xC0 PUSH1 0x40 MSTORE PUSH3 0x12 PUSH1 0x12 PUSH1 0xA PUSH3 0x18A JUMP JUMPDEST PUSH3 0x20 SWAP1 PUSH2 0x476 PUSH3 0x19F JUMP JUMPDEST PUSH1 0x1 SSTORE PUSH1 0x0 PUSH1 0x2 SSTORE CALLVALUE DUP1 ISZERO PUSH3 0x35 JUMPI PUSH1 0x0 DUP1 REVERT JUMPDEST POP PUSH1 0x40 MLOAD PUSH3 0x137F CODESIZE SUB DUP1 PUSH3 0x137F DUP4 CODECOPY DUP2 ADD PUSH1 0x40 DUP2 SWAP1 MSTORE PUSH3 0x58 SWAP2 PUSH3 0x1DA JUMP JUMPDEST PUSH1 0x1 PUSH1 0x0 SSTORE PUSH1 0x1 PUSH1 0x1 PUSH1 0xA0 SHL SUB SWAP2 DUP3 AND PUSH1 0xA0 MSTORE AND PUSH1 0x80 MSTORE PUSH3 0x219 JUMP JUMPDEST PUSH4 0x4E487B71 PUSH1 0xE0 SHL PUSH1 0x0 MSTORE PUSH1 0x11 PUSH1 0x4 MSTORE PUSH1 0x24 PUSH1 0x0 REVERT JUMPDEST PUSH1 0x1 DUP2 DUP2 JUMPDEST DUP1 DUP6 GT ISZERO PUSH3 0xCC JUMPI DUP2 PUSH1 0x0 NOT DIV DUP3 GT ISZERO PUSH3 0xB0 JUMPI PUSH3 0xB0 PUSH3 0x75 JUMP JUMPDEST DUP1 DUP6 AND ISZERO PUSH3 0xBE JUMPI SWAP2 DUP2 MUL SWAP2 JUMPDEST SWAP4 DUP5 SHR SWAP4 SWAP1 DUP1 MUL SWAP1 PUSH3 0x90 JUMP JUMPDEST POP SWAP3 POP SWAP3 SWAP1 POP JUMP JUMPDEST PUSH1 0x0 DUP3 PUSH3 0xE5 JUMPI POP PUSH1 0x1 PUSH3 0x184 JUMP JUMPDEST DUP2 PUSH3 0xF4 JUMPI POP PUSH1 0x0 PUSH3 0x184 JUMP JUMPDEST DUP2 PUSH1 0x1 DUP2 EQ PUSH3 0x10D JUMPI PUSH1 0x2 DUP2 EQ PUSH3 0x118 JUMPI PUSH3 0x138 JUMP JUMPDEST PUSH1 0x1 SWAP2 POP POP PUSH3 0x184 JUMP JUMPDEST PUSH1 0xFF DUP5 GT ISZERO PUSH3 0x12C JUMPI PUSH3 0x12C PUSH3 0x75 JUMP JUMPDEST POP POP PUSH1 0x1 DUP3 SHL PUSH3 0x184 JUMP JUMPDEST POP PUSH1 0x20 DUP4 LT PUSH2 0x133 DUP4 LT AND PUSH1 0x4E DUP5 LT PUSH1 0xB DUP5 LT AND OR ISZERO PUSH3 0x15D JUMPI POP DUP2 DUP2 EXP PUSH3 0x184 JUMP JUMPDEST PUSH3 0x169 DUP4 DUP4 PUSH3 0x8B JUMP JUMPDEST DUP1 PUSH1 0x0 NOT DIV DUP3 GT ISZERO PUSH3 0x180 JUMPI PUSH3 0x180 PUSH3 0x75 JUMP JUMPDEST MUL SWAP1 POP JUMPDEST SWAP3 SWAP2 POP POP JUMP JUMPDEST PUSH1 0x0 PUSH3 0x198 DUP4 DUP4 PUSH3 0xD4 JUMP JUMPDEST SWAP4 SWAP3 POP POP POP JUMP JUMPDEST PUSH1 0x0 DUP2 PUSH1 0x0 NOT DIV DUP4 GT DUP3 ISZERO ISZERO AND ISZERO PUSH3 0x1BC JUMPI PUSH3 0x1BC PUSH3 0x75 JUMP JUMPDEST POP MUL SWAP1 JUMP JUMPDEST PUSH1 0x1 PUSH1 0x1 PUSH1 0xA0 SHL SUB DUP2 AND DUP2 EQ PUSH3 0x1D7 JUMPI PUSH1 0x0 DUP1 REVERT JUMPDEST POP JUMP JUMPDEST PUSH1 0x0 DUP1 PUSH1 0x40 DUP4 DUP6 SUB SLT ISZERO PUSH3 0x1EE JUMPI PUSH1 0x0 DUP1 REVERT JUMPDEST DUP3 MLOAD PUSH3 0x1FB DUP2 PUSH3 0x1C1 JUMP JUMPDEST PUSH1 0x20 DUP5 ADD MLOAD SWAP1 SWAP3 POP PUSH3 0x20E DUP2 PUSH3 0x1C1 JUMP JUMPDEST DUP1 SWAP2 POP POP SWAP3 POP SWAP3 SWAP1 POP JUMP JUMPDEST PUSH1 0x80 MLOAD PUSH1 0xA0 MLOAD PUSH2 0x1124 PUSH3 0x25B PUSH1 0x0 CODECOPY PUSH1 0x0 DUP2 DUP2 PUSH2 0x11C ADD MSTORE DUP2 DUP2 PUSH2 0x4FD ADD MSTORE DUP2 DUP2 PUSH2 0x901 ADD MSTORE PUSH2 0x9E4 ADD MSTORE PUSH1 0x0 DUP2 DUP2 PUSH2 0x1E0 ADD MSTORE PUSH2 0x611 ADD MSTORE PUSH2 0x1124 PUSH1 0x0 RETURN INVALID PUSH1 0x80 PUSH1 0x40 MSTORE CALLVALUE DUP1 ISZERO PUSH2 0x10 JUMPI PUSH1 0x0 DUP1 REVERT JUMPDEST POP PUSH1 0x4 CALLDATASIZE LT PUSH2 0xBE JUMPI PUSH1 0x0 CALLDATALOAD PUSH1 0xE0 SHR DUP1 PUSH4 0x9168AE72 GT PUSH2 0x76 JUMPI DUP1 PUSH4 0xA694FC3A GT PUSH2 0x5B JUMPI DUP1 PUSH4 0xA694FC3A EQ PUSH2 0x1C8 JUMPI DUP1 PUSH4 0xD1AF0C7D EQ PUSH2 0x1DB JUMPI DUP1 PUSH4 0xF854A27F EQ PUSH2 0x202 JUMPI PUSH1 0x0 DUP1 REVERT JUMPDEST DUP1 PUSH4 0x9168AE72 EQ PUSH2 0x156 JUMPI DUP1 PUSH4 0x94067045 EQ PUSH2 0x19F JUMPI PUSH1 0x0 DUP1 REVERT JUMPDEST DUP1 PUSH4 0x51D18598 GT PUSH2 0xA7 JUMPI DUP1 PUSH4 0x51D18598 EQ PUSH2 0xE0 JUMPI DUP1 PUSH4 0x63C28DB1 EQ PUSH2 0xF7 JUMPI DUP1 PUSH4 0x6588103B EQ PUSH2 0x117 JUMPI PUSH1 0x0 DUP1 REVERT JUMPDEST DUP1 PUSH4 0x2E1A7D4D EQ PUSH2 0xC3 JUMPI DUP1 PUSH4 0x372500AB EQ PUSH2 0xD8 JUMPI JUMPDEST PUSH1 0x0 DUP1 REVERT JUMPDEST PUSH2 0xD6 PUSH2 0xD1 CALLDATASIZE PUSH1 0x4 PUSH2 0xEAB JUMP JUMPDEST PUSH2 0x215 JUMP JUMPDEST STOP JUMPDEST PUSH2 0xD6 PUSH2 0x578 JUMP JUMPDEST PUSH1 0x2 SLOAD JUMPDEST PUSH1 0x40 MLOAD SWAP1 DUP2 MSTORE PUSH1 0x20 ADD JUMPDEST PUSH1 0x40 MLOAD DUP1 SWAP2 SUB SWAP1 RETURN JUMPDEST PUSH2 0x10A PUSH2 0x105 CALLDATASIZE PUSH1 0x4 PUSH2 0xED9 JUMP JUMPDEST PUSH2 0x643 JUMP JUMPDEST PUSH1 0x40 MLOAD PUSH2 0xEE SWAP2 SWAP1 PUSH2 0xEF6 JUMP JUMPDEST PUSH2 0x13E PUSH32 0x0 DUP2 JUMP JUMPDEST PUSH1 0x40 MLOAD PUSH1 0x1 PUSH1 0x1 PUSH1 0xA0 SHL SUB SWAP1 SWAP2 AND DUP2 MSTORE PUSH1 0x20 ADD PUSH2 0xEE JUMP JUMPDEST PUSH2 0x184 PUSH2 0x164 CALLDATASIZE PUSH1 0x4 PUSH2 0xED9 JUMP JUMPDEST PUSH1 0x3 PUSH1 0x20 DUP2 SWAP1 MSTORE PUSH1 0x0 SWAP2 DUP3 MSTORE PUSH1 0x40 SWAP1 SWAP2 KECCAK256 DUP1 SLOAD PUSH1 0x2 DUP3 ADD SLOAD SWAP2 SWAP1 SWAP3 ADD SLOAD DUP4 JUMP JUMPDEST PUSH1 0x40 DUP1 MLOAD SWAP4 DUP5 MSTORE PUSH1 0x20 DUP5 ADD SWAP3 SWAP1 SWAP3 MSTORE SWAP1 DUP3 ADD MSTORE PUSH1 0x60 ADD PUSH2 0xEE JUMP JUMPDEST PUSH2 0x13E PUSH2 0x1AD CALLDATASIZE PUSH1 0x4 PUSH2 0xEAB JUMP JUMPDEST PUSH1 0x4 PUSH1 0x20 MSTORE PUSH1 0x0 SWAP1 DUP2 MSTORE PUSH1 0x40 SWAP1 KECCAK256 SLOAD PUSH1 0x1 PUSH1 0x1 PUSH1 0xA0 SHL SUB AND DUP2 JUMP JUMPDEST PUSH2 0xD6 PUSH2 0x1D6 CALLDATASIZE PUSH1 0x4 PUSH2 0xEAB JUMP JUMPDEST PUSH2 0x83D JUMP JUMPDEST PUSH2 0x13E PUSH32 0x0 DUP2 JUMP JUMPDEST PUSH2 0xE4 PUSH2 0x210 CALLDATASIZE PUSH1 0x4 PUSH2 0xED9 JUMP JUMPDEST PUSH2 0xB12 JUMP JUMPDEST PUSH1 0x2 PUSH1 0x0 SLOAD SUB PUSH2 0x26C JUMPI PUSH1 0x40 MLOAD PUSH3 0x461BCD PUSH1 0xE5 SHL DUP2 MSTORE PUSH1 0x20 PUSH1 0x4 DUP3 ADD MSTORE PUSH1 0x1F PUSH1 0x24 DUP3 ADD MSTORE PUSH32 0x5265656E7472616E637947756172643A207265656E7472616E742063616C6C00 PUSH1 0x44 DUP3 ADD MSTORE PUSH1 0x64 ADD JUMPDEST PUSH1 0x40 MLOAD DUP1 SWAP2 SUB SWAP1 REVERT JUMPDEST PUSH1 0x2 PUSH1 0x0 SWAP1 DUP2 SSTORE CALLER DUP2 MSTORE PUSH1 0x3 PUSH1 0x20 MSTORE PUSH1 0x40 SWAP1 KECCAK256 SLOAD PUSH2 0x2CC JUMPI PUSH1 0x40 MLOAD PUSH3 0x461BCD PUSH1 0xE5 SHL DUP2 MSTORE PUSH1 0x20 PUSH1 0x4 DUP3 ADD MSTORE PUSH1 0x19 PUSH1 0x24 DUP3 ADD MSTORE PUSH32 0x596F752068617665206E6F20746F6B656E73207374616B656400000000000000 PUSH1 0x44 DUP3 ADD MSTORE PUSH1 0x64 ADD PUSH2 0x263 JUMP JUMPDEST PUSH1 0x0 DUP2 DUP2 MSTORE PUSH1 0x4 PUSH1 0x20 MSTORE PUSH1 0x40 SWAP1 KECCAK256 SLOAD PUSH1 0x1 PUSH1 0x1 PUSH1 0xA0 SHL SUB AND CALLER EQ PUSH2 0x332 JUMPI PUSH1 0x40 MLOAD PUSH3 0x461BCD PUSH1 0xE5 SHL DUP2 MSTORE PUSH1 0x20 PUSH1 0x4 DUP3 ADD MSTORE PUSH1 0x19 PUSH1 0x24 DUP3 ADD MSTORE PUSH32 0x596F7520646F6E2774206F776E207468697320746F6B656E2100000000000000 PUSH1 0x44 DUP3 ADD MSTORE PUSH1 0x64 ADD PUSH2 0x263 JUMP JUMPDEST PUSH1 0x0 PUSH2 0x33D CALLER PUSH2 0xB4A JUMP JUMPDEST CALLER PUSH1 0x0 SWAP1 DUP2 MSTORE PUSH1 0x3 PUSH1 0x20 DUP2 SWAP1 MSTORE PUSH1 0x40 DUP3 KECCAK256 ADD DUP1 SLOAD SWAP3 SWAP4 POP DUP4 SWAP3 SWAP1 SWAP2 SWAP1 PUSH2 0x364 SWAP1 DUP5 SWAP1 PUSH2 0xF64 JUMP JUMPDEST SWAP1 SWAP2 SSTORE POP PUSH1 0x0 SWAP1 POP DUP1 JUMPDEST CALLER PUSH1 0x0 SWAP1 DUP2 MSTORE PUSH1 0x3 PUSH1 0x20 MSTORE PUSH1 0x40 SWAP1 KECCAK256 PUSH1 0x1 ADD SLOAD DUP2 LT ISZERO PUSH2 0x429 JUMPI CALLER PUSH1 0x0 SWAP1 DUP2 MSTORE PUSH1 0x3 PUSH1 0x20 MSTORE PUSH1 0x40 SWAP1 KECCAK256 PUSH1 0x1 ADD DUP1 SLOAD DUP6 SWAP2 SWAP1 DUP4 SWAP1 DUP2 LT PUSH2 0x3AF JUMPI PUSH2 0x3AF PUSH2 0xF7C JUMP JUMPDEST SWAP1 PUSH1 0x0 MSTORE PUSH1 0x20 PUSH1 0x0 KECCAK256 SWAP1 PUSH1 0x2 MUL ADD PUSH1 0x1 ADD SLOAD EQ DUP1 ISZERO PUSH2 0x40A JUMPI POP CALLER PUSH1 0x0 SWAP1 DUP2 MSTORE PUSH1 0x3 PUSH1 0x20 MSTORE PUSH1 0x40 DUP2 KECCAK256 PUSH1 0x1 ADD DUP1 SLOAD DUP4 SWAP1 DUP2 LT PUSH2 0x3ED JUMPI PUSH2 0x3ED PUSH2 0xF7C JUMP JUMPDEST PUSH1 0x0 SWAP2 DUP3 MSTORE PUSH1 0x20 SWAP1 SWAP2 KECCAK256 PUSH1 0x2 SWAP1 SWAP2 MUL ADD SLOAD PUSH1 0x1 PUSH1 0x1 PUSH1 0xA0 SHL SUB AND EQ ISZERO JUMPDEST ISZERO PUSH2 0x417 JUMPI DUP1 SWAP2 POP PUSH2 0x429 JUMP JUMPDEST DUP1 PUSH2 0x421 DUP2 PUSH2 0xF92 JUMP JUMPDEST SWAP2 POP POP PUSH2 0x36E JUMP JUMPDEST POP CALLER PUSH1 0x0 SWAP1 DUP2 MSTORE PUSH1 0x3 PUSH1 0x20 MSTORE PUSH1 0x40 DUP2 KECCAK256 PUSH1 0x1 ADD DUP1 SLOAD DUP4 SWAP1 DUP2 LT PUSH2 0x44E JUMPI PUSH2 0x44E PUSH2 0xF7C JUMP JUMPDEST PUSH1 0x0 SWAP2 DUP3 MSTORE PUSH1 0x20 DUP1 DUP4 KECCAK256 PUSH1 0x2 SWAP3 SWAP1 SWAP3 MUL SWAP1 SWAP2 ADD DUP1 SLOAD PUSH1 0x1 PUSH1 0x1 PUSH1 0xA0 SHL SUB NOT AND PUSH1 0x1 PUSH1 0x1 PUSH1 0xA0 SHL SUB SWAP5 SWAP1 SWAP5 AND SWAP4 SWAP1 SWAP4 OR SWAP1 SWAP3 SSTORE CALLER DUP2 MSTORE PUSH1 0x3 SWAP1 SWAP2 MSTORE PUSH1 0x40 DUP2 KECCAK256 DUP1 SLOAD SWAP2 PUSH2 0x498 DUP4 PUSH2 0xFAB JUMP JUMPDEST SWAP1 SWAP2 SSTORE POP POP PUSH1 0x2 DUP1 SLOAD SWAP1 PUSH1 0x0 PUSH2 0x4AD DUP4 PUSH2 0xFAB JUMP JUMPDEST SWAP1 SWAP2 SSTORE POP POP PUSH1 0x0 DUP4 DUP2 MSTORE PUSH1 0x4 PUSH1 0x20 DUP2 SWAP1 MSTORE PUSH1 0x40 SWAP2 DUP3 SWAP1 KECCAK256 DUP1 SLOAD PUSH1 0x1 PUSH1 0x1 PUSH1 0xA0 SHL SUB NOT AND SWAP1 SSTORE SWAP1 MLOAD PUSH4 0x23B872DD PUSH1 0xE0 SHL DUP2 MSTORE ADDRESS SWAP2 DUP2 ADD SWAP2 SWAP1 SWAP2 MSTORE CALLER PUSH1 0x24 DUP3 ADD MSTORE PUSH1 0x44 DUP2 ADD DUP5 SWAP1 MSTORE PUSH1 0x1 PUSH1 0x1 PUSH1 0xA0 SHL SUB PUSH32 0x0 AND SWAP1 PUSH4 0x23B872DD SWAP1 PUSH1 0x64 ADD PUSH1 0x0 PUSH1 0x40 MLOAD DUP1 DUP4 SUB DUP2 PUSH1 0x0 DUP8 DUP1 EXTCODESIZE ISZERO DUP1 ISZERO PUSH2 0x541 JUMPI PUSH1 0x0 DUP1 REVERT JUMPDEST POP GAS CALL ISZERO DUP1 ISZERO PUSH2 0x555 JUMPI RETURNDATASIZE PUSH1 0x0 DUP1 RETURNDATACOPY RETURNDATASIZE PUSH1 0x0 REVERT JUMPDEST POP POP CALLER PUSH1 0x0 SWAP1 DUP2 MSTORE PUSH1 0x3 PUSH1 0x20 MSTORE PUSH1 0x40 DUP2 KECCAK256 TIMESTAMP PUSH1 0x2 SWAP1 SWAP2 ADD SSTORE PUSH1 0x1 SWAP1 SSTORE POP POP POP POP POP JUMP JUMPDEST CALLER PUSH1 0x0 DUP2 DUP2 MSTORE PUSH1 0x3 PUSH1 0x20 DUP2 SWAP1 MSTORE PUSH1 0x40 DUP3 KECCAK256 ADD SLOAD SWAP1 SWAP2 PUSH2 0x596 SWAP1 PUSH2 0xB4A JUMP JUMPDEST PUSH2 0x5A0 SWAP2 SWAP1 PUSH2 0xF64 JUMP JUMPDEST SWAP1 POP PUSH1 0x0 DUP2 GT PUSH2 0x5F2 JUMPI PUSH1 0x40 MLOAD PUSH3 0x461BCD PUSH1 0xE5 SHL DUP2 MSTORE PUSH1 0x20 PUSH1 0x4 DUP3 ADD MSTORE PUSH1 0x1C PUSH1 0x24 DUP3 ADD MSTORE PUSH32 0x596F752068617665206E6F207265776172647320746F20636C61696D00000000 PUSH1 0x44 DUP3 ADD MSTORE PUSH1 0x64 ADD PUSH2 0x263 JUMP JUMPDEST CALLER PUSH1 0x0 DUP2 DUP2 MSTORE PUSH1 0x3 PUSH1 0x20 DUP2 SWAP1 MSTORE PUSH1 0x40 DUP3 KECCAK256 TIMESTAMP PUSH1 0x2 DUP3 ADD SSTORE ADD SSTORE PUSH2 0x640 SWAP1 PUSH32 0x0 PUSH1 0x1 PUSH1 0x1 PUSH1 0xA0 SHL SUB AND SWAP1 DUP4 PUSH2 0xBC2 JUMP JUMPDEST POP JUMP JUMPDEST PUSH1 0x1 PUSH1 0x1 PUSH1 0xA0 SHL SUB DUP2 AND PUSH1 0x0 SWAP1 DUP2 MSTORE PUSH1 0x3 PUSH1 0x20 MSTORE PUSH1 0x40 SWAP1 KECCAK256 SLOAD PUSH1 0x60 SWAP1 ISZERO PUSH2 0x7F9 JUMPI PUSH1 0x1 PUSH1 0x1 PUSH1 0xA0 SHL SUB DUP3 AND PUSH1 0x0 SWAP1 DUP2 MSTORE PUSH1 0x3 PUSH1 0x20 MSTORE PUSH1 0x40 DUP2 KECCAK256 SLOAD PUSH8 0xFFFFFFFFFFFFFFFF DUP2 GT ISZERO PUSH2 0x695 JUMPI PUSH2 0x695 PUSH2 0xFC2 JUMP JUMPDEST PUSH1 0x40 MLOAD SWAP1 DUP1 DUP3 MSTORE DUP1 PUSH1 0x20 MUL PUSH1 0x20 ADD DUP3 ADD PUSH1 0x40 MSTORE DUP1 ISZERO PUSH2 0x6DA JUMPI DUP2 PUSH1 0x20 ADD JUMPDEST PUSH1 0x40 DUP1 MLOAD DUP1 DUP3 ADD SWAP1 SWAP2 MSTORE PUSH1 0x0 DUP1 DUP3 MSTORE PUSH1 0x20 DUP3 ADD MSTORE DUP2 MSTORE PUSH1 0x20 ADD SWAP1 PUSH1 0x1 SWAP1 SUB SWAP1 DUP2 PUSH2 0x6B3 JUMPI SWAP1 POP JUMPDEST POP SWAP1 POP PUSH1 0x0 DUP1 JUMPDEST PUSH1 0x1 PUSH1 0x1 PUSH1 0xA0 SHL SUB DUP6 AND PUSH1 0x0 SWAP1 DUP2 MSTORE PUSH1 0x3 PUSH1 0x20 MSTORE PUSH1 0x40 SWAP1 KECCAK256 PUSH1 0x1 ADD SLOAD DUP2 LT ISZERO PUSH2 0x7F0 JUMPI PUSH1 0x1 PUSH1 0x1 PUSH1 0xA0 SHL SUB DUP6 AND PUSH1 0x0 SWAP1 DUP2 MSTORE PUSH1 0x3 PUSH1 0x20 MSTORE PUSH1 0x40 DUP2 KECCAK256 PUSH1 0x1 ADD DUP1 SLOAD DUP4 SWAP1 DUP2 LT PUSH2 0x731 JUMPI PUSH2 0x731 PUSH2 0xF7C JUMP JUMPDEST PUSH1 0x0 SWAP2 DUP3 MSTORE PUSH1 0x20 SWAP1 SWAP2 KECCAK256 PUSH1 0x2 SWAP1 SWAP2 MUL ADD SLOAD PUSH1 0x1 PUSH1 0x1 PUSH1 0xA0 SHL SUB AND EQ PUSH2 0x7DE JUMPI PUSH1 0x1 PUSH1 0x1 PUSH1 0xA0 SHL SUB DUP6 AND PUSH1 0x0 SWAP1 DUP2 MSTORE PUSH1 0x3 PUSH1 0x20 MSTORE PUSH1 0x40 SWAP1 KECCAK256 PUSH1 0x1 ADD DUP1 SLOAD DUP3 SWAP1 DUP2 LT PUSH2 0x77D JUMPI PUSH2 0x77D PUSH2 0xF7C JUMP JUMPDEST PUSH1 0x0 SWAP2 DUP3 MSTORE PUSH1 0x20 SWAP2 DUP3 SWAP1 KECCAK256 PUSH1 0x40 DUP1 MLOAD DUP1 DUP3 ADD SWAP1 SWAP2 MSTORE PUSH1 0x2 SWAP1 SWAP3 MUL ADD DUP1 SLOAD PUSH1 0x1 PUSH1 0x1 PUSH1 0xA0 SHL SUB AND DUP3 MSTORE PUSH1 0x1 ADD SLOAD SWAP2 DUP2 ADD SWAP2 SWAP1 SWAP2 MSTORE DUP4 MLOAD DUP5 SWAP1 DUP5 SWAP1 DUP2 LT PUSH2 0x7C4 JUMPI PUSH2 0x7C4 PUSH2 0xF7C JUMP JUMPDEST PUSH1 0x20 MUL PUSH1 0x20 ADD ADD DUP2 SWAP1 MSTORE POP DUP2 DUP1 PUSH2 0x7DA SWAP1 PUSH2 0xF92 JUMP JUMPDEST SWAP3 POP POP JUMPDEST DUP1 PUSH2 0x7E8 DUP2 PUSH2 0xF92 JUMP JUMPDEST SWAP2 POP POP PUSH2 0x6E1 JUMP JUMPDEST POP SWAP1 SWAP4 SWAP3 POP POP POP JUMP JUMPDEST PUSH1 0x40 DUP1 MLOAD PUSH1 0x0 DUP1 DUP3 MSTORE PUSH1 0x20 DUP3 ADD SWAP1 SWAP3 MSTORE SWAP1 PUSH2 0x836 JUMP JUMPDEST PUSH1 0x40 DUP1 MLOAD DUP1 DUP3 ADD SWAP1 SWAP2 MSTORE PUSH1 0x0 DUP1 DUP3 MSTORE PUSH1 0x20 DUP3 ADD MSTORE DUP2 MSTORE PUSH1 0x20 ADD SWAP1 PUSH1 0x1 SWAP1 SUB SWAP1 DUP2 PUSH2 0x80F JUMPI SWAP1 POP JUMPDEST POP SWAP3 SWAP2 POP POP JUMP JUMPDEST PUSH1 0x2 PUSH1 0x0 SLOAD SUB PUSH2 0x88F JUMPI PUSH1 0x40 MLOAD PUSH3 0x461BCD PUSH1 0xE5 SHL DUP2 MSTORE PUSH1 0x20 PUSH1 0x4 DUP3 ADD MSTORE PUSH1 0x1F PUSH1 0x24 DUP3 ADD MSTORE PUSH32 0x5265656E7472616E637947756172643A207265656E7472616E742063616C6C00 PUSH1 0x44 DUP3 ADD MSTORE PUSH1 0x64 ADD PUSH2 0x263 JUMP JUMPDEST PUSH1 0x2 PUSH1 0x0 SWAP1 DUP2 SSTORE CALLER DUP2 MSTORE PUSH1 0x3 PUSH1 0x20 MSTORE PUSH1 0x40 SWAP1 KECCAK256 SLOAD ISZERO PUSH2 0x8E1 JUMPI PUSH1 0x0 PUSH2 0x8B3 CALLER PUSH2 0xB4A JUMP JUMPDEST CALLER PUSH1 0x0 SWAP1 DUP2 MSTORE PUSH1 0x3 PUSH1 0x20 DUP2 SWAP1 MSTORE PUSH1 0x40 DUP3 KECCAK256 ADD DUP1 SLOAD SWAP3 SWAP4 POP DUP4 SWAP3 SWAP1 SWAP2 SWAP1 PUSH2 0x8DA SWAP1 DUP5 SWAP1 PUSH2 0xF64 JUMP JUMPDEST SWAP1 SWAP2 SSTORE POP POP POP JUMPDEST PUSH1 0x40 MLOAD PUSH4 0x31A9108F PUSH1 0xE1 SHL DUP2 MSTORE PUSH1 0x4 DUP2 ADD DUP3 SWAP1 MSTORE CALLER SWAP1 PUSH1 0x1 PUSH1 0x1 PUSH1 0xA0 SHL SUB PUSH32 0x0 AND SWAP1 PUSH4 0x6352211E SWAP1 PUSH1 0x24 ADD PUSH1 0x20 PUSH1 0x40 MLOAD DUP1 DUP4 SUB DUP2 DUP7 GAS STATICCALL ISZERO DUP1 ISZERO PUSH2 0x948 JUMPI RETURNDATASIZE PUSH1 0x0 DUP1 RETURNDATACOPY RETURNDATASIZE PUSH1 0x0 REVERT JUMPDEST POP POP POP POP PUSH1 0x40 MLOAD RETURNDATASIZE PUSH1 0x1F NOT PUSH1 0x1F DUP3 ADD AND DUP3 ADD DUP1 PUSH1 0x40 MSTORE POP DUP2 ADD SWAP1 PUSH2 0x96C SWAP2 SWAP1 PUSH2 0xFD8 JUMP JUMPDEST PUSH1 0x1 PUSH1 0x1 PUSH1 0xA0 SHL SUB AND EQ PUSH2 0x9C2 JUMPI PUSH1 0x40 MLOAD PUSH3 0x461BCD PUSH1 0xE5 SHL DUP2 MSTORE PUSH1 0x20 PUSH1 0x4 DUP3 ADD MSTORE PUSH1 0x19 PUSH1 0x24 DUP3 ADD MSTORE PUSH32 0x596F7520646F6E2774206F776E207468697320746F6B656E2100000000000000 PUSH1 0x44 DUP3 ADD MSTORE PUSH1 0x64 ADD PUSH2 0x263 JUMP JUMPDEST PUSH1 0x40 MLOAD PUSH4 0x23B872DD PUSH1 0xE0 SHL DUP2 MSTORE CALLER PUSH1 0x4 DUP3 ADD MSTORE ADDRESS PUSH1 0x24 DUP3 ADD MSTORE PUSH1 0x44 DUP2 ADD DUP3 SWAP1 MSTORE PUSH32 0x0 PUSH1 0x1 PUSH1 0x1 PUSH1 0xA0 SHL SUB AND SWAP1 PUSH4 0x23B872DD SWAP1 PUSH1 0x64 ADD PUSH1 0x0 PUSH1 0x40 MLOAD DUP1 DUP4 SUB DUP2 PUSH1 0x0 DUP8 DUP1 EXTCODESIZE ISZERO DUP1 ISZERO PUSH2 0xA30 JUMPI PUSH1 0x0 DUP1 REVERT JUMPDEST POP GAS CALL ISZERO DUP1 ISZERO PUSH2 0xA44 JUMPI RETURNDATASIZE PUSH1 0x0 DUP1 RETURNDATACOPY RETURNDATASIZE PUSH1 0x0 REVERT JUMPDEST POP POP PUSH1 0x40 DUP1 MLOAD DUP1 DUP3 ADD DUP3 MSTORE CALLER DUP1 DUP3 MSTORE PUSH1 0x20 DUP1 DUP4 ADD DUP8 DUP2 MSTORE PUSH1 0x0 DUP4 DUP2 MSTORE PUSH1 0x3 DUP4 MSTORE SWAP5 DUP6 KECCAK256 PUSH1 0x1 DUP1 DUP3 ADD DUP1 SLOAD DUP1 DUP4 ADD DUP3 SSTORE SWAP1 DUP9 MSTORE SWAP4 DUP8 KECCAK256 DUP7 MLOAD PUSH1 0x2 SWAP1 SWAP6 MUL ADD DUP1 SLOAD PUSH1 0x1 PUSH1 0x1 PUSH1 0xA0 SHL SUB NOT AND PUSH1 0x1 PUSH1 0x1 PUSH1 0xA0 SHL SUB SWAP1 SWAP6 AND SWAP5 SWAP1 SWAP5 OR DUP5 SSTORE SWAP2 MLOAD SWAP3 SWAP1 SWAP2 ADD SWAP2 SWAP1 SWAP2 SSTORE SWAP1 DUP4 MSTORE DUP1 SLOAD SWAP2 SWAP5 POP SWAP1 SWAP3 POP SWAP1 PUSH2 0xABD DUP4 PUSH2 0xF92 JUMP JUMPDEST SWAP1 SWAP2 SSTORE POP POP PUSH1 0x2 DUP1 SLOAD SWAP1 PUSH1 0x0 PUSH2 0xAD2 DUP4 PUSH2 0xF92 JUMP JUMPDEST SWAP1 SWAP2 SSTORE POP POP POP PUSH1 0x0 SWAP1 DUP2 MSTORE PUSH1 0x4 PUSH1 0x20 SWAP1 DUP2 MSTORE PUSH1 0x40 DUP1 DUP4 KECCAK256 DUP1 SLOAD PUSH1 0x1 PUSH1 0x1 PUSH1 0xA0 SHL SUB NOT AND CALLER SWAP1 DUP2 OR SWAP1 SWAP2 SSTORE DUP4 MSTORE PUSH1 0x3 SWAP1 SWAP2 MSTORE DUP2 KECCAK256 TIMESTAMP PUSH1 0x2 SWAP1 SWAP2 ADD SSTORE PUSH1 0x1 SWAP1 SSTORE JUMP JUMPDEST PUSH1 0x1 PUSH1 0x1 PUSH1 0xA0 SHL SUB DUP2 AND PUSH1 0x0 SWAP1 DUP2 MSTORE PUSH1 0x3 PUSH1 0x20 DUP2 SWAP1 MSTORE PUSH1 0x40 DUP3 KECCAK256 ADD SLOAD DUP2 SWAP1 PUSH2 0xB39 DUP5 PUSH2 0xB4A JUMP JUMPDEST PUSH2 0xB43 SWAP2 SWAP1 PUSH2 0xF64 JUMP JUMPDEST SWAP4 SWAP3 POP POP POP JUMP JUMPDEST PUSH1 0x0 DUP1 PUSH1 0x0 PUSH1 0x2 SLOAD GT PUSH2 0xB5E JUMPI PUSH1 0x1 PUSH2 0xB62 JUMP JUMPDEST PUSH1 0x2 SLOAD JUMPDEST PUSH1 0x1 SLOAD PUSH1 0x1 PUSH1 0x1 PUSH1 0xA0 SHL SUB DUP6 AND PUSH1 0x0 SWAP1 DUP2 MSTORE PUSH1 0x3 PUSH1 0x20 MSTORE PUSH1 0x40 SWAP1 KECCAK256 DUP1 SLOAD PUSH1 0x2 SWAP1 SWAP2 ADD SLOAD SWAP3 SWAP4 POP PUSH2 0xE10 SWAP3 DUP5 SWAP3 SWAP2 SWAP1 PUSH2 0xB9A SWAP1 TIMESTAMP PUSH2 0xFF5 JUMP JUMPDEST PUSH2 0xBA4 SWAP2 SWAP1 PUSH2 0x100C JUMP JUMPDEST PUSH2 0xBAE SWAP2 SWAP1 PUSH2 0x100C JUMP JUMPDEST PUSH2 0xBB8 SWAP2 SWAP1 PUSH2 0x102B JUMP JUMPDEST PUSH2 0xB43 SWAP2 SWAP1 PUSH2 0x102B JUMP JUMPDEST PUSH1 0x40 DUP1 MLOAD PUSH1 0x1 PUSH1 0x1 PUSH1 0xA0 SHL SUB DUP5 AND PUSH1 0x24 DUP3 ADD MSTORE PUSH1 0x44 DUP1 DUP3 ADD DUP5 SWAP1 MSTORE DUP3 MLOAD DUP1 DUP4 SUB SWAP1 SWAP2 ADD DUP2 MSTORE PUSH1 0x64 SWAP1 SWAP2 ADD SWAP1 SWAP2 MSTORE PUSH1 0x20 DUP2 ADD DUP1 MLOAD PUSH28 0xFFFFFFFFFFFFFFFFFFFFFFFFFFFFFFFFFFFFFFFFFFFFFFFFFFFFFFFF AND PUSH4 0xA9059CBB PUSH1 0xE0 SHL OR SWAP1 MSTORE PUSH2 0xC29 SWAP1 DUP5 SWAP1 PUSH2 0xC2E JUMP JUMPDEST POP POP POP JUMP JUMPDEST PUSH1 0x0 PUSH2 0xC83 DUP3 PUSH1 0x40 MLOAD DUP1 PUSH1 0x40 ADD PUSH1 0x40 MSTORE DUP1 PUSH1 0x20 DUP2 MSTORE PUSH1 0x20 ADD PUSH32 0x5361666545524332303A206C6F772D6C6576656C2063616C6C206661696C6564 DUP2 MSTORE POP DUP6 PUSH1 0x1 PUSH1 0x1 PUSH1 0xA0 SHL SUB AND PUSH2 0xD13 SWAP1 SWAP3 SWAP2 SWAP1 PUSH4 0xFFFFFFFF AND JUMP JUMPDEST DUP1 MLOAD SWAP1 SWAP2 POP ISZERO PUSH2 0xC29 JUMPI DUP1 DUP1 PUSH1 0x20 ADD SWAP1 MLOAD DUP2 ADD SWAP1 PUSH2 0xCA1 SWAP2 SWAP1 PUSH2 0x104D JUMP JUMPDEST PUSH2 0xC29 JUMPI PUSH1 0x40 MLOAD PUSH3 0x461BCD PUSH1 0xE5 SHL DUP2 MSTORE PUSH1 0x20 PUSH1 0x4 DUP3 ADD MSTORE PUSH1 0x2A PUSH1 0x24 DUP3 ADD MSTORE PUSH32 0x5361666545524332303A204552433230206F7065726174696F6E20646964206E PUSH1 0x44 DUP3 ADD MSTORE PUSH32 0x6F74207375636365656400000000000000000000000000000000000000000000 PUSH1 0x64 DUP3 ADD MSTORE PUSH1 0x84 ADD PUSH2 0x263 JUMP JUMPDEST PUSH1 0x60 PUSH2 0xD22 DUP5 DUP5 PUSH1 0x0 DUP6 PUSH2 0xD2A JUMP JUMPDEST SWAP5 SWAP4 POP POP POP POP JUMP JUMPDEST PUSH1 0x60 DUP3 SELFBALANCE LT ISZERO PUSH2 0xDA2 JUMPI PUSH1 0x40 MLOAD PUSH3 0x461BCD PUSH1 0xE5 SHL DUP2 MSTORE PUSH1 0x20 PUSH1 0x4 DUP3 ADD MSTORE PUSH1 0x26 PUSH1 0x24 DUP3 ADD MSTORE PUSH32 0x416464726573733A20696E73756666696369656E742062616C616E636520666F PUSH1 0x44 DUP3 ADD MSTORE PUSH32 0x722063616C6C0000000000000000000000000000000000000000000000000000 PUSH1 0x64 DUP3 ADD MSTORE PUSH1 0x84 ADD PUSH2 0x263 JUMP JUMPDEST PUSH1 0x1 PUSH1 0x1 PUSH1 0xA0 SHL SUB DUP6 AND EXTCODESIZE PUSH2 0xDF9 JUMPI PUSH1 0x40 MLOAD PUSH3 0x461BCD PUSH1 0xE5 SHL DUP2 MSTORE PUSH1 0x20 PUSH1 0x4 DUP3 ADD MSTORE PUSH1 0x1D PUSH1 0x24 DUP3 ADD MSTORE PUSH32 0x416464726573733A2063616C6C20746F206E6F6E2D636F6E7472616374000000 PUSH1 0x44 DUP3 ADD MSTORE PUSH1 0x64 ADD PUSH2 0x263 JUMP JUMPDEST PUSH1 0x0 DUP1 DUP7 PUSH1 0x1 PUSH1 0x1 PUSH1 0xA0 SHL SUB AND DUP6 DUP8 PUSH1 0x40 MLOAD PUSH2 0xE15 SWAP2 SWAP1 PUSH2 0x109F JUMP JUMPDEST PUSH1 0x0 PUSH1 0x40 MLOAD DUP1 DUP4 SUB DUP2 DUP6 DUP8 GAS CALL SWAP3 POP POP POP RETURNDATASIZE DUP1 PUSH1 0x0 DUP2 EQ PUSH2 0xE52 JUMPI PUSH1 0x40 MLOAD SWAP2 POP PUSH1 0x1F NOT PUSH1 0x3F RETURNDATASIZE ADD AND DUP3 ADD PUSH1 0x40 MSTORE RETURNDATASIZE DUP3 MSTORE RETURNDATASIZE PUSH1 0x0 PUSH1 0x20 DUP5 ADD RETURNDATACOPY PUSH2 0xE57 JUMP JUMPDEST PUSH1 0x60 SWAP2 POP JUMPDEST POP SWAP2 POP SWAP2 POP PUSH2 0xE67 DUP3 DUP3 DUP7 PUSH2 0xE72 JUMP JUMPDEST SWAP8 SWAP7 POP POP POP POP POP POP POP JUMP JUMPDEST PUSH1 0x60 DUP4 ISZERO PUSH2 0xE81 JUMPI POP DUP2 PUSH2 0xB43 JUMP JUMPDEST DUP3 MLOAD ISZERO PUSH2 0xE91 JUMPI DUP3 MLOAD DUP1 DUP5 PUSH1 0x20 ADD REVERT JUMPDEST DUP2 PUSH1 0x40 MLOAD PUSH3 0x461BCD PUSH1 0xE5 SHL DUP2 MSTORE PUSH1 0x4 ADD PUSH2 0x263 SWAP2 SWAP1 PUSH2 0x10BB JUMP JUMPDEST PUSH1 0x0 PUSH1 0x20 DUP3 DUP5 SUB SLT ISZERO PUSH2 0xEBD JUMPI PUSH1 0x0 DUP1 REVERT JUMPDEST POP CALLDATALOAD SWAP2 SWAP1 POP JUMP JUMPDEST PUSH1 0x1 PUSH1 0x1 PUSH1 0xA0 SHL SUB DUP2 AND DUP2 EQ PUSH2 0x640 JUMPI PUSH1 0x0 DUP1 REVERT JUMPDEST PUSH1 0x0 PUSH1 0x20 DUP3 DUP5 SUB SLT ISZERO PUSH2 0xEEB JUMPI PUSH1 0x0 DUP1 REVERT JUMPDEST DUP2 CALLDATALOAD PUSH2 0xB43 DUP2 PUSH2 0xEC4 JUMP JUMPDEST PUSH1 0x20 DUP1 DUP3 MSTORE DUP3 MLOAD DUP3 DUP3 ADD DUP2 SWAP1 MSTORE PUSH1 0x0 SWAP2 SWAP1 PUSH1 0x40 SWAP1 DUP2 DUP6 ADD SWAP1 DUP7 DUP5 ADD DUP6 JUMPDEST DUP3 DUP2 LT ISZERO PUSH2 0xF41 JUMPI DUP2 MLOAD DUP1 MLOAD PUSH1 0x1 PUSH1 0x1 PUSH1 0xA0 SHL SUB AND DUP6 MSTORE DUP7 ADD MLOAD DUP7 DUP6 ADD MSTORE SWAP3 DUP5 ADD SWAP3 SWAP1 DUP6 ADD SWAP1 PUSH1 0x1 ADD PUSH2 0xF13 JUMP JUMPDEST POP SWAP2 SWAP8 SWAP7 POP POP POP POP POP POP POP JUMP JUMPDEST PUSH4 0x4E487B71 PUSH1 0xE0 SHL PUSH1 0x0 MSTORE PUSH1 0x11 PUSH1 0x4 MSTORE PUSH1 0x24 PUSH1 0x0 REVERT JUMPDEST PUSH1 0x0 DUP3 NOT DUP3 GT ISZERO PUSH2 0xF77 JUMPI PUSH2 0xF77 PUSH2 0xF4E JUMP JUMPDEST POP ADD SWAP1 JUMP JUMPDEST PUSH4 0x4E487B71 PUSH1 0xE0 SHL PUSH1 0x0 MSTORE PUSH1 0x32 PUSH1 0x4 MSTORE PUSH1 0x24 PUSH1 0x0 REVERT JUMPDEST PUSH1 0x0 PUSH1 0x1 DUP3 ADD PUSH2 0xFA4 JUMPI PUSH2 0xFA4 PUSH2 0xF4E JUMP JUMPDEST POP PUSH1 0x1 ADD SWAP1 JUMP JUMPDEST PUSH1 0x0 DUP2 PUSH2 0xFBA JUMPI PUSH2 0xFBA PUSH2 0xF4E JUMP JUMPDEST POP PUSH1 0x0 NOT ADD SWAP1 JUMP JUMPDEST PUSH4 0x4E487B71 PUSH1 0xE0 SHL PUSH1 0x0 MSTORE PUSH1 0x41 PUSH1 0x4 MSTORE PUSH1 0x24 PUSH1 0x0 REVERT JUMPDEST PUSH1 0x0 PUSH1 0x20 DUP3 DUP5 SUB SLT ISZERO PUSH2 0xFEA JUMPI PUSH1 0x0 DUP1 REVERT JUMPDEST DUP2 MLOAD PUSH2 0xB43 DUP2 PUSH2 0xEC4 JUMP JUMPDEST PUSH1 0x0 DUP3 DUP3 LT ISZERO PUSH2 0x1007 JUMPI PUSH2 0x1007 PUSH2 0xF4E JUMP JUMPDEST POP SUB SWAP1 JUMP JUMPDEST PUSH1 0x0 DUP2 PUSH1 0x0 NOT DIV DUP4 GT DUP3 ISZERO ISZERO AND ISZERO PUSH2 0x1026 JUMPI PUSH2 0x1026 PUSH2 0xF4E JUMP JUMPDEST POP MUL SWAP1 JUMP JUMPDEST PUSH1 0x0 DUP3 PUSH2 0x1048 JUMPI PUSH4 0x4E487B71 PUSH1 0xE0 SHL PUSH1 0x0 MSTORE PUSH1 0x12 PUSH1 0x4 MSTORE PUSH1 0x24 PUSH1 0x0 REVERT JUMPDEST POP DIV SWAP1 JUMP JUMPDEST PUSH1 0x0 PUSH1 0x20 DUP3 DUP5 SUB SLT ISZERO PUSH2 0x105F JUMPI PUSH1 0x0 DUP1 REVERT JUMPDEST DUP2 MLOAD DUP1 ISZERO ISZERO DUP2 EQ PUSH2 0xB43 JUMPI PUSH1 0x0 DUP1 REVERT JUMPDEST PUSH1 0x0 JUMPDEST DUP4 DUP2 LT ISZERO PUSH2 0x108A JUMPI DUP2 DUP2 ADD MLOAD DUP4 DUP3 ADD MSTORE PUSH1 0x20 ADD PUSH2 0x1072 JUMP JUMPDEST DUP4 DUP2 GT ISZERO PUSH2 0x1099 JUMPI PUSH1 0x0 DUP5 DUP5 ADD MSTORE JUMPDEST POP POP POP POP JUMP JUMPDEST PUSH1 0x0 DUP3 MLOAD PUSH2 0x10B1 DUP2 DUP5 PUSH1 0x20 DUP8 ADD PUSH2 0x106F JUMP JUMPDEST SWAP2 SWAP1 SWAP2 ADD SWAP3 SWAP2 POP POP JUMP JUMPDEST PUSH1 0x20 DUP2 MSTORE PUSH1 0x0 DUP3 MLOAD DUP1 PUSH1 0x20 DUP5 ADD MSTORE PUSH2 0x10DA DUP2 PUSH1 0x40 DUP6 ADD PUSH1 0x20 DUP8 ADD PUSH2 0x106F JUMP JUMPDEST PUSH1 0x1F ADD PUSH1 0x1F NOT AND SWAP2 SWAP1 SWAP2 ADD PUSH1 0x40 ADD SWAP3 SWAP2 POP POP JUMP INVALID LOG2 PUSH5 0x6970667358 0x22 SLT KECCAK256 0xD1 0x4E 0x27 0x5D 0xC9 0xE0 SWAP6 NOT 0xAE DUP15 0x4D DUP12 SSTORE 0xE3 0xC6 0x2D DUP9 SWAP13 0xB6 0xAD DUP11 SWAP13 EQ ADDRESS 0xA8 MLOAD RETURNDATACOPY CALLCODE PUSH15 0x763B1664736F6C634300080D003300 "
    },
    "gasEstimates": {
      "creation": {
        "codeDepositCost": "877600",
        "executionCost": "infinite",
        "totalCost": "infinite"
      },
      "external": {
        "availableRewards(address)": "infinite",
        "claimRewards()": "infinite",
        "getStakedTokens(address)": "infinite",
        "getTotalStakedTokens()": "2293",
        "nftCollection()": "infinite",
        "rewardsToken()": "infinite",
        "stake(uint256)": "infinite",
        "stakerAddress(uint256)": "2522",
        "stakers(address)": "6811",
        "withdraw(uint256)": "infinite"
      },
      "internal": {
        "calculateRewards(address)": "infinite"
      }
    },
    "methodIdentifiers": {
      "availableRewards(address)": "f854a27f",
      "claimRewards()": "372500ab",
      "getStakedTokens(address)": "63c28db1",
      "getTotalStakedTokens()": "51d18598",
      "nftCollection()": "6588103b",
      "rewardsToken()": "d1af0c7d",
      "stake(uint256)": "a694fc3a",
      "stakerAddress(uint256)": "94067045",
      "stakers(address)": "9168ae72",
      "withdraw(uint256)": "2e1a7d4d"
    }
  },
  "storageLayout": {
    "storage": [
      {
        "astId": 548,
        "contract": "SafuStaking.sol:ERC721Staking",
        "label": "_status",
        "offset": 0,
        "slot": "0",
        "type": "t_uint256"
      },
      {
        "astId": 62,
        "contract": "SafuStaking.sol:ERC721Staking",
        "label": "rewardsPerHour",
        "offset": 0,
        "slot": "1",
        "type": "t_uint256"
      },
      {
        "astId": 65,
        "contract": "SafuStaking.sol:ERC721Staking",
        "label": "stakedTokensCount",
        "offset": 0,
        "slot": "2",
        "type": "t_uint256"
      },
      {
        "astId": 70,
        "contract": "SafuStaking.sol:ERC721Staking",
        "label": "stakers",
        "offset": 0,
        "slot": "3",
        "type": "t_mapping(t_address,t_struct(Staker)51_storage)"
      },
      {
        "astId": 74,
        "contract": "SafuStaking.sol:ERC721Staking",
        "label": "stakerAddress",
        "offset": 0,
        "slot": "4",
        "type": "t_mapping(t_uint256,t_address)"
      }
    ],
    "types": {
      "t_address": {
        "encoding": "inplace",
        "label": "address",
        "numberOfBytes": "20"
      },
      "t_array(t_struct(StakedToken)40_storage)dyn_storage": {
        "base": "t_struct(StakedToken)40_storage",
        "encoding": "dynamic_array",
        "label": "struct ERC721Staking.StakedToken[]",
        "numberOfBytes": "32"
      },
      "t_mapping(t_address,t_struct(Staker)51_storage)": {
        "encoding": "mapping",
        "key": "t_address",
        "label": "mapping(address => struct ERC721Staking.Staker)",
        "numberOfBytes": "32",
        "value": "t_struct(Staker)51_storage"
      },
      "t_mapping(t_uint256,t_address)": {
        "encoding": "mapping",
        "key": "t_uint256",
        "label": "mapping(uint256 => address)",
        "numberOfBytes": "32",
        "value": "t_address"
      },
      "t_struct(StakedToken)40_storage": {
        "encoding": "inplace",
        "label": "struct ERC721Staking.StakedToken",
        "members": [
          {
            "astId": 37,
            "contract": "SafuStaking.sol:ERC721Staking",
            "label": "staker",
            "offset": 0,
            "slot": "0",
            "type": "t_address"
          },
          {
            "astId": 39,
            "contract": "SafuStaking.sol:ERC721Staking",
            "label": "tokenId",
            "offset": 0,
            "slot": "1",
            "type": "t_uint256"
          }
        ],
        "numberOfBytes": "64"
      },
      "t_struct(Staker)51_storage": {
        "encoding": "inplace",
        "label": "struct ERC721Staking.Staker",
        "members": [
          {
            "astId": 42,
            "contract": "SafuStaking.sol:ERC721Staking",
            "label": "amountStaked",
            "offset": 0,
            "slot": "0",
            "type": "t_uint256"
          },
          {
            "astId": 46,
            "contract": "SafuStaking.sol:ERC721Staking",
            "label": "stakedTokens",
            "offset": 0,
            "slot": "1",
            "type": "t_array(t_struct(StakedToken)40_storage)dyn_storage"
          },
          {
            "astId": 48,
            "contract": "SafuStaking.sol:ERC721Staking",
            "label": "timeOfLastUpdate",
            "offset": 0,
            "slot": "2",
            "type": "t_uint256"
          },
          {
            "astId": 50,
            "contract": "SafuStaking.sol:ERC721Staking",
            "label": "unclaimedRewards",
            "offset": 0,
            "slot": "3",
            "type": "t_uint256"
          }
        ],
        "numberOfBytes": "128"
      },
      "t_uint256": {
        "encoding": "inplace",
        "label": "uint256",
        "numberOfBytes": "32"
      }
    }
  },
  "userdoc": {
    "kind": "user",
    "methods": {},
    "version": 1
  }
}