{
  "abi": [
    {
      "inputs": [
        {
          "internalType": "address",
          "name": "_nftCollection",
          "type": "address"
        },
        {
          "internalType": "address",
          "name": "_rewardsToken",
          "type": "address"
        }
      ],
      "stateMutability": "nonpayable",
      "type": "constructor"
    },
    {
      "anonymous": false,
      "inputs": [
        {
          "indexed": true,
          "internalType": "address",
          "name": "previousOwner",
          "type": "address"
        },
        {
          "indexed": true,
          "internalType": "address",
          "name": "newOwner",
          "type": "address"
        }
      ],
      "name": "OwnershipTransferred",
      "type": "event"
    },
    {
      "anonymous": false,
      "inputs": [
        {
          "indexed": false,
          "internalType": "uint256",
          "name": "reward",
          "type": "uint256"
        }
      ],
      "name": "RewardAdded",
      "type": "event"
    },
    {
      "anonymous": false,
      "inputs": [
        {
          "indexed": true,
          "internalType": "address",
          "name": "user",
          "type": "address"
        },
        {
          "indexed": false,
          "internalType": "uint256",
          "name": "reward",
          "type": "uint256"
        }
      ],
      "name": "RewardPaid",
      "type": "event"
    },
    {
      "anonymous": false,
      "inputs": [
        {
          "indexed": false,
          "internalType": "uint256",
          "name": "newDuration",
          "type": "uint256"
        }
      ],
      "name": "RewardsDurationUpdated",
      "type": "event"
    },
    {
      "anonymous": false,
      "inputs": [
        {
          "indexed": true,
          "internalType": "address",
          "name": "user",
          "type": "address"
        },
        {
          "indexed": false,
          "internalType": "uint256",
          "name": "amount",
          "type": "uint256"
        },
        {
          "indexed": false,
          "internalType": "uint256[]",
          "name": "tokenIds",
          "type": "uint256[]"
        }
      ],
      "name": "Staked",
      "type": "event"
    },
    {
      "anonymous": false,
      "inputs": [
        {
          "indexed": true,
          "internalType": "address",
          "name": "user",
          "type": "address"
        },
        {
          "indexed": false,
          "internalType": "uint256",
          "name": "amount",
          "type": "uint256"
        },
        {
          "indexed": false,
          "internalType": "uint256[]",
          "name": "tokenIds",
          "type": "uint256[]"
        }
      ],
      "name": "Withdrawn",
      "type": "event"
    },
    {
      "inputs": [
        {
          "internalType": "uint256",
          "name": "reward",
          "type": "uint256"
        }
      ],
      "name": "addRewardAmount",
      "outputs": [],
      "stateMutability": "nonpayable",
      "type": "function"
    },
    {
      "inputs": [
        {
          "internalType": "address",
          "name": "_user",
          "type": "address"
        }
      ],
      "name": "calculateRewards",
      "outputs": [
        {
          "internalType": "uint256",
          "name": "_rewards",
          "type": "uint256"
        }
      ],
      "stateMutability": "view",
      "type": "function"
    },
    {
      "inputs": [],
      "name": "claimRewards",
      "outputs": [],
      "stateMutability": "nonpayable",
      "type": "function"
    },
    {
      "inputs": [],
      "name": "claiming",
      "outputs": [
        {
          "internalType": "bool",
          "name": "",
          "type": "bool"
        }
      ],
      "stateMutability": "view",
      "type": "function"
    },
    {
      "inputs": [],
      "name": "getRewardForDuration",
      "outputs": [
        {
          "internalType": "uint256",
          "name": "_distributedTokens",
          "type": "uint256"
        }
      ],
      "stateMutability": "view",
      "type": "function"
    },
    {
      "inputs": [],
      "name": "getRewardPerToken",
      "outputs": [
        {
          "internalType": "uint256",
          "name": "_rewardPerToken",
          "type": "uint256"
        }
      ],
      "stateMutability": "view",
      "type": "function"
    },
    {
      "inputs": [],
      "name": "lastTimeRewardApplicable",
      "outputs": [
        {
          "internalType": "uint256",
          "name": "_lastRewardsApplicable",
          "type": "uint256"
        }
      ],
      "stateMutability": "view",
      "type": "function"
    },
    {
      "inputs": [],
      "name": "lastUpdateTime",
      "outputs": [
        {
          "internalType": "uint256",
          "name": "",
          "type": "uint256"
        }
      ],
      "stateMutability": "view",
      "type": "function"
    },
    {
      "inputs": [],
      "name": "nftCollection",
      "outputs": [
        {
          "internalType": "contract IERC721",
          "name": "",
          "type": "address"
        }
      ],
      "stateMutability": "view",
      "type": "function"
    },
    {
      "inputs": [
        {
          "internalType": "address",
          "name": "",
          "type": "address"
        },
        {
          "internalType": "address",
          "name": "",
          "type": "address"
        },
        {
          "internalType": "uint256",
          "name": "",
          "type": "uint256"
        },
        {
          "internalType": "bytes",
          "name": "",
          "type": "bytes"
        }
      ],
      "name": "onERC721Received",
      "outputs": [
        {
          "internalType": "bytes4",
          "name": "",
          "type": "bytes4"
        }
      ],
      "stateMutability": "nonpayable",
      "type": "function"
    },
    {
      "inputs": [],
      "name": "owner",
      "outputs": [
        {
          "internalType": "address",
          "name": "",
          "type": "address"
        }
      ],
      "stateMutability": "view",
      "type": "function"
    },
    {
      "inputs": [],
      "name": "periodFinish",
      "outputs": [
        {
          "internalType": "uint256",
          "name": "",
          "type": "uint256"
        }
      ],
      "stateMutability": "view",
      "type": "function"
    },
    {
      "inputs": [],
      "name": "renounceOwnership",
      "outputs": [],
      "stateMutability": "nonpayable",
      "type": "function"
    },
    {
      "inputs": [],
      "name": "rewardPerToken",
      "outputs": [
        {
          "internalType": "uint256",
          "name": "",
          "type": "uint256"
        }
      ],
      "stateMutability": "view",
      "type": "function"
    },
    {
      "inputs": [],
      "name": "rewardRate",
      "outputs": [
        {
          "internalType": "uint256",
          "name": "",
          "type": "uint256"
        }
      ],
      "stateMutability": "view",
      "type": "function"
    },
    {
      "inputs": [],
      "name": "rewardsDuration",
      "outputs": [
        {
          "internalType": "uint256",
          "name": "",
          "type": "uint256"
        }
      ],
      "stateMutability": "view",
      "type": "function"
    },
    {
      "inputs": [],
      "name": "rewardsToken",
      "outputs": [
        {
          "internalType": "contract IERC20",
          "name": "",
          "type": "address"
        }
      ],
      "stateMutability": "view",
      "type": "function"
    },
    {
      "inputs": [
        {
          "internalType": "bool",
          "name": "_newState",
          "type": "bool"
        }
      ],
      "name": "setClaimingState",
      "outputs": [],
      "stateMutability": "nonpayable",
      "type": "function"
    },
    {
      "inputs": [
        {
          "internalType": "uint256",
          "name": "_amount",
          "type": "uint256"
        },
        {
          "internalType": "uint256",
          "name": "_duration",
          "type": "uint256"
        }
      ],
      "name": "setStakingPeriod",
      "outputs": [],
      "stateMutability": "nonpayable",
      "type": "function"
    },
    {
      "inputs": [
        {
          "internalType": "uint256[]",
          "name": "tokenIds",
          "type": "uint256[]"
        }
      ],
      "name": "stake",
      "outputs": [],
      "stateMutability": "nonpayable",
      "type": "function"
    },
    {
      "inputs": [
        {
          "internalType": "uint256",
          "name": "",
          "type": "uint256"
        }
      ],
      "name": "stakedAssets",
      "outputs": [
        {
          "internalType": "address",
          "name": "",
          "type": "address"
        }
      ],
      "stateMutability": "view",
      "type": "function"
    },
    {
      "inputs": [],
      "name": "totalStakedSupply",
      "outputs": [
        {
          "internalType": "uint256",
          "name": "",
          "type": "uint256"
        }
      ],
      "stateMutability": "view",
      "type": "function"
    },
    {
      "inputs": [
        {
          "internalType": "address",
          "name": "newOwner",
          "type": "address"
        }
      ],
      "name": "transferOwnership",
      "outputs": [],
      "stateMutability": "nonpayable",
      "type": "function"
    },
    {
      "inputs": [
        {
          "internalType": "address",
          "name": "",
          "type": "address"
        }
      ],
      "name": "userRewardPerTokenPaid",
      "outputs": [
        {
          "internalType": "uint256",
          "name": "",
          "type": "uint256"
        }
      ],
      "stateMutability": "view",
      "type": "function"
    },
    {
      "inputs": [
        {
          "internalType": "address",
          "name": "_user",
          "type": "address"
        }
      ],
      "name": "userStakeInfo",
      "outputs": [
        {
          "internalType": "uint256[]",
          "name": "_tokensStaked",
          "type": "uint256[]"
        },
        {
          "internalType": "uint256",
          "name": "_availableRewards",
          "type": "uint256"
        }
      ],
      "stateMutability": "view",
      "type": "function"
    },
    {
      "inputs": [
        {
          "internalType": "uint256[]",
          "name": "tokenIds",
          "type": "uint256[]"
        }
      ],
      "name": "withdraw",
      "outputs": [],
      "stateMutability": "nonpayable",
      "type": "function"
    },
    {
      "inputs": [],
      "name": "withdrawAll",
      "outputs": [],
      "stateMutability": "nonpayable",
      "type": "function"
    }
  ],
  "devdoc": {
    "author": "SAFU Protocol (SAFU.net / FOMO.tech) - Andrei Toma",
    "kind": "dev",
    "methods": {
      "addRewardAmount(uint256)": {
        "details": "the Staking Contract have to already own enough Rewards Tokens to distribute all the rewards, so make sure to send all the tokens to the contract before calling this function",
        "params": {
          "reward": "the amount of tokens to be added to the rewards pool"
        }
      },
      "calculateRewards(address)": {
        "params": {
          "_user": "the address of the user to calculate available rewards for"
        },
        "returns": {
          "_rewards": "the amount of tokens available as rewards for the passed address"
        }
      },
      "constructor": {
        "params": {
          "_nftCollection": "the address of the ERC721 Contract",
          "_rewardsToken": "the address of the ERC20 token used for rewards"
        }
      },
      "getRewardForDuration()": {
        "returns": {
          "_distributedTokens": "the total amount of ERC20 Tokens distributed as rewards for the set staking period"
        }
      },
      "getRewardPerToken()": {
        "returns": {
          "_rewardPerToken": "the amount of token per second rewarded for staking one NFT"
        }
      },
      "lastTimeRewardApplicable()": {
        "returns": {
          "_lastRewardsApplicable": "the last time the rewards were applicable, returns block.timestamp if the rewards period is not ended"
        }
      },
      "onERC721Received(address,address,uint256,bytes)": {
        "details": "See {IERC721Receiver-onERC721Received}. Always returns `IERC721Receiver.onERC721Received.selector`."
      },
      "owner()": {
        "details": "Returns the address of the current owner."
      },
      "renounceOwnership()": {
        "details": "Leaves the contract without owner. It will not be possible to call `onlyOwner` functions anymore. Can only be called by the current owner. NOTE: Renouncing ownership will leave the contract without an owner, thereby removing any functionality that is only available to the owner."
      },
      "setClaimingState(bool)": {
        "params": {
          "_newState": "the state of claiming"
        }
      },
      "setStakingPeriod(uint256,uint256)": {
        "params": {
          "_amount": "the amount of Reward Tokens to be distributed",
          "_duration": "the duration in with the rewards will be distributed, in seconds"
        }
      },
      "stake(uint256[])": {
        "details": "the Token IDs have to be prevoiusly approved for transfer in the ERC721 contract with the address of this contract",
        "params": {
          "tokenIds": "array of Token IDs of the NFTs to be staked"
        }
      },
      "transferOwnership(address)": {
        "details": "Transfers ownership of the contract to a new account (`newOwner`). Can only be called by the current owner."
      },
      "userStakeInfo(address)": {
        "params": {
          "_user": "the address of the user to get informations for"
        },
        "returns": {
          "_availableRewards": "the rewards accumulated by the user",
          "_tokensStaked": "an array of NFT Token IDs that are staked by the user"
        }
      },
      "withdraw(uint256[])": {
        "params": {
          "tokenIds": "array of Token IDs of the NFTs to be withdrawn"
        }
      }
    },
    "title": "SAFU Guardian NFT Staking Contract",
    "version": 1
  },
  "evm": {
    "assembly": "    /* \"SafuERC721Staking.sol\":769:10565  contract SafuERC721Staking is ERC721Holder, ReentrancyGuard, Ownable {... */\n  mstore(0x40, 0x80)\n    /* \"SafuERC721Staking.sol\":1551:1712  constructor(address _nftCollection, address _rewardsToken) {... */\n  callvalue\n  dup1\n  iszero\n  tag_1\n  jumpi\n  0x00\n  dup1\n  revert\ntag_1:\n  pop\n  mload(0x40)\n  sub(codesize, bytecodeSize)\n  dup1\n  bytecodeSize\n  dup4\n  codecopy\n  dup2\n  add\n  0x40\n  dup2\n  swap1\n  mstore\n  tag_2\n  swap2\n  tag_3\n  jump\t// in\ntag_2:\n    /* \"@openzeppelin/contracts/security/ReentrancyGuard.sol\":1701:1702   */\n  0x01\n    /* \"@openzeppelin/contracts/security/ReentrancyGuard.sol\":1806:1813   */\n  0x00\n    /* \"@openzeppelin/contracts/security/ReentrancyGuard.sol\":1806:1828   */\n  sstore\n    /* \"@openzeppelin/contracts/access/Ownable.sol\":936:968   */\n  tag_9\n    /* \"@openzeppelin/contracts/utils/Context.sol\":719:729   */\n  caller\n    /* \"@openzeppelin/contracts/access/Ownable.sol\":936:954   */\n  tag_12\n    /* \"@openzeppelin/contracts/access/Ownable.sol\":936:968   */\n  jump\t// in\ntag_9:\n    /* \"SafuERC721Staking.sol\":1620:1633  nftCollection */\n  0x03\n    /* \"SafuERC721Staking.sol\":1620:1659  nftCollection = IERC721(_nftCollection) */\n  dup1\n  sload\n  sub(shl(0xa0, 0x01), 0x01)\n  swap4\n  dup5\n  and\n  not(sub(shl(0xa0, 0x01), 0x01))\n  swap2\n  dup3\n  and\n  or\n  swap1\n  swap2\n  sstore\n    /* \"SafuERC721Staking.sol\":1669:1681  rewardsToken */\n  0x02\n    /* \"SafuERC721Staking.sol\":1669:1705  rewardsToken = IERC20(_rewardsToken) */\n  dup1\n  sload\n  swap3\n  swap1\n  swap4\n  and\n  swap2\n  and\n  or\n  swap1\n  sstore\n    /* \"SafuERC721Staking.sol\":769:10565  contract SafuERC721Staking is ERC721Holder, ReentrancyGuard, Ownable {... */\n  jump(tag_18)\n    /* \"@openzeppelin/contracts/access/Ownable.sol\":2433:2620   */\ntag_12:\n    /* \"@openzeppelin/contracts/access/Ownable.sol\":2525:2531   */\n  0x01\n  dup1\n  sload\n  sub(shl(0xa0, 0x01), 0x01)\n    /* \"@openzeppelin/contracts/access/Ownable.sol\":2541:2558   */\n  dup4\n  dup2\n  and\n  not(sub(shl(0xa0, 0x01), 0x01))\n  dup4\n  and\n  dup2\n  or\n  swap1\n  swap4\n  sstore\n    /* \"@openzeppelin/contracts/access/Ownable.sol\":2573:2613   */\n  mload(0x40)\n    /* \"@openzeppelin/contracts/access/Ownable.sol\":2525:2531   */\n  swap2\n  and\n  swap2\n    /* \"@openzeppelin/contracts/access/Ownable.sol\":2541:2558   */\n  swap1\n    /* \"@openzeppelin/contracts/access/Ownable.sol\":2525:2531   */\n  dup3\n  swap1\n    /* \"@openzeppelin/contracts/access/Ownable.sol\":2573:2613   */\n  0x8be0079c531659141344cd1fd0a4f28419497f9722a3daafe3b4186f6b6457e0\n  swap1\n    /* \"@openzeppelin/contracts/access/Ownable.sol\":2506:2522   */\n  0x00\n  swap1\n    /* \"@openzeppelin/contracts/access/Ownable.sol\":2573:2613   */\n  log3\n    /* \"@openzeppelin/contracts/access/Ownable.sol\":2496:2620   */\n  pop\n    /* \"@openzeppelin/contracts/access/Ownable.sol\":2433:2620   */\n  pop\n  jump\t// out\n    /* \"#utility.yul\":14:191   */\ntag_17:\n    /* \"#utility.yul\":93:106   */\n  dup1\n  mload\n  sub(shl(0xa0, 0x01), 0x01)\n    /* \"#utility.yul\":135:166   */\n  dup2\n  and\n    /* \"#utility.yul\":125:167   */\n  dup2\n  eq\n    /* \"#utility.yul\":115:185   */\n  tag_20\n  jumpi\n    /* \"#utility.yul\":181:182   */\n  0x00\n    /* \"#utility.yul\":178:179   */\n  dup1\n    /* \"#utility.yul\":171:183   */\n  revert\n    /* \"#utility.yul\":115:185   */\ntag_20:\n    /* \"#utility.yul\":14:191   */\n  swap2\n  swap1\n  pop\n  jump\t// out\n    /* \"#utility.yul\":196:489   */\ntag_3:\n    /* \"#utility.yul\":275:281   */\n  0x00\n    /* \"#utility.yul\":283:289   */\n  dup1\n    /* \"#utility.yul\":336:338   */\n  0x40\n    /* \"#utility.yul\":324:333   */\n  dup4\n    /* \"#utility.yul\":315:322   */\n  dup6\n    /* \"#utility.yul\":311:334   */\n  sub\n    /* \"#utility.yul\":307:339   */\n  slt\n    /* \"#utility.yul\":304:356   */\n  iszero\n  tag_22\n  jumpi\n    /* \"#utility.yul\":352:353   */\n  0x00\n    /* \"#utility.yul\":349:350   */\n  dup1\n    /* \"#utility.yul\":342:354   */\n  revert\n    /* \"#utility.yul\":304:356   */\ntag_22:\n    /* \"#utility.yul\":375:415   */\n  tag_23\n    /* \"#utility.yul\":405:414   */\n  dup4\n    /* \"#utility.yul\":375:415   */\n  tag_17\n  jump\t// in\ntag_23:\n    /* \"#utility.yul\":365:415   */\n  swap2\n  pop\n    /* \"#utility.yul\":434:483   */\n  tag_24\n    /* \"#utility.yul\":479:481   */\n  0x20\n    /* \"#utility.yul\":468:477   */\n  dup5\n    /* \"#utility.yul\":464:482   */\n  add\n    /* \"#utility.yul\":434:483   */\n  tag_17\n  jump\t// in\ntag_24:\n    /* \"#utility.yul\":424:483   */\n  swap1\n  pop\n    /* \"#utility.yul\":196:489   */\n  swap3\n  pop\n  swap3\n  swap1\n  pop\n  jump\t// out\ntag_18:\n    /* \"SafuERC721Staking.sol\":769:10565  contract SafuERC721Staking is ERC721Holder, ReentrancyGuard, Ownable {... */\n  dataSize(sub_0)\n  dup1\n  dataOffset(sub_0)\n  0x00\n  codecopy\n  0x00\n  return\nstop\n\nsub_0: assembly {\n        /* \"SafuERC721Staking.sol\":769:10565  contract SafuERC721Staking is ERC721Holder, ReentrancyGuard, Ownable {... */\n      mstore(0x40, 0x80)\n      callvalue\n      dup1\n      iszero\n      tag_1\n      jumpi\n      0x00\n      dup1\n      revert\n    tag_1:\n      pop\n      jumpi(tag_2, lt(calldatasize, 0x04))\n      shr(0xe0, calldataload(0x00))\n      dup1\n      0x80faa57d\n      gt\n      tag_30\n      jumpi\n      dup1\n      0xbcdc3cfc\n      gt\n      tag_31\n      jumpi\n      dup1\n      0xd1af0c7d\n      gt\n      tag_32\n      jumpi\n      dup1\n      0xd1af0c7d\n      eq\n      tag_26\n      jumpi\n      dup1\n      0xebe2b12b\n      eq\n      tag_27\n      jumpi\n      dup1\n      0xf2fde38b\n      eq\n      tag_28\n      jumpi\n      dup1\n      0xfeca3900\n      eq\n      tag_29\n      jumpi\n      0x00\n      dup1\n      revert\n    tag_32:\n      dup1\n      0xbcdc3cfc\n      eq\n      tag_23\n      jumpi\n      dup1\n      0xc8f33c91\n      eq\n      tag_24\n      jumpi\n      dup1\n      0xcd3daf9d\n      eq\n      tag_25\n      jumpi\n      0x00\n      dup1\n      revert\n    tag_31:\n      dup1\n      0x8da5cb5b\n      gt\n      tag_33\n      jumpi\n      dup1\n      0x8da5cb5b\n      eq\n      tag_19\n      jumpi\n      dup1\n      0x983d95ce\n      eq\n      tag_20\n      jumpi\n      dup1\n      0x9b7ccf4c\n      eq\n      tag_21\n      jumpi\n      dup1\n      0x9c007c75\n      eq\n      tag_22\n      jumpi\n      0x00\n      dup1\n      revert\n    tag_33:\n      dup1\n      0x80faa57d\n      eq\n      tag_16\n      jumpi\n      dup1\n      0x853828b6\n      eq\n      tag_17\n      jumpi\n      dup1\n      0x8b876347\n      eq\n      tag_18\n      jumpi\n      0x00\n      dup1\n      revert\n    tag_30:\n      dup1\n      0x4ead4327\n      gt\n      tag_34\n      jumpi\n      dup1\n      0x6588103b\n      gt\n      tag_35\n      jumpi\n      dup1\n      0x6588103b\n      eq\n      tag_12\n      jumpi\n      dup1\n      0x715018a6\n      eq\n      tag_13\n      jumpi\n      dup1\n      0x7b0a47ee\n      eq\n      tag_14\n      jumpi\n      dup1\n      0x7d8fc88e\n      eq\n      tag_15\n      jumpi\n      0x00\n      dup1\n      revert\n    tag_35:\n      dup1\n      0x4ead4327\n      eq\n      tag_9\n      jumpi\n      dup1\n      0x518bb20e\n      eq\n      tag_10\n      jumpi\n      dup1\n      0x64ab8675\n      eq\n      tag_11\n      jumpi\n      0x00\n      dup1\n      revert\n    tag_34:\n      dup1\n      0x1c1f78eb\n      gt\n      tag_36\n      jumpi\n      dup1\n      0x1c1f78eb\n      eq\n      tag_6\n      jumpi\n      dup1\n      0x372500ab\n      eq\n      tag_7\n      jumpi\n      dup1\n      0x386a9525\n      eq\n      tag_8\n      jumpi\n      0x00\n      dup1\n      revert\n    tag_36:\n      dup1\n      0x0defc08a\n      eq\n      tag_3\n      jumpi\n      dup1\n      0x0fbf0a93\n      eq\n      tag_4\n      jumpi\n      dup1\n      0x150b7a02\n      eq\n      tag_5\n      jumpi\n    tag_2:\n      0x00\n      dup1\n      revert\n        /* \"SafuERC721Staking.sol\":944:964  bool public claiming */\n    tag_3:\n      sload(0x03)\n      tag_37\n      swap1\n      shl(0xa0, 0x01)\n      swap1\n      div\n      0xff\n      and\n      dup2\n      jump\n    tag_37:\n      mload(0x40)\n        /* \"#utility.yul\":179:193   */\n      swap1\n      iszero\n        /* \"#utility.yul\":172:194   */\n      iszero\n        /* \"#utility.yul\":154:195   */\n      dup2\n      mstore\n        /* \"#utility.yul\":142:144   */\n      0x20\n        /* \"#utility.yul\":127:145   */\n      add\n        /* \"SafuERC721Staking.sol\":944:964  bool public claiming */\n    tag_39:\n      mload(0x40)\n      dup1\n      swap2\n      sub\n      swap1\n      return\n        /* \"SafuERC721Staking.sol\":1972:2612  function stake(uint256[] memory tokenIds)... */\n    tag_4:\n      tag_41\n      tag_42\n      calldatasize\n      0x04\n      tag_43\n      jump\t// in\n    tag_42:\n      tag_44\n      jump\t// in\n    tag_41:\n      stop\n        /* \"@openzeppelin/contracts/token/ERC721/utils/ERC721Holder.sol\":588:788   */\n    tag_5:\n      tag_45\n      tag_46\n      calldatasize\n      0x04\n      tag_47\n      jump\t// in\n    tag_46:\n      shl(0xe1, 0x0a85bd01)\n      swap5\n      swap4\n      pop\n      pop\n      pop\n      pop\n      jump\n    tag_45:\n      mload(0x40)\n      not(sub(shl(0xe0, 0x01), 0x01))\n        /* \"#utility.yul\":2917:2950   */\n      swap1\n      swap2\n      and\n        /* \"#utility.yul\":2899:2951   */\n      dup2\n      mstore\n        /* \"#utility.yul\":2887:2889   */\n      0x20\n        /* \"#utility.yul\":2872:2890   */\n      add\n        /* \"@openzeppelin/contracts/token/ERC721/utils/ERC721Holder.sol\":588:788   */\n      tag_39\n        /* \"#utility.yul\":2755:2957   */\n      jump\n        /* \"SafuERC721Staking.sol\":7767:7930  function getRewardForDuration()... */\n    tag_6:\n      tag_51\n      tag_52\n      jump\t// in\n    tag_51:\n      mload(0x40)\n        /* \"#utility.yul\":3108:3133   */\n      swap1\n      dup2\n      mstore\n        /* \"#utility.yul\":3096:3098   */\n      0x20\n        /* \"#utility.yul\":3081:3099   */\n      add\n        /* \"SafuERC721Staking.sol\":7767:7930  function getRewardForDuration()... */\n      tag_39\n        /* \"#utility.yul\":2962:3139   */\n      jump\n        /* \"SafuERC721Staking.sol\":4003:4373  function claimRewards() public nonReentrant updateReward(msg.sender) {... */\n    tag_7:\n      tag_41\n      tag_56\n      jump\t// in\n        /* \"SafuERC721Staking.sol\":1035:1065  uint256 public rewardsDuration */\n    tag_8:\n      tag_51\n      sload(0x06)\n      dup2\n      jump\n        /* \"SafuERC721Staking.sol\":4906:5157  function userStakeInfo(address _user)... */\n    tag_9:\n      tag_60\n      tag_61\n      calldatasize\n      0x04\n      tag_62\n      jump\t// in\n    tag_61:\n      tag_63\n      jump\t// in\n    tag_60:\n      mload(0x40)\n      tag_39\n      swap3\n      swap2\n      swap1\n      tag_65\n      jump\t// in\n        /* \"SafuERC721Staking.sol\":5838:6019  function setStakingPeriod(uint256 _amount, uint256 _duration)... */\n    tag_10:\n      tag_41\n      tag_67\n      calldatasize\n      0x04\n      tag_68\n      jump\t// in\n    tag_67:\n      tag_69\n      jump\t// in\n        /* \"SafuERC721Staking.sol\":7364:7643  function calculateRewards(address _user)... */\n    tag_11:\n      tag_51\n      tag_71\n      calldatasize\n      0x04\n      tag_62\n      jump\t// in\n    tag_71:\n      tag_72\n      jump\t// in\n        /* \"SafuERC721Staking.sol\":909:937  IERC721 public nftCollection */\n    tag_12:\n      sload(0x03)\n      tag_74\n      swap1\n      sub(shl(0xa0, 0x01), 0x01)\n      and\n      dup2\n      jump\n    tag_74:\n      mload(0x40)\n      sub(shl(0xa0, 0x01), 0x01)\n        /* \"#utility.yul\":4545:4600   */\n      swap1\n      swap2\n      and\n        /* \"#utility.yul\":4527:4601   */\n      dup2\n      mstore\n        /* \"#utility.yul\":4515:4517   */\n      0x20\n        /* \"#utility.yul\":4500:4518   */\n      add\n        /* \"SafuERC721Staking.sol\":909:937  IERC721 public nftCollection */\n      tag_39\n        /* \"#utility.yul\":4365:4607   */\n      jump\n        /* \"@openzeppelin/contracts/access/Ownable.sol\":1831:1932   */\n    tag_13:\n      tag_41\n      tag_79\n      jump\t// in\n        /* \"SafuERC721Staking.sol\":1004:1029  uint256 public rewardRate */\n    tag_14:\n      tag_51\n      sload(0x05)\n      dup2\n      jump\n        /* \"SafuERC721Staking.sol\":1299:1346  mapping(uint256 => address) public stakedAssets */\n    tag_15:\n      tag_74\n      tag_84\n      calldatasize\n      0x04\n      tag_85\n      jump\t// in\n    tag_84:\n      mstore(0x20, 0x0c)\n      0x00\n      swap1\n      dup2\n      mstore\n      0x40\n      swap1\n      keccak256\n      sload\n      sub(shl(0xa0, 0x01), 0x01)\n      and\n      dup2\n      jump\n        /* \"SafuERC721Staking.sol\":6403:6607  function lastTimeRewardApplicable()... */\n    tag_16:\n      tag_51\n      tag_90\n      jump\t// in\n        /* \"SafuERC721Staking.sol\":4485:4592  function withdrawAll() external {... */\n    tag_17:\n      tag_41\n      tag_93\n      jump\t// in\n        /* \"SafuERC721Staking.sol\":1187:1244  mapping(address => uint256) public userRewardPerTokenPaid */\n    tag_18:\n      tag_51\n      tag_95\n      calldatasize\n      0x04\n      tag_62\n      jump\t// in\n    tag_95:\n      mstore(0x20, 0x0a)\n      0x00\n      swap1\n      dup2\n      mstore\n      0x40\n      swap1\n      keccak256\n      sload\n      dup2\n      jump\n        /* \"@openzeppelin/contracts/access/Ownable.sol\":1201:1286   */\n    tag_19:\n        /* \"@openzeppelin/contracts/access/Ownable.sol\":1273:1279   */\n      and(sub(shl(0xa0, 0x01), 0x01), sload(0x01))\n        /* \"@openzeppelin/contracts/access/Ownable.sol\":1201:1286   */\n      jump(tag_74)\n        /* \"SafuERC721Staking.sol\":2763:3920  function withdraw(uint256[] memory tokenIds)... */\n    tag_20:\n      tag_41\n      tag_102\n      calldatasize\n      0x04\n      tag_43\n      jump\t// in\n    tag_102:\n      tag_103\n      jump\t// in\n        /* \"SafuERC721Staking.sol\":8424:9178  function addRewardAmount(uint256 reward)... */\n    tag_21:\n      tag_41\n      tag_105\n      calldatasize\n      0x04\n      tag_85\n      jump\t// in\n    tag_105:\n      tag_106\n      jump\t// in\n        /* \"SafuERC721Staking.sol\":6158:6256  function setClaimingState(bool _newState) external onlyOwner {... */\n    tag_22:\n      tag_41\n      tag_108\n      calldatasize\n      0x04\n      tag_109\n      jump\t// in\n    tag_108:\n      tag_110\n      jump\t// in\n        /* \"SafuERC721Staking.sol\":1148:1180  uint256 public totalStakedSupply */\n    tag_23:\n      tag_51\n      sload(0x09)\n      dup2\n      jump\n        /* \"SafuERC721Staking.sol\":1071:1100  uint256 public lastUpdateTime */\n    tag_24:\n      tag_51\n      sload(0x07)\n      dup2\n      jump\n        /* \"SafuERC721Staking.sol\":6787:7124  function rewardPerToken() public view returns (uint256) {... */\n    tag_25:\n      tag_51\n      tag_118\n      jump\t// in\n        /* \"SafuERC721Staking.sol\":877:903  IERC20 public rewardsToken */\n    tag_26:\n      sload(0x02)\n      tag_74\n      swap1\n      sub(shl(0xa0, 0x01), 0x01)\n      and\n      dup2\n      jump\n        /* \"SafuERC721Staking.sol\":971:998  uint256 public periodFinish */\n    tag_27:\n      tag_51\n      sload(0x04)\n      dup2\n      jump\n        /* \"@openzeppelin/contracts/access/Ownable.sol\":2081:2279   */\n    tag_28:\n      tag_41\n      tag_128\n      calldatasize\n      0x04\n      tag_62\n      jump\t// in\n    tag_128:\n      tag_129\n      jump\t// in\n        /* \"SafuERC721Staking.sol\":5336:5495  function getRewardPerToken()... */\n    tag_29:\n      tag_51\n      tag_131\n      jump\t// in\n        /* \"SafuERC721Staking.sol\":1972:2612  function stake(uint256[] memory tokenIds)... */\n    tag_44:\n        /* \"@openzeppelin/contracts/security/ReentrancyGuard.sol\":1744:1745   */\n      0x02\n        /* \"@openzeppelin/contracts/security/ReentrancyGuard.sol\":2325:2332   */\n      sload(0x00)\n        /* \"@openzeppelin/contracts/security/ReentrancyGuard.sol\":2325:2344   */\n      sub\n        /* \"@openzeppelin/contracts/security/ReentrancyGuard.sol\":2317:2380   */\n      tag_134\n      jumpi\n      mload(0x40)\n      shl(0xe5, 0x461bcd)\n      dup2\n      mstore\n        /* \"#utility.yul\":5844:5846   */\n      0x20\n        /* \"@openzeppelin/contracts/security/ReentrancyGuard.sol\":2317:2380   */\n      0x04\n      dup3\n      add\n        /* \"#utility.yul\":5826:5847   */\n      mstore\n        /* \"#utility.yul\":5883:5885   */\n      0x1f\n        /* \"#utility.yul\":5863:5881   */\n      0x24\n      dup3\n      add\n        /* \"#utility.yul\":5856:5886   */\n      mstore\n        /* \"#utility.yul\":5922:5955   */\n      0x5265656e7472616e637947756172643a207265656e7472616e742063616c6c00\n        /* \"#utility.yul\":5902:5920   */\n      0x44\n      dup3\n      add\n        /* \"#utility.yul\":5895:5956   */\n      mstore\n        /* \"#utility.yul\":5973:5991   */\n      0x64\n      add\n        /* \"@openzeppelin/contracts/security/ReentrancyGuard.sol\":2317:2380   */\n    tag_135:\n      mload(0x40)\n      dup1\n      swap2\n      sub\n      swap1\n      revert\n    tag_134:\n        /* \"@openzeppelin/contracts/security/ReentrancyGuard.sol\":1744:1745   */\n      0x02\n        /* \"@openzeppelin/contracts/security/ReentrancyGuard.sol\":2455:2462   */\n      0x00\n        /* \"@openzeppelin/contracts/security/ReentrancyGuard.sol\":2455:2473   */\n      sstore\n        /* \"SafuERC721Staking.sol\":2073:2083  msg.sender */\n      caller\n        /* \"SafuERC721Staking.sol\":9993:10009  rewardPerToken() */\n      tag_138\n        /* \"SafuERC721Staking.sol\":9993:10007  rewardPerToken */\n      tag_118\n        /* \"SafuERC721Staking.sol\":9993:10009  rewardPerToken() */\n      jump\t// in\n    tag_138:\n        /* \"SafuERC721Staking.sol\":9970:9990  rewardPerTokenStored */\n      0x08\n        /* \"SafuERC721Staking.sol\":9970:10009  rewardPerTokenStored = rewardPerToken() */\n      sstore\n        /* \"SafuERC721Staking.sol\":10036:10062  lastTimeRewardApplicable() */\n      tag_139\n        /* \"SafuERC721Staking.sol\":10036:10060  lastTimeRewardApplicable */\n      tag_90\n        /* \"SafuERC721Staking.sol\":10036:10062  lastTimeRewardApplicable() */\n      jump\t// in\n    tag_139:\n        /* \"SafuERC721Staking.sol\":10019:10033  lastUpdateTime */\n      0x07\n        /* \"SafuERC721Staking.sol\":10019:10062  lastUpdateTime = lastTimeRewardApplicable() */\n      sstore\n      sub(shl(0xa0, 0x01), 0x01)\n        /* \"SafuERC721Staking.sol\":10076:10097  account != address(0) */\n      dup2\n      and\n      iszero\n        /* \"SafuERC721Staking.sol\":10072:10236  if (account != address(0)) {... */\n      tag_140\n      jumpi\n        /* \"SafuERC721Staking.sol\":10132:10157  calculateRewards(account) */\n      tag_141\n        /* \"SafuERC721Staking.sol\":10149:10156  account */\n      dup2\n        /* \"SafuERC721Staking.sol\":10132:10148  calculateRewards */\n      tag_72\n        /* \"SafuERC721Staking.sol\":10132:10157  calculateRewards(account) */\n      jump\t// in\n    tag_141:\n      sub(shl(0xa0, 0x01), 0x01)\n        /* \"SafuERC721Staking.sol\":10113:10129  rewards[account] */\n      dup3\n      and\n      0x00\n      swap1\n      dup2\n      mstore\n        /* \"SafuERC721Staking.sol\":10113:10120  rewards */\n      0x0b\n        /* \"SafuERC721Staking.sol\":10113:10129  rewards[account] */\n      0x20\n      swap1\n      dup2\n      mstore\n      0x40\n      dup1\n      dup4\n      keccak256\n        /* \"SafuERC721Staking.sol\":10113:10157  rewards[account] = calculateRewards(account) */\n      swap4\n      swap1\n      swap4\n      sstore\n        /* \"SafuERC721Staking.sol\":10205:10225  rewardPerTokenStored */\n      sload(0x08)\n        /* \"SafuERC721Staking.sol\":10171:10193  userRewardPerTokenPaid */\n      0x0a\n        /* \"SafuERC721Staking.sol\":10171:10202  userRewardPerTokenPaid[account] */\n      swap1\n      swap2\n      mstore\n      swap2\n      swap1\n      keccak256\n        /* \"SafuERC721Staking.sol\":10171:10225  userRewardPerTokenPaid[account] = rewardPerTokenStored */\n      sstore\n        /* \"SafuERC721Staking.sol\":10072:10236  if (account != address(0)) {... */\n    tag_140:\n        /* \"SafuERC721Staking.sol\":2107:2115  tokenIds */\n      dup2\n        /* \"SafuERC721Staking.sol\":2107:2122  tokenIds.length */\n      mload\n        /* \"SafuERC721Staking.sol\":2126:2127  0 */\n      0x00\n        /* \"SafuERC721Staking.sol\":2107:2127  tokenIds.length != 0 */\n      sub\n        /* \"SafuERC721Staking.sol\":2099:2161  require(tokenIds.length != 0, \"Staking: No tokenIds provided\") */\n      tag_143\n      jumpi\n      mload(0x40)\n      shl(0xe5, 0x461bcd)\n      dup2\n      mstore\n        /* \"#utility.yul\":6204:6206   */\n      0x20\n        /* \"SafuERC721Staking.sol\":2099:2161  require(tokenIds.length != 0, \"Staking: No tokenIds provided\") */\n      0x04\n      dup3\n      add\n        /* \"#utility.yul\":6186:6207   */\n      mstore\n        /* \"#utility.yul\":6243:6245   */\n      0x1d\n        /* \"#utility.yul\":6223:6241   */\n      0x24\n      dup3\n      add\n        /* \"#utility.yul\":6216:6246   */\n      mstore\n        /* \"#utility.yul\":6282:6313   */\n      0x5374616b696e673a204e6f20746f6b656e4964732070726f7669646564000000\n        /* \"#utility.yul\":6262:6280   */\n      0x44\n      dup3\n      add\n        /* \"#utility.yul\":6255:6314   */\n      mstore\n        /* \"#utility.yul\":6331:6349   */\n      0x64\n      add\n        /* \"SafuERC721Staking.sol\":2099:2161  require(tokenIds.length != 0, \"Staking: No tokenIds provided\") */\n      tag_135\n        /* \"#utility.yul\":6002:6355   */\n      jump\n        /* \"SafuERC721Staking.sol\":2099:2161  require(tokenIds.length != 0, \"Staking: No tokenIds provided\") */\n    tag_143:\n        /* \"SafuERC721Staking.sol\":2188:2203  tokenIds.length */\n      dup2\n      mload\n        /* \"SafuERC721Staking.sol\":2171:2185  uint256 amount */\n      0x00\n        /* \"SafuERC721Staking.sol\":2213:2518  for (uint256 i = 0; i < amount; i += 1) {... */\n    tag_146:\n        /* \"SafuERC721Staking.sol\":2237:2243  amount */\n      dup2\n        /* \"SafuERC721Staking.sol\":2233:2234  i */\n      dup2\n        /* \"SafuERC721Staking.sol\":2233:2243  i < amount */\n      lt\n        /* \"SafuERC721Staking.sol\":2213:2518  for (uint256 i = 0; i < amount; i += 1) {... */\n      iszero\n      tag_147\n      jumpi\n        /* \"SafuERC721Staking.sol\":2267:2280  nftCollection */\n      sload(0x03)\n        /* \"SafuERC721Staking.sol\":2374:2385  tokenIds[i] */\n      dup5\n      mload\n      sub(shl(0xa0, 0x01), 0x01)\n        /* \"SafuERC721Staking.sol\":2267:2280  nftCollection */\n      swap1\n      swap2\n      and\n      swap1\n        /* \"SafuERC721Staking.sol\":2267:2297  nftCollection.safeTransferFrom */\n      0x42842e0e\n      swap1\n        /* \"SafuERC721Staking.sol\":2315:2325  msg.sender */\n      caller\n      swap1\n        /* \"SafuERC721Staking.sol\":2351:2355  this */\n      address\n      swap1\n        /* \"SafuERC721Staking.sol\":2374:2382  tokenIds */\n      dup9\n      swap1\n        /* \"SafuERC721Staking.sol\":2383:2384  i */\n      dup7\n      swap1\n        /* \"SafuERC721Staking.sol\":2374:2385  tokenIds[i] */\n      dup2\n      lt\n      tag_150\n      jumpi\n      tag_150\n      tag_151\n      jump\t// in\n    tag_150:\n      0x20\n      swap1\n      dup2\n      mul\n      swap2\n      swap1\n      swap2\n      add\n      add\n      mload\n        /* \"SafuERC721Staking.sol\":2267:2399  nftCollection.safeTransferFrom(... */\n      mload(0x40)\n      not(sub(shl(0xe0, 0x01), 0x01))\n      0xe0\n      dup7\n      swap1\n      shl\n      and\n      dup2\n      mstore\n      sub(shl(0xa0, 0x01), 0x01)\n        /* \"#utility.yul\":6773:6788   */\n      swap4\n      dup5\n      and\n        /* \"SafuERC721Staking.sol\":2267:2399  nftCollection.safeTransferFrom(... */\n      0x04\n      dup3\n      add\n        /* \"#utility.yul\":6755:6789   */\n      mstore\n        /* \"#utility.yul\":6825:6840   */\n      swap3\n      swap1\n      swap2\n      and\n        /* \"#utility.yul\":6805:6823   */\n      0x24\n      dup4\n      add\n        /* \"#utility.yul\":6798:6841   */\n      mstore\n        /* \"#utility.yul\":6857:6875   */\n      0x44\n      dup3\n      add\n        /* \"#utility.yul\":6850:6884   */\n      mstore\n        /* \"#utility.yul\":6667:6685   */\n      0x64\n      add\n        /* \"SafuERC721Staking.sol\":2267:2399  nftCollection.safeTransferFrom(... */\n      0x00\n      mload(0x40)\n      dup1\n      dup4\n      sub\n      dup2\n      0x00\n      dup8\n      dup1\n      extcodesize\n      iszero\n      dup1\n      iszero\n      tag_154\n      jumpi\n      0x00\n      dup1\n      revert\n    tag_154:\n      pop\n      gas\n      call\n      iszero\n      dup1\n      iszero\n      tag_156\n      jumpi\n      returndatasize\n      0x00\n      dup1\n      returndatacopy\n      revert(0x00, returndatasize)\n    tag_156:\n      pop\n      pop\n      pop\n      pop\n        /* \"SafuERC721Staking.sol\":2441:2451  msg.sender */\n      caller\n        /* \"SafuERC721Staking.sol\":2413:2425  stakedAssets */\n      0x0c\n        /* \"SafuERC721Staking.sol\":2413:2438  stakedAssets[tokenIds[i]] */\n      0x00\n        /* \"SafuERC721Staking.sol\":2426:2434  tokenIds */\n      dup7\n        /* \"SafuERC721Staking.sol\":2435:2436  i */\n      dup5\n        /* \"SafuERC721Staking.sol\":2426:2437  tokenIds[i] */\n      dup2\n      mload\n      dup2\n      lt\n      tag_158\n      jumpi\n      tag_158\n      tag_151\n      jump\t// in\n    tag_158:\n      0x20\n      mul\n      0x20\n      add\n      add\n      mload\n        /* \"SafuERC721Staking.sol\":2413:2438  stakedAssets[tokenIds[i]] */\n      dup2\n      mstore\n      0x20\n      add\n      swap1\n      dup2\n      mstore\n      0x20\n      add\n      0x00\n      keccak256\n      0x00\n        /* \"SafuERC721Staking.sol\":2413:2451  stakedAssets[tokenIds[i]] = msg.sender */\n      0x0100\n      exp\n      dup2\n      sload\n      dup2\n      sub(shl(0xa0, 0x01), 0x01)\n      mul\n      not\n      and\n      swap1\n      dup4\n      sub(shl(0xa0, 0x01), 0x01)\n      and\n      mul\n      or\n      swap1\n      sstore\n      pop\n        /* \"SafuERC721Staking.sol\":2465:2477  tokensStaked */\n      0x0d\n        /* \"SafuERC721Staking.sol\":2465:2489  tokensStaked[msg.sender] */\n      0x00\n        /* \"SafuERC721Staking.sol\":2478:2488  msg.sender */\n      caller\n      sub(shl(0xa0, 0x01), 0x01)\n        /* \"SafuERC721Staking.sol\":2465:2489  tokensStaked[msg.sender] */\n      and\n      sub(shl(0xa0, 0x01), 0x01)\n      and\n      dup2\n      mstore\n      0x20\n      add\n      swap1\n      dup2\n      mstore\n      0x20\n      add\n      0x00\n      keccak256\n        /* \"SafuERC721Staking.sol\":2495:2503  tokenIds */\n      dup5\n        /* \"SafuERC721Staking.sol\":2504:2505  i */\n      dup3\n        /* \"SafuERC721Staking.sol\":2495:2506  tokenIds[i] */\n      dup2\n      mload\n      dup2\n      lt\n      tag_160\n      jumpi\n      tag_160\n      tag_151\n      jump\t// in\n    tag_160:\n      0x20\n      swap1\n      dup2\n      mul\n      swap2\n      swap1\n      swap2\n      add\n      dup2\n      add\n      mload\n        /* \"SafuERC721Staking.sol\":2465:2507  tokensStaked[msg.sender].push(tokenIds[i]) */\n      dup3\n      sload\n      0x01\n      dup2\n      dup2\n      add\n      dup6\n      sstore\n      0x00\n      swap5\n      dup6\n      mstore\n      swap3\n      swap1\n      swap4\n      keccak256\n      swap1\n      swap3\n      add\n      swap2\n      swap1\n      swap2\n      sstore\n        /* \"SafuERC721Staking.sol\":2245:2251  i += 1 */\n      tag_162\n      swap1\n      dup3\n      tag_163\n      jump\t// in\n    tag_162:\n      swap1\n      pop\n        /* \"SafuERC721Staking.sol\":2213:2518  for (uint256 i = 0; i < amount; i += 1) {... */\n      jump(tag_146)\n    tag_147:\n      pop\n        /* \"SafuERC721Staking.sol\":2548:2554  amount */\n      dup1\n        /* \"SafuERC721Staking.sol\":2527:2544  totalStakedSupply */\n      0x09\n      0x00\n        /* \"SafuERC721Staking.sol\":2527:2554  totalStakedSupply += amount */\n      dup3\n      dup3\n      sload\n      tag_164\n      swap2\n      swap1\n      tag_163\n      jump\t// in\n    tag_164:\n      swap1\n      swap2\n      sstore\n      pop\n      pop\n        /* \"SafuERC721Staking.sol\":2569:2605  Staked(msg.sender, amount, tokenIds) */\n      mload(0x40)\n        /* \"SafuERC721Staking.sol\":2576:2586  msg.sender */\n      caller\n      swap1\n        /* \"SafuERC721Staking.sol\":2569:2605  Staked(msg.sender, amount, tokenIds) */\n      0xb18ab713c223cf8d1394fb3018faad3e87f34414cc9d74b6eff3510d05359d85\n      swap1\n      tag_165\n      swap1\n        /* \"SafuERC721Staking.sol\":2588:2594  amount */\n      dup5\n      swap1\n        /* \"SafuERC721Staking.sol\":2596:2604  tokenIds */\n      dup8\n      swap1\n        /* \"SafuERC721Staking.sol\":2569:2605  Staked(msg.sender, amount, tokenIds) */\n      tag_166\n      jump\t// in\n    tag_165:\n      mload(0x40)\n      dup1\n      swap2\n      sub\n      swap1\n      log2\n      pop\n      pop\n        /* \"@openzeppelin/contracts/security/ReentrancyGuard.sol\":1701:1702   */\n      0x01\n        /* \"@openzeppelin/contracts/security/ReentrancyGuard.sol\":2628:2635   */\n      0x00\n        /* \"@openzeppelin/contracts/security/ReentrancyGuard.sol\":2628:2650   */\n      sstore\n      pop\n        /* \"SafuERC721Staking.sol\":1972:2612  function stake(uint256[] memory tokenIds)... */\n      jump\t// out\n        /* \"SafuERC721Staking.sol\":7767:7930  function getRewardForDuration()... */\n    tag_52:\n        /* \"SafuERC721Staking.sol\":7846:7872  uint256 _distributedTokens */\n      0x00\n        /* \"SafuERC721Staking.sol\":7908:7923  rewardsDuration */\n      sload(0x06)\n        /* \"SafuERC721Staking.sol\":7895:7905  rewardRate */\n      sload(0x05)\n        /* \"SafuERC721Staking.sol\":7895:7923  rewardRate * rewardsDuration */\n      tag_169\n      swap2\n      swap1\n      tag_170\n      jump\t// in\n    tag_169:\n        /* \"SafuERC721Staking.sol\":7888:7923  return rewardRate * rewardsDuration */\n      swap1\n      pop\n        /* \"SafuERC721Staking.sol\":7767:7930  function getRewardForDuration()... */\n      swap1\n      jump\t// out\n        /* \"SafuERC721Staking.sol\":4003:4373  function claimRewards() public nonReentrant updateReward(msg.sender) {... */\n    tag_56:\n        /* \"@openzeppelin/contracts/security/ReentrancyGuard.sol\":1744:1745   */\n      0x02\n        /* \"@openzeppelin/contracts/security/ReentrancyGuard.sol\":2325:2332   */\n      sload(0x00)\n        /* \"@openzeppelin/contracts/security/ReentrancyGuard.sol\":2325:2344   */\n      sub\n        /* \"@openzeppelin/contracts/security/ReentrancyGuard.sol\":2317:2380   */\n      tag_172\n      jumpi\n      mload(0x40)\n      shl(0xe5, 0x461bcd)\n      dup2\n      mstore\n        /* \"#utility.yul\":5844:5846   */\n      0x20\n        /* \"@openzeppelin/contracts/security/ReentrancyGuard.sol\":2317:2380   */\n      0x04\n      dup3\n      add\n        /* \"#utility.yul\":5826:5847   */\n      mstore\n        /* \"#utility.yul\":5883:5885   */\n      0x1f\n        /* \"#utility.yul\":5863:5881   */\n      0x24\n      dup3\n      add\n        /* \"#utility.yul\":5856:5886   */\n      mstore\n        /* \"#utility.yul\":5922:5955   */\n      0x5265656e7472616e637947756172643a207265656e7472616e742063616c6c00\n        /* \"#utility.yul\":5902:5920   */\n      0x44\n      dup3\n      add\n        /* \"#utility.yul\":5895:5956   */\n      mstore\n        /* \"#utility.yul\":5973:5991   */\n      0x64\n      add\n        /* \"@openzeppelin/contracts/security/ReentrancyGuard.sol\":2317:2380   */\n      tag_135\n        /* \"#utility.yul\":5642:5997   */\n      jump\n        /* \"@openzeppelin/contracts/security/ReentrancyGuard.sol\":2317:2380   */\n    tag_172:\n        /* \"@openzeppelin/contracts/security/ReentrancyGuard.sol\":1744:1745   */\n      0x02\n        /* \"@openzeppelin/contracts/security/ReentrancyGuard.sol\":2455:2462   */\n      0x00\n        /* \"@openzeppelin/contracts/security/ReentrancyGuard.sol\":2455:2473   */\n      sstore\n        /* \"SafuERC721Staking.sol\":4060:4070  msg.sender */\n      caller\n        /* \"SafuERC721Staking.sol\":9993:10009  rewardPerToken() */\n      tag_175\n        /* \"SafuERC721Staking.sol\":9993:10007  rewardPerToken */\n      tag_118\n        /* \"SafuERC721Staking.sol\":9993:10009  rewardPerToken() */\n      jump\t// in\n    tag_175:\n        /* \"SafuERC721Staking.sol\":9970:9990  rewardPerTokenStored */\n      0x08\n        /* \"SafuERC721Staking.sol\":9970:10009  rewardPerTokenStored = rewardPerToken() */\n      sstore\n        /* \"SafuERC721Staking.sol\":10036:10062  lastTimeRewardApplicable() */\n      tag_176\n        /* \"SafuERC721Staking.sol\":10036:10060  lastTimeRewardApplicable */\n      tag_90\n        /* \"SafuERC721Staking.sol\":10036:10062  lastTimeRewardApplicable() */\n      jump\t// in\n    tag_176:\n        /* \"SafuERC721Staking.sol\":10019:10033  lastUpdateTime */\n      0x07\n        /* \"SafuERC721Staking.sol\":10019:10062  lastUpdateTime = lastTimeRewardApplicable() */\n      sstore\n      sub(shl(0xa0, 0x01), 0x01)\n        /* \"SafuERC721Staking.sol\":10076:10097  account != address(0) */\n      dup2\n      and\n      iszero\n        /* \"SafuERC721Staking.sol\":10072:10236  if (account != address(0)) {... */\n      tag_177\n      jumpi\n        /* \"SafuERC721Staking.sol\":10132:10157  calculateRewards(account) */\n      tag_178\n        /* \"SafuERC721Staking.sol\":10149:10156  account */\n      dup2\n        /* \"SafuERC721Staking.sol\":10132:10148  calculateRewards */\n      tag_72\n        /* \"SafuERC721Staking.sol\":10132:10157  calculateRewards(account) */\n      jump\t// in\n    tag_178:\n      sub(shl(0xa0, 0x01), 0x01)\n        /* \"SafuERC721Staking.sol\":10113:10129  rewards[account] */\n      dup3\n      and\n      0x00\n      swap1\n      dup2\n      mstore\n        /* \"SafuERC721Staking.sol\":10113:10120  rewards */\n      0x0b\n        /* \"SafuERC721Staking.sol\":10113:10129  rewards[account] */\n      0x20\n      swap1\n      dup2\n      mstore\n      0x40\n      dup1\n      dup4\n      keccak256\n        /* \"SafuERC721Staking.sol\":10113:10157  rewards[account] = calculateRewards(account) */\n      swap4\n      swap1\n      swap4\n      sstore\n        /* \"SafuERC721Staking.sol\":10205:10225  rewardPerTokenStored */\n      sload(0x08)\n        /* \"SafuERC721Staking.sol\":10171:10193  userRewardPerTokenPaid */\n      0x0a\n        /* \"SafuERC721Staking.sol\":10171:10202  userRewardPerTokenPaid[account] */\n      swap1\n      swap2\n      mstore\n      swap2\n      swap1\n      keccak256\n        /* \"SafuERC721Staking.sol\":10171:10225  userRewardPerTokenPaid[account] = rewardPerTokenStored */\n      sstore\n        /* \"SafuERC721Staking.sol\":10072:10236  if (account != address(0)) {... */\n    tag_177:\n        /* \"SafuERC721Staking.sol\":4090:4098  claiming */\n      sload(0x03)\n      shl(0xa0, 0x01)\n      swap1\n      div\n      0xff\n      and\n        /* \"SafuERC721Staking.sol\":4082:4139  require(claiming, \"Rewards claiming in not yet enabled!\") */\n      tag_180\n      jumpi\n      mload(0x40)\n      shl(0xe5, 0x461bcd)\n      dup2\n      mstore\n        /* \"#utility.yul\":7872:7874   */\n      0x20\n        /* \"SafuERC721Staking.sol\":4082:4139  require(claiming, \"Rewards claiming in not yet enabled!\") */\n      0x04\n      dup3\n      add\n        /* \"#utility.yul\":7854:7875   */\n      mstore\n        /* \"#utility.yul\":7911:7913   */\n      0x24\n        /* \"#utility.yul\":7891:7909   */\n      dup1\n      dup3\n      add\n        /* \"#utility.yul\":7884:7914   */\n      mstore\n        /* \"#utility.yul\":7950:7984   */\n      0x5265776172647320636c61696d696e6720696e206e6f742079657420656e6162\n        /* \"#utility.yul\":7930:7948   */\n      0x44\n      dup3\n      add\n        /* \"#utility.yul\":7923:7985   */\n      mstore\n      shl(0xe0, 0x6c656421)\n        /* \"#utility.yul\":8001:8019   */\n      0x64\n      dup3\n      add\n        /* \"#utility.yul\":7994:8028   */\n      mstore\n        /* \"#utility.yul\":8045:8064   */\n      0x84\n      add\n        /* \"SafuERC721Staking.sol\":4082:4139  require(claiming, \"Rewards claiming in not yet enabled!\") */\n      tag_135\n        /* \"#utility.yul\":7670:8070   */\n      jump\n        /* \"SafuERC721Staking.sol\":4082:4139  require(claiming, \"Rewards claiming in not yet enabled!\") */\n    tag_180:\n        /* \"SafuERC721Staking.sol\":4174:4184  msg.sender */\n      caller\n        /* \"SafuERC721Staking.sol\":4149:4163  uint256 reward */\n      0x00\n        /* \"SafuERC721Staking.sol\":4166:4185  rewards[msg.sender] */\n      swap1\n      dup2\n      mstore\n        /* \"SafuERC721Staking.sol\":4166:4173  rewards */\n      0x0b\n        /* \"SafuERC721Staking.sol\":4166:4185  rewards[msg.sender] */\n      0x20\n      mstore\n      0x40\n      swap1\n      keccak256\n      sload\n        /* \"SafuERC721Staking.sol\":4199:4209  reward > 0 */\n      dup1\n      iszero\n        /* \"SafuERC721Staking.sol\":4195:4367  if (reward > 0) {... */\n      tag_183\n      jumpi\n        /* \"SafuERC721Staking.sol\":4233:4243  msg.sender */\n      caller\n        /* \"SafuERC721Staking.sol\":4247:4248  0 */\n      0x00\n        /* \"SafuERC721Staking.sol\":4225:4244  rewards[msg.sender] */\n      dup2\n      dup2\n      mstore\n        /* \"SafuERC721Staking.sol\":4225:4232  rewards */\n      0x0b\n        /* \"SafuERC721Staking.sol\":4225:4244  rewards[msg.sender] */\n      0x20\n      mstore\n      0x40\n      dup2\n      keccak256\n        /* \"SafuERC721Staking.sol\":4225:4248  rewards[msg.sender] = 0 */\n      sstore\n        /* \"SafuERC721Staking.sol\":4262:4274  rewardsToken */\n      sload(0x02)\n        /* \"SafuERC721Staking.sol\":4262:4307  rewardsToken.safeTransfer(msg.sender, reward) */\n      tag_184\n      swap2\n      sub(shl(0xa0, 0x01), 0x01)\n        /* \"SafuERC721Staking.sol\":4262:4274  rewardsToken */\n      swap1\n      swap2\n      and\n      swap1\n        /* \"SafuERC721Staking.sol\":4300:4306  reward */\n      dup4\n        /* \"SafuERC721Staking.sol\":4262:4287  rewardsToken.safeTransfer */\n      tag_185\n        /* \"SafuERC721Staking.sol\":4262:4307  rewardsToken.safeTransfer(msg.sender, reward) */\n      jump\t// in\n    tag_184:\n        /* \"SafuERC721Staking.sol\":4326:4356  RewardPaid(msg.sender, reward) */\n      mload(0x40)\n        /* \"#utility.yul\":3108:3133   */\n      dup2\n      dup2\n      mstore\n        /* \"SafuERC721Staking.sol\":4337:4347  msg.sender */\n      caller\n      swap1\n        /* \"SafuERC721Staking.sol\":4326:4356  RewardPaid(msg.sender, reward) */\n      0xe2403640ba68fed3a2f88b7557551d1993f84b99bb10ff833f0cf8db0c5e0486\n      swap1\n        /* \"#utility.yul\":3096:3098   */\n      0x20\n        /* \"#utility.yul\":3081:3099   */\n      add\n        /* \"SafuERC721Staking.sol\":4326:4356  RewardPaid(msg.sender, reward) */\n      mload(0x40)\n      dup1\n      swap2\n      sub\n      swap1\n      log2\n        /* \"SafuERC721Staking.sol\":4195:4367  if (reward > 0) {... */\n    tag_183:\n      pop\n      pop\n        /* \"@openzeppelin/contracts/security/ReentrancyGuard.sol\":1701:1702   */\n      0x01\n        /* \"@openzeppelin/contracts/security/ReentrancyGuard.sol\":2628:2635   */\n      0x00\n        /* \"@openzeppelin/contracts/security/ReentrancyGuard.sol\":2628:2650   */\n      sstore\n        /* \"SafuERC721Staking.sol\":4003:4373  function claimRewards() public nonReentrant updateReward(msg.sender) {... */\n      jump\t// out\n        /* \"SafuERC721Staking.sol\":4906:5157  function userStakeInfo(address _user)... */\n    tag_63:\n      sub(shl(0xa0, 0x01), 0x01)\n        /* \"SafuERC721Staking.sol\":5078:5097  tokensStaked[_user] */\n      dup2\n      and\n        /* \"SafuERC721Staking.sol\":5021:5046  uint256 _availableRewards */\n      0x00\n        /* \"SafuERC721Staking.sol\":5078:5097  tokensStaked[_user] */\n      swap1\n      dup2\n      mstore\n        /* \"SafuERC721Staking.sol\":5078:5090  tokensStaked */\n      0x0d\n        /* \"SafuERC721Staking.sol\":5078:5097  tokensStaked[_user] */\n      0x20\n      swap1\n      dup2\n      mstore\n      0x40\n      dup1\n      dup4\n      keccak256\n        /* \"SafuERC721Staking.sol\":5062:5097  _tokensStaked = tokensStaked[_user] */\n      dup1\n      sload\n      dup3\n      mload\n      dup2\n      dup6\n      mul\n      dup2\n      add\n      dup6\n      add\n      swap1\n      swap4\n      mstore\n      dup1\n      dup4\n      mstore\n        /* \"SafuERC721Staking.sol\":4989:5019  uint256[] memory _tokensStaked */\n      0x60\n      swap5\n        /* \"SafuERC721Staking.sol\":5021:5046  uint256 _availableRewards */\n      swap4\n        /* \"SafuERC721Staking.sol\":5062:5097  _tokensStaked = tokensStaked[_user] */\n      dup4\n      add\n        /* \"SafuERC721Staking.sol\":5078:5097  tokensStaked[_user] */\n      dup3\n        /* \"SafuERC721Staking.sol\":5062:5097  _tokensStaked = tokensStaked[_user] */\n      dup3\n      dup1\n      iszero\n      tag_188\n      jumpi\n      0x20\n      mul\n      dup3\n      add\n      swap2\n      swap1\n      0x00\n      mstore\n      keccak256(0x00, 0x20)\n      swap1\n    tag_189:\n      dup2\n      sload\n      dup2\n      mstore\n      0x20\n      add\n      swap1\n      0x01\n      add\n      swap1\n      dup1\n      dup4\n      gt\n      tag_189\n      jumpi\n    tag_188:\n      pop\n      pop\n      pop\n      pop\n      pop\n      swap2\n      pop\n        /* \"SafuERC721Staking.sol\":5127:5150  calculateRewards(_user) */\n      tag_190\n        /* \"SafuERC721Staking.sol\":5144:5149  _user */\n      dup4\n        /* \"SafuERC721Staking.sol\":5127:5143  calculateRewards */\n      tag_72\n        /* \"SafuERC721Staking.sol\":5127:5150  calculateRewards(_user) */\n      jump\t// in\n    tag_190:\n        /* \"SafuERC721Staking.sol\":5107:5150  _availableRewards = calculateRewards(_user) */\n      swap1\n      pop\n        /* \"SafuERC721Staking.sol\":4906:5157  function userStakeInfo(address _user)... */\n      swap2\n      pop\n      swap2\n      jump\t// out\n        /* \"SafuERC721Staking.sol\":5838:6019  function setStakingPeriod(uint256 _amount, uint256 _duration)... */\n    tag_69:\n        /* \"@openzeppelin/contracts/access/Ownable.sol\":1094:1107   */\n      tag_192\n        /* \"@openzeppelin/contracts/access/Ownable.sol\":1094:1105   */\n      tag_193\n        /* \"@openzeppelin/contracts/access/Ownable.sol\":1094:1107   */\n      jump\t// in\n    tag_192:\n        /* \"SafuERC721Staking.sol\":5949:5978  setRewardsDuration(_duration) */\n      tag_195\n        /* \"SafuERC721Staking.sol\":5968:5977  _duration */\n      dup2\n        /* \"SafuERC721Staking.sol\":5949:5967  setRewardsDuration */\n      tag_196\n        /* \"SafuERC721Staking.sol\":5949:5978  setRewardsDuration(_duration) */\n      jump\t// in\n    tag_195:\n        /* \"SafuERC721Staking.sol\":5988:6012  addRewardAmount(_amount) */\n      tag_197\n        /* \"SafuERC721Staking.sol\":6004:6011  _amount */\n      dup3\n        /* \"SafuERC721Staking.sol\":5988:6003  addRewardAmount */\n      tag_106\n        /* \"SafuERC721Staking.sol\":5988:6012  addRewardAmount(_amount) */\n      jump\t// in\n    tag_197:\n        /* \"SafuERC721Staking.sol\":5838:6019  function setStakingPeriod(uint256 _amount, uint256 _duration)... */\n      pop\n      pop\n      jump\t// out\n        /* \"SafuERC721Staking.sol\":7364:7643  function calculateRewards(address _user)... */\n    tag_72:\n      sub(shl(0xa0, 0x01), 0x01)\n        /* \"SafuERC721Staking.sol\":7622:7636  rewards[_user] */\n      dup2\n      and\n        /* \"SafuERC721Staking.sol\":7450:7466  uint256 _rewards */\n      0x00\n        /* \"SafuERC721Staking.sol\":7622:7636  rewards[_user] */\n      swap1\n      dup2\n      mstore\n        /* \"SafuERC721Staking.sol\":7622:7629  rewards */\n      0x0b\n        /* \"SafuERC721Staking.sol\":7622:7636  rewards[_user] */\n      0x20\n      swap1\n      dup2\n      mstore\n      0x40\n      dup1\n      dup4\n      keccak256\n      sload\n        /* \"SafuERC721Staking.sol\":7568:7590  userRewardPerTokenPaid */\n      0x0a\n        /* \"SafuERC721Staking.sol\":7568:7597  userRewardPerTokenPaid[_user] */\n      swap1\n      swap3\n      mstore\n      dup3\n      keccak256\n      sload\n        /* \"SafuERC721Staking.sol\":7602:7606  1e18 */\n      0x0de0b6b3a7640000\n      swap1\n        /* \"SafuERC721Staking.sol\":7549:7565  rewardPerToken() */\n      tag_199\n        /* \"SafuERC721Staking.sol\":7549:7563  rewardPerToken */\n      tag_118\n        /* \"SafuERC721Staking.sol\":7549:7565  rewardPerToken() */\n      jump\t// in\n    tag_199:\n        /* \"SafuERC721Staking.sol\":7549:7597  rewardPerToken() - userRewardPerTokenPaid[_user] */\n      tag_200\n      swap2\n      swap1\n      tag_201\n      jump\t// in\n    tag_200:\n      sub(shl(0xa0, 0x01), 0x01)\n        /* \"SafuERC721Staking.sol\":7503:7522  tokensStaked[_user] */\n      dup6\n      and\n      0x00\n      swap1\n      dup2\n      mstore\n        /* \"SafuERC721Staking.sol\":7503:7515  tokensStaked */\n      0x0d\n        /* \"SafuERC721Staking.sol\":7503:7522  tokensStaked[_user] */\n      0x20\n      mstore\n      0x40\n      swap1\n      keccak256\n        /* \"SafuERC721Staking.sol\":7503:7529  tokensStaked[_user].length */\n      sload\n        /* \"SafuERC721Staking.sol\":7503:7598  tokensStaked[_user].length *... */\n      tag_202\n      swap2\n      swap1\n      tag_170\n      jump\t// in\n    tag_202:\n        /* \"SafuERC721Staking.sol\":7502:7606  (tokensStaked[_user].length *... */\n      tag_203\n      swap2\n      swap1\n      tag_204\n      jump\t// in\n    tag_203:\n        /* \"SafuERC721Staking.sol\":7501:7636  ((tokensStaked[_user].length *... */\n      tag_205\n      swap2\n      swap1\n      tag_163\n      jump\t// in\n    tag_205:\n        /* \"SafuERC721Staking.sol\":7482:7636  return... */\n      swap3\n        /* \"SafuERC721Staking.sol\":7364:7643  function calculateRewards(address _user)... */\n      swap2\n      pop\n      pop\n      jump\t// out\n        /* \"@openzeppelin/contracts/access/Ownable.sol\":1831:1932   */\n    tag_79:\n        /* \"@openzeppelin/contracts/access/Ownable.sol\":1094:1107   */\n      tag_207\n        /* \"@openzeppelin/contracts/access/Ownable.sol\":1094:1105   */\n      tag_193\n        /* \"@openzeppelin/contracts/access/Ownable.sol\":1094:1107   */\n      jump\t// in\n    tag_207:\n        /* \"@openzeppelin/contracts/access/Ownable.sol\":1895:1925   */\n      tag_209\n        /* \"@openzeppelin/contracts/access/Ownable.sol\":1922:1923   */\n      0x00\n        /* \"@openzeppelin/contracts/access/Ownable.sol\":1895:1913   */\n      tag_210\n        /* \"@openzeppelin/contracts/access/Ownable.sol\":1895:1925   */\n      jump\t// in\n    tag_209:\n        /* \"@openzeppelin/contracts/access/Ownable.sol\":1831:1932   */\n      jump\t// out\n        /* \"SafuERC721Staking.sol\":6403:6607  function lastTimeRewardApplicable()... */\n    tag_90:\n        /* \"SafuERC721Staking.sol\":6484:6514  uint256 _lastRewardsApplicable */\n      0x00\n        /* \"SafuERC721Staking.sol\":6555:6567  periodFinish */\n      sload(0x04)\n        /* \"SafuERC721Staking.sol\":6537:6552  block.timestamp */\n      timestamp\n        /* \"SafuERC721Staking.sol\":6537:6567  block.timestamp < periodFinish */\n      lt\n        /* \"SafuERC721Staking.sol\":6537:6600  block.timestamp < periodFinish ? block.timestamp : periodFinish */\n      tag_212\n      jumpi\n      pop\n        /* \"SafuERC721Staking.sol\":6588:6600  periodFinish */\n      sload(0x04)\n      swap1\n        /* \"SafuERC721Staking.sol\":7767:7930  function getRewardForDuration()... */\n      jump\t// out\n        /* \"SafuERC721Staking.sol\":6537:6600  block.timestamp < periodFinish ? block.timestamp : periodFinish */\n    tag_212:\n      pop\n        /* \"SafuERC721Staking.sol\":6570:6585  block.timestamp */\n      timestamp\n      swap1\n        /* \"SafuERC721Staking.sol\":6403:6607  function lastTimeRewardApplicable()... */\n      jump\t// out\n        /* \"SafuERC721Staking.sol\":4485:4592  function withdrawAll() external {... */\n    tag_93:\n        /* \"SafuERC721Staking.sol\":4549:4559  msg.sender */\n      caller\n        /* \"SafuERC721Staking.sol\":4536:4560  tokensStaked[msg.sender] */\n      0x00\n      swap1\n      dup2\n      mstore\n        /* \"SafuERC721Staking.sol\":4536:4548  tokensStaked */\n      0x0d\n        /* \"SafuERC721Staking.sol\":4536:4560  tokensStaked[msg.sender] */\n      0x20\n      swap1\n      dup2\n      mstore\n      0x40\n      swap2\n      dup3\n      swap1\n      keccak256\n        /* \"SafuERC721Staking.sol\":4527:4561  withdraw(tokensStaked[msg.sender]) */\n      dup1\n      sload\n      dup4\n      mload\n      dup2\n      dup5\n      mul\n      dup2\n      add\n      dup5\n      add\n      swap1\n      swap5\n      mstore\n      dup1\n      dup5\n      mstore\n      tag_215\n      swap4\n      swap3\n      dup4\n      add\n        /* \"SafuERC721Staking.sol\":4536:4560  tokensStaked[msg.sender] */\n      dup3\n        /* \"SafuERC721Staking.sol\":4527:4561  withdraw(tokensStaked[msg.sender]) */\n      dup3\n      dup1\n      iszero\n      tag_216\n      jumpi\n      0x20\n      mul\n      dup3\n      add\n      swap2\n      swap1\n      0x00\n      mstore\n      keccak256(0x00, 0x20)\n      swap1\n    tag_217:\n      dup2\n      sload\n      dup2\n      mstore\n      0x20\n      add\n      swap1\n      0x01\n      add\n      swap1\n      dup1\n      dup4\n      gt\n      tag_217\n      jumpi\n    tag_216:\n      pop\n      pop\n      pop\n      pop\n      pop\n        /* \"SafuERC721Staking.sol\":4527:4535  withdraw */\n      tag_103\n        /* \"SafuERC721Staking.sol\":4527:4561  withdraw(tokensStaked[msg.sender]) */\n      jump\t// in\n    tag_215:\n        /* \"SafuERC721Staking.sol\":4571:4585  claimRewards() */\n      tag_209\n        /* \"SafuERC721Staking.sol\":4571:4583  claimRewards */\n      tag_56\n        /* \"SafuERC721Staking.sol\":4571:4585  claimRewards() */\n      jump\t// in\n        /* \"SafuERC721Staking.sol\":2763:3920  function withdraw(uint256[] memory tokenIds)... */\n    tag_103:\n        /* \"@openzeppelin/contracts/security/ReentrancyGuard.sol\":1744:1745   */\n      0x02\n        /* \"@openzeppelin/contracts/security/ReentrancyGuard.sol\":2325:2332   */\n      sload(0x00)\n        /* \"@openzeppelin/contracts/security/ReentrancyGuard.sol\":2325:2344   */\n      sub\n        /* \"@openzeppelin/contracts/security/ReentrancyGuard.sol\":2317:2380   */\n      tag_221\n      jumpi\n      mload(0x40)\n      shl(0xe5, 0x461bcd)\n      dup2\n      mstore\n        /* \"#utility.yul\":5844:5846   */\n      0x20\n        /* \"@openzeppelin/contracts/security/ReentrancyGuard.sol\":2317:2380   */\n      0x04\n      dup3\n      add\n        /* \"#utility.yul\":5826:5847   */\n      mstore\n        /* \"#utility.yul\":5883:5885   */\n      0x1f\n        /* \"#utility.yul\":5863:5881   */\n      0x24\n      dup3\n      add\n        /* \"#utility.yul\":5856:5886   */\n      mstore\n        /* \"#utility.yul\":5922:5955   */\n      0x5265656e7472616e637947756172643a207265656e7472616e742063616c6c00\n        /* \"#utility.yul\":5902:5920   */\n      0x44\n      dup3\n      add\n        /* \"#utility.yul\":5895:5956   */\n      mstore\n        /* \"#utility.yul\":5973:5991   */\n      0x64\n      add\n        /* \"@openzeppelin/contracts/security/ReentrancyGuard.sol\":2317:2380   */\n      tag_135\n        /* \"#utility.yul\":5642:5997   */\n      jump\n        /* \"@openzeppelin/contracts/security/ReentrancyGuard.sol\":2317:2380   */\n    tag_221:\n        /* \"@openzeppelin/contracts/security/ReentrancyGuard.sol\":1744:1745   */\n      0x02\n        /* \"@openzeppelin/contracts/security/ReentrancyGuard.sol\":2455:2462   */\n      0x00\n        /* \"@openzeppelin/contracts/security/ReentrancyGuard.sol\":2455:2473   */\n      sstore\n        /* \"SafuERC721Staking.sol\":2865:2875  msg.sender */\n      caller\n        /* \"SafuERC721Staking.sol\":9993:10009  rewardPerToken() */\n      tag_224\n        /* \"SafuERC721Staking.sol\":9993:10007  rewardPerToken */\n      tag_118\n        /* \"SafuERC721Staking.sol\":9993:10009  rewardPerToken() */\n      jump\t// in\n    tag_224:\n        /* \"SafuERC721Staking.sol\":9970:9990  rewardPerTokenStored */\n      0x08\n        /* \"SafuERC721Staking.sol\":9970:10009  rewardPerTokenStored = rewardPerToken() */\n      sstore\n        /* \"SafuERC721Staking.sol\":10036:10062  lastTimeRewardApplicable() */\n      tag_225\n        /* \"SafuERC721Staking.sol\":10036:10060  lastTimeRewardApplicable */\n      tag_90\n        /* \"SafuERC721Staking.sol\":10036:10062  lastTimeRewardApplicable() */\n      jump\t// in\n    tag_225:\n        /* \"SafuERC721Staking.sol\":10019:10033  lastUpdateTime */\n      0x07\n        /* \"SafuERC721Staking.sol\":10019:10062  lastUpdateTime = lastTimeRewardApplicable() */\n      sstore\n      sub(shl(0xa0, 0x01), 0x01)\n        /* \"SafuERC721Staking.sol\":10076:10097  account != address(0) */\n      dup2\n      and\n      iszero\n        /* \"SafuERC721Staking.sol\":10072:10236  if (account != address(0)) {... */\n      tag_226\n      jumpi\n        /* \"SafuERC721Staking.sol\":10132:10157  calculateRewards(account) */\n      tag_227\n        /* \"SafuERC721Staking.sol\":10149:10156  account */\n      dup2\n        /* \"SafuERC721Staking.sol\":10132:10148  calculateRewards */\n      tag_72\n        /* \"SafuERC721Staking.sol\":10132:10157  calculateRewards(account) */\n      jump\t// in\n    tag_227:\n      sub(shl(0xa0, 0x01), 0x01)\n        /* \"SafuERC721Staking.sol\":10113:10129  rewards[account] */\n      dup3\n      and\n      0x00\n      swap1\n      dup2\n      mstore\n        /* \"SafuERC721Staking.sol\":10113:10120  rewards */\n      0x0b\n        /* \"SafuERC721Staking.sol\":10113:10129  rewards[account] */\n      0x20\n      swap1\n      dup2\n      mstore\n      0x40\n      dup1\n      dup4\n      keccak256\n        /* \"SafuERC721Staking.sol\":10113:10157  rewards[account] = calculateRewards(account) */\n      swap4\n      swap1\n      swap4\n      sstore\n        /* \"SafuERC721Staking.sol\":10205:10225  rewardPerTokenStored */\n      sload(0x08)\n        /* \"SafuERC721Staking.sol\":10171:10193  userRewardPerTokenPaid */\n      0x0a\n        /* \"SafuERC721Staking.sol\":10171:10202  userRewardPerTokenPaid[account] */\n      swap1\n      swap2\n      mstore\n      swap2\n      swap1\n      keccak256\n        /* \"SafuERC721Staking.sol\":10171:10225  userRewardPerTokenPaid[account] = rewardPerTokenStored */\n      sstore\n        /* \"SafuERC721Staking.sol\":10072:10236  if (account != address(0)) {... */\n    tag_226:\n        /* \"SafuERC721Staking.sol\":2899:2907  tokenIds */\n      dup2\n        /* \"SafuERC721Staking.sol\":2899:2914  tokenIds.length */\n      mload\n        /* \"SafuERC721Staking.sol\":2918:2919  0 */\n      0x00\n        /* \"SafuERC721Staking.sol\":2899:2919  tokenIds.length != 0 */\n      sub\n        /* \"SafuERC721Staking.sol\":2891:2953  require(tokenIds.length != 0, \"Staking: No tokenIds provided\") */\n      tag_229\n      jumpi\n      mload(0x40)\n      shl(0xe5, 0x461bcd)\n      dup2\n      mstore\n        /* \"#utility.yul\":6204:6206   */\n      0x20\n        /* \"SafuERC721Staking.sol\":2891:2953  require(tokenIds.length != 0, \"Staking: No tokenIds provided\") */\n      0x04\n      dup3\n      add\n        /* \"#utility.yul\":6186:6207   */\n      mstore\n        /* \"#utility.yul\":6243:6245   */\n      0x1d\n        /* \"#utility.yul\":6223:6241   */\n      0x24\n      dup3\n      add\n        /* \"#utility.yul\":6216:6246   */\n      mstore\n        /* \"#utility.yul\":6282:6313   */\n      0x5374616b696e673a204e6f20746f6b656e4964732070726f7669646564000000\n        /* \"#utility.yul\":6262:6280   */\n      0x44\n      dup3\n      add\n        /* \"#utility.yul\":6255:6314   */\n      mstore\n        /* \"#utility.yul\":6331:6349   */\n      0x64\n      add\n        /* \"SafuERC721Staking.sol\":2891:2953  require(tokenIds.length != 0, \"Staking: No tokenIds provided\") */\n      tag_135\n        /* \"#utility.yul\":6002:6355   */\n      jump\n        /* \"SafuERC721Staking.sol\":2891:2953  require(tokenIds.length != 0, \"Staking: No tokenIds provided\") */\n    tag_229:\n        /* \"SafuERC721Staking.sol\":2981:2996  tokenIds.length */\n      dup2\n      mload\n        /* \"SafuERC721Staking.sol\":2964:2978  uint256 amount */\n      0x00\n        /* \"SafuERC721Staking.sol\":3006:3823  for (uint256 i = 0; i < amount; i += 1) {... */\n    tag_231:\n        /* \"SafuERC721Staking.sol\":3030:3036  amount */\n      dup2\n        /* \"SafuERC721Staking.sol\":3026:3027  i */\n      dup2\n        /* \"SafuERC721Staking.sol\":3026:3036  i < amount */\n      lt\n        /* \"SafuERC721Staking.sol\":3006:3823  for (uint256 i = 0; i < amount; i += 1) {... */\n      iszero\n      tag_232\n      jumpi\n        /* \"SafuERC721Staking.sol\":3114:3124  msg.sender */\n      caller\n      sub(shl(0xa0, 0x01), 0x01)\n        /* \"SafuERC721Staking.sol\":3085:3124  stakedAssets[tokenIds[i]] == msg.sender */\n      and\n        /* \"SafuERC721Staking.sol\":3085:3097  stakedAssets */\n      0x0c\n        /* \"SafuERC721Staking.sol\":3085:3110  stakedAssets[tokenIds[i]] */\n      0x00\n        /* \"SafuERC721Staking.sol\":3098:3106  tokenIds */\n      dup7\n        /* \"SafuERC721Staking.sol\":3107:3108  i */\n      dup5\n        /* \"SafuERC721Staking.sol\":3098:3109  tokenIds[i] */\n      dup2\n      mload\n      dup2\n      lt\n      tag_235\n      jumpi\n      tag_235\n      tag_151\n      jump\t// in\n    tag_235:\n      0x20\n      swap1\n      dup2\n      mul\n      swap2\n      swap1\n      swap2\n      add\n      dup2\n      add\n      mload\n        /* \"SafuERC721Staking.sol\":3085:3110  stakedAssets[tokenIds[i]] */\n      dup3\n      mstore\n      dup2\n      add\n      swap2\n      swap1\n      swap2\n      mstore\n      0x40\n      add\n      0x00\n      keccak256\n      sload\n      sub(shl(0xa0, 0x01), 0x01)\n      and\n        /* \"SafuERC721Staking.sol\":3085:3124  stakedAssets[tokenIds[i]] == msg.sender */\n      eq\n        /* \"SafuERC721Staking.sol\":3060:3194  require(... */\n      tag_236\n      jumpi\n      mload(0x40)\n      shl(0xe5, 0x461bcd)\n      dup2\n      mstore\n        /* \"#utility.yul\":8629:8631   */\n      0x20\n        /* \"SafuERC721Staking.sol\":3060:3194  require(... */\n      0x04\n      dup3\n      add\n        /* \"#utility.yul\":8611:8632   */\n      mstore\n        /* \"#utility.yul\":8668:8670   */\n      0x24\n        /* \"#utility.yul\":8648:8666   */\n      dup1\n      dup3\n      add\n        /* \"#utility.yul\":8641:8671   */\n      mstore\n        /* \"#utility.yul\":8707:8741   */\n      0x5374616b696e673a204e6f7420746865207374616b6572206f66207468652074\n        /* \"#utility.yul\":8687:8705   */\n      0x44\n      dup3\n      add\n        /* \"#utility.yul\":8680:8742   */\n      mstore\n      shl(0xe1, 0x37b5b2b7)\n        /* \"#utility.yul\":8758:8776   */\n      0x64\n      dup3\n      add\n        /* \"#utility.yul\":8751:8785   */\n      mstore\n        /* \"#utility.yul\":8802:8821   */\n      0x84\n      add\n        /* \"SafuERC721Staking.sol\":3060:3194  require(... */\n      tag_135\n        /* \"#utility.yul\":8427:8827   */\n      jump\n        /* \"SafuERC721Staking.sol\":3060:3194  require(... */\n    tag_236:\n        /* \"SafuERC721Staking.sol\":3208:3221  nftCollection */\n      sload(0x03)\n        /* \"SafuERC721Staking.sol\":3315:3326  tokenIds[i] */\n      dup5\n      mload\n      sub(shl(0xa0, 0x01), 0x01)\n        /* \"SafuERC721Staking.sol\":3208:3221  nftCollection */\n      swap1\n      swap2\n      and\n      swap1\n        /* \"SafuERC721Staking.sol\":3208:3238  nftCollection.safeTransferFrom */\n      0x42842e0e\n      swap1\n        /* \"SafuERC721Staking.sol\":3264:3268  this */\n      address\n      swap1\n        /* \"SafuERC721Staking.sol\":3287:3297  msg.sender */\n      caller\n      swap1\n        /* \"SafuERC721Staking.sol\":3315:3323  tokenIds */\n      dup9\n      swap1\n        /* \"SafuERC721Staking.sol\":3324:3325  i */\n      dup7\n      swap1\n        /* \"SafuERC721Staking.sol\":3315:3326  tokenIds[i] */\n      dup2\n      lt\n      tag_240\n      jumpi\n      tag_240\n      tag_151\n      jump\t// in\n    tag_240:\n      0x20\n      swap1\n      dup2\n      mul\n      swap2\n      swap1\n      swap2\n      add\n      add\n      mload\n        /* \"SafuERC721Staking.sol\":3208:3340  nftCollection.safeTransferFrom(... */\n      mload(0x40)\n      not(sub(shl(0xe0, 0x01), 0x01))\n      0xe0\n      dup7\n      swap1\n      shl\n      and\n      dup2\n      mstore\n      sub(shl(0xa0, 0x01), 0x01)\n        /* \"#utility.yul\":6773:6788   */\n      swap4\n      dup5\n      and\n        /* \"SafuERC721Staking.sol\":3208:3340  nftCollection.safeTransferFrom(... */\n      0x04\n      dup3\n      add\n        /* \"#utility.yul\":6755:6789   */\n      mstore\n        /* \"#utility.yul\":6825:6840   */\n      swap3\n      swap1\n      swap2\n      and\n        /* \"#utility.yul\":6805:6823   */\n      0x24\n      dup4\n      add\n        /* \"#utility.yul\":6798:6841   */\n      mstore\n        /* \"#utility.yul\":6857:6875   */\n      0x44\n      dup3\n      add\n        /* \"#utility.yul\":6850:6884   */\n      mstore\n        /* \"#utility.yul\":6667:6685   */\n      0x64\n      add\n        /* \"SafuERC721Staking.sol\":3208:3340  nftCollection.safeTransferFrom(... */\n      0x00\n      mload(0x40)\n      dup1\n      dup4\n      sub\n      dup2\n      0x00\n      dup8\n      dup1\n      extcodesize\n      iszero\n      dup1\n      iszero\n      tag_242\n      jumpi\n      0x00\n      dup1\n      revert\n    tag_242:\n      pop\n      gas\n      call\n      iszero\n      dup1\n      iszero\n      tag_244\n      jumpi\n      returndatasize\n      0x00\n      dup1\n      returndatacopy\n      revert(0x00, returndatasize)\n    tag_244:\n      pop\n      pop\n      pop\n      pop\n        /* \"SafuERC721Staking.sol\":3390:3391  0 */\n      0x00\n        /* \"SafuERC721Staking.sol\":3354:3366  stakedAssets */\n      0x0c\n        /* \"SafuERC721Staking.sol\":3354:3379  stakedAssets[tokenIds[i]] */\n      0x00\n        /* \"SafuERC721Staking.sol\":3367:3375  tokenIds */\n      dup7\n        /* \"SafuERC721Staking.sol\":3376:3377  i */\n      dup5\n        /* \"SafuERC721Staking.sol\":3367:3378  tokenIds[i] */\n      dup2\n      mload\n      dup2\n      lt\n      tag_246\n      jumpi\n      tag_246\n      tag_151\n      jump\t// in\n    tag_246:\n      0x20\n      swap1\n      dup2\n      mul\n      swap2\n      swap1\n      swap2\n      add\n      dup2\n      add\n      mload\n        /* \"SafuERC721Staking.sol\":3354:3379  stakedAssets[tokenIds[i]] */\n      dup3\n      mstore\n      dup2\n      dup2\n      add\n      swap3\n      swap1\n      swap3\n      mstore\n      0x40\n      swap1\n      dup2\n      add\n      0x00\n      swap1\n      dup2\n      keccak256\n        /* \"SafuERC721Staking.sol\":3354:3392  stakedAssets[tokenIds[i]] = address(0) */\n      dup1\n      sload\n      not(0xffffffffffffffffffffffffffffffffffffffff)\n      and\n      sub(shl(0xa0, 0x01), 0x01)\n      swap6\n      swap1\n      swap6\n      and\n      swap5\n      swap1\n      swap5\n      or\n      swap1\n      swap4\n      sstore\n        /* \"SafuERC721Staking.sol\":3436:3446  msg.sender */\n      caller\n        /* \"SafuERC721Staking.sol\":3423:3447  tokensStaked[msg.sender] */\n      dup4\n      mstore\n        /* \"SafuERC721Staking.sol\":3423:3435  tokensStaked */\n      0x0d\n        /* \"SafuERC721Staking.sol\":3423:3447  tokensStaked[msg.sender] */\n      swap1\n      swap2\n      mstore\n      dup2\n      keccak256\n        /* \"SafuERC721Staking.sol\":3423:3454  tokensStaked[msg.sender].length */\n      sload\n      swap1\n        /* \"SafuERC721Staking.sol\":3468:3813  for (uint256 j; j < length; ++j) {... */\n    tag_247:\n        /* \"SafuERC721Staking.sol\":3488:3494  length */\n      dup2\n        /* \"SafuERC721Staking.sol\":3484:3485  j */\n      dup2\n        /* \"SafuERC721Staking.sol\":3484:3494  j < length */\n      lt\n        /* \"SafuERC721Staking.sol\":3468:3813  for (uint256 j; j < length; ++j) {... */\n      iszero\n      tag_248\n      jumpi\n        /* \"SafuERC721Staking.sol\":3554:3562  tokenIds */\n      dup6\n        /* \"SafuERC721Staking.sol\":3563:3564  i */\n      dup4\n        /* \"SafuERC721Staking.sol\":3554:3565  tokenIds[i] */\n      dup2\n      mload\n      dup2\n      lt\n      tag_251\n      jumpi\n      tag_251\n      tag_151\n      jump\t// in\n    tag_251:\n      0x20\n      mul\n      0x20\n      add\n      add\n      mload\n        /* \"SafuERC721Staking.sol\":3523:3535  tokensStaked */\n      0x0d\n        /* \"SafuERC721Staking.sol\":3523:3547  tokensStaked[msg.sender] */\n      0x00\n        /* \"SafuERC721Staking.sol\":3536:3546  msg.sender */\n      caller\n      sub(shl(0xa0, 0x01), 0x01)\n        /* \"SafuERC721Staking.sol\":3523:3547  tokensStaked[msg.sender] */\n      and\n      sub(shl(0xa0, 0x01), 0x01)\n      and\n      dup2\n      mstore\n      0x20\n      add\n      swap1\n      dup2\n      mstore\n      0x20\n      add\n      0x00\n      keccak256\n        /* \"SafuERC721Staking.sol\":3548:3549  j */\n      dup3\n        /* \"SafuERC721Staking.sol\":3523:3550  tokensStaked[msg.sender][j] */\n      dup2\n      sload\n      dup2\n      lt\n      tag_253\n      jumpi\n      tag_253\n      tag_151\n      jump\t// in\n    tag_253:\n      swap1\n      0x00\n      mstore\n      keccak256(0x00, 0x20)\n      add\n      sload\n        /* \"SafuERC721Staking.sol\":3523:3565  tokensStaked[msg.sender][j] == tokenIds[i] */\n      sub\n        /* \"SafuERC721Staking.sol\":3519:3799  if (tokensStaked[msg.sender][j] == tokenIds[i]) {... */\n      tag_255\n      jumpi\n        /* \"SafuERC721Staking.sol\":3632:3642  msg.sender */\n      caller\n        /* \"SafuERC721Staking.sol\":3619:3643  tokensStaked[msg.sender] */\n      0x00\n      swap1\n      dup2\n      mstore\n        /* \"SafuERC721Staking.sol\":3619:3631  tokensStaked */\n      0x0d\n        /* \"SafuERC721Staking.sol\":3619:3643  tokensStaked[msg.sender] */\n      0x20\n      mstore\n      0x40\n      swap1\n      keccak256\n        /* \"SafuERC721Staking.sol\":3669:3679  length - 1 */\n      tag_256\n        /* \"SafuERC721Staking.sol\":3678:3679  1 */\n      0x01\n        /* \"SafuERC721Staking.sol\":3669:3675  length */\n      dup5\n        /* \"SafuERC721Staking.sol\":3669:3679  length - 1 */\n      tag_201\n      jump\t// in\n    tag_256:\n        /* \"SafuERC721Staking.sol\":3619:3701  tokensStaked[msg.sender][... */\n      dup2\n      sload\n      dup2\n      lt\n      tag_258\n      jumpi\n      tag_258\n      tag_151\n      jump\t// in\n    tag_258:\n      0x00\n      swap2\n      dup3\n      mstore\n      0x20\n      dup1\n      dup4\n      keccak256\n      swap1\n      swap2\n      add\n      sload\n        /* \"SafuERC721Staking.sol\":3602:3612  msg.sender */\n      caller\n        /* \"SafuERC721Staking.sol\":3589:3613  tokensStaked[msg.sender] */\n      dup4\n      mstore\n        /* \"SafuERC721Staking.sol\":3589:3601  tokensStaked */\n      0x0d\n        /* \"SafuERC721Staking.sol\":3589:3613  tokensStaked[msg.sender] */\n      swap1\n      swap2\n      mstore\n      0x40\n      swap1\n      swap2\n      keccak256\n        /* \"SafuERC721Staking.sol\":3589:3616  tokensStaked[msg.sender][j] */\n      dup1\n      sload\n        /* \"SafuERC721Staking.sol\":3614:3615  j */\n      dup4\n      swap1\n        /* \"SafuERC721Staking.sol\":3589:3616  tokensStaked[msg.sender][j] */\n      dup2\n      lt\n      tag_261\n      jumpi\n      tag_261\n      tag_151\n      jump\t// in\n    tag_261:\n      0x00\n      swap2\n      dup3\n      mstore\n      0x20\n      dup1\n      dup4\n      keccak256\n      swap1\n      swap2\n      add\n        /* \"SafuERC721Staking.sol\":3589:3701  tokensStaked[msg.sender][j] = tokensStaked[msg.sender][... */\n      swap3\n      swap1\n      swap3\n      sstore\n        /* \"SafuERC721Staking.sol\":3736:3746  msg.sender */\n      caller\n        /* \"SafuERC721Staking.sol\":3723:3747  tokensStaked[msg.sender] */\n      dup2\n      mstore\n        /* \"SafuERC721Staking.sol\":3723:3735  tokensStaked */\n      0x0d\n        /* \"SafuERC721Staking.sol\":3723:3747  tokensStaked[msg.sender] */\n      swap1\n      swap2\n      mstore\n      0x40\n      swap1\n      keccak256\n        /* \"SafuERC721Staking.sol\":3723:3753  tokensStaked[msg.sender].pop() */\n      dup1\n      sload\n      dup1\n      tag_264\n      jumpi\n      tag_264\n      tag_265\n      jump\t// in\n    tag_264:\n      0x01\n      swap1\n      sub\n      dup2\n      dup2\n      swap1\n      0x00\n      mstore\n      keccak256(0x00, 0x20)\n      add\n      0x00\n      swap1\n      sstore\n      swap1\n      sstore\n        /* \"SafuERC721Staking.sol\":3775:3780  break */\n      jump(tag_248)\n        /* \"SafuERC721Staking.sol\":3519:3799  if (tokensStaked[msg.sender][j] == tokenIds[i]) {... */\n    tag_255:\n        /* \"SafuERC721Staking.sol\":3496:3499  ++j */\n      tag_267\n      dup2\n      tag_268\n      jump\t// in\n    tag_267:\n      swap1\n      pop\n        /* \"SafuERC721Staking.sol\":3468:3813  for (uint256 j; j < length; ++j) {... */\n      jump(tag_247)\n    tag_248:\n      pop\n        /* \"SafuERC721Staking.sol\":3038:3044  i += 1 */\n      tag_269\n      swap1\n      pop\n        /* \"SafuERC721Staking.sol\":3043:3044  1 */\n      0x01\n        /* \"SafuERC721Staking.sol\":3038:3044  i += 1 */\n      dup3\n      tag_163\n      jump\t// in\n    tag_269:\n      swap1\n      pop\n        /* \"SafuERC721Staking.sol\":3006:3823  for (uint256 i = 0; i < amount; i += 1) {... */\n      jump(tag_231)\n    tag_232:\n      pop\n        /* \"SafuERC721Staking.sol\":3853:3859  amount */\n      dup1\n        /* \"SafuERC721Staking.sol\":3832:3849  totalStakedSupply */\n      0x09\n      0x00\n        /* \"SafuERC721Staking.sol\":3832:3859  totalStakedSupply -= amount */\n      dup3\n      dup3\n      sload\n      tag_270\n      swap2\n      swap1\n      tag_201\n      jump\t// in\n    tag_270:\n      swap1\n      swap2\n      sstore\n      pop\n      pop\n        /* \"SafuERC721Staking.sol\":3874:3913  Withdrawn(msg.sender, amount, tokenIds) */\n      mload(0x40)\n        /* \"SafuERC721Staking.sol\":3884:3894  msg.sender */\n      caller\n      swap1\n        /* \"SafuERC721Staking.sol\":3874:3913  Withdrawn(msg.sender, amount, tokenIds) */\n      0xd40a9786b597b88b3426158112e3930e09cb031c138a150e367cfe17ff20e302\n      swap1\n      tag_165\n      swap1\n        /* \"SafuERC721Staking.sol\":3896:3902  amount */\n      dup5\n      swap1\n        /* \"SafuERC721Staking.sol\":3904:3912  tokenIds */\n      dup8\n      swap1\n        /* \"SafuERC721Staking.sol\":3874:3913  Withdrawn(msg.sender, amount, tokenIds) */\n      tag_166\n      jump\t// in\n        /* \"SafuERC721Staking.sol\":8424:9178  function addRewardAmount(uint256 reward)... */\n    tag_106:\n        /* \"@openzeppelin/contracts/access/Ownable.sol\":1094:1107   */\n      tag_273\n        /* \"@openzeppelin/contracts/access/Ownable.sol\":1094:1105   */\n      tag_193\n        /* \"@openzeppelin/contracts/access/Ownable.sol\":1094:1107   */\n      jump\t// in\n    tag_273:\n        /* \"SafuERC721Staking.sol\":8527:8528  0 */\n      0x00\n        /* \"SafuERC721Staking.sol\":9993:10009  rewardPerToken() */\n      tag_275\n        /* \"SafuERC721Staking.sol\":9993:10007  rewardPerToken */\n      tag_118\n        /* \"SafuERC721Staking.sol\":9993:10009  rewardPerToken() */\n      jump\t// in\n    tag_275:\n        /* \"SafuERC721Staking.sol\":9970:9990  rewardPerTokenStored */\n      0x08\n        /* \"SafuERC721Staking.sol\":9970:10009  rewardPerTokenStored = rewardPerToken() */\n      sstore\n        /* \"SafuERC721Staking.sol\":10036:10062  lastTimeRewardApplicable() */\n      tag_276\n        /* \"SafuERC721Staking.sol\":10036:10060  lastTimeRewardApplicable */\n      tag_90\n        /* \"SafuERC721Staking.sol\":10036:10062  lastTimeRewardApplicable() */\n      jump\t// in\n    tag_276:\n        /* \"SafuERC721Staking.sol\":10019:10033  lastUpdateTime */\n      0x07\n        /* \"SafuERC721Staking.sol\":10019:10062  lastUpdateTime = lastTimeRewardApplicable() */\n      sstore\n      sub(shl(0xa0, 0x01), 0x01)\n        /* \"SafuERC721Staking.sol\":10076:10097  account != address(0) */\n      dup2\n      and\n      iszero\n        /* \"SafuERC721Staking.sol\":10072:10236  if (account != address(0)) {... */\n      tag_277\n      jumpi\n        /* \"SafuERC721Staking.sol\":10132:10157  calculateRewards(account) */\n      tag_278\n        /* \"SafuERC721Staking.sol\":10149:10156  account */\n      dup2\n        /* \"SafuERC721Staking.sol\":10132:10148  calculateRewards */\n      tag_72\n        /* \"SafuERC721Staking.sol\":10132:10157  calculateRewards(account) */\n      jump\t// in\n    tag_278:\n      sub(shl(0xa0, 0x01), 0x01)\n        /* \"SafuERC721Staking.sol\":10113:10129  rewards[account] */\n      dup3\n      and\n      0x00\n      swap1\n      dup2\n      mstore\n        /* \"SafuERC721Staking.sol\":10113:10120  rewards */\n      0x0b\n        /* \"SafuERC721Staking.sol\":10113:10129  rewards[account] */\n      0x20\n      swap1\n      dup2\n      mstore\n      0x40\n      dup1\n      dup4\n      keccak256\n        /* \"SafuERC721Staking.sol\":10113:10157  rewards[account] = calculateRewards(account) */\n      swap4\n      swap1\n      swap4\n      sstore\n        /* \"SafuERC721Staking.sol\":10205:10225  rewardPerTokenStored */\n      sload(0x08)\n        /* \"SafuERC721Staking.sol\":10171:10193  userRewardPerTokenPaid */\n      0x0a\n        /* \"SafuERC721Staking.sol\":10171:10202  userRewardPerTokenPaid[account] */\n      swap1\n      swap2\n      mstore\n      swap2\n      swap1\n      keccak256\n        /* \"SafuERC721Staking.sol\":10171:10225  userRewardPerTokenPaid[account] = rewardPerTokenStored */\n      sstore\n        /* \"SafuERC721Staking.sol\":10072:10236  if (account != address(0)) {... */\n    tag_277:\n        /* \"SafuERC721Staking.sol\":8568:8580  periodFinish */\n      sload(0x04)\n        /* \"SafuERC721Staking.sol\":8549:8564  block.timestamp */\n      timestamp\n        /* \"SafuERC721Staking.sol\":8549:8580  block.timestamp >= periodFinish */\n      lt\n        /* \"SafuERC721Staking.sol\":8545:8844  if (block.timestamp >= periodFinish) {... */\n      tag_280\n      jumpi\n        /* \"SafuERC721Staking.sol\":8618:8633  rewardsDuration */\n      sload(0x06)\n        /* \"SafuERC721Staking.sol\":8609:8633  reward / rewardsDuration */\n      tag_281\n      swap1\n        /* \"SafuERC721Staking.sol\":8609:8615  reward */\n      dup4\n        /* \"SafuERC721Staking.sol\":8609:8633  reward / rewardsDuration */\n      tag_204\n      jump\t// in\n    tag_281:\n        /* \"SafuERC721Staking.sol\":8596:8606  rewardRate */\n      0x05\n        /* \"SafuERC721Staking.sol\":8596:8633  rewardRate = reward / rewardsDuration */\n      sstore\n        /* \"SafuERC721Staking.sol\":8545:8844  if (block.timestamp >= periodFinish) {... */\n      jump(tag_282)\n    tag_280:\n        /* \"SafuERC721Staking.sol\":8664:8681  uint256 remaining */\n      0x00\n        /* \"SafuERC721Staking.sol\":8699:8714  block.timestamp */\n      timestamp\n        /* \"SafuERC721Staking.sol\":8684:8696  periodFinish */\n      sload(0x04)\n        /* \"SafuERC721Staking.sol\":8684:8714  periodFinish - block.timestamp */\n      tag_283\n      swap2\n      swap1\n      tag_201\n      jump\t// in\n    tag_283:\n        /* \"SafuERC721Staking.sol\":8664:8714  uint256 remaining = periodFinish - block.timestamp */\n      swap1\n      pop\n        /* \"SafuERC721Staking.sol\":8728:8744  uint256 leftover */\n      0x00\n        /* \"SafuERC721Staking.sol\":8759:8769  rewardRate */\n      sload(0x05)\n        /* \"SafuERC721Staking.sol\":8747:8756  remaining */\n      dup3\n        /* \"SafuERC721Staking.sol\":8747:8769  remaining * rewardRate */\n      tag_284\n      swap2\n      swap1\n      tag_170\n      jump\t// in\n    tag_284:\n        /* \"SafuERC721Staking.sol\":8818:8833  rewardsDuration */\n      sload(0x06)\n        /* \"SafuERC721Staking.sol\":8728:8769  uint256 leftover = remaining * rewardRate */\n      swap1\n      swap2\n      pop\n        /* \"SafuERC721Staking.sol\":8797:8814  reward + leftover */\n      tag_285\n        /* \"SafuERC721Staking.sol\":8728:8769  uint256 leftover = remaining * rewardRate */\n      dup3\n        /* \"SafuERC721Staking.sol\":8797:8803  reward */\n      dup7\n        /* \"SafuERC721Staking.sol\":8797:8814  reward + leftover */\n      tag_163\n      jump\t// in\n    tag_285:\n        /* \"SafuERC721Staking.sol\":8796:8833  (reward + leftover) / rewardsDuration */\n      tag_286\n      swap2\n      swap1\n      tag_204\n      jump\t// in\n    tag_286:\n        /* \"SafuERC721Staking.sol\":8783:8793  rewardRate */\n      0x05\n        /* \"SafuERC721Staking.sol\":8783:8833  rewardRate = (reward + leftover) / rewardsDuration */\n      sstore\n      pop\n      pop\n        /* \"SafuERC721Staking.sol\":8545:8844  if (block.timestamp >= periodFinish) {... */\n    tag_282:\n        /* \"SafuERC721Staking.sol\":8871:8883  rewardsToken */\n      sload(0x02)\n        /* \"SafuERC721Staking.sol\":8871:8908  rewardsToken.balanceOf(address(this)) */\n      mload(0x40)\n      shl(0xe0, 0x70a08231)\n      dup2\n      mstore\n        /* \"SafuERC721Staking.sol\":8902:8906  this */\n      address\n        /* \"SafuERC721Staking.sol\":8871:8908  rewardsToken.balanceOf(address(this)) */\n      0x04\n      dup3\n      add\n        /* \"#utility.yul\":4527:4601   */\n      mstore\n        /* \"SafuERC721Staking.sol\":8853:8868  uint256 balance */\n      0x00\n      swap2\n      sub(shl(0xa0, 0x01), 0x01)\n        /* \"SafuERC721Staking.sol\":8871:8883  rewardsToken */\n      and\n      swap1\n        /* \"SafuERC721Staking.sol\":8871:8893  rewardsToken.balanceOf */\n      0x70a08231\n      swap1\n        /* \"#utility.yul\":4500:4518   */\n      0x24\n      add\n        /* \"SafuERC721Staking.sol\":8871:8908  rewardsToken.balanceOf(address(this)) */\n      0x20\n      mload(0x40)\n      dup1\n      dup4\n      sub\n      dup2\n      dup7\n      gas\n      staticcall\n      iszero\n      dup1\n      iszero\n      tag_289\n      jumpi\n      returndatasize\n      0x00\n      dup1\n      returndatacopy\n      revert(0x00, returndatasize)\n    tag_289:\n      pop\n      pop\n      pop\n      pop\n      mload(0x40)\n      returndatasize\n      not(0x1f)\n      0x1f\n      dup3\n      add\n      and\n      dup3\n      add\n      dup1\n      0x40\n      mstore\n      pop\n      dup2\n      add\n      swap1\n      tag_290\n      swap2\n      swap1\n      tag_291\n      jump\t// in\n    tag_290:\n        /* \"SafuERC721Staking.sol\":8853:8908  uint256 balance = rewardsToken.balanceOf(address(this)) */\n      swap1\n      pop\n        /* \"SafuERC721Staking.sol\":8963:8978  rewardsDuration */\n      sload(0x06)\n        /* \"SafuERC721Staking.sol\":8953:8960  balance */\n      dup2\n        /* \"SafuERC721Staking.sol\":8953:8978  balance / rewardsDuration */\n      tag_292\n      swap2\n      swap1\n      tag_204\n      jump\t// in\n    tag_292:\n        /* \"SafuERC721Staking.sol\":8939:8949  rewardRate */\n      sload(0x05)\n        /* \"SafuERC721Staking.sol\":8939:8978  rewardRate <= balance / rewardsDuration */\n      gt\n      iszero\n        /* \"SafuERC721Staking.sol\":8918:9037  require(... */\n      tag_293\n      jumpi\n      mload(0x40)\n      shl(0xe5, 0x461bcd)\n      dup2\n      mstore\n        /* \"#utility.yul\":9495:9497   */\n      0x20\n        /* \"SafuERC721Staking.sol\":8918:9037  require(... */\n      0x04\n      dup3\n      add\n        /* \"#utility.yul\":9477:9498   */\n      mstore\n        /* \"#utility.yul\":9534:9536   */\n      0x21\n        /* \"#utility.yul\":9514:9532   */\n      0x24\n      dup3\n      add\n        /* \"#utility.yul\":9507:9537   */\n      mstore\n        /* \"#utility.yul\":9573:9607   */\n      0x5374616b696e673a2050726f76696465642072657761726420746f6f20686967\n        /* \"#utility.yul\":9553:9571   */\n      0x44\n      dup3\n      add\n        /* \"#utility.yul\":9546:9608   */\n      mstore\n      shl(0xfb, 0x0d)\n        /* \"#utility.yul\":9624:9642   */\n      0x64\n      dup3\n      add\n        /* \"#utility.yul\":9617:9648   */\n      mstore\n        /* \"#utility.yul\":9665:9684   */\n      0x84\n      add\n        /* \"SafuERC721Staking.sol\":8918:9037  require(... */\n      tag_135\n        /* \"#utility.yul\":9293:9690   */\n      jump\n        /* \"SafuERC721Staking.sol\":8918:9037  require(... */\n    tag_293:\n        /* \"SafuERC721Staking.sol\":9064:9079  block.timestamp */\n      timestamp\n        /* \"SafuERC721Staking.sol\":9047:9061  lastUpdateTime */\n      0x07\n        /* \"SafuERC721Staking.sol\":9047:9079  lastUpdateTime = block.timestamp */\n      dup2\n      swap1\n      sstore\n        /* \"SafuERC721Staking.sol\":9122:9137  rewardsDuration */\n      sload(0x06)\n        /* \"SafuERC721Staking.sol\":9104:9137  block.timestamp + rewardsDuration */\n      tag_296\n      swap2\n      tag_163\n      jump\t// in\n    tag_296:\n        /* \"SafuERC721Staking.sol\":9089:9101  periodFinish */\n      0x04\n        /* \"SafuERC721Staking.sol\":9089:9137  periodFinish = block.timestamp + rewardsDuration */\n      sstore\n        /* \"SafuERC721Staking.sol\":9152:9171  RewardAdded(reward) */\n      mload(0x40)\n        /* \"#utility.yul\":3108:3133   */\n      dup4\n      dup2\n      mstore\n        /* \"SafuERC721Staking.sol\":9152:9171  RewardAdded(reward) */\n      0xde88a922e0d3b88b24e9623efeb464919c6bf9f66857a65e2bfcf2ce87a9433d\n      swap1\n        /* \"#utility.yul\":3096:3098   */\n      0x20\n        /* \"#utility.yul\":3081:3099   */\n      add\n        /* \"SafuERC721Staking.sol\":9152:9171  RewardAdded(reward) */\n      mload(0x40)\n      dup1\n      swap2\n      sub\n      swap1\n      log1\n        /* \"SafuERC721Staking.sol\":8535:9178  {... */\n      pop\n        /* \"@openzeppelin/contracts/access/Ownable.sol\":1117:1118   */\n      pop\n        /* \"SafuERC721Staking.sol\":8424:9178  function addRewardAmount(uint256 reward)... */\n      pop\n      jump\t// out\n        /* \"SafuERC721Staking.sol\":6158:6256  function setClaimingState(bool _newState) external onlyOwner {... */\n    tag_110:\n        /* \"@openzeppelin/contracts/access/Ownable.sol\":1094:1107   */\n      tag_299\n        /* \"@openzeppelin/contracts/access/Ownable.sol\":1094:1105   */\n      tag_193\n        /* \"@openzeppelin/contracts/access/Ownable.sol\":1094:1107   */\n      jump\t// in\n    tag_299:\n        /* \"SafuERC721Staking.sol\":6229:6237  claiming */\n      0x03\n        /* \"SafuERC721Staking.sol\":6229:6249  claiming = _newState */\n      dup1\n      sload\n      swap2\n      iszero\n      iszero\n      shl(0xa0, 0x01)\n      mul\n      0xffffffffffffffffffffff00ffffffffffffffffffffffffffffffffffffffff\n      swap1\n      swap3\n      and\n      swap2\n      swap1\n      swap2\n      or\n      swap1\n      sstore\n        /* \"SafuERC721Staking.sol\":6158:6256  function setClaimingState(bool _newState) external onlyOwner {... */\n      jump\t// out\n        /* \"SafuERC721Staking.sol\":6787:7124  function rewardPerToken() public view returns (uint256) {... */\n    tag_118:\n        /* \"SafuERC721Staking.sol\":6834:6841  uint256 */\n      0x00\n        /* \"SafuERC721Staking.sol\":6857:6874  totalStakedSupply */\n      sload(0x09)\n        /* \"SafuERC721Staking.sol\":6878:6879  0 */\n      0x00\n        /* \"SafuERC721Staking.sol\":6857:6879  totalStakedSupply == 0 */\n      sub\n        /* \"SafuERC721Staking.sol\":6853:6933  if (totalStakedSupply == 0) {... */\n      tag_302\n      jumpi\n      pop\n        /* \"SafuERC721Staking.sol\":6902:6922  rewardPerTokenStored */\n      sload(0x08)\n      swap1\n        /* \"SafuERC721Staking.sol\":6787:7124  function rewardPerToken() public view returns (uint256) {... */\n      jump\t// out\n        /* \"SafuERC721Staking.sol\":6853:6933  if (totalStakedSupply == 0) {... */\n    tag_302:\n        /* \"SafuERC721Staking.sol\":7099:7116  totalStakedSupply */\n      sload(0x09)\n        /* \"SafuERC721Staking.sol\":7062:7072  rewardRate */\n      sload(0x05)\n        /* \"SafuERC721Staking.sol\":7028:7042  lastUpdateTime */\n      sload(0x07)\n        /* \"SafuERC721Staking.sol\":6999:7025  lastTimeRewardApplicable() */\n      tag_303\n        /* \"SafuERC721Staking.sol\":6999:7023  lastTimeRewardApplicable */\n      tag_90\n        /* \"SafuERC721Staking.sol\":6999:7025  lastTimeRewardApplicable() */\n      jump\t// in\n    tag_303:\n        /* \"SafuERC721Staking.sol\":6999:7042  lastTimeRewardApplicable() - lastUpdateTime */\n      tag_304\n      swap2\n      swap1\n      tag_201\n      jump\t// in\n    tag_304:\n        /* \"SafuERC721Staking.sol\":6998:7072  (lastTimeRewardApplicable() - lastUpdateTime) *... */\n      tag_305\n      swap2\n      swap1\n      tag_170\n      jump\t// in\n    tag_305:\n        /* \"SafuERC721Staking.sol\":6998:7095  (lastTimeRewardApplicable() - lastUpdateTime) *... */\n      tag_306\n      swap1\n        /* \"SafuERC721Staking.sol\":7091:7095  1e18 */\n      0x0de0b6b3a7640000\n        /* \"SafuERC721Staking.sol\":6998:7095  (lastTimeRewardApplicable() - lastUpdateTime) *... */\n      tag_170\n      jump\t// in\n    tag_306:\n        /* \"SafuERC721Staking.sol\":6997:7116  ((lastTimeRewardApplicable() - lastUpdateTime) *... */\n      tag_307\n      swap2\n      swap1\n      tag_204\n      jump\t// in\n    tag_307:\n        /* \"SafuERC721Staking.sol\":6961:6981  rewardPerTokenStored */\n      sload(0x08)\n        /* \"SafuERC721Staking.sol\":6961:7117  rewardPerTokenStored +... */\n      tag_169\n      swap2\n      swap1\n      tag_163\n      jump\t// in\n        /* \"@openzeppelin/contracts/access/Ownable.sol\":2081:2279   */\n    tag_129:\n        /* \"@openzeppelin/contracts/access/Ownable.sol\":1094:1107   */\n      tag_310\n        /* \"@openzeppelin/contracts/access/Ownable.sol\":1094:1105   */\n      tag_193\n        /* \"@openzeppelin/contracts/access/Ownable.sol\":1094:1107   */\n      jump\t// in\n    tag_310:\n      sub(shl(0xa0, 0x01), 0x01)\n        /* \"@openzeppelin/contracts/access/Ownable.sol\":2169:2191   */\n      dup2\n      and\n        /* \"@openzeppelin/contracts/access/Ownable.sol\":2161:2234   */\n      tag_312\n      jumpi\n      mload(0x40)\n      shl(0xe5, 0x461bcd)\n      dup2\n      mstore\n        /* \"#utility.yul\":9897:9899   */\n      0x20\n        /* \"@openzeppelin/contracts/access/Ownable.sol\":2161:2234   */\n      0x04\n      dup3\n      add\n        /* \"#utility.yul\":9879:9900   */\n      mstore\n        /* \"#utility.yul\":9936:9938   */\n      0x26\n        /* \"#utility.yul\":9916:9934   */\n      0x24\n      dup3\n      add\n        /* \"#utility.yul\":9909:9939   */\n      mstore\n        /* \"#utility.yul\":9975:10009   */\n      0x4f776e61626c653a206e6577206f776e657220697320746865207a65726f2061\n        /* \"#utility.yul\":9955:9973   */\n      0x44\n      dup3\n      add\n        /* \"#utility.yul\":9948:10010   */\n      mstore\n        /* \"#utility.yul\":10046:10054   */\n      0x6464726573730000000000000000000000000000000000000000000000000000\n        /* \"#utility.yul\":10026:10044   */\n      0x64\n      dup3\n      add\n        /* \"#utility.yul\":10019:10055   */\n      mstore\n        /* \"#utility.yul\":10072:10091   */\n      0x84\n      add\n        /* \"@openzeppelin/contracts/access/Ownable.sol\":2161:2234   */\n      tag_135\n        /* \"#utility.yul\":9695:10097   */\n      jump\n        /* \"@openzeppelin/contracts/access/Ownable.sol\":2161:2234   */\n    tag_312:\n        /* \"@openzeppelin/contracts/access/Ownable.sol\":2244:2272   */\n      tag_315\n        /* \"@openzeppelin/contracts/access/Ownable.sol\":2263:2271   */\n      dup2\n        /* \"@openzeppelin/contracts/access/Ownable.sol\":2244:2262   */\n      tag_210\n        /* \"@openzeppelin/contracts/access/Ownable.sol\":2244:2272   */\n      jump\t// in\n    tag_315:\n        /* \"@openzeppelin/contracts/access/Ownable.sol\":2081:2279   */\n      pop\n      jump\t// out\n        /* \"SafuERC721Staking.sol\":5336:5495  function getRewardPerToken()... */\n    tag_131:\n        /* \"SafuERC721Staking.sol\":5412:5435  uint256 _rewardPerToken */\n      0x00\n        /* \"SafuERC721Staking.sol\":5471:5488  totalStakedSupply */\n      sload(0x09)\n        /* \"SafuERC721Staking.sol\":5458:5468  rewardRate */\n      sload(0x05)\n        /* \"SafuERC721Staking.sol\":5458:5488  rewardRate / totalStakedSupply */\n      tag_169\n      swap2\n      swap1\n      tag_204\n      jump\t// in\n        /* \"@openzeppelin/contracts/token/ERC20/utils/SafeERC20.sol\":763:968   */\n    tag_185:\n        /* \"@openzeppelin/contracts/token/ERC20/utils/SafeERC20.sol\":902:960   */\n      0x40\n      dup1\n      mload\n      sub(shl(0xa0, 0x01), 0x01)\n        /* \"#utility.yul\":10294:10349   */\n      dup5\n      and\n        /* \"@openzeppelin/contracts/token/ERC20/utils/SafeERC20.sol\":902:960   */\n      0x24\n      dup3\n      add\n        /* \"#utility.yul\":10276:10350   */\n      mstore\n        /* \"#utility.yul\":10366:10384   */\n      0x44\n      dup1\n      dup3\n      add\n        /* \"#utility.yul\":10359:10393   */\n      dup5\n      swap1\n      mstore\n        /* \"@openzeppelin/contracts/token/ERC20/utils/SafeERC20.sol\":902:960   */\n      dup3\n      mload\n      dup1\n      dup4\n      sub\n      swap1\n      swap2\n      add\n      dup2\n      mstore\n        /* \"#utility.yul\":10249:10267   */\n      0x64\n      swap1\n      swap2\n      add\n        /* \"@openzeppelin/contracts/token/ERC20/utils/SafeERC20.sol\":902:960   */\n      swap1\n      swap2\n      mstore\n      0x20\n      dup2\n      add\n      dup1\n      mload\n      0xffffffffffffffffffffffffffffffffffffffffffffffffffffffff\n      and\n      shl(0xe0, 0xa9059cbb)\n      or\n      swap1\n      mstore\n        /* \"@openzeppelin/contracts/token/ERC20/utils/SafeERC20.sol\":875:961   */\n      tag_319\n      swap1\n        /* \"@openzeppelin/contracts/token/ERC20/utils/SafeERC20.sol\":895:900   */\n      dup5\n      swap1\n        /* \"@openzeppelin/contracts/token/ERC20/utils/SafeERC20.sol\":875:894   */\n      tag_322\n        /* \"@openzeppelin/contracts/token/ERC20/utils/SafeERC20.sol\":875:961   */\n      jump\t// in\n    tag_319:\n        /* \"@openzeppelin/contracts/token/ERC20/utils/SafeERC20.sol\":763:968   */\n      pop\n      pop\n      pop\n      jump\t// out\n        /* \"@openzeppelin/contracts/access/Ownable.sol\":1359:1489   */\n    tag_193:\n        /* \"@openzeppelin/contracts/access/Ownable.sol\":1273:1279   */\n      and(sub(shl(0xa0, 0x01), 0x01), sload(0x01))\n        /* \"@openzeppelin/contracts/utils/Context.sol\":719:729   */\n      caller\n        /* \"@openzeppelin/contracts/access/Ownable.sol\":1422:1445   */\n      eq\n        /* \"@openzeppelin/contracts/access/Ownable.sol\":1414:1482   */\n      tag_209\n      jumpi\n      mload(0x40)\n      shl(0xe5, 0x461bcd)\n      dup2\n      mstore\n        /* \"#utility.yul\":10606:10608   */\n      0x20\n        /* \"@openzeppelin/contracts/access/Ownable.sol\":1414:1482   */\n      0x04\n      dup3\n      add\n        /* \"#utility.yul\":10588:10609   */\n      dup2\n      swap1\n      mstore\n        /* \"#utility.yul\":10625:10643   */\n      0x24\n      dup3\n      add\n        /* \"#utility.yul\":10618:10648   */\n      mstore\n        /* \"#utility.yul\":10684:10718   */\n      0x4f776e61626c653a2063616c6c6572206973206e6f7420746865206f776e6572\n        /* \"#utility.yul\":10664:10682   */\n      0x44\n      dup3\n      add\n        /* \"#utility.yul\":10657:10719   */\n      mstore\n        /* \"#utility.yul\":10736:10754   */\n      0x64\n      add\n        /* \"@openzeppelin/contracts/access/Ownable.sol\":1414:1482   */\n      tag_135\n        /* \"#utility.yul\":10404:10760   */\n      jump\n        /* \"SafuERC721Staking.sol\":9447:9799  function setRewardsDuration(uint256 _rewardsDuration) internal {... */\n    tag_196:\n        /* \"SafuERC721Staking.sol\":9559:9571  periodFinish */\n      sload(0x04)\n        /* \"SafuERC721Staking.sol\":9541:9556  block.timestamp */\n      timestamp\n        /* \"SafuERC721Staking.sol\":9541:9571  block.timestamp > periodFinish */\n      gt\n        /* \"SafuERC721Staking.sol\":9520:9694  require(... */\n      tag_331\n      jumpi\n      mload(0x40)\n      shl(0xe5, 0x461bcd)\n      dup2\n      mstore\n        /* \"#utility.yul\":10967:10969   */\n      0x20\n        /* \"SafuERC721Staking.sol\":9520:9694  require(... */\n      0x04\n      dup3\n      add\n        /* \"#utility.yul\":10949:10970   */\n      mstore\n        /* \"#utility.yul\":11006:11008   */\n      0x61\n        /* \"#utility.yul\":10986:11004   */\n      0x24\n      dup3\n      add\n        /* \"#utility.yul\":10979:11009   */\n      mstore\n        /* \"#utility.yul\":11045:11079   */\n      0x5374616b696e673a2050726576696f7573207265776172647320706572696f64\n        /* \"#utility.yul\":11025:11043   */\n      0x44\n      dup3\n      add\n        /* \"#utility.yul\":11018:11080   */\n      mstore\n        /* \"#utility.yul\":11116:11150   */\n      0x206d75737420626520636f6d706c657465206265666f7265206368616e67696e\n        /* \"#utility.yul\":11096:11114   */\n      0x64\n      dup3\n      add\n        /* \"#utility.yul\":11089:11151   */\n      mstore\n        /* \"#utility.yul\":11188:11222   */\n      0x6720746865206475726174696f6e20666f7220746865206e657720706572696f\n        /* \"#utility.yul\":11167:11186   */\n      0x84\n      dup3\n      add\n        /* \"#utility.yul\":11160:11223   */\n      mstore\n      shl(0xfa, 0x19)\n        /* \"#utility.yul\":11239:11258   */\n      0xa4\n      dup3\n      add\n        /* \"#utility.yul\":11232:11264   */\n      mstore\n        /* \"#utility.yul\":11281:11300   */\n      0xc4\n      add\n        /* \"SafuERC721Staking.sol\":9520:9694  require(... */\n      tag_135\n        /* \"#utility.yul\":10765:11306   */\n      jump\n        /* \"SafuERC721Staking.sol\":9520:9694  require(... */\n    tag_331:\n        /* \"SafuERC721Staking.sol\":9704:9719  rewardsDuration */\n      0x06\n        /* \"SafuERC721Staking.sol\":9704:9738  rewardsDuration = _rewardsDuration */\n      dup2\n      swap1\n      sstore\n        /* \"SafuERC721Staking.sol\":9753:9792  RewardsDurationUpdated(rewardsDuration) */\n      mload(0x40)\n        /* \"#utility.yul\":3108:3133   */\n      dup2\n      dup2\n      mstore\n        /* \"SafuERC721Staking.sol\":9753:9792  RewardsDurationUpdated(rewardsDuration) */\n      0xfb46ca5a5e06d4540d6387b930a7c978bce0db5f449ec6b3f5d07c6e1d44f2d3\n      swap1\n        /* \"#utility.yul\":3096:3098   */\n      0x20\n        /* \"#utility.yul\":3081:3099   */\n      add\n        /* \"SafuERC721Staking.sol\":9753:9792  RewardsDurationUpdated(rewardsDuration) */\n      mload(0x40)\n      dup1\n      swap2\n      sub\n      swap1\n      log1\n        /* \"SafuERC721Staking.sol\":9447:9799  function setRewardsDuration(uint256 _rewardsDuration) internal {... */\n      pop\n      jump\t// out\n        /* \"@openzeppelin/contracts/access/Ownable.sol\":2433:2620   */\n    tag_210:\n        /* \"@openzeppelin/contracts/access/Ownable.sol\":2525:2531   */\n      0x01\n      dup1\n      sload\n      sub(shl(0xa0, 0x01), 0x01)\n        /* \"@openzeppelin/contracts/access/Ownable.sol\":2541:2558   */\n      dup4\n      dup2\n      and\n      not(0xffffffffffffffffffffffffffffffffffffffff)\n      dup4\n      and\n      dup2\n      or\n      swap1\n      swap4\n      sstore\n        /* \"@openzeppelin/contracts/access/Ownable.sol\":2573:2613   */\n      mload(0x40)\n        /* \"@openzeppelin/contracts/access/Ownable.sol\":2525:2531   */\n      swap2\n      and\n      swap2\n        /* \"@openzeppelin/contracts/access/Ownable.sol\":2541:2558   */\n      swap1\n        /* \"@openzeppelin/contracts/access/Ownable.sol\":2525:2531   */\n      dup3\n      swap1\n        /* \"@openzeppelin/contracts/access/Ownable.sol\":2573:2613   */\n      0x8be0079c531659141344cd1fd0a4f28419497f9722a3daafe3b4186f6b6457e0\n      swap1\n        /* \"@openzeppelin/contracts/access/Ownable.sol\":2506:2522   */\n      0x00\n      swap1\n        /* \"@openzeppelin/contracts/access/Ownable.sol\":2573:2613   */\n      log3\n        /* \"@openzeppelin/contracts/access/Ownable.sol\":2496:2620   */\n      pop\n        /* \"@openzeppelin/contracts/access/Ownable.sol\":2433:2620   */\n      pop\n      jump\t// out\n        /* \"@openzeppelin/contracts/token/ERC20/utils/SafeERC20.sol\":3747:4453   */\n    tag_322:\n        /* \"@openzeppelin/contracts/token/ERC20/utils/SafeERC20.sol\":4166:4189   */\n      0x00\n        /* \"@openzeppelin/contracts/token/ERC20/utils/SafeERC20.sol\":4192:4261   */\n      tag_337\n        /* \"@openzeppelin/contracts/token/ERC20/utils/SafeERC20.sol\":4220:4224   */\n      dup3\n        /* \"@openzeppelin/contracts/token/ERC20/utils/SafeERC20.sol\":4192:4261   */\n      mload(0x40)\n      dup1\n      0x40\n      add\n      0x40\n      mstore\n      dup1\n      0x20\n      dup2\n      mstore\n      0x20\n      add\n      0x5361666545524332303a206c6f772d6c6576656c2063616c6c206661696c6564\n      dup2\n      mstore\n      pop\n        /* \"@openzeppelin/contracts/token/ERC20/utils/SafeERC20.sol\":4200:4205   */\n      dup6\n      sub(shl(0xa0, 0x01), 0x01)\n        /* \"@openzeppelin/contracts/token/ERC20/utils/SafeERC20.sol\":4192:4219   */\n      and\n      tag_338\n      swap1\n        /* \"@openzeppelin/contracts/token/ERC20/utils/SafeERC20.sol\":4192:4261   */\n      swap3\n      swap2\n      swap1\n      0xffffffff\n      and\n      jump\t// in\n    tag_337:\n        /* \"@openzeppelin/contracts/token/ERC20/utils/SafeERC20.sol\":4275:4292   */\n      dup1\n      mload\n        /* \"@openzeppelin/contracts/token/ERC20/utils/SafeERC20.sol\":4166:4261   */\n      swap1\n      swap2\n      pop\n        /* \"@openzeppelin/contracts/token/ERC20/utils/SafeERC20.sol\":4275:4296   */\n      iszero\n        /* \"@openzeppelin/contracts/token/ERC20/utils/SafeERC20.sol\":4271:4447   */\n      tag_319\n      jumpi\n        /* \"@openzeppelin/contracts/token/ERC20/utils/SafeERC20.sol\":4370:4380   */\n      dup1\n        /* \"@openzeppelin/contracts/token/ERC20/utils/SafeERC20.sol\":4359:4389   */\n      dup1\n      0x20\n      add\n      swap1\n      mload\n      dup2\n      add\n      swap1\n      tag_340\n      swap2\n      swap1\n      tag_341\n      jump\t// in\n    tag_340:\n        /* \"@openzeppelin/contracts/token/ERC20/utils/SafeERC20.sol\":4351:4436   */\n      tag_319\n      jumpi\n      mload(0x40)\n      shl(0xe5, 0x461bcd)\n      dup2\n      mstore\n        /* \"#utility.yul\":11763:11765   */\n      0x20\n        /* \"@openzeppelin/contracts/token/ERC20/utils/SafeERC20.sol\":4351:4436   */\n      0x04\n      dup3\n      add\n        /* \"#utility.yul\":11745:11766   */\n      mstore\n        /* \"#utility.yul\":11802:11804   */\n      0x2a\n        /* \"#utility.yul\":11782:11800   */\n      0x24\n      dup3\n      add\n        /* \"#utility.yul\":11775:11805   */\n      mstore\n        /* \"#utility.yul\":11841:11875   */\n      0x5361666545524332303a204552433230206f7065726174696f6e20646964206e\n        /* \"#utility.yul\":11821:11839   */\n      0x44\n      dup3\n      add\n        /* \"#utility.yul\":11814:11876   */\n      mstore\n        /* \"#utility.yul\":11912:11924   */\n      0x6f74207375636365656400000000000000000000000000000000000000000000\n        /* \"#utility.yul\":11892:11910   */\n      0x64\n      dup3\n      add\n        /* \"#utility.yul\":11885:11925   */\n      mstore\n        /* \"#utility.yul\":11942:11961   */\n      0x84\n      add\n        /* \"@openzeppelin/contracts/token/ERC20/utils/SafeERC20.sol\":4351:4436   */\n      tag_135\n        /* \"#utility.yul\":11561:11967   */\n      jump\n        /* \"@openzeppelin/contracts/utils/Address.sol\":3861:4084   */\n    tag_338:\n        /* \"@openzeppelin/contracts/utils/Address.sol\":3994:4006   */\n      0x60\n        /* \"@openzeppelin/contracts/utils/Address.sol\":4025:4077   */\n      tag_347\n        /* \"@openzeppelin/contracts/utils/Address.sol\":4047:4053   */\n      dup5\n        /* \"@openzeppelin/contracts/utils/Address.sol\":4055:4059   */\n      dup5\n        /* \"@openzeppelin/contracts/utils/Address.sol\":4061:4062   */\n      0x00\n        /* \"@openzeppelin/contracts/utils/Address.sol\":4064:4076   */\n      dup6\n        /* \"@openzeppelin/contracts/utils/Address.sol\":4025:4046   */\n      tag_348\n        /* \"@openzeppelin/contracts/utils/Address.sol\":4025:4077   */\n      jump\t// in\n    tag_347:\n        /* \"@openzeppelin/contracts/utils/Address.sol\":4018:4077   */\n      swap1\n      pop\n        /* \"@openzeppelin/contracts/utils/Address.sol\":3861:4084   */\n    tag_346:\n      swap4\n      swap3\n      pop\n      pop\n      pop\n      jump\t// out\n        /* \"@openzeppelin/contracts/utils/Address.sol\":4948:5447   */\n    tag_348:\n        /* \"@openzeppelin/contracts/utils/Address.sol\":5113:5125   */\n      0x60\n        /* \"@openzeppelin/contracts/utils/Address.sol\":5170:5175   */\n      dup3\n        /* \"@openzeppelin/contracts/utils/Address.sol\":5145:5166   */\n      selfbalance\n        /* \"@openzeppelin/contracts/utils/Address.sol\":5145:5175   */\n      lt\n      iszero\n        /* \"@openzeppelin/contracts/utils/Address.sol\":5137:5218   */\n      tag_350\n      jumpi\n      mload(0x40)\n      shl(0xe5, 0x461bcd)\n      dup2\n      mstore\n        /* \"#utility.yul\":12174:12176   */\n      0x20\n        /* \"@openzeppelin/contracts/utils/Address.sol\":5137:5218   */\n      0x04\n      dup3\n      add\n        /* \"#utility.yul\":12156:12177   */\n      mstore\n        /* \"#utility.yul\":12213:12215   */\n      0x26\n        /* \"#utility.yul\":12193:12211   */\n      0x24\n      dup3\n      add\n        /* \"#utility.yul\":12186:12216   */\n      mstore\n        /* \"#utility.yul\":12252:12286   */\n      0x416464726573733a20696e73756666696369656e742062616c616e636520666f\n        /* \"#utility.yul\":12232:12250   */\n      0x44\n      dup3\n      add\n        /* \"#utility.yul\":12225:12287   */\n      mstore\n        /* \"#utility.yul\":12323:12331   */\n      0x722063616c6c0000000000000000000000000000000000000000000000000000\n        /* \"#utility.yul\":12303:12321   */\n      0x64\n      dup3\n      add\n        /* \"#utility.yul\":12296:12332   */\n      mstore\n        /* \"#utility.yul\":12349:12368   */\n      0x84\n      add\n        /* \"@openzeppelin/contracts/utils/Address.sol\":5137:5218   */\n      tag_135\n        /* \"#utility.yul\":11972:12374   */\n      jump\n        /* \"@openzeppelin/contracts/utils/Address.sol\":5137:5218   */\n    tag_350:\n      sub(shl(0xa0, 0x01), 0x01)\n        /* \"@openzeppelin/contracts/utils/Address.sol\":1465:1484   */\n      dup6\n      and\n      extcodesize\n        /* \"@openzeppelin/contracts/utils/Address.sol\":5228:5288   */\n      tag_355\n      jumpi\n      mload(0x40)\n      shl(0xe5, 0x461bcd)\n      dup2\n      mstore\n        /* \"#utility.yul\":12581:12583   */\n      0x20\n        /* \"@openzeppelin/contracts/utils/Address.sol\":5228:5288   */\n      0x04\n      dup3\n      add\n        /* \"#utility.yul\":12563:12584   */\n      mstore\n        /* \"#utility.yul\":12620:12622   */\n      0x1d\n        /* \"#utility.yul\":12600:12618   */\n      0x24\n      dup3\n      add\n        /* \"#utility.yul\":12593:12623   */\n      mstore\n        /* \"#utility.yul\":12659:12690   */\n      0x416464726573733a2063616c6c20746f206e6f6e2d636f6e7472616374000000\n        /* \"#utility.yul\":12639:12657   */\n      0x44\n      dup3\n      add\n        /* \"#utility.yul\":12632:12691   */\n      mstore\n        /* \"#utility.yul\":12708:12726   */\n      0x64\n      add\n        /* \"@openzeppelin/contracts/utils/Address.sol\":5228:5288   */\n      tag_135\n        /* \"#utility.yul\":12379:12732   */\n      jump\n        /* \"@openzeppelin/contracts/utils/Address.sol\":5228:5288   */\n    tag_355:\n        /* \"@openzeppelin/contracts/utils/Address.sol\":5300:5312   */\n      0x00\n        /* \"@openzeppelin/contracts/utils/Address.sol\":5314:5337   */\n      dup1\n        /* \"@openzeppelin/contracts/utils/Address.sol\":5341:5347   */\n      dup7\n      sub(shl(0xa0, 0x01), 0x01)\n        /* \"@openzeppelin/contracts/utils/Address.sol\":5341:5352   */\n      and\n        /* \"@openzeppelin/contracts/utils/Address.sol\":5360:5365   */\n      dup6\n        /* \"@openzeppelin/contracts/utils/Address.sol\":5367:5371   */\n      dup8\n        /* \"@openzeppelin/contracts/utils/Address.sol\":5341:5372   */\n      mload(0x40)\n      tag_358\n      swap2\n      swap1\n      tag_359\n      jump\t// in\n    tag_358:\n      0x00\n      mload(0x40)\n      dup1\n      dup4\n      sub\n      dup2\n      dup6\n      dup8\n      gas\n      call\n      swap3\n      pop\n      pop\n      pop\n      returndatasize\n      dup1\n      0x00\n      dup2\n      eq\n      tag_362\n      jumpi\n      mload(0x40)\n      swap2\n      pop\n      and(add(returndatasize, 0x3f), not(0x1f))\n      dup3\n      add\n      0x40\n      mstore\n      returndatasize\n      dup3\n      mstore\n      returndatasize\n      0x00\n      0x20\n      dup5\n      add\n      returndatacopy\n      jump(tag_361)\n    tag_362:\n      0x60\n      swap2\n      pop\n    tag_361:\n      pop\n        /* \"@openzeppelin/contracts/utils/Address.sol\":5299:5372   */\n      swap2\n      pop\n      swap2\n      pop\n        /* \"@openzeppelin/contracts/utils/Address.sol\":5389:5440   */\n      tag_363\n        /* \"@openzeppelin/contracts/utils/Address.sol\":5406:5413   */\n      dup3\n        /* \"@openzeppelin/contracts/utils/Address.sol\":5415:5425   */\n      dup3\n        /* \"@openzeppelin/contracts/utils/Address.sol\":5427:5439   */\n      dup7\n        /* \"@openzeppelin/contracts/utils/Address.sol\":5389:5405   */\n      tag_364\n        /* \"@openzeppelin/contracts/utils/Address.sol\":5389:5440   */\n      jump\t// in\n    tag_363:\n        /* \"@openzeppelin/contracts/utils/Address.sol\":5382:5440   */\n      swap8\n        /* \"@openzeppelin/contracts/utils/Address.sol\":4948:5447   */\n      swap7\n      pop\n      pop\n      pop\n      pop\n      pop\n      pop\n      pop\n      jump\t// out\n        /* \"@openzeppelin/contracts/utils/Address.sol\":7561:8303   */\n    tag_364:\n        /* \"@openzeppelin/contracts/utils/Address.sol\":7707:7719   */\n      0x60\n        /* \"@openzeppelin/contracts/utils/Address.sol\":7735:7742   */\n      dup4\n        /* \"@openzeppelin/contracts/utils/Address.sol\":7731:8297   */\n      iszero\n      tag_367\n      jumpi\n      pop\n        /* \"@openzeppelin/contracts/utils/Address.sol\":7765:7775   */\n      dup2\n        /* \"@openzeppelin/contracts/utils/Address.sol\":7758:7775   */\n      jump(tag_346)\n        /* \"@openzeppelin/contracts/utils/Address.sol\":7731:8297   */\n    tag_367:\n        /* \"@openzeppelin/contracts/utils/Address.sol\":7876:7893   */\n      dup3\n      mload\n        /* \"@openzeppelin/contracts/utils/Address.sol\":7876:7897   */\n      iszero\n        /* \"@openzeppelin/contracts/utils/Address.sol\":7872:8287   */\n      tag_369\n      jumpi\n        /* \"@openzeppelin/contracts/utils/Address.sol\":8120:8130   */\n      dup3\n        /* \"@openzeppelin/contracts/utils/Address.sol\":8114:8131   */\n      mload\n        /* \"@openzeppelin/contracts/utils/Address.sol\":8180:8195   */\n      dup1\n        /* \"@openzeppelin/contracts/utils/Address.sol\":8167:8177   */\n      dup5\n        /* \"@openzeppelin/contracts/utils/Address.sol\":8163:8165   */\n      0x20\n        /* \"@openzeppelin/contracts/utils/Address.sol\":8159:8178   */\n      add\n        /* \"@openzeppelin/contracts/utils/Address.sol\":8152:8196   */\n      revert\n        /* \"@openzeppelin/contracts/utils/Address.sol\":7872:8287   */\n    tag_369:\n        /* \"@openzeppelin/contracts/utils/Address.sol\":8259:8271   */\n      dup2\n        /* \"@openzeppelin/contracts/utils/Address.sol\":8252:8272   */\n      mload(0x40)\n      shl(0xe5, 0x461bcd)\n      dup2\n      mstore\n      0x04\n      add\n      tag_135\n      swap2\n      swap1\n      tag_372\n      jump\t// in\n        /* \"#utility.yul\":206:333   */\n    tag_373:\n        /* \"#utility.yul\":267:277   */\n      0x4e487b71\n        /* \"#utility.yul\":262:265   */\n      0xe0\n        /* \"#utility.yul\":258:278   */\n      shl\n        /* \"#utility.yul\":255:256   */\n      0x00\n        /* \"#utility.yul\":248:279   */\n      mstore\n        /* \"#utility.yul\":298:302   */\n      0x41\n        /* \"#utility.yul\":295:296   */\n      0x04\n        /* \"#utility.yul\":288:303   */\n      mstore\n        /* \"#utility.yul\":322:326   */\n      0x24\n        /* \"#utility.yul\":319:320   */\n      0x00\n        /* \"#utility.yul\":312:327   */\n      revert\n        /* \"#utility.yul\":338:613   */\n    tag_374:\n        /* \"#utility.yul\":409:411   */\n      0x40\n        /* \"#utility.yul\":403:412   */\n      mload\n        /* \"#utility.yul\":474:476   */\n      0x1f\n        /* \"#utility.yul\":455:468   */\n      dup3\n      add\n      not(0x1f)\n        /* \"#utility.yul\":451:478   */\n      and\n        /* \"#utility.yul\":439:479   */\n      dup2\n      add\n        /* \"#utility.yul\":509:527   */\n      0xffffffffffffffff\n        /* \"#utility.yul\":494:528   */\n      dup2\n      gt\n        /* \"#utility.yul\":530:552   */\n      dup3\n      dup3\n      lt\n        /* \"#utility.yul\":491:553   */\n      or\n        /* \"#utility.yul\":488:576   */\n      iszero\n      tag_385\n      jumpi\n        /* \"#utility.yul\":556:574   */\n      tag_385\n      tag_373\n      jump\t// in\n    tag_385:\n        /* \"#utility.yul\":592:594   */\n      0x40\n        /* \"#utility.yul\":585:607   */\n      mstore\n        /* \"#utility.yul\":338:613   */\n      swap2\n      swap1\n      pop\n      jump\t// out\n        /* \"#utility.yul\":618:1564   */\n    tag_43:\n        /* \"#utility.yul\":702:708   */\n      0x00\n        /* \"#utility.yul\":733:735   */\n      0x20\n        /* \"#utility.yul\":776:778   */\n      dup1\n        /* \"#utility.yul\":764:773   */\n      dup4\n        /* \"#utility.yul\":755:762   */\n      dup6\n        /* \"#utility.yul\":751:774   */\n      sub\n        /* \"#utility.yul\":747:779   */\n      slt\n        /* \"#utility.yul\":744:796   */\n      iszero\n      tag_387\n      jumpi\n        /* \"#utility.yul\":792:793   */\n      0x00\n        /* \"#utility.yul\":789:790   */\n      dup1\n        /* \"#utility.yul\":782:794   */\n      revert\n        /* \"#utility.yul\":744:796   */\n    tag_387:\n        /* \"#utility.yul\":832:841   */\n      dup3\n        /* \"#utility.yul\":819:842   */\n      calldataload\n        /* \"#utility.yul\":861:879   */\n      0xffffffffffffffff\n        /* \"#utility.yul\":902:904   */\n      dup1\n        /* \"#utility.yul\":894:900   */\n      dup3\n        /* \"#utility.yul\":891:905   */\n      gt\n        /* \"#utility.yul\":888:922   */\n      iszero\n      tag_388\n      jumpi\n        /* \"#utility.yul\":918:919   */\n      0x00\n        /* \"#utility.yul\":915:916   */\n      dup1\n        /* \"#utility.yul\":908:920   */\n      revert\n        /* \"#utility.yul\":888:922   */\n    tag_388:\n        /* \"#utility.yul\":956:962   */\n      dup2\n        /* \"#utility.yul\":945:954   */\n      dup6\n        /* \"#utility.yul\":941:963   */\n      add\n        /* \"#utility.yul\":931:963   */\n      swap2\n      pop\n        /* \"#utility.yul\":1001:1008   */\n      dup6\n        /* \"#utility.yul\":994:998   */\n      0x1f\n        /* \"#utility.yul\":990:992   */\n      dup4\n        /* \"#utility.yul\":986:999   */\n      add\n        /* \"#utility.yul\":982:1009   */\n      slt\n        /* \"#utility.yul\":972:1027   */\n      tag_389\n      jumpi\n        /* \"#utility.yul\":1023:1024   */\n      0x00\n        /* \"#utility.yul\":1020:1021   */\n      dup1\n        /* \"#utility.yul\":1013:1025   */\n      revert\n        /* \"#utility.yul\":972:1027   */\n    tag_389:\n        /* \"#utility.yul\":1059:1061   */\n      dup2\n        /* \"#utility.yul\":1046:1062   */\n      calldataload\n        /* \"#utility.yul\":1081:1083   */\n      dup2\n        /* \"#utility.yul\":1077:1079   */\n      dup2\n        /* \"#utility.yul\":1074:1084   */\n      gt\n        /* \"#utility.yul\":1071:1107   */\n      iszero\n      tag_391\n      jumpi\n        /* \"#utility.yul\":1087:1105   */\n      tag_391\n      tag_373\n      jump\t// in\n    tag_391:\n        /* \"#utility.yul\":1133:1135   */\n      dup1\n        /* \"#utility.yul\":1130:1131   */\n      0x05\n        /* \"#utility.yul\":1126:1136   */\n      shl\n        /* \"#utility.yul\":1116:1136   */\n      swap2\n      pop\n        /* \"#utility.yul\":1156:1184   */\n      tag_392\n        /* \"#utility.yul\":1180:1182   */\n      dup5\n        /* \"#utility.yul\":1176:1178   */\n      dup4\n        /* \"#utility.yul\":1172:1183   */\n      add\n        /* \"#utility.yul\":1156:1184   */\n      tag_374\n      jump\t// in\n    tag_392:\n        /* \"#utility.yul\":1218:1233   */\n      dup2\n      dup2\n      mstore\n        /* \"#utility.yul\":1288:1299   */\n      swap2\n      dup4\n      add\n        /* \"#utility.yul\":1284:1304   */\n      dup5\n      add\n      swap2\n        /* \"#utility.yul\":1249:1261   */\n      dup5\n      dup2\n      add\n      swap1\n        /* \"#utility.yul\":1316:1335   */\n      dup9\n      dup5\n      gt\n        /* \"#utility.yul\":1313:1352   */\n      iszero\n      tag_393\n      jumpi\n        /* \"#utility.yul\":1348:1349   */\n      0x00\n        /* \"#utility.yul\":1345:1346   */\n      dup1\n        /* \"#utility.yul\":1338:1350   */\n      revert\n        /* \"#utility.yul\":1313:1352   */\n    tag_393:\n        /* \"#utility.yul\":1372:1383   */\n      swap4\n      dup6\n      add\n      swap4\n        /* \"#utility.yul\":1392:1534   */\n    tag_394:\n        /* \"#utility.yul\":1408:1414   */\n      dup4\n        /* \"#utility.yul\":1403:1406   */\n      dup6\n        /* \"#utility.yul\":1400:1415   */\n      lt\n        /* \"#utility.yul\":1392:1534   */\n      iszero\n      tag_396\n      jumpi\n        /* \"#utility.yul\":1474:1491   */\n      dup5\n      calldataload\n        /* \"#utility.yul\":1462:1492   */\n      dup3\n      mstore\n        /* \"#utility.yul\":1425:1437   */\n      swap4\n      dup6\n      add\n      swap4\n        /* \"#utility.yul\":1512:1524   */\n      swap1\n      dup6\n      add\n      swap1\n        /* \"#utility.yul\":1392:1534   */\n      jump(tag_394)\n    tag_396:\n        /* \"#utility.yul\":1553:1558   */\n      swap9\n        /* \"#utility.yul\":618:1564   */\n      swap8\n      pop\n      pop\n      pop\n      pop\n      pop\n      pop\n      pop\n      pop\n      jump\t// out\n        /* \"#utility.yul\":1569:1765   */\n    tag_375:\n        /* \"#utility.yul\":1637:1657   */\n      dup1\n      calldataload\n      sub(shl(0xa0, 0x01), 0x01)\n        /* \"#utility.yul\":1686:1740   */\n      dup2\n      and\n        /* \"#utility.yul\":1676:1741   */\n      dup2\n      eq\n        /* \"#utility.yul\":1666:1759   */\n      tag_398\n      jumpi\n        /* \"#utility.yul\":1755:1756   */\n      0x00\n        /* \"#utility.yul\":1752:1753   */\n      dup1\n        /* \"#utility.yul\":1745:1757   */\n      revert\n        /* \"#utility.yul\":1666:1759   */\n    tag_398:\n        /* \"#utility.yul\":1569:1765   */\n      swap2\n      swap1\n      pop\n      jump\t// out\n        /* \"#utility.yul\":1770:2750   */\n    tag_47:\n        /* \"#utility.yul\":1865:1871   */\n      0x00\n        /* \"#utility.yul\":1873:1879   */\n      dup1\n        /* \"#utility.yul\":1881:1887   */\n      0x00\n        /* \"#utility.yul\":1889:1895   */\n      dup1\n        /* \"#utility.yul\":1942:1945   */\n      0x80\n        /* \"#utility.yul\":1930:1939   */\n      dup6\n        /* \"#utility.yul\":1921:1928   */\n      dup8\n        /* \"#utility.yul\":1917:1940   */\n      sub\n        /* \"#utility.yul\":1913:1946   */\n      slt\n        /* \"#utility.yul\":1910:1963   */\n      iszero\n      tag_400\n      jumpi\n        /* \"#utility.yul\":1959:1960   */\n      0x00\n        /* \"#utility.yul\":1956:1957   */\n      dup1\n        /* \"#utility.yul\":1949:1961   */\n      revert\n        /* \"#utility.yul\":1910:1963   */\n    tag_400:\n        /* \"#utility.yul\":1982:2011   */\n      tag_401\n        /* \"#utility.yul\":2001:2010   */\n      dup6\n        /* \"#utility.yul\":1982:2011   */\n      tag_375\n      jump\t// in\n    tag_401:\n        /* \"#utility.yul\":1972:2011   */\n      swap4\n      pop\n        /* \"#utility.yul\":2030:2032   */\n      0x20\n        /* \"#utility.yul\":2051:2089   */\n      tag_402\n        /* \"#utility.yul\":2085:2087   */\n      dup2\n        /* \"#utility.yul\":2074:2083   */\n      dup8\n        /* \"#utility.yul\":2070:2088   */\n      add\n        /* \"#utility.yul\":2051:2089   */\n      tag_375\n      jump\t// in\n    tag_402:\n        /* \"#utility.yul\":2041:2089   */\n      swap4\n      pop\n        /* \"#utility.yul\":2136:2138   */\n      0x40\n        /* \"#utility.yul\":2125:2134   */\n      dup7\n        /* \"#utility.yul\":2121:2139   */\n      add\n        /* \"#utility.yul\":2108:2140   */\n      calldataload\n        /* \"#utility.yul\":2098:2140   */\n      swap3\n      pop\n        /* \"#utility.yul\":2191:2193   */\n      0x60\n        /* \"#utility.yul\":2180:2189   */\n      dup7\n        /* \"#utility.yul\":2176:2194   */\n      add\n        /* \"#utility.yul\":2163:2195   */\n      calldataload\n        /* \"#utility.yul\":2214:2232   */\n      0xffffffffffffffff\n        /* \"#utility.yul\":2255:2257   */\n      dup1\n        /* \"#utility.yul\":2247:2253   */\n      dup3\n        /* \"#utility.yul\":2244:2258   */\n      gt\n        /* \"#utility.yul\":2241:2275   */\n      iszero\n      tag_403\n      jumpi\n        /* \"#utility.yul\":2271:2272   */\n      0x00\n        /* \"#utility.yul\":2268:2269   */\n      dup1\n        /* \"#utility.yul\":2261:2273   */\n      revert\n        /* \"#utility.yul\":2241:2275   */\n    tag_403:\n        /* \"#utility.yul\":2309:2315   */\n      dup2\n        /* \"#utility.yul\":2298:2307   */\n      dup9\n        /* \"#utility.yul\":2294:2316   */\n      add\n        /* \"#utility.yul\":2284:2316   */\n      swap2\n      pop\n        /* \"#utility.yul\":2354:2361   */\n      dup9\n        /* \"#utility.yul\":2347:2351   */\n      0x1f\n        /* \"#utility.yul\":2343:2345   */\n      dup4\n        /* \"#utility.yul\":2339:2352   */\n      add\n        /* \"#utility.yul\":2335:2362   */\n      slt\n        /* \"#utility.yul\":2325:2380   */\n      tag_404\n      jumpi\n        /* \"#utility.yul\":2376:2377   */\n      0x00\n        /* \"#utility.yul\":2373:2374   */\n      dup1\n        /* \"#utility.yul\":2366:2378   */\n      revert\n        /* \"#utility.yul\":2325:2380   */\n    tag_404:\n        /* \"#utility.yul\":2412:2414   */\n      dup2\n        /* \"#utility.yul\":2399:2415   */\n      calldataload\n        /* \"#utility.yul\":2434:2436   */\n      dup2\n        /* \"#utility.yul\":2430:2432   */\n      dup2\n        /* \"#utility.yul\":2427:2437   */\n      gt\n        /* \"#utility.yul\":2424:2460   */\n      iszero\n      tag_406\n      jumpi\n        /* \"#utility.yul\":2440:2458   */\n      tag_406\n      tag_373\n      jump\t// in\n    tag_406:\n        /* \"#utility.yul\":2482:2535   */\n      tag_407\n        /* \"#utility.yul\":2525:2527   */\n      0x1f\n        /* \"#utility.yul\":2506:2519   */\n      dup3\n      add\n      not(0x1f)\n        /* \"#utility.yul\":2502:2529   */\n      and\n        /* \"#utility.yul\":2498:2534   */\n      dup6\n      add\n        /* \"#utility.yul\":2482:2535   */\n      tag_374\n      jump\t// in\n    tag_407:\n        /* \"#utility.yul\":2469:2535   */\n      swap2\n      pop\n        /* \"#utility.yul\":2558:2560   */\n      dup1\n        /* \"#utility.yul\":2551:2556   */\n      dup3\n        /* \"#utility.yul\":2544:2561   */\n      mstore\n        /* \"#utility.yul\":2598:2605   */\n      dup10\n        /* \"#utility.yul\":2593:2595   */\n      dup5\n        /* \"#utility.yul\":2588:2590   */\n      dup3\n        /* \"#utility.yul\":2584:2586   */\n      dup6\n        /* \"#utility.yul\":2580:2591   */\n      add\n        /* \"#utility.yul\":2576:2596   */\n      add\n        /* \"#utility.yul\":2573:2606   */\n      gt\n        /* \"#utility.yul\":2570:2623   */\n      iszero\n      tag_408\n      jumpi\n        /* \"#utility.yul\":2619:2620   */\n      0x00\n        /* \"#utility.yul\":2616:2617   */\n      dup1\n        /* \"#utility.yul\":2609:2621   */\n      revert\n        /* \"#utility.yul\":2570:2623   */\n    tag_408:\n        /* \"#utility.yul\":2674:2676   */\n      dup1\n        /* \"#utility.yul\":2669:2671   */\n      dup5\n        /* \"#utility.yul\":2665:2667   */\n      dup5\n        /* \"#utility.yul\":2661:2672   */\n      add\n        /* \"#utility.yul\":2656:2658   */\n      dup6\n        /* \"#utility.yul\":2649:2654   */\n      dup5\n        /* \"#utility.yul\":2645:2659   */\n      add\n        /* \"#utility.yul\":2632:2677   */\n      calldatacopy\n        /* \"#utility.yul\":2718:2719   */\n      0x00\n        /* \"#utility.yul\":2713:2715   */\n      dup5\n        /* \"#utility.yul\":2708:2710   */\n      dup3\n        /* \"#utility.yul\":2701:2706   */\n      dup5\n        /* \"#utility.yul\":2697:2711   */\n      add\n        /* \"#utility.yul\":2693:2716   */\n      add\n        /* \"#utility.yul\":2686:2720   */\n      mstore\n      pop\n        /* \"#utility.yul\":2739:2744   */\n      dup1\n        /* \"#utility.yul\":2729:2744   */\n      swap4\n      pop\n      pop\n      pop\n      pop\n        /* \"#utility.yul\":1770:2750   */\n      swap3\n      swap6\n      swap2\n      swap5\n      pop\n      swap3\n      pop\n      jump\t// out\n        /* \"#utility.yul\":3144:3330   */\n    tag_62:\n        /* \"#utility.yul\":3203:3209   */\n      0x00\n        /* \"#utility.yul\":3256:3258   */\n      0x20\n        /* \"#utility.yul\":3244:3253   */\n      dup3\n        /* \"#utility.yul\":3235:3242   */\n      dup5\n        /* \"#utility.yul\":3231:3254   */\n      sub\n        /* \"#utility.yul\":3227:3259   */\n      slt\n        /* \"#utility.yul\":3224:3276   */\n      iszero\n      tag_412\n      jumpi\n        /* \"#utility.yul\":3272:3273   */\n      0x00\n        /* \"#utility.yul\":3269:3270   */\n      dup1\n        /* \"#utility.yul\":3262:3274   */\n      revert\n        /* \"#utility.yul\":3224:3276   */\n    tag_412:\n        /* \"#utility.yul\":3295:3324   */\n      tag_346\n        /* \"#utility.yul\":3314:3323   */\n      dup3\n        /* \"#utility.yul\":3295:3324   */\n      tag_375\n      jump\t// in\n        /* \"#utility.yul\":3335:3770   */\n    tag_376:\n        /* \"#utility.yul\":3388:3391   */\n      0x00\n        /* \"#utility.yul\":3426:3431   */\n      dup2\n        /* \"#utility.yul\":3420:3432   */\n      mload\n        /* \"#utility.yul\":3453:3459   */\n      dup1\n        /* \"#utility.yul\":3448:3451   */\n      dup5\n        /* \"#utility.yul\":3441:3460   */\n      mstore\n        /* \"#utility.yul\":3479:3483   */\n      0x20\n        /* \"#utility.yul\":3508:3510   */\n      dup1\n        /* \"#utility.yul\":3503:3506   */\n      dup6\n        /* \"#utility.yul\":3499:3511   */\n      add\n        /* \"#utility.yul\":3492:3511   */\n      swap5\n      pop\n        /* \"#utility.yul\":3545:3547   */\n      dup1\n        /* \"#utility.yul\":3538:3543   */\n      dup5\n        /* \"#utility.yul\":3534:3548   */\n      add\n        /* \"#utility.yul\":3566:3567   */\n      0x00\n        /* \"#utility.yul\":3576:3745   */\n    tag_415:\n        /* \"#utility.yul\":3590:3596   */\n      dup4\n        /* \"#utility.yul\":3587:3588   */\n      dup2\n        /* \"#utility.yul\":3584:3597   */\n      lt\n        /* \"#utility.yul\":3576:3745   */\n      iszero\n      tag_417\n      jumpi\n        /* \"#utility.yul\":3651:3664   */\n      dup2\n      mload\n        /* \"#utility.yul\":3639:3665   */\n      dup8\n      mstore\n        /* \"#utility.yul\":3685:3697   */\n      swap6\n      dup3\n      add\n      swap6\n        /* \"#utility.yul\":3720:3735   */\n      swap1\n      dup3\n      add\n      swap1\n        /* \"#utility.yul\":3612:3613   */\n      0x01\n        /* \"#utility.yul\":3605:3614   */\n      add\n        /* \"#utility.yul\":3576:3745   */\n      jump(tag_415)\n    tag_417:\n      pop\n        /* \"#utility.yul\":3761:3764   */\n      swap5\n      swap6\n        /* \"#utility.yul\":3335:3770   */\n      swap5\n      pop\n      pop\n      pop\n      pop\n      pop\n      jump\t// out\n        /* \"#utility.yul\":3775:4107   */\n    tag_65:\n        /* \"#utility.yul\":3982:3984   */\n      0x40\n        /* \"#utility.yul\":3971:3980   */\n      dup2\n        /* \"#utility.yul\":3964:3985   */\n      mstore\n        /* \"#utility.yul\":3945:3949   */\n      0x00\n        /* \"#utility.yul\":4002:4058   */\n      tag_419\n        /* \"#utility.yul\":4054:4056   */\n      0x40\n        /* \"#utility.yul\":4043:4052   */\n      dup4\n        /* \"#utility.yul\":4039:4057   */\n      add\n        /* \"#utility.yul\":4031:4037   */\n      dup6\n        /* \"#utility.yul\":4002:4058   */\n      tag_376\n      jump\t// in\n    tag_419:\n        /* \"#utility.yul\":3994:4058   */\n      swap1\n      pop\n        /* \"#utility.yul\":4094:4100   */\n      dup3\n        /* \"#utility.yul\":4089:4091   */\n      0x20\n        /* \"#utility.yul\":4078:4087   */\n      dup4\n        /* \"#utility.yul\":4074:4092   */\n      add\n        /* \"#utility.yul\":4067:4101   */\n      mstore\n        /* \"#utility.yul\":3775:4107   */\n      swap4\n      swap3\n      pop\n      pop\n      pop\n      jump\t// out\n        /* \"#utility.yul\":4112:4360   */\n    tag_68:\n        /* \"#utility.yul\":4180:4186   */\n      0x00\n        /* \"#utility.yul\":4188:4194   */\n      dup1\n        /* \"#utility.yul\":4241:4243   */\n      0x40\n        /* \"#utility.yul\":4229:4238   */\n      dup4\n        /* \"#utility.yul\":4220:4227   */\n      dup6\n        /* \"#utility.yul\":4216:4239   */\n      sub\n        /* \"#utility.yul\":4212:4244   */\n      slt\n        /* \"#utility.yul\":4209:4261   */\n      iszero\n      tag_421\n      jumpi\n        /* \"#utility.yul\":4257:4258   */\n      0x00\n        /* \"#utility.yul\":4254:4255   */\n      dup1\n        /* \"#utility.yul\":4247:4259   */\n      revert\n        /* \"#utility.yul\":4209:4261   */\n    tag_421:\n      pop\n      pop\n        /* \"#utility.yul\":4280:4303   */\n      dup1\n      calldataload\n      swap3\n        /* \"#utility.yul\":4350:4352   */\n      0x20\n        /* \"#utility.yul\":4335:4353   */\n      swap1\n      swap2\n      add\n        /* \"#utility.yul\":4322:4354   */\n      calldataload\n      swap2\n      pop\n        /* \"#utility.yul\":4112:4360   */\n      jump\t// out\n        /* \"#utility.yul\":4612:4792   */\n    tag_85:\n        /* \"#utility.yul\":4671:4677   */\n      0x00\n        /* \"#utility.yul\":4724:4726   */\n      0x20\n        /* \"#utility.yul\":4712:4721   */\n      dup3\n        /* \"#utility.yul\":4703:4710   */\n      dup5\n        /* \"#utility.yul\":4699:4722   */\n      sub\n        /* \"#utility.yul\":4695:4727   */\n      slt\n        /* \"#utility.yul\":4692:4744   */\n      iszero\n      tag_424\n      jumpi\n        /* \"#utility.yul\":4740:4741   */\n      0x00\n        /* \"#utility.yul\":4737:4738   */\n      dup1\n        /* \"#utility.yul\":4730:4742   */\n      revert\n        /* \"#utility.yul\":4692:4744   */\n    tag_424:\n      pop\n        /* \"#utility.yul\":4763:4786   */\n      calldataload\n      swap2\n        /* \"#utility.yul\":4612:4792   */\n      swap1\n      pop\n      jump\t// out\n        /* \"#utility.yul\":5028:5146   */\n    tag_377:\n        /* \"#utility.yul\":5114:5119   */\n      dup1\n        /* \"#utility.yul\":5107:5120   */\n      iszero\n        /* \"#utility.yul\":5100:5121   */\n      iszero\n        /* \"#utility.yul\":5093:5098   */\n      dup2\n        /* \"#utility.yul\":5090:5122   */\n      eq\n        /* \"#utility.yul\":5080:5140   */\n      tag_315\n      jumpi\n        /* \"#utility.yul\":5136:5137   */\n      0x00\n        /* \"#utility.yul\":5133:5134   */\n      dup1\n        /* \"#utility.yul\":5126:5138   */\n      revert\n        /* \"#utility.yul\":5151:5392   */\n    tag_109:\n        /* \"#utility.yul\":5207:5213   */\n      0x00\n        /* \"#utility.yul\":5260:5262   */\n      0x20\n        /* \"#utility.yul\":5248:5257   */\n      dup3\n        /* \"#utility.yul\":5239:5246   */\n      dup5\n        /* \"#utility.yul\":5235:5258   */\n      sub\n        /* \"#utility.yul\":5231:5263   */\n      slt\n        /* \"#utility.yul\":5228:5280   */\n      iszero\n      tag_429\n      jumpi\n        /* \"#utility.yul\":5276:5277   */\n      0x00\n        /* \"#utility.yul\":5273:5274   */\n      dup1\n        /* \"#utility.yul\":5266:5278   */\n      revert\n        /* \"#utility.yul\":5228:5280   */\n    tag_429:\n        /* \"#utility.yul\":5315:5324   */\n      dup2\n        /* \"#utility.yul\":5302:5325   */\n      calldataload\n        /* \"#utility.yul\":5334:5362   */\n      tag_346\n        /* \"#utility.yul\":5356:5361   */\n      dup2\n        /* \"#utility.yul\":5334:5362   */\n      tag_377\n      jump\t// in\n        /* \"#utility.yul\":6360:6487   */\n    tag_151:\n        /* \"#utility.yul\":6421:6431   */\n      0x4e487b71\n        /* \"#utility.yul\":6416:6419   */\n      0xe0\n        /* \"#utility.yul\":6412:6432   */\n      shl\n        /* \"#utility.yul\":6409:6410   */\n      0x00\n        /* \"#utility.yul\":6402:6433   */\n      mstore\n        /* \"#utility.yul\":6452:6456   */\n      0x32\n        /* \"#utility.yul\":6449:6450   */\n      0x04\n        /* \"#utility.yul\":6442:6457   */\n      mstore\n        /* \"#utility.yul\":6476:6480   */\n      0x24\n        /* \"#utility.yul\":6473:6474   */\n      0x00\n        /* \"#utility.yul\":6466:6481   */\n      revert\n        /* \"#utility.yul\":6895:7022   */\n    tag_378:\n        /* \"#utility.yul\":6956:6966   */\n      0x4e487b71\n        /* \"#utility.yul\":6951:6954   */\n      0xe0\n        /* \"#utility.yul\":6947:6967   */\n      shl\n        /* \"#utility.yul\":6944:6945   */\n      0x00\n        /* \"#utility.yul\":6937:6968   */\n      mstore\n        /* \"#utility.yul\":6987:6991   */\n      0x11\n        /* \"#utility.yul\":6984:6985   */\n      0x04\n        /* \"#utility.yul\":6977:6992   */\n      mstore\n        /* \"#utility.yul\":7011:7015   */\n      0x24\n        /* \"#utility.yul\":7008:7009   */\n      0x00\n        /* \"#utility.yul\":7001:7016   */\n      revert\n        /* \"#utility.yul\":7027:7155   */\n    tag_163:\n        /* \"#utility.yul\":7067:7070   */\n      0x00\n        /* \"#utility.yul\":7098:7099   */\n      dup3\n        /* \"#utility.yul\":7094:7100   */\n      not\n        /* \"#utility.yul\":7091:7092   */\n      dup3\n        /* \"#utility.yul\":7088:7101   */\n      gt\n        /* \"#utility.yul\":7085:7124   */\n      iszero\n      tag_439\n      jumpi\n        /* \"#utility.yul\":7104:7122   */\n      tag_439\n      tag_378\n      jump\t// in\n    tag_439:\n      pop\n        /* \"#utility.yul\":7140:7149   */\n      add\n      swap1\n        /* \"#utility.yul\":7027:7155   */\n      jump\t// out\n        /* \"#utility.yul\":7160:7492   */\n    tag_166:\n        /* \"#utility.yul\":7367:7373   */\n      dup3\n        /* \"#utility.yul\":7356:7365   */\n      dup2\n        /* \"#utility.yul\":7349:7374   */\n      mstore\n        /* \"#utility.yul\":7410:7412   */\n      0x40\n        /* \"#utility.yul\":7405:7407   */\n      0x20\n        /* \"#utility.yul\":7394:7403   */\n      dup3\n        /* \"#utility.yul\":7390:7408   */\n      add\n        /* \"#utility.yul\":7383:7413   */\n      mstore\n        /* \"#utility.yul\":7330:7334   */\n      0x00\n        /* \"#utility.yul\":7430:7486   */\n      tag_347\n        /* \"#utility.yul\":7482:7484   */\n      0x40\n        /* \"#utility.yul\":7471:7480   */\n      dup4\n        /* \"#utility.yul\":7467:7485   */\n      add\n        /* \"#utility.yul\":7459:7465   */\n      dup5\n        /* \"#utility.yul\":7430:7486   */\n      tag_376\n      jump\t// in\n        /* \"#utility.yul\":7497:7665   */\n    tag_170:\n        /* \"#utility.yul\":7537:7544   */\n      0x00\n        /* \"#utility.yul\":7603:7604   */\n      dup2\n        /* \"#utility.yul\":7599:7600   */\n      0x00\n        /* \"#utility.yul\":7595:7601   */\n      not\n        /* \"#utility.yul\":7591:7605   */\n      div\n        /* \"#utility.yul\":7588:7589   */\n      dup4\n        /* \"#utility.yul\":7585:7606   */\n      gt\n        /* \"#utility.yul\":7580:7581   */\n      dup3\n        /* \"#utility.yul\":7573:7582   */\n      iszero\n        /* \"#utility.yul\":7566:7583   */\n      iszero\n        /* \"#utility.yul\":7562:7607   */\n      and\n        /* \"#utility.yul\":7559:7630   */\n      iszero\n      tag_444\n      jumpi\n        /* \"#utility.yul\":7610:7628   */\n      tag_444\n      tag_378\n      jump\t// in\n    tag_444:\n      pop\n        /* \"#utility.yul\":7650:7659   */\n      mul\n      swap1\n        /* \"#utility.yul\":7497:7665   */\n      jump\t// out\n        /* \"#utility.yul\":8075:8200   */\n    tag_201:\n        /* \"#utility.yul\":8115:8119   */\n      0x00\n        /* \"#utility.yul\":8143:8144   */\n      dup3\n        /* \"#utility.yul\":8140:8141   */\n      dup3\n        /* \"#utility.yul\":8137:8145   */\n      lt\n        /* \"#utility.yul\":8134:8168   */\n      iszero\n      tag_448\n      jumpi\n        /* \"#utility.yul\":8148:8166   */\n      tag_448\n      tag_378\n      jump\t// in\n    tag_448:\n      pop\n        /* \"#utility.yul\":8185:8194   */\n      sub\n      swap1\n        /* \"#utility.yul\":8075:8200   */\n      jump\t// out\n        /* \"#utility.yul\":8205:8422   */\n    tag_204:\n        /* \"#utility.yul\":8245:8246   */\n      0x00\n        /* \"#utility.yul\":8271:8272   */\n      dup3\n        /* \"#utility.yul\":8261:8393   */\n      tag_450\n      jumpi\n        /* \"#utility.yul\":8315:8325   */\n      0x4e487b71\n        /* \"#utility.yul\":8310:8313   */\n      0xe0\n        /* \"#utility.yul\":8306:8326   */\n      shl\n        /* \"#utility.yul\":8303:8304   */\n      0x00\n        /* \"#utility.yul\":8296:8327   */\n      mstore\n        /* \"#utility.yul\":8350:8354   */\n      0x12\n        /* \"#utility.yul\":8347:8348   */\n      0x04\n        /* \"#utility.yul\":8340:8355   */\n      mstore\n        /* \"#utility.yul\":8378:8382   */\n      0x24\n        /* \"#utility.yul\":8375:8376   */\n      0x00\n        /* \"#utility.yul\":8368:8383   */\n      revert\n        /* \"#utility.yul\":8261:8393   */\n    tag_450:\n      pop\n        /* \"#utility.yul\":8407:8416   */\n      div\n      swap1\n        /* \"#utility.yul\":8205:8422   */\n      jump\t// out\n        /* \"#utility.yul\":8832:8959   */\n    tag_265:\n        /* \"#utility.yul\":8893:8903   */\n      0x4e487b71\n        /* \"#utility.yul\":8888:8891   */\n      0xe0\n        /* \"#utility.yul\":8884:8904   */\n      shl\n        /* \"#utility.yul\":8881:8882   */\n      0x00\n        /* \"#utility.yul\":8874:8905   */\n      mstore\n        /* \"#utility.yul\":8924:8928   */\n      0x31\n        /* \"#utility.yul\":8921:8922   */\n      0x04\n        /* \"#utility.yul\":8914:8929   */\n      mstore\n        /* \"#utility.yul\":8948:8952   */\n      0x24\n        /* \"#utility.yul\":8945:8946   */\n      0x00\n        /* \"#utility.yul\":8938:8953   */\n      revert\n        /* \"#utility.yul\":8964:9099   */\n    tag_268:\n        /* \"#utility.yul\":9003:9006   */\n      0x00\n        /* \"#utility.yul\":9024:9041   */\n      0x01\n      dup3\n      add\n        /* \"#utility.yul\":9021:9064   */\n      tag_455\n      jumpi\n        /* \"#utility.yul\":9044:9062   */\n      tag_455\n      tag_378\n      jump\t// in\n    tag_455:\n      pop\n        /* \"#utility.yul\":9091:9092   */\n      0x01\n        /* \"#utility.yul\":9080:9093   */\n      add\n      swap1\n        /* \"#utility.yul\":8964:9099   */\n      jump\t// out\n        /* \"#utility.yul\":9104:9288   */\n    tag_291:\n        /* \"#utility.yul\":9174:9180   */\n      0x00\n        /* \"#utility.yul\":9227:9229   */\n      0x20\n        /* \"#utility.yul\":9215:9224   */\n      dup3\n        /* \"#utility.yul\":9206:9213   */\n      dup5\n        /* \"#utility.yul\":9202:9225   */\n      sub\n        /* \"#utility.yul\":9198:9230   */\n      slt\n        /* \"#utility.yul\":9195:9247   */\n      iszero\n      tag_457\n      jumpi\n        /* \"#utility.yul\":9243:9244   */\n      0x00\n        /* \"#utility.yul\":9240:9241   */\n      dup1\n        /* \"#utility.yul\":9233:9245   */\n      revert\n        /* \"#utility.yul\":9195:9247   */\n    tag_457:\n      pop\n        /* \"#utility.yul\":9266:9282   */\n      mload\n      swap2\n        /* \"#utility.yul\":9104:9288   */\n      swap1\n      pop\n      jump\t// out\n        /* \"#utility.yul\":11311:11556   */\n    tag_341:\n        /* \"#utility.yul\":11378:11384   */\n      0x00\n        /* \"#utility.yul\":11431:11433   */\n      0x20\n        /* \"#utility.yul\":11419:11428   */\n      dup3\n        /* \"#utility.yul\":11410:11417   */\n      dup5\n        /* \"#utility.yul\":11406:11429   */\n      sub\n        /* \"#utility.yul\":11402:11434   */\n      slt\n        /* \"#utility.yul\":11399:11451   */\n      iszero\n      tag_464\n      jumpi\n        /* \"#utility.yul\":11447:11448   */\n      0x00\n        /* \"#utility.yul\":11444:11445   */\n      dup1\n        /* \"#utility.yul\":11437:11449   */\n      revert\n        /* \"#utility.yul\":11399:11451   */\n    tag_464:\n        /* \"#utility.yul\":11479:11488   */\n      dup2\n        /* \"#utility.yul\":11473:11489   */\n      mload\n        /* \"#utility.yul\":11498:11526   */\n      tag_346\n        /* \"#utility.yul\":11520:11525   */\n      dup2\n        /* \"#utility.yul\":11498:11526   */\n      tag_377\n      jump\t// in\n        /* \"#utility.yul\":12737:12995   */\n    tag_379:\n        /* \"#utility.yul\":12809:12810   */\n      0x00\n        /* \"#utility.yul\":12819:12932   */\n    tag_470:\n        /* \"#utility.yul\":12833:12839   */\n      dup4\n        /* \"#utility.yul\":12830:12831   */\n      dup2\n        /* \"#utility.yul\":12827:12840   */\n      lt\n        /* \"#utility.yul\":12819:12932   */\n      iszero\n      tag_472\n      jumpi\n        /* \"#utility.yul\":12909:12920   */\n      dup2\n      dup2\n      add\n        /* \"#utility.yul\":12903:12921   */\n      mload\n        /* \"#utility.yul\":12890:12901   */\n      dup4\n      dup3\n      add\n        /* \"#utility.yul\":12883:12922   */\n      mstore\n        /* \"#utility.yul\":12855:12857   */\n      0x20\n        /* \"#utility.yul\":12848:12858   */\n      add\n        /* \"#utility.yul\":12819:12932   */\n      jump(tag_470)\n    tag_472:\n        /* \"#utility.yul\":12950:12956   */\n      dup4\n        /* \"#utility.yul\":12947:12948   */\n      dup2\n        /* \"#utility.yul\":12944:12957   */\n      gt\n        /* \"#utility.yul\":12941:12989   */\n      iszero\n      tag_473\n      jumpi\n        /* \"#utility.yul\":12985:12986   */\n      0x00\n        /* \"#utility.yul\":12976:12982   */\n      dup5\n        /* \"#utility.yul\":12971:12974   */\n      dup5\n        /* \"#utility.yul\":12967:12983   */\n      add\n        /* \"#utility.yul\":12960:12987   */\n      mstore\n        /* \"#utility.yul\":12941:12989   */\n    tag_473:\n      pop\n        /* \"#utility.yul\":12737:12995   */\n      pop\n      pop\n      pop\n      jump\t// out\n        /* \"#utility.yul\":13000:13274   */\n    tag_359:\n        /* \"#utility.yul\":13129:13132   */\n      0x00\n        /* \"#utility.yul\":13167:13173   */\n      dup3\n        /* \"#utility.yul\":13161:13174   */\n      mload\n        /* \"#utility.yul\":13183:13236   */\n      tag_475\n        /* \"#utility.yul\":13229:13235   */\n      dup2\n        /* \"#utility.yul\":13224:13227   */\n      dup5\n        /* \"#utility.yul\":13217:13221   */\n      0x20\n        /* \"#utility.yul\":13209:13215   */\n      dup8\n        /* \"#utility.yul\":13205:13222   */\n      add\n        /* \"#utility.yul\":13183:13236   */\n      tag_379\n      jump\t// in\n    tag_475:\n        /* \"#utility.yul\":13252:13268   */\n      swap2\n      swap1\n      swap2\n      add\n      swap3\n        /* \"#utility.yul\":13000:13274   */\n      swap2\n      pop\n      pop\n      jump\t// out\n        /* \"#utility.yul\":13279:13662   */\n    tag_372:\n        /* \"#utility.yul\":13428:13430   */\n      0x20\n        /* \"#utility.yul\":13417:13426   */\n      dup2\n        /* \"#utility.yul\":13410:13431   */\n      mstore\n        /* \"#utility.yul\":13391:13395   */\n      0x00\n        /* \"#utility.yul\":13460:13466   */\n      dup3\n        /* \"#utility.yul\":13454:13467   */\n      mload\n        /* \"#utility.yul\":13503:13509   */\n      dup1\n        /* \"#utility.yul\":13498:13500   */\n      0x20\n        /* \"#utility.yul\":13487:13496   */\n      dup5\n        /* \"#utility.yul\":13483:13501   */\n      add\n        /* \"#utility.yul\":13476:13510   */\n      mstore\n        /* \"#utility.yul\":13519:13585   */\n      tag_477\n        /* \"#utility.yul\":13578:13584   */\n      dup2\n        /* \"#utility.yul\":13573:13575   */\n      0x40\n        /* \"#utility.yul\":13562:13571   */\n      dup6\n        /* \"#utility.yul\":13558:13576   */\n      add\n        /* \"#utility.yul\":13553:13555   */\n      0x20\n        /* \"#utility.yul\":13545:13551   */\n      dup8\n        /* \"#utility.yul\":13541:13556   */\n      add\n        /* \"#utility.yul\":13519:13585   */\n      tag_379\n      jump\t// in\n    tag_477:\n        /* \"#utility.yul\":13646:13648   */\n      0x1f\n        /* \"#utility.yul\":13625:13640   */\n      add\n      not(0x1f)\n        /* \"#utility.yul\":13621:13650   */\n      and\n        /* \"#utility.yul\":13606:13651   */\n      swap2\n      swap1\n      swap2\n      add\n        /* \"#utility.yul\":13653:13655   */\n      0x40\n        /* \"#utility.yul\":13602:13656   */\n      add\n      swap3\n        /* \"#utility.yul\":13279:13662   */\n      swap2\n      pop\n      pop\n      jump\t// out\n\n    auxdata: 0xa26469706673582212204911a7f34b56f99f580ebaa1d81ab9406b1909251e9c136498b810a78f0495f064736f6c634300080d0033\n}\n",
    "bytecode": {
      "linkReferences": {},
      "object": "60806040523480156200001157600080fd5b5060405162001b7c38038062001b7c8339810160408190526200003491620000e5565b6001600055620000443362000076565b600380546001600160a01b039384166001600160a01b031991821617909155600280549290931691161790556200011d565b600180546001600160a01b038381166001600160a01b0319831681179093556040519116919082907f8be0079c531659141344cd1fd0a4f28419497f9722a3daafe3b4186f6b6457e090600090a35050565b80516001600160a01b0381168114620000e057600080fd5b919050565b60008060408385031215620000f957600080fd5b6200010483620000c8565b91506200011460208401620000c8565b90509250929050565b611a4f806200012d6000396000f3fe608060405234801561001057600080fd5b50600436106101b95760003560e01c806380faa57d116100f9578063bcdc3cfc11610097578063d1af0c7d11610071578063d1af0c7d1461039a578063ebe2b12b146103ad578063f2fde38b146103b6578063feca3900146103c957600080fd5b8063bcdc3cfc14610380578063c8f33c9114610389578063cd3daf9d1461039257600080fd5b80638da5cb5b116100d35780638da5cb5b14610336578063983d95ce146103475780639b7ccf4c1461035a5780639c007c751461036d57600080fd5b806380faa57d14610306578063853828b61461030e5780638b8763471461031657600080fd5b80634ead4327116101665780636588103b116101405780636588103b146102a1578063715018a6146102cc5780637b0a47ee146102d45780637d8fc88e146102dd57600080fd5b80634ead43271461025a578063518bb20e1461027b57806364ab86751461028e57600080fd5b80631c1f78eb116101975780631c1f78eb14610233578063372500ab14610249578063386a95251461025157600080fd5b80630defc08a146101be5780630fbf0a93146101e7578063150b7a02146101fc575b600080fd5b6003546101d290600160a01b900460ff1681565b60405190151581526020015b60405180910390f35b6101fa6101f5366004611620565b6103d1565b005b61021a61020a3660046116e2565b630a85bd0160e11b949350505050565b6040516001600160e01b031990911681526020016101de565b61023b6106a1565b6040519081526020016101de565b6101fa6106b8565b61023b60065481565b61026d6102683660046117a2565b61084d565b6040516101de9291906117f8565b6101fa61028936600461181a565b6108c3565b61023b61029c3660046117a2565b6108e1565b6003546102b4906001600160a01b031681565b6040516001600160a01b0390911681526020016101de565b6101fa61095e565b61023b60055481565b6102b46102eb36600461183c565b600c602052600090815260409020546001600160a01b031681565b61023b610972565b6101fa610989565b61023b6103243660046117a2565b600a6020526000908152604090205481565b6001546001600160a01b03166102b4565b6101fa610355366004611620565b6109f3565b6101fa61036836600461183c565b610e26565b6101fa61037b366004611863565b61100f565b61023b60095481565b61023b60075481565b61023b611050565b6002546102b4906001600160a01b031681565b61023b60045481565b6101fa6103c43660046117a2565b6110b1565b61023b611141565b6002600054036104285760405162461bcd60e51b815260206004820152601f60248201527f5265656e7472616e637947756172643a207265656e7472616e742063616c6c0060448201526064015b60405180910390fd5b600260005533610436611050565b600855610441610972565b6007556001600160a01b038116156104885761045c816108e1565b6001600160a01b0382166000908152600b6020908152604080832093909355600854600a909152919020555b81516000036104d95760405162461bcd60e51b815260206004820152601d60248201527f5374616b696e673a204e6f20746f6b656e4964732070726f7669646564000000604482015260640161041f565b815160005b818110156106435760035484516001600160a01b03909116906342842e0e903390309088908690811061051357610513611880565b60209081029190910101516040516001600160e01b031960e086901b1681526001600160a01b0393841660048201529290911660248301526044820152606401600060405180830381600087803b15801561056d57600080fd5b505af1158015610581573d6000803e3d6000fd5b5050505033600c600086848151811061059c5761059c611880565b6020026020010151815260200190815260200160002060006101000a8154816001600160a01b0302191690836001600160a01b03160217905550600d6000336001600160a01b03166001600160a01b0316815260200190815260200160002084828151811061060d5761060d611880565b6020908102919091018101518254600181810185556000948552929093209092019190915561063c90826118ac565b90506104de565b50806009600082825461065691906118ac565b909155505060405133907fb18ab713c223cf8d1394fb3018faad3e87f34414cc9d74b6eff3510d05359d859061068f90849087906118c4565b60405180910390a25050600160005550565b60006006546005546106b391906118dd565b905090565b60026000540361070a5760405162461bcd60e51b815260206004820152601f60248201527f5265656e7472616e637947756172643a207265656e7472616e742063616c6c00604482015260640161041f565b600260005533610718611050565b600855610723610972565b6007556001600160a01b0381161561076a5761073e816108e1565b6001600160a01b0382166000908152600b6020908152604080832093909355600854600a909152919020555b600354600160a01b900460ff166107cf5760405162461bcd60e51b8152602060048201526024808201527f5265776172647320636c61696d696e6720696e206e6f742079657420656e61626044820152636c65642160e01b606482015260840161041f565b336000908152600b6020526040902054801561084457336000818152600b602052604081205560025461080e916001600160a01b039091169083611153565b60405181815233907fe2403640ba68fed3a2f88b7557551d1993f84b99bb10ff833f0cf8db0c5e04869060200160405180910390a25b50506001600055565b6001600160a01b0381166000908152600d602090815260408083208054825181850281018501909352808352606094938301828280156108ac57602002820191906000526020600020905b815481526020019060010190808311610898575b505050505091506108bc836108e1565b9050915091565b6108cb6111bf565b6108d481611219565b6108dd82610e26565b5050565b6001600160a01b0381166000908152600b6020908152604080832054600a909252822054670de0b6b3a764000090610917611050565b61092191906118fc565b6001600160a01b0385166000908152600d602052604090205461094491906118dd565b61094e9190611913565b61095891906118ac565b92915050565b6109666111bf565b61097060006112fb565b565b60006004544210610984575060045490565b504290565b336000908152600d602090815260409182902080548351818402810184019094528084526109eb93928301828280156109e157602002820191906000526020600020905b8154815260200190600101908083116109cd575b50505050506109f3565b6109706106b8565b600260005403610a455760405162461bcd60e51b815260206004820152601f60248201527f5265656e7472616e637947756172643a207265656e7472616e742063616c6c00604482015260640161041f565b600260005533610a53611050565b600855610a5e610972565b6007556001600160a01b03811615610aa557610a79816108e1565b6001600160a01b0382166000908152600b6020908152604080832093909355600854600a909152919020555b8151600003610af65760405162461bcd60e51b815260206004820152601d60248201527f5374616b696e673a204e6f20746f6b656e4964732070726f7669646564000000604482015260640161041f565b815160005b81811015610dda57336001600160a01b0316600c6000868481518110610b2357610b23611880565b6020908102919091018101518252810191909152604001600020546001600160a01b031614610ba05760405162461bcd60e51b8152602060048201526024808201527f5374616b696e673a204e6f7420746865207374616b6572206f6620746865207460448201526337b5b2b760e11b606482015260840161041f565b60035484516001600160a01b03909116906342842e0e9030903390889086908110610bcd57610bcd611880565b60209081029190910101516040516001600160e01b031960e086901b1681526001600160a01b0393841660048201529290911660248301526044820152606401600060405180830381600087803b158015610c2757600080fd5b505af1158015610c3b573d6000803e3d6000fd5b505050506000600c6000868481518110610c5757610c57611880565b60209081029190910181015182528181019290925260409081016000908120805473ffffffffffffffffffffffffffffffffffffffff19166001600160a01b039590951694909417909355338352600d909152812054905b81811015610dc557858381518110610cc957610cc9611880565b6020026020010151600d6000336001600160a01b03166001600160a01b031681526020019081526020016000208281548110610d0757610d07611880565b906000526020600020015403610db557336000908152600d60205260409020610d316001846118fc565b81548110610d4157610d41611880565b6000918252602080832090910154338352600d9091526040909120805483908110610d6e57610d6e611880565b6000918252602080832090910192909255338152600d90915260409020805480610d9a57610d9a611935565b60019003818190600052602060002001600090559055610dc5565b610dbe8161194b565b9050610caf565b50610dd390506001826118ac565b9050610afb565b508060096000828254610ded91906118fc565b909155505060405133907fd40a9786b597b88b3426158112e3930e09cb031c138a150e367cfe17ff20e3029061068f90849087906118c4565b610e2e6111bf565b6000610e38611050565b600855610e43610972565b6007556001600160a01b03811615610e8a57610e5e816108e1565b6001600160a01b0382166000908152600b6020908152604080832093909355600854600a909152919020555b6004544210610ea857600654610ea09083611913565b600555610eea565b600042600454610eb891906118fc565b9050600060055482610eca91906118dd565b600654909150610eda82866118ac565b610ee49190611913565b60055550505b6002546040516370a0823160e01b81523060048201526000916001600160a01b0316906370a0823190602401602060405180830381865afa158015610f33573d6000803e3d6000fd5b505050506040513d601f19601f82011682018060405250810190610f579190611964565b905060065481610f679190611913565b6005541115610fc25760405162461bcd60e51b815260206004820152602160248201527f5374616b696e673a2050726f76696465642072657761726420746f6f206869676044820152600d60fb1b606482015260840161041f565b426007819055600654610fd4916118ac565b6004556040518381527fde88a922e0d3b88b24e9623efeb464919c6bf9f66857a65e2bfcf2ce87a9433d9060200160405180910390a1505050565b6110176111bf565b60038054911515600160a01b027fffffffffffffffffffffff00ffffffffffffffffffffffffffffffffffffffff909216919091179055565b6000600954600003611063575060085490565b600954600554600754611074610972565b61107e91906118fc565b61108891906118dd565b61109a90670de0b6b3a76400006118dd565b6110a49190611913565b6008546106b391906118ac565b6110b96111bf565b6001600160a01b0381166111355760405162461bcd60e51b815260206004820152602660248201527f4f776e61626c653a206e6577206f776e657220697320746865207a65726f206160448201527f6464726573730000000000000000000000000000000000000000000000000000606482015260840161041f565b61113e816112fb565b50565b60006009546005546106b39190611913565b604080516001600160a01b038416602482015260448082018490528251808303909101815260649091019091526020810180517bffffffffffffffffffffffffffffffffffffffffffffffffffffffff1663a9059cbb60e01b1790526111ba90849061135a565b505050565b6001546001600160a01b031633146109705760405162461bcd60e51b815260206004820181905260248201527f4f776e61626c653a2063616c6c6572206973206e6f7420746865206f776e6572604482015260640161041f565b60045442116112c05760405162461bcd60e51b815260206004820152606160248201527f5374616b696e673a2050726576696f7573207265776172647320706572696f6460448201527f206d75737420626520636f6d706c657465206265666f7265206368616e67696e60648201527f6720746865206475726174696f6e20666f7220746865206e657720706572696f6084820152601960fa1b60a482015260c40161041f565b60068190556040518181527ffb46ca5a5e06d4540d6387b930a7c978bce0db5f449ec6b3f5d07c6e1d44f2d39060200160405180910390a150565b600180546001600160a01b0383811673ffffffffffffffffffffffffffffffffffffffff19831681179093556040519116919082907f8be0079c531659141344cd1fd0a4f28419497f9722a3daafe3b4186f6b6457e090600090a35050565b60006113af826040518060400160405280602081526020017f5361666545524332303a206c6f772d6c6576656c2063616c6c206661696c6564815250856001600160a01b031661143f9092919063ffffffff16565b8051909150156111ba57808060200190518101906113cd919061197d565b6111ba5760405162461bcd60e51b815260206004820152602a60248201527f5361666545524332303a204552433230206f7065726174696f6e20646964206e60448201527f6f74207375636365656400000000000000000000000000000000000000000000606482015260840161041f565b606061144e8484600085611458565b90505b9392505050565b6060824710156114d05760405162461bcd60e51b815260206004820152602660248201527f416464726573733a20696e73756666696369656e742062616c616e636520666f60448201527f722063616c6c0000000000000000000000000000000000000000000000000000606482015260840161041f565b6001600160a01b0385163b6115275760405162461bcd60e51b815260206004820152601d60248201527f416464726573733a2063616c6c20746f206e6f6e2d636f6e7472616374000000604482015260640161041f565b600080866001600160a01b0316858760405161154391906119ca565b60006040518083038185875af1925050503d8060008114611580576040519150601f19603f3d011682016040523d82523d6000602084013e611585565b606091505b50915091506115958282866115a0565b979650505050505050565b606083156115af575081611451565b8251156115bf5782518084602001fd5b8160405162461bcd60e51b815260040161041f91906119e6565b634e487b7160e01b600052604160045260246000fd5b604051601f8201601f1916810167ffffffffffffffff81118282101715611618576116186115d9565b604052919050565b6000602080838503121561163357600080fd5b823567ffffffffffffffff8082111561164b57600080fd5b818501915085601f83011261165f57600080fd5b813581811115611671576116716115d9565b8060051b91506116828483016115ef565b818152918301840191848101908884111561169c57600080fd5b938501935b838510156116ba578435825293850193908501906116a1565b98975050505050505050565b80356001600160a01b03811681146116dd57600080fd5b919050565b600080600080608085870312156116f857600080fd5b611701856116c6565b935060206117108187016116c6565b935060408601359250606086013567ffffffffffffffff8082111561173457600080fd5b818801915088601f83011261174857600080fd5b81358181111561175a5761175a6115d9565b61176c601f8201601f191685016115ef565b9150808252898482850101111561178257600080fd5b808484018584013760008482840101525080935050505092959194509250565b6000602082840312156117b457600080fd5b611451826116c6565b600081518084526020808501945080840160005b838110156117ed578151875295820195908201906001016117d1565b509495945050505050565b60408152600061180b60408301856117bd565b90508260208301529392505050565b6000806040838503121561182d57600080fd5b50508035926020909101359150565b60006020828403121561184e57600080fd5b5035919050565b801515811461113e57600080fd5b60006020828403121561187557600080fd5b813561145181611855565b634e487b7160e01b600052603260045260246000fd5b634e487b7160e01b600052601160045260246000fd5b600082198211156118bf576118bf611896565b500190565b82815260406020820152600061144e60408301846117bd565b60008160001904831182151516156118f7576118f7611896565b500290565b60008282101561190e5761190e611896565b500390565b60008261193057634e487b7160e01b600052601260045260246000fd5b500490565b634e487b7160e01b600052603160045260246000fd5b60006001820161195d5761195d611896565b5060010190565b60006020828403121561197657600080fd5b5051919050565b60006020828403121561198f57600080fd5b815161145181611855565b60005b838110156119b557818101518382015260200161199d565b838111156119c4576000848401525b50505050565b600082516119dc81846020870161199a565b9190910192915050565b6020815260008251806020840152611a0581604085016020870161199a565b601f01601f1916919091016040019291505056fea26469706673582212204911a7f34b56f99f580ebaa1d81ab9406b1909251e9c136498b810a78f0495f064736f6c634300080d0033",
      "opcodes": "PUSH1 0x80 PUSH1 0x40 MSTORE CALLVALUE DUP1 ISZERO PUSH3 0x11 JUMPI PUSH1 0x0 DUP1 REVERT JUMPDEST POP PUSH1 0x40 MLOAD PUSH3 0x1B7C CODESIZE SUB DUP1 PUSH3 0x1B7C DUP4 CODECOPY DUP2 ADD PUSH1 0x40 DUP2 SWAP1 MSTORE PUSH3 0x34 SWAP2 PUSH3 0xE5 JUMP JUMPDEST PUSH1 0x1 PUSH1 0x0 SSTORE PUSH3 0x44 CALLER PUSH3 0x76 JUMP JUMPDEST PUSH1 0x3 DUP1 SLOAD PUSH1 0x1 PUSH1 0x1 PUSH1 0xA0 SHL SUB SWAP4 DUP5 AND PUSH1 0x1 PUSH1 0x1 PUSH1 0xA0 SHL SUB NOT SWAP2 DUP3 AND OR SWAP1 SWAP2 SSTORE PUSH1 0x2 DUP1 SLOAD SWAP3 SWAP1 SWAP4 AND SWAP2 AND OR SWAP1 SSTORE PUSH3 0x11D JUMP JUMPDEST PUSH1 0x1 DUP1 SLOAD PUSH1 0x1 PUSH1 0x1 PUSH1 0xA0 SHL SUB DUP4 DUP2 AND PUSH1 0x1 PUSH1 0x1 PUSH1 0xA0 SHL SUB NOT DUP4 AND DUP2 OR SWAP1 SWAP4 SSTORE PUSH1 0x40 MLOAD SWAP2 AND SWAP2 SWAP1 DUP3 SWAP1 PUSH32 0x8BE0079C531659141344CD1FD0A4F28419497F9722A3DAAFE3B4186F6B6457E0 SWAP1 PUSH1 0x0 SWAP1 LOG3 POP POP JUMP JUMPDEST DUP1 MLOAD PUSH1 0x1 PUSH1 0x1 PUSH1 0xA0 SHL SUB DUP2 AND DUP2 EQ PUSH3 0xE0 JUMPI PUSH1 0x0 DUP1 REVERT JUMPDEST SWAP2 SWAP1 POP JUMP JUMPDEST PUSH1 0x0 DUP1 PUSH1 0x40 DUP4 DUP6 SUB SLT ISZERO PUSH3 0xF9 JUMPI PUSH1 0x0 DUP1 REVERT JUMPDEST PUSH3 0x104 DUP4 PUSH3 0xC8 JUMP JUMPDEST SWAP2 POP PUSH3 0x114 PUSH1 0x20 DUP5 ADD PUSH3 0xC8 JUMP JUMPDEST SWAP1 POP SWAP3 POP SWAP3 SWAP1 POP JUMP JUMPDEST PUSH2 0x1A4F DUP1 PUSH3 0x12D PUSH1 0x0 CODECOPY PUSH1 0x0 RETURN INVALID PUSH1 0x80 PUSH1 0x40 MSTORE CALLVALUE DUP1 ISZERO PUSH2 0x10 JUMPI PUSH1 0x0 DUP1 REVERT JUMPDEST POP PUSH1 0x4 CALLDATASIZE LT PUSH2 0x1B9 JUMPI PUSH1 0x0 CALLDATALOAD PUSH1 0xE0 SHR DUP1 PUSH4 0x80FAA57D GT PUSH2 0xF9 JUMPI DUP1 PUSH4 0xBCDC3CFC GT PUSH2 0x97 JUMPI DUP1 PUSH4 0xD1AF0C7D GT PUSH2 0x71 JUMPI DUP1 PUSH4 0xD1AF0C7D EQ PUSH2 0x39A JUMPI DUP1 PUSH4 0xEBE2B12B EQ PUSH2 0x3AD JUMPI DUP1 PUSH4 0xF2FDE38B EQ PUSH2 0x3B6 JUMPI DUP1 PUSH4 0xFECA3900 EQ PUSH2 0x3C9 JUMPI PUSH1 0x0 DUP1 REVERT JUMPDEST DUP1 PUSH4 0xBCDC3CFC EQ PUSH2 0x380 JUMPI DUP1 PUSH4 0xC8F33C91 EQ PUSH2 0x389 JUMPI DUP1 PUSH4 0xCD3DAF9D EQ PUSH2 0x392 JUMPI PUSH1 0x0 DUP1 REVERT JUMPDEST DUP1 PUSH4 0x8DA5CB5B GT PUSH2 0xD3 JUMPI DUP1 PUSH4 0x8DA5CB5B EQ PUSH2 0x336 JUMPI DUP1 PUSH4 0x983D95CE EQ PUSH2 0x347 JUMPI DUP1 PUSH4 0x9B7CCF4C EQ PUSH2 0x35A JUMPI DUP1 PUSH4 0x9C007C75 EQ PUSH2 0x36D JUMPI PUSH1 0x0 DUP1 REVERT JUMPDEST DUP1 PUSH4 0x80FAA57D EQ PUSH2 0x306 JUMPI DUP1 PUSH4 0x853828B6 EQ PUSH2 0x30E JUMPI DUP1 PUSH4 0x8B876347 EQ PUSH2 0x316 JUMPI PUSH1 0x0 DUP1 REVERT JUMPDEST DUP1 PUSH4 0x4EAD4327 GT PUSH2 0x166 JUMPI DUP1 PUSH4 0x6588103B GT PUSH2 0x140 JUMPI DUP1 PUSH4 0x6588103B EQ PUSH2 0x2A1 JUMPI DUP1 PUSH4 0x715018A6 EQ PUSH2 0x2CC JUMPI DUP1 PUSH4 0x7B0A47EE EQ PUSH2 0x2D4 JUMPI DUP1 PUSH4 0x7D8FC88E EQ PUSH2 0x2DD JUMPI PUSH1 0x0 DUP1 REVERT JUMPDEST DUP1 PUSH4 0x4EAD4327 EQ PUSH2 0x25A JUMPI DUP1 PUSH4 0x518BB20E EQ PUSH2 0x27B JUMPI DUP1 PUSH4 0x64AB8675 EQ PUSH2 0x28E JUMPI PUSH1 0x0 DUP1 REVERT JUMPDEST DUP1 PUSH4 0x1C1F78EB GT PUSH2 0x197 JUMPI DUP1 PUSH4 0x1C1F78EB EQ PUSH2 0x233 JUMPI DUP1 PUSH4 0x372500AB EQ PUSH2 0x249 JUMPI DUP1 PUSH4 0x386A9525 EQ PUSH2 0x251 JUMPI PUSH1 0x0 DUP1 REVERT JUMPDEST DUP1 PUSH4 0xDEFC08A EQ PUSH2 0x1BE JUMPI DUP1 PUSH4 0xFBF0A93 EQ PUSH2 0x1E7 JUMPI DUP1 PUSH4 0x150B7A02 EQ PUSH2 0x1FC JUMPI JUMPDEST PUSH1 0x0 DUP1 REVERT JUMPDEST PUSH1 0x3 SLOAD PUSH2 0x1D2 SWAP1 PUSH1 0x1 PUSH1 0xA0 SHL SWAP1 DIV PUSH1 0xFF AND DUP2 JUMP JUMPDEST PUSH1 0x40 MLOAD SWAP1 ISZERO ISZERO DUP2 MSTORE PUSH1 0x20 ADD JUMPDEST PUSH1 0x40 MLOAD DUP1 SWAP2 SUB SWAP1 RETURN JUMPDEST PUSH2 0x1FA PUSH2 0x1F5 CALLDATASIZE PUSH1 0x4 PUSH2 0x1620 JUMP JUMPDEST PUSH2 0x3D1 JUMP JUMPDEST STOP JUMPDEST PUSH2 0x21A PUSH2 0x20A CALLDATASIZE PUSH1 0x4 PUSH2 0x16E2 JUMP JUMPDEST PUSH4 0xA85BD01 PUSH1 0xE1 SHL SWAP5 SWAP4 POP POP POP POP JUMP JUMPDEST PUSH1 0x40 MLOAD PUSH1 0x1 PUSH1 0x1 PUSH1 0xE0 SHL SUB NOT SWAP1 SWAP2 AND DUP2 MSTORE PUSH1 0x20 ADD PUSH2 0x1DE JUMP JUMPDEST PUSH2 0x23B PUSH2 0x6A1 JUMP JUMPDEST PUSH1 0x40 MLOAD SWAP1 DUP2 MSTORE PUSH1 0x20 ADD PUSH2 0x1DE JUMP JUMPDEST PUSH2 0x1FA PUSH2 0x6B8 JUMP JUMPDEST PUSH2 0x23B PUSH1 0x6 SLOAD DUP2 JUMP JUMPDEST PUSH2 0x26D PUSH2 0x268 CALLDATASIZE PUSH1 0x4 PUSH2 0x17A2 JUMP JUMPDEST PUSH2 0x84D JUMP JUMPDEST PUSH1 0x40 MLOAD PUSH2 0x1DE SWAP3 SWAP2 SWAP1 PUSH2 0x17F8 JUMP JUMPDEST PUSH2 0x1FA PUSH2 0x289 CALLDATASIZE PUSH1 0x4 PUSH2 0x181A JUMP JUMPDEST PUSH2 0x8C3 JUMP JUMPDEST PUSH2 0x23B PUSH2 0x29C CALLDATASIZE PUSH1 0x4 PUSH2 0x17A2 JUMP JUMPDEST PUSH2 0x8E1 JUMP JUMPDEST PUSH1 0x3 SLOAD PUSH2 0x2B4 SWAP1 PUSH1 0x1 PUSH1 0x1 PUSH1 0xA0 SHL SUB AND DUP2 JUMP JUMPDEST PUSH1 0x40 MLOAD PUSH1 0x1 PUSH1 0x1 PUSH1 0xA0 SHL SUB SWAP1 SWAP2 AND DUP2 MSTORE PUSH1 0x20 ADD PUSH2 0x1DE JUMP JUMPDEST PUSH2 0x1FA PUSH2 0x95E JUMP JUMPDEST PUSH2 0x23B PUSH1 0x5 SLOAD DUP2 JUMP JUMPDEST PUSH2 0x2B4 PUSH2 0x2EB CALLDATASIZE PUSH1 0x4 PUSH2 0x183C JUMP JUMPDEST PUSH1 0xC PUSH1 0x20 MSTORE PUSH1 0x0 SWAP1 DUP2 MSTORE PUSH1 0x40 SWAP1 KECCAK256 SLOAD PUSH1 0x1 PUSH1 0x1 PUSH1 0xA0 SHL SUB AND DUP2 JUMP JUMPDEST PUSH2 0x23B PUSH2 0x972 JUMP JUMPDEST PUSH2 0x1FA PUSH2 0x989 JUMP JUMPDEST PUSH2 0x23B PUSH2 0x324 CALLDATASIZE PUSH1 0x4 PUSH2 0x17A2 JUMP JUMPDEST PUSH1 0xA PUSH1 0x20 MSTORE PUSH1 0x0 SWAP1 DUP2 MSTORE PUSH1 0x40 SWAP1 KECCAK256 SLOAD DUP2 JUMP JUMPDEST PUSH1 0x1 SLOAD PUSH1 0x1 PUSH1 0x1 PUSH1 0xA0 SHL SUB AND PUSH2 0x2B4 JUMP JUMPDEST PUSH2 0x1FA PUSH2 0x355 CALLDATASIZE PUSH1 0x4 PUSH2 0x1620 JUMP JUMPDEST PUSH2 0x9F3 JUMP JUMPDEST PUSH2 0x1FA PUSH2 0x368 CALLDATASIZE PUSH1 0x4 PUSH2 0x183C JUMP JUMPDEST PUSH2 0xE26 JUMP JUMPDEST PUSH2 0x1FA PUSH2 0x37B CALLDATASIZE PUSH1 0x4 PUSH2 0x1863 JUMP JUMPDEST PUSH2 0x100F JUMP JUMPDEST PUSH2 0x23B PUSH1 0x9 SLOAD DUP2 JUMP JUMPDEST PUSH2 0x23B PUSH1 0x7 SLOAD DUP2 JUMP JUMPDEST PUSH2 0x23B PUSH2 0x1050 JUMP JUMPDEST PUSH1 0x2 SLOAD PUSH2 0x2B4 SWAP1 PUSH1 0x1 PUSH1 0x1 PUSH1 0xA0 SHL SUB AND DUP2 JUMP JUMPDEST PUSH2 0x23B PUSH1 0x4 SLOAD DUP2 JUMP JUMPDEST PUSH2 0x1FA PUSH2 0x3C4 CALLDATASIZE PUSH1 0x4 PUSH2 0x17A2 JUMP JUMPDEST PUSH2 0x10B1 JUMP JUMPDEST PUSH2 0x23B PUSH2 0x1141 JUMP JUMPDEST PUSH1 0x2 PUSH1 0x0 SLOAD SUB PUSH2 0x428 JUMPI PUSH1 0x40 MLOAD PUSH3 0x461BCD PUSH1 0xE5 SHL DUP2 MSTORE PUSH1 0x20 PUSH1 0x4 DUP3 ADD MSTORE PUSH1 0x1F PUSH1 0x24 DUP3 ADD MSTORE PUSH32 0x5265656E7472616E637947756172643A207265656E7472616E742063616C6C00 PUSH1 0x44 DUP3 ADD MSTORE PUSH1 0x64 ADD JUMPDEST PUSH1 0x40 MLOAD DUP1 SWAP2 SUB SWAP1 REVERT JUMPDEST PUSH1 0x2 PUSH1 0x0 SSTORE CALLER PUSH2 0x436 PUSH2 0x1050 JUMP JUMPDEST PUSH1 0x8 SSTORE PUSH2 0x441 PUSH2 0x972 JUMP JUMPDEST PUSH1 0x7 SSTORE PUSH1 0x1 PUSH1 0x1 PUSH1 0xA0 SHL SUB DUP2 AND ISZERO PUSH2 0x488 JUMPI PUSH2 0x45C DUP2 PUSH2 0x8E1 JUMP JUMPDEST PUSH1 0x1 PUSH1 0x1 PUSH1 0xA0 SHL SUB DUP3 AND PUSH1 0x0 SWAP1 DUP2 MSTORE PUSH1 0xB PUSH1 0x20 SWAP1 DUP2 MSTORE PUSH1 0x40 DUP1 DUP4 KECCAK256 SWAP4 SWAP1 SWAP4 SSTORE PUSH1 0x8 SLOAD PUSH1 0xA SWAP1 SWAP2 MSTORE SWAP2 SWAP1 KECCAK256 SSTORE JUMPDEST DUP2 MLOAD PUSH1 0x0 SUB PUSH2 0x4D9 JUMPI PUSH1 0x40 MLOAD PUSH3 0x461BCD PUSH1 0xE5 SHL DUP2 MSTORE PUSH1 0x20 PUSH1 0x4 DUP3 ADD MSTORE PUSH1 0x1D PUSH1 0x24 DUP3 ADD MSTORE PUSH32 0x5374616B696E673A204E6F20746F6B656E4964732070726F7669646564000000 PUSH1 0x44 DUP3 ADD MSTORE PUSH1 0x64 ADD PUSH2 0x41F JUMP JUMPDEST DUP2 MLOAD PUSH1 0x0 JUMPDEST DUP2 DUP2 LT ISZERO PUSH2 0x643 JUMPI PUSH1 0x3 SLOAD DUP5 MLOAD PUSH1 0x1 PUSH1 0x1 PUSH1 0xA0 SHL SUB SWAP1 SWAP2 AND SWAP1 PUSH4 0x42842E0E SWAP1 CALLER SWAP1 ADDRESS SWAP1 DUP9 SWAP1 DUP7 SWAP1 DUP2 LT PUSH2 0x513 JUMPI PUSH2 0x513 PUSH2 0x1880 JUMP JUMPDEST PUSH1 0x20 SWAP1 DUP2 MUL SWAP2 SWAP1 SWAP2 ADD ADD MLOAD PUSH1 0x40 MLOAD PUSH1 0x1 PUSH1 0x1 PUSH1 0xE0 SHL SUB NOT PUSH1 0xE0 DUP7 SWAP1 SHL AND DUP2 MSTORE PUSH1 0x1 PUSH1 0x1 PUSH1 0xA0 SHL SUB SWAP4 DUP5 AND PUSH1 0x4 DUP3 ADD MSTORE SWAP3 SWAP1 SWAP2 AND PUSH1 0x24 DUP4 ADD MSTORE PUSH1 0x44 DUP3 ADD MSTORE PUSH1 0x64 ADD PUSH1 0x0 PUSH1 0x40 MLOAD DUP1 DUP4 SUB DUP2 PUSH1 0x0 DUP8 DUP1 EXTCODESIZE ISZERO DUP1 ISZERO PUSH2 0x56D JUMPI PUSH1 0x0 DUP1 REVERT JUMPDEST POP GAS CALL ISZERO DUP1 ISZERO PUSH2 0x581 JUMPI RETURNDATASIZE PUSH1 0x0 DUP1 RETURNDATACOPY RETURNDATASIZE PUSH1 0x0 REVERT JUMPDEST POP POP POP POP CALLER PUSH1 0xC PUSH1 0x0 DUP7 DUP5 DUP2 MLOAD DUP2 LT PUSH2 0x59C JUMPI PUSH2 0x59C PUSH2 0x1880 JUMP JUMPDEST PUSH1 0x20 MUL PUSH1 0x20 ADD ADD MLOAD DUP2 MSTORE PUSH1 0x20 ADD SWAP1 DUP2 MSTORE PUSH1 0x20 ADD PUSH1 0x0 KECCAK256 PUSH1 0x0 PUSH2 0x100 EXP DUP2 SLOAD DUP2 PUSH1 0x1 PUSH1 0x1 PUSH1 0xA0 SHL SUB MUL NOT AND SWAP1 DUP4 PUSH1 0x1 PUSH1 0x1 PUSH1 0xA0 SHL SUB AND MUL OR SWAP1 SSTORE POP PUSH1 0xD PUSH1 0x0 CALLER PUSH1 0x1 PUSH1 0x1 PUSH1 0xA0 SHL SUB AND PUSH1 0x1 PUSH1 0x1 PUSH1 0xA0 SHL SUB AND DUP2 MSTORE PUSH1 0x20 ADD SWAP1 DUP2 MSTORE PUSH1 0x20 ADD PUSH1 0x0 KECCAK256 DUP5 DUP3 DUP2 MLOAD DUP2 LT PUSH2 0x60D JUMPI PUSH2 0x60D PUSH2 0x1880 JUMP JUMPDEST PUSH1 0x20 SWAP1 DUP2 MUL SWAP2 SWAP1 SWAP2 ADD DUP2 ADD MLOAD DUP3 SLOAD PUSH1 0x1 DUP2 DUP2 ADD DUP6 SSTORE PUSH1 0x0 SWAP5 DUP6 MSTORE SWAP3 SWAP1 SWAP4 KECCAK256 SWAP1 SWAP3 ADD SWAP2 SWAP1 SWAP2 SSTORE PUSH2 0x63C SWAP1 DUP3 PUSH2 0x18AC JUMP JUMPDEST SWAP1 POP PUSH2 0x4DE JUMP JUMPDEST POP DUP1 PUSH1 0x9 PUSH1 0x0 DUP3 DUP3 SLOAD PUSH2 0x656 SWAP2 SWAP1 PUSH2 0x18AC JUMP JUMPDEST SWAP1 SWAP2 SSTORE POP POP PUSH1 0x40 MLOAD CALLER SWAP1 PUSH32 0xB18AB713C223CF8D1394FB3018FAAD3E87F34414CC9D74B6EFF3510D05359D85 SWAP1 PUSH2 0x68F SWAP1 DUP5 SWAP1 DUP8 SWAP1 PUSH2 0x18C4 JUMP JUMPDEST PUSH1 0x40 MLOAD DUP1 SWAP2 SUB SWAP1 LOG2 POP POP PUSH1 0x1 PUSH1 0x0 SSTORE POP JUMP JUMPDEST PUSH1 0x0 PUSH1 0x6 SLOAD PUSH1 0x5 SLOAD PUSH2 0x6B3 SWAP2 SWAP1 PUSH2 0x18DD JUMP JUMPDEST SWAP1 POP SWAP1 JUMP JUMPDEST PUSH1 0x2 PUSH1 0x0 SLOAD SUB PUSH2 0x70A JUMPI PUSH1 0x40 MLOAD PUSH3 0x461BCD PUSH1 0xE5 SHL DUP2 MSTORE PUSH1 0x20 PUSH1 0x4 DUP3 ADD MSTORE PUSH1 0x1F PUSH1 0x24 DUP3 ADD MSTORE PUSH32 0x5265656E7472616E637947756172643A207265656E7472616E742063616C6C00 PUSH1 0x44 DUP3 ADD MSTORE PUSH1 0x64 ADD PUSH2 0x41F JUMP JUMPDEST PUSH1 0x2 PUSH1 0x0 SSTORE CALLER PUSH2 0x718 PUSH2 0x1050 JUMP JUMPDEST PUSH1 0x8 SSTORE PUSH2 0x723 PUSH2 0x972 JUMP JUMPDEST PUSH1 0x7 SSTORE PUSH1 0x1 PUSH1 0x1 PUSH1 0xA0 SHL SUB DUP2 AND ISZERO PUSH2 0x76A JUMPI PUSH2 0x73E DUP2 PUSH2 0x8E1 JUMP JUMPDEST PUSH1 0x1 PUSH1 0x1 PUSH1 0xA0 SHL SUB DUP3 AND PUSH1 0x0 SWAP1 DUP2 MSTORE PUSH1 0xB PUSH1 0x20 SWAP1 DUP2 MSTORE PUSH1 0x40 DUP1 DUP4 KECCAK256 SWAP4 SWAP1 SWAP4 SSTORE PUSH1 0x8 SLOAD PUSH1 0xA SWAP1 SWAP2 MSTORE SWAP2 SWAP1 KECCAK256 SSTORE JUMPDEST PUSH1 0x3 SLOAD PUSH1 0x1 PUSH1 0xA0 SHL SWAP1 DIV PUSH1 0xFF AND PUSH2 0x7CF JUMPI PUSH1 0x40 MLOAD PUSH3 0x461BCD PUSH1 0xE5 SHL DUP2 MSTORE PUSH1 0x20 PUSH1 0x4 DUP3 ADD MSTORE PUSH1 0x24 DUP1 DUP3 ADD MSTORE PUSH32 0x5265776172647320636C61696D696E6720696E206E6F742079657420656E6162 PUSH1 0x44 DUP3 ADD MSTORE PUSH4 0x6C656421 PUSH1 0xE0 SHL PUSH1 0x64 DUP3 ADD MSTORE PUSH1 0x84 ADD PUSH2 0x41F JUMP JUMPDEST CALLER PUSH1 0x0 SWAP1 DUP2 MSTORE PUSH1 0xB PUSH1 0x20 MSTORE PUSH1 0x40 SWAP1 KECCAK256 SLOAD DUP1 ISZERO PUSH2 0x844 JUMPI CALLER PUSH1 0x0 DUP2 DUP2 MSTORE PUSH1 0xB PUSH1 0x20 MSTORE PUSH1 0x40 DUP2 KECCAK256 SSTORE PUSH1 0x2 SLOAD PUSH2 0x80E SWAP2 PUSH1 0x1 PUSH1 0x1 PUSH1 0xA0 SHL SUB SWAP1 SWAP2 AND SWAP1 DUP4 PUSH2 0x1153 JUMP JUMPDEST PUSH1 0x40 MLOAD DUP2 DUP2 MSTORE CALLER SWAP1 PUSH32 0xE2403640BA68FED3A2F88B7557551D1993F84B99BB10FF833F0CF8DB0C5E0486 SWAP1 PUSH1 0x20 ADD PUSH1 0x40 MLOAD DUP1 SWAP2 SUB SWAP1 LOG2 JUMPDEST POP POP PUSH1 0x1 PUSH1 0x0 SSTORE JUMP JUMPDEST PUSH1 0x1 PUSH1 0x1 PUSH1 0xA0 SHL SUB DUP2 AND PUSH1 0x0 SWAP1 DUP2 MSTORE PUSH1 0xD PUSH1 0x20 SWAP1 DUP2 MSTORE PUSH1 0x40 DUP1 DUP4 KECCAK256 DUP1 SLOAD DUP3 MLOAD DUP2 DUP6 MUL DUP2 ADD DUP6 ADD SWAP1 SWAP4 MSTORE DUP1 DUP4 MSTORE PUSH1 0x60 SWAP5 SWAP4 DUP4 ADD DUP3 DUP3 DUP1 ISZERO PUSH2 0x8AC JUMPI PUSH1 0x20 MUL DUP3 ADD SWAP2 SWAP1 PUSH1 0x0 MSTORE PUSH1 0x20 PUSH1 0x0 KECCAK256 SWAP1 JUMPDEST DUP2 SLOAD DUP2 MSTORE PUSH1 0x20 ADD SWAP1 PUSH1 0x1 ADD SWAP1 DUP1 DUP4 GT PUSH2 0x898 JUMPI JUMPDEST POP POP POP POP POP SWAP2 POP PUSH2 0x8BC DUP4 PUSH2 0x8E1 JUMP JUMPDEST SWAP1 POP SWAP2 POP SWAP2 JUMP JUMPDEST PUSH2 0x8CB PUSH2 0x11BF JUMP JUMPDEST PUSH2 0x8D4 DUP2 PUSH2 0x1219 JUMP JUMPDEST PUSH2 0x8DD DUP3 PUSH2 0xE26 JUMP JUMPDEST POP POP JUMP JUMPDEST PUSH1 0x1 PUSH1 0x1 PUSH1 0xA0 SHL SUB DUP2 AND PUSH1 0x0 SWAP1 DUP2 MSTORE PUSH1 0xB PUSH1 0x20 SWAP1 DUP2 MSTORE PUSH1 0x40 DUP1 DUP4 KECCAK256 SLOAD PUSH1 0xA SWAP1 SWAP3 MSTORE DUP3 KECCAK256 SLOAD PUSH8 0xDE0B6B3A7640000 SWAP1 PUSH2 0x917 PUSH2 0x1050 JUMP JUMPDEST PUSH2 0x921 SWAP2 SWAP1 PUSH2 0x18FC JUMP JUMPDEST PUSH1 0x1 PUSH1 0x1 PUSH1 0xA0 SHL SUB DUP6 AND PUSH1 0x0 SWAP1 DUP2 MSTORE PUSH1 0xD PUSH1 0x20 MSTORE PUSH1 0x40 SWAP1 KECCAK256 SLOAD PUSH2 0x944 SWAP2 SWAP1 PUSH2 0x18DD JUMP JUMPDEST PUSH2 0x94E SWAP2 SWAP1 PUSH2 0x1913 JUMP JUMPDEST PUSH2 0x958 SWAP2 SWAP1 PUSH2 0x18AC JUMP JUMPDEST SWAP3 SWAP2 POP POP JUMP JUMPDEST PUSH2 0x966 PUSH2 0x11BF JUMP JUMPDEST PUSH2 0x970 PUSH1 0x0 PUSH2 0x12FB JUMP JUMPDEST JUMP JUMPDEST PUSH1 0x0 PUSH1 0x4 SLOAD TIMESTAMP LT PUSH2 0x984 JUMPI POP PUSH1 0x4 SLOAD SWAP1 JUMP JUMPDEST POP TIMESTAMP SWAP1 JUMP JUMPDEST CALLER PUSH1 0x0 SWAP1 DUP2 MSTORE PUSH1 0xD PUSH1 0x20 SWAP1 DUP2 MSTORE PUSH1 0x40 SWAP2 DUP3 SWAP1 KECCAK256 DUP1 SLOAD DUP4 MLOAD DUP2 DUP5 MUL DUP2 ADD DUP5 ADD SWAP1 SWAP5 MSTORE DUP1 DUP5 MSTORE PUSH2 0x9EB SWAP4 SWAP3 DUP4 ADD DUP3 DUP3 DUP1 ISZERO PUSH2 0x9E1 JUMPI PUSH1 0x20 MUL DUP3 ADD SWAP2 SWAP1 PUSH1 0x0 MSTORE PUSH1 0x20 PUSH1 0x0 KECCAK256 SWAP1 JUMPDEST DUP2 SLOAD DUP2 MSTORE PUSH1 0x20 ADD SWAP1 PUSH1 0x1 ADD SWAP1 DUP1 DUP4 GT PUSH2 0x9CD JUMPI JUMPDEST POP POP POP POP POP PUSH2 0x9F3 JUMP JUMPDEST PUSH2 0x970 PUSH2 0x6B8 JUMP JUMPDEST PUSH1 0x2 PUSH1 0x0 SLOAD SUB PUSH2 0xA45 JUMPI PUSH1 0x40 MLOAD PUSH3 0x461BCD PUSH1 0xE5 SHL DUP2 MSTORE PUSH1 0x20 PUSH1 0x4 DUP3 ADD MSTORE PUSH1 0x1F PUSH1 0x24 DUP3 ADD MSTORE PUSH32 0x5265656E7472616E637947756172643A207265656E7472616E742063616C6C00 PUSH1 0x44 DUP3 ADD MSTORE PUSH1 0x64 ADD PUSH2 0x41F JUMP JUMPDEST PUSH1 0x2 PUSH1 0x0 SSTORE CALLER PUSH2 0xA53 PUSH2 0x1050 JUMP JUMPDEST PUSH1 0x8 SSTORE PUSH2 0xA5E PUSH2 0x972 JUMP JUMPDEST PUSH1 0x7 SSTORE PUSH1 0x1 PUSH1 0x1 PUSH1 0xA0 SHL SUB DUP2 AND ISZERO PUSH2 0xAA5 JUMPI PUSH2 0xA79 DUP2 PUSH2 0x8E1 JUMP JUMPDEST PUSH1 0x1 PUSH1 0x1 PUSH1 0xA0 SHL SUB DUP3 AND PUSH1 0x0 SWAP1 DUP2 MSTORE PUSH1 0xB PUSH1 0x20 SWAP1 DUP2 MSTORE PUSH1 0x40 DUP1 DUP4 KECCAK256 SWAP4 SWAP1 SWAP4 SSTORE PUSH1 0x8 SLOAD PUSH1 0xA SWAP1 SWAP2 MSTORE SWAP2 SWAP1 KECCAK256 SSTORE JUMPDEST DUP2 MLOAD PUSH1 0x0 SUB PUSH2 0xAF6 JUMPI PUSH1 0x40 MLOAD PUSH3 0x461BCD PUSH1 0xE5 SHL DUP2 MSTORE PUSH1 0x20 PUSH1 0x4 DUP3 ADD MSTORE PUSH1 0x1D PUSH1 0x24 DUP3 ADD MSTORE PUSH32 0x5374616B696E673A204E6F20746F6B656E4964732070726F7669646564000000 PUSH1 0x44 DUP3 ADD MSTORE PUSH1 0x64 ADD PUSH2 0x41F JUMP JUMPDEST DUP2 MLOAD PUSH1 0x0 JUMPDEST DUP2 DUP2 LT ISZERO PUSH2 0xDDA JUMPI CALLER PUSH1 0x1 PUSH1 0x1 PUSH1 0xA0 SHL SUB AND PUSH1 0xC PUSH1 0x0 DUP7 DUP5 DUP2 MLOAD DUP2 LT PUSH2 0xB23 JUMPI PUSH2 0xB23 PUSH2 0x1880 JUMP JUMPDEST PUSH1 0x20 SWAP1 DUP2 MUL SWAP2 SWAP1 SWAP2 ADD DUP2 ADD MLOAD DUP3 MSTORE DUP2 ADD SWAP2 SWAP1 SWAP2 MSTORE PUSH1 0x40 ADD PUSH1 0x0 KECCAK256 SLOAD PUSH1 0x1 PUSH1 0x1 PUSH1 0xA0 SHL SUB AND EQ PUSH2 0xBA0 JUMPI PUSH1 0x40 MLOAD PUSH3 0x461BCD PUSH1 0xE5 SHL DUP2 MSTORE PUSH1 0x20 PUSH1 0x4 DUP3 ADD MSTORE PUSH1 0x24 DUP1 DUP3 ADD MSTORE PUSH32 0x5374616B696E673A204E6F7420746865207374616B6572206F66207468652074 PUSH1 0x44 DUP3 ADD MSTORE PUSH4 0x37B5B2B7 PUSH1 0xE1 SHL PUSH1 0x64 DUP3 ADD MSTORE PUSH1 0x84 ADD PUSH2 0x41F JUMP JUMPDEST PUSH1 0x3 SLOAD DUP5 MLOAD PUSH1 0x1 PUSH1 0x1 PUSH1 0xA0 SHL SUB SWAP1 SWAP2 AND SWAP1 PUSH4 0x42842E0E SWAP1 ADDRESS SWAP1 CALLER SWAP1 DUP9 SWAP1 DUP7 SWAP1 DUP2 LT PUSH2 0xBCD JUMPI PUSH2 0xBCD PUSH2 0x1880 JUMP JUMPDEST PUSH1 0x20 SWAP1 DUP2 MUL SWAP2 SWAP1 SWAP2 ADD ADD MLOAD PUSH1 0x40 MLOAD PUSH1 0x1 PUSH1 0x1 PUSH1 0xE0 SHL SUB NOT PUSH1 0xE0 DUP7 SWAP1 SHL AND DUP2 MSTORE PUSH1 0x1 PUSH1 0x1 PUSH1 0xA0 SHL SUB SWAP4 DUP5 AND PUSH1 0x4 DUP3 ADD MSTORE SWAP3 SWAP1 SWAP2 AND PUSH1 0x24 DUP4 ADD MSTORE PUSH1 0x44 DUP3 ADD MSTORE PUSH1 0x64 ADD PUSH1 0x0 PUSH1 0x40 MLOAD DUP1 DUP4 SUB DUP2 PUSH1 0x0 DUP8 DUP1 EXTCODESIZE ISZERO DUP1 ISZERO PUSH2 0xC27 JUMPI PUSH1 0x0 DUP1 REVERT JUMPDEST POP GAS CALL ISZERO DUP1 ISZERO PUSH2 0xC3B JUMPI RETURNDATASIZE PUSH1 0x0 DUP1 RETURNDATACOPY RETURNDATASIZE PUSH1 0x0 REVERT JUMPDEST POP POP POP POP PUSH1 0x0 PUSH1 0xC PUSH1 0x0 DUP7 DUP5 DUP2 MLOAD DUP2 LT PUSH2 0xC57 JUMPI PUSH2 0xC57 PUSH2 0x1880 JUMP JUMPDEST PUSH1 0x20 SWAP1 DUP2 MUL SWAP2 SWAP1 SWAP2 ADD DUP2 ADD MLOAD DUP3 MSTORE DUP2 DUP2 ADD SWAP3 SWAP1 SWAP3 MSTORE PUSH1 0x40 SWAP1 DUP2 ADD PUSH1 0x0 SWAP1 DUP2 KECCAK256 DUP1 SLOAD PUSH20 0xFFFFFFFFFFFFFFFFFFFFFFFFFFFFFFFFFFFFFFFF NOT AND PUSH1 0x1 PUSH1 0x1 PUSH1 0xA0 SHL SUB SWAP6 SWAP1 SWAP6 AND SWAP5 SWAP1 SWAP5 OR SWAP1 SWAP4 SSTORE CALLER DUP4 MSTORE PUSH1 0xD SWAP1 SWAP2 MSTORE DUP2 KECCAK256 SLOAD SWAP1 JUMPDEST DUP2 DUP2 LT ISZERO PUSH2 0xDC5 JUMPI DUP6 DUP4 DUP2 MLOAD DUP2 LT PUSH2 0xCC9 JUMPI PUSH2 0xCC9 PUSH2 0x1880 JUMP JUMPDEST PUSH1 0x20 MUL PUSH1 0x20 ADD ADD MLOAD PUSH1 0xD PUSH1 0x0 CALLER PUSH1 0x1 PUSH1 0x1 PUSH1 0xA0 SHL SUB AND PUSH1 0x1 PUSH1 0x1 PUSH1 0xA0 SHL SUB AND DUP2 MSTORE PUSH1 0x20 ADD SWAP1 DUP2 MSTORE PUSH1 0x20 ADD PUSH1 0x0 KECCAK256 DUP3 DUP2 SLOAD DUP2 LT PUSH2 0xD07 JUMPI PUSH2 0xD07 PUSH2 0x1880 JUMP JUMPDEST SWAP1 PUSH1 0x0 MSTORE PUSH1 0x20 PUSH1 0x0 KECCAK256 ADD SLOAD SUB PUSH2 0xDB5 JUMPI CALLER PUSH1 0x0 SWAP1 DUP2 MSTORE PUSH1 0xD PUSH1 0x20 MSTORE PUSH1 0x40 SWAP1 KECCAK256 PUSH2 0xD31 PUSH1 0x1 DUP5 PUSH2 0x18FC JUMP JUMPDEST DUP2 SLOAD DUP2 LT PUSH2 0xD41 JUMPI PUSH2 0xD41 PUSH2 0x1880 JUMP JUMPDEST PUSH1 0x0 SWAP2 DUP3 MSTORE PUSH1 0x20 DUP1 DUP4 KECCAK256 SWAP1 SWAP2 ADD SLOAD CALLER DUP4 MSTORE PUSH1 0xD SWAP1 SWAP2 MSTORE PUSH1 0x40 SWAP1 SWAP2 KECCAK256 DUP1 SLOAD DUP4 SWAP1 DUP2 LT PUSH2 0xD6E JUMPI PUSH2 0xD6E PUSH2 0x1880 JUMP JUMPDEST PUSH1 0x0 SWAP2 DUP3 MSTORE PUSH1 0x20 DUP1 DUP4 KECCAK256 SWAP1 SWAP2 ADD SWAP3 SWAP1 SWAP3 SSTORE CALLER DUP2 MSTORE PUSH1 0xD SWAP1 SWAP2 MSTORE PUSH1 0x40 SWAP1 KECCAK256 DUP1 SLOAD DUP1 PUSH2 0xD9A JUMPI PUSH2 0xD9A PUSH2 0x1935 JUMP JUMPDEST PUSH1 0x1 SWAP1 SUB DUP2 DUP2 SWAP1 PUSH1 0x0 MSTORE PUSH1 0x20 PUSH1 0x0 KECCAK256 ADD PUSH1 0x0 SWAP1 SSTORE SWAP1 SSTORE PUSH2 0xDC5 JUMP JUMPDEST PUSH2 0xDBE DUP2 PUSH2 0x194B JUMP JUMPDEST SWAP1 POP PUSH2 0xCAF JUMP JUMPDEST POP PUSH2 0xDD3 SWAP1 POP PUSH1 0x1 DUP3 PUSH2 0x18AC JUMP JUMPDEST SWAP1 POP PUSH2 0xAFB JUMP JUMPDEST POP DUP1 PUSH1 0x9 PUSH1 0x0 DUP3 DUP3 SLOAD PUSH2 0xDED SWAP2 SWAP1 PUSH2 0x18FC JUMP JUMPDEST SWAP1 SWAP2 SSTORE POP POP PUSH1 0x40 MLOAD CALLER SWAP1 PUSH32 0xD40A9786B597B88B3426158112E3930E09CB031C138A150E367CFE17FF20E302 SWAP1 PUSH2 0x68F SWAP1 DUP5 SWAP1 DUP8 SWAP1 PUSH2 0x18C4 JUMP JUMPDEST PUSH2 0xE2E PUSH2 0x11BF JUMP JUMPDEST PUSH1 0x0 PUSH2 0xE38 PUSH2 0x1050 JUMP JUMPDEST PUSH1 0x8 SSTORE PUSH2 0xE43 PUSH2 0x972 JUMP JUMPDEST PUSH1 0x7 SSTORE PUSH1 0x1 PUSH1 0x1 PUSH1 0xA0 SHL SUB DUP2 AND ISZERO PUSH2 0xE8A JUMPI PUSH2 0xE5E DUP2 PUSH2 0x8E1 JUMP JUMPDEST PUSH1 0x1 PUSH1 0x1 PUSH1 0xA0 SHL SUB DUP3 AND PUSH1 0x0 SWAP1 DUP2 MSTORE PUSH1 0xB PUSH1 0x20 SWAP1 DUP2 MSTORE PUSH1 0x40 DUP1 DUP4 KECCAK256 SWAP4 SWAP1 SWAP4 SSTORE PUSH1 0x8 SLOAD PUSH1 0xA SWAP1 SWAP2 MSTORE SWAP2 SWAP1 KECCAK256 SSTORE JUMPDEST PUSH1 0x4 SLOAD TIMESTAMP LT PUSH2 0xEA8 JUMPI PUSH1 0x6 SLOAD PUSH2 0xEA0 SWAP1 DUP4 PUSH2 0x1913 JUMP JUMPDEST PUSH1 0x5 SSTORE PUSH2 0xEEA JUMP JUMPDEST PUSH1 0x0 TIMESTAMP PUSH1 0x4 SLOAD PUSH2 0xEB8 SWAP2 SWAP1 PUSH2 0x18FC JUMP JUMPDEST SWAP1 POP PUSH1 0x0 PUSH1 0x5 SLOAD DUP3 PUSH2 0xECA SWAP2 SWAP1 PUSH2 0x18DD JUMP JUMPDEST PUSH1 0x6 SLOAD SWAP1 SWAP2 POP PUSH2 0xEDA DUP3 DUP7 PUSH2 0x18AC JUMP JUMPDEST PUSH2 0xEE4 SWAP2 SWAP1 PUSH2 0x1913 JUMP JUMPDEST PUSH1 0x5 SSTORE POP POP JUMPDEST PUSH1 0x2 SLOAD PUSH1 0x40 MLOAD PUSH4 0x70A08231 PUSH1 0xE0 SHL DUP2 MSTORE ADDRESS PUSH1 0x4 DUP3 ADD MSTORE PUSH1 0x0 SWAP2 PUSH1 0x1 PUSH1 0x1 PUSH1 0xA0 SHL SUB AND SWAP1 PUSH4 0x70A08231 SWAP1 PUSH1 0x24 ADD PUSH1 0x20 PUSH1 0x40 MLOAD DUP1 DUP4 SUB DUP2 DUP7 GAS STATICCALL ISZERO DUP1 ISZERO PUSH2 0xF33 JUMPI RETURNDATASIZE PUSH1 0x0 DUP1 RETURNDATACOPY RETURNDATASIZE PUSH1 0x0 REVERT JUMPDEST POP POP POP POP PUSH1 0x40 MLOAD RETURNDATASIZE PUSH1 0x1F NOT PUSH1 0x1F DUP3 ADD AND DUP3 ADD DUP1 PUSH1 0x40 MSTORE POP DUP2 ADD SWAP1 PUSH2 0xF57 SWAP2 SWAP1 PUSH2 0x1964 JUMP JUMPDEST SWAP1 POP PUSH1 0x6 SLOAD DUP2 PUSH2 0xF67 SWAP2 SWAP1 PUSH2 0x1913 JUMP JUMPDEST PUSH1 0x5 SLOAD GT ISZERO PUSH2 0xFC2 JUMPI PUSH1 0x40 MLOAD PUSH3 0x461BCD PUSH1 0xE5 SHL DUP2 MSTORE PUSH1 0x20 PUSH1 0x4 DUP3 ADD MSTORE PUSH1 0x21 PUSH1 0x24 DUP3 ADD MSTORE PUSH32 0x5374616B696E673A2050726F76696465642072657761726420746F6F20686967 PUSH1 0x44 DUP3 ADD MSTORE PUSH1 0xD PUSH1 0xFB SHL PUSH1 0x64 DUP3 ADD MSTORE PUSH1 0x84 ADD PUSH2 0x41F JUMP JUMPDEST TIMESTAMP PUSH1 0x7 DUP2 SWAP1 SSTORE PUSH1 0x6 SLOAD PUSH2 0xFD4 SWAP2 PUSH2 0x18AC JUMP JUMPDEST PUSH1 0x4 SSTORE PUSH1 0x40 MLOAD DUP4 DUP2 MSTORE PUSH32 0xDE88A922E0D3B88B24E9623EFEB464919C6BF9F66857A65E2BFCF2CE87A9433D SWAP1 PUSH1 0x20 ADD PUSH1 0x40 MLOAD DUP1 SWAP2 SUB SWAP1 LOG1 POP POP POP JUMP JUMPDEST PUSH2 0x1017 PUSH2 0x11BF JUMP JUMPDEST PUSH1 0x3 DUP1 SLOAD SWAP2 ISZERO ISZERO PUSH1 0x1 PUSH1 0xA0 SHL MUL PUSH32 0xFFFFFFFFFFFFFFFFFFFFFF00FFFFFFFFFFFFFFFFFFFFFFFFFFFFFFFFFFFFFFFF SWAP1 SWAP3 AND SWAP2 SWAP1 SWAP2 OR SWAP1 SSTORE JUMP JUMPDEST PUSH1 0x0 PUSH1 0x9 SLOAD PUSH1 0x0 SUB PUSH2 0x1063 JUMPI POP PUSH1 0x8 SLOAD SWAP1 JUMP JUMPDEST PUSH1 0x9 SLOAD PUSH1 0x5 SLOAD PUSH1 0x7 SLOAD PUSH2 0x1074 PUSH2 0x972 JUMP JUMPDEST PUSH2 0x107E SWAP2 SWAP1 PUSH2 0x18FC JUMP JUMPDEST PUSH2 0x1088 SWAP2 SWAP1 PUSH2 0x18DD JUMP JUMPDEST PUSH2 0x109A SWAP1 PUSH8 0xDE0B6B3A7640000 PUSH2 0x18DD JUMP JUMPDEST PUSH2 0x10A4 SWAP2 SWAP1 PUSH2 0x1913 JUMP JUMPDEST PUSH1 0x8 SLOAD PUSH2 0x6B3 SWAP2 SWAP1 PUSH2 0x18AC JUMP JUMPDEST PUSH2 0x10B9 PUSH2 0x11BF JUMP JUMPDEST PUSH1 0x1 PUSH1 0x1 PUSH1 0xA0 SHL SUB DUP2 AND PUSH2 0x1135 JUMPI PUSH1 0x40 MLOAD PUSH3 0x461BCD PUSH1 0xE5 SHL DUP2 MSTORE PUSH1 0x20 PUSH1 0x4 DUP3 ADD MSTORE PUSH1 0x26 PUSH1 0x24 DUP3 ADD MSTORE PUSH32 0x4F776E61626C653A206E6577206F776E657220697320746865207A65726F2061 PUSH1 0x44 DUP3 ADD MSTORE PUSH32 0x6464726573730000000000000000000000000000000000000000000000000000 PUSH1 0x64 DUP3 ADD MSTORE PUSH1 0x84 ADD PUSH2 0x41F JUMP JUMPDEST PUSH2 0x113E DUP2 PUSH2 0x12FB JUMP JUMPDEST POP JUMP JUMPDEST PUSH1 0x0 PUSH1 0x9 SLOAD PUSH1 0x5 SLOAD PUSH2 0x6B3 SWAP2 SWAP1 PUSH2 0x1913 JUMP JUMPDEST PUSH1 0x40 DUP1 MLOAD PUSH1 0x1 PUSH1 0x1 PUSH1 0xA0 SHL SUB DUP5 AND PUSH1 0x24 DUP3 ADD MSTORE PUSH1 0x44 DUP1 DUP3 ADD DUP5 SWAP1 MSTORE DUP3 MLOAD DUP1 DUP4 SUB SWAP1 SWAP2 ADD DUP2 MSTORE PUSH1 0x64 SWAP1 SWAP2 ADD SWAP1 SWAP2 MSTORE PUSH1 0x20 DUP2 ADD DUP1 MLOAD PUSH28 0xFFFFFFFFFFFFFFFFFFFFFFFFFFFFFFFFFFFFFFFFFFFFFFFFFFFFFFFF AND PUSH4 0xA9059CBB PUSH1 0xE0 SHL OR SWAP1 MSTORE PUSH2 0x11BA SWAP1 DUP5 SWAP1 PUSH2 0x135A JUMP JUMPDEST POP POP POP JUMP JUMPDEST PUSH1 0x1 SLOAD PUSH1 0x1 PUSH1 0x1 PUSH1 0xA0 SHL SUB AND CALLER EQ PUSH2 0x970 JUMPI PUSH1 0x40 MLOAD PUSH3 0x461BCD PUSH1 0xE5 SHL DUP2 MSTORE PUSH1 0x20 PUSH1 0x4 DUP3 ADD DUP2 SWAP1 MSTORE PUSH1 0x24 DUP3 ADD MSTORE PUSH32 0x4F776E61626C653A2063616C6C6572206973206E6F7420746865206F776E6572 PUSH1 0x44 DUP3 ADD MSTORE PUSH1 0x64 ADD PUSH2 0x41F JUMP JUMPDEST PUSH1 0x4 SLOAD TIMESTAMP GT PUSH2 0x12C0 JUMPI PUSH1 0x40 MLOAD PUSH3 0x461BCD PUSH1 0xE5 SHL DUP2 MSTORE PUSH1 0x20 PUSH1 0x4 DUP3 ADD MSTORE PUSH1 0x61 PUSH1 0x24 DUP3 ADD MSTORE PUSH32 0x5374616B696E673A2050726576696F7573207265776172647320706572696F64 PUSH1 0x44 DUP3 ADD MSTORE PUSH32 0x206D75737420626520636F6D706C657465206265666F7265206368616E67696E PUSH1 0x64 DUP3 ADD MSTORE PUSH32 0x6720746865206475726174696F6E20666F7220746865206E657720706572696F PUSH1 0x84 DUP3 ADD MSTORE PUSH1 0x19 PUSH1 0xFA SHL PUSH1 0xA4 DUP3 ADD MSTORE PUSH1 0xC4 ADD PUSH2 0x41F JUMP JUMPDEST PUSH1 0x6 DUP2 SWAP1 SSTORE PUSH1 0x40 MLOAD DUP2 DUP2 MSTORE PUSH32 0xFB46CA5A5E06D4540D6387B930A7C978BCE0DB5F449EC6B3F5D07C6E1D44F2D3 SWAP1 PUSH1 0x20 ADD PUSH1 0x40 MLOAD DUP1 SWAP2 SUB SWAP1 LOG1 POP JUMP JUMPDEST PUSH1 0x1 DUP1 SLOAD PUSH1 0x1 PUSH1 0x1 PUSH1 0xA0 SHL SUB DUP4 DUP2 AND PUSH20 0xFFFFFFFFFFFFFFFFFFFFFFFFFFFFFFFFFFFFFFFF NOT DUP4 AND DUP2 OR SWAP1 SWAP4 SSTORE PUSH1 0x40 MLOAD SWAP2 AND SWAP2 SWAP1 DUP3 SWAP1 PUSH32 0x8BE0079C531659141344CD1FD0A4F28419497F9722A3DAAFE3B4186F6B6457E0 SWAP1 PUSH1 0x0 SWAP1 LOG3 POP POP JUMP JUMPDEST PUSH1 0x0 PUSH2 0x13AF DUP3 PUSH1 0x40 MLOAD DUP1 PUSH1 0x40 ADD PUSH1 0x40 MSTORE DUP1 PUSH1 0x20 DUP2 MSTORE PUSH1 0x20 ADD PUSH32 0x5361666545524332303A206C6F772D6C6576656C2063616C6C206661696C6564 DUP2 MSTORE POP DUP6 PUSH1 0x1 PUSH1 0x1 PUSH1 0xA0 SHL SUB AND PUSH2 0x143F SWAP1 SWAP3 SWAP2 SWAP1 PUSH4 0xFFFFFFFF AND JUMP JUMPDEST DUP1 MLOAD SWAP1 SWAP2 POP ISZERO PUSH2 0x11BA JUMPI DUP1 DUP1 PUSH1 0x20 ADD SWAP1 MLOAD DUP2 ADD SWAP1 PUSH2 0x13CD SWAP2 SWAP1 PUSH2 0x197D JUMP JUMPDEST PUSH2 0x11BA JUMPI PUSH1 0x40 MLOAD PUSH3 0x461BCD PUSH1 0xE5 SHL DUP2 MSTORE PUSH1 0x20 PUSH1 0x4 DUP3 ADD MSTORE PUSH1 0x2A PUSH1 0x24 DUP3 ADD MSTORE PUSH32 0x5361666545524332303A204552433230206F7065726174696F6E20646964206E PUSH1 0x44 DUP3 ADD MSTORE PUSH32 0x6F74207375636365656400000000000000000000000000000000000000000000 PUSH1 0x64 DUP3 ADD MSTORE PUSH1 0x84 ADD PUSH2 0x41F JUMP JUMPDEST PUSH1 0x60 PUSH2 0x144E DUP5 DUP5 PUSH1 0x0 DUP6 PUSH2 0x1458 JUMP JUMPDEST SWAP1 POP JUMPDEST SWAP4 SWAP3 POP POP POP JUMP JUMPDEST PUSH1 0x60 DUP3 SELFBALANCE LT ISZERO PUSH2 0x14D0 JUMPI PUSH1 0x40 MLOAD PUSH3 0x461BCD PUSH1 0xE5 SHL DUP2 MSTORE PUSH1 0x20 PUSH1 0x4 DUP3 ADD MSTORE PUSH1 0x26 PUSH1 0x24 DUP3 ADD MSTORE PUSH32 0x416464726573733A20696E73756666696369656E742062616C616E636520666F PUSH1 0x44 DUP3 ADD MSTORE PUSH32 0x722063616C6C0000000000000000000000000000000000000000000000000000 PUSH1 0x64 DUP3 ADD MSTORE PUSH1 0x84 ADD PUSH2 0x41F JUMP JUMPDEST PUSH1 0x1 PUSH1 0x1 PUSH1 0xA0 SHL SUB DUP6 AND EXTCODESIZE PUSH2 0x1527 JUMPI PUSH1 0x40 MLOAD PUSH3 0x461BCD PUSH1 0xE5 SHL DUP2 MSTORE PUSH1 0x20 PUSH1 0x4 DUP3 ADD MSTORE PUSH1 0x1D PUSH1 0x24 DUP3 ADD MSTORE PUSH32 0x416464726573733A2063616C6C20746F206E6F6E2D636F6E7472616374000000 PUSH1 0x44 DUP3 ADD MSTORE PUSH1 0x64 ADD PUSH2 0x41F JUMP JUMPDEST PUSH1 0x0 DUP1 DUP7 PUSH1 0x1 PUSH1 0x1 PUSH1 0xA0 SHL SUB AND DUP6 DUP8 PUSH1 0x40 MLOAD PUSH2 0x1543 SWAP2 SWAP1 PUSH2 0x19CA JUMP JUMPDEST PUSH1 0x0 PUSH1 0x40 MLOAD DUP1 DUP4 SUB DUP2 DUP6 DUP8 GAS CALL SWAP3 POP POP POP RETURNDATASIZE DUP1 PUSH1 0x0 DUP2 EQ PUSH2 0x1580 JUMPI PUSH1 0x40 MLOAD SWAP2 POP PUSH1 0x1F NOT PUSH1 0x3F RETURNDATASIZE ADD AND DUP3 ADD PUSH1 0x40 MSTORE RETURNDATASIZE DUP3 MSTORE RETURNDATASIZE PUSH1 0x0 PUSH1 0x20 DUP5 ADD RETURNDATACOPY PUSH2 0x1585 JUMP JUMPDEST PUSH1 0x60 SWAP2 POP JUMPDEST POP SWAP2 POP SWAP2 POP PUSH2 0x1595 DUP3 DUP3 DUP7 PUSH2 0x15A0 JUMP JUMPDEST SWAP8 SWAP7 POP POP POP POP POP POP POP JUMP JUMPDEST PUSH1 0x60 DUP4 ISZERO PUSH2 0x15AF JUMPI POP DUP2 PUSH2 0x1451 JUMP JUMPDEST DUP3 MLOAD ISZERO PUSH2 0x15BF JUMPI DUP3 MLOAD DUP1 DUP5 PUSH1 0x20 ADD REVERT JUMPDEST DUP2 PUSH1 0x40 MLOAD PUSH3 0x461BCD PUSH1 0xE5 SHL DUP2 MSTORE PUSH1 0x4 ADD PUSH2 0x41F SWAP2 SWAP1 PUSH2 0x19E6 JUMP JUMPDEST PUSH4 0x4E487B71 PUSH1 0xE0 SHL PUSH1 0x0 MSTORE PUSH1 0x41 PUSH1 0x4 MSTORE PUSH1 0x24 PUSH1 0x0 REVERT JUMPDEST PUSH1 0x40 MLOAD PUSH1 0x1F DUP3 ADD PUSH1 0x1F NOT AND DUP2 ADD PUSH8 0xFFFFFFFFFFFFFFFF DUP2 GT DUP3 DUP3 LT OR ISZERO PUSH2 0x1618 JUMPI PUSH2 0x1618 PUSH2 0x15D9 JUMP JUMPDEST PUSH1 0x40 MSTORE SWAP2 SWAP1 POP JUMP JUMPDEST PUSH1 0x0 PUSH1 0x20 DUP1 DUP4 DUP6 SUB SLT ISZERO PUSH2 0x1633 JUMPI PUSH1 0x0 DUP1 REVERT JUMPDEST DUP3 CALLDATALOAD PUSH8 0xFFFFFFFFFFFFFFFF DUP1 DUP3 GT ISZERO PUSH2 0x164B JUMPI PUSH1 0x0 DUP1 REVERT JUMPDEST DUP2 DUP6 ADD SWAP2 POP DUP6 PUSH1 0x1F DUP4 ADD SLT PUSH2 0x165F JUMPI PUSH1 0x0 DUP1 REVERT JUMPDEST DUP2 CALLDATALOAD DUP2 DUP2 GT ISZERO PUSH2 0x1671 JUMPI PUSH2 0x1671 PUSH2 0x15D9 JUMP JUMPDEST DUP1 PUSH1 0x5 SHL SWAP2 POP PUSH2 0x1682 DUP5 DUP4 ADD PUSH2 0x15EF JUMP JUMPDEST DUP2 DUP2 MSTORE SWAP2 DUP4 ADD DUP5 ADD SWAP2 DUP5 DUP2 ADD SWAP1 DUP9 DUP5 GT ISZERO PUSH2 0x169C JUMPI PUSH1 0x0 DUP1 REVERT JUMPDEST SWAP4 DUP6 ADD SWAP4 JUMPDEST DUP4 DUP6 LT ISZERO PUSH2 0x16BA JUMPI DUP5 CALLDATALOAD DUP3 MSTORE SWAP4 DUP6 ADD SWAP4 SWAP1 DUP6 ADD SWAP1 PUSH2 0x16A1 JUMP JUMPDEST SWAP9 SWAP8 POP POP POP POP POP POP POP POP JUMP JUMPDEST DUP1 CALLDATALOAD PUSH1 0x1 PUSH1 0x1 PUSH1 0xA0 SHL SUB DUP2 AND DUP2 EQ PUSH2 0x16DD JUMPI PUSH1 0x0 DUP1 REVERT JUMPDEST SWAP2 SWAP1 POP JUMP JUMPDEST PUSH1 0x0 DUP1 PUSH1 0x0 DUP1 PUSH1 0x80 DUP6 DUP8 SUB SLT ISZERO PUSH2 0x16F8 JUMPI PUSH1 0x0 DUP1 REVERT JUMPDEST PUSH2 0x1701 DUP6 PUSH2 0x16C6 JUMP JUMPDEST SWAP4 POP PUSH1 0x20 PUSH2 0x1710 DUP2 DUP8 ADD PUSH2 0x16C6 JUMP JUMPDEST SWAP4 POP PUSH1 0x40 DUP7 ADD CALLDATALOAD SWAP3 POP PUSH1 0x60 DUP7 ADD CALLDATALOAD PUSH8 0xFFFFFFFFFFFFFFFF DUP1 DUP3 GT ISZERO PUSH2 0x1734 JUMPI PUSH1 0x0 DUP1 REVERT JUMPDEST DUP2 DUP9 ADD SWAP2 POP DUP9 PUSH1 0x1F DUP4 ADD SLT PUSH2 0x1748 JUMPI PUSH1 0x0 DUP1 REVERT JUMPDEST DUP2 CALLDATALOAD DUP2 DUP2 GT ISZERO PUSH2 0x175A JUMPI PUSH2 0x175A PUSH2 0x15D9 JUMP JUMPDEST PUSH2 0x176C PUSH1 0x1F DUP3 ADD PUSH1 0x1F NOT AND DUP6 ADD PUSH2 0x15EF JUMP JUMPDEST SWAP2 POP DUP1 DUP3 MSTORE DUP10 DUP5 DUP3 DUP6 ADD ADD GT ISZERO PUSH2 0x1782 JUMPI PUSH1 0x0 DUP1 REVERT JUMPDEST DUP1 DUP5 DUP5 ADD DUP6 DUP5 ADD CALLDATACOPY PUSH1 0x0 DUP5 DUP3 DUP5 ADD ADD MSTORE POP DUP1 SWAP4 POP POP POP POP SWAP3 SWAP6 SWAP2 SWAP5 POP SWAP3 POP JUMP JUMPDEST PUSH1 0x0 PUSH1 0x20 DUP3 DUP5 SUB SLT ISZERO PUSH2 0x17B4 JUMPI PUSH1 0x0 DUP1 REVERT JUMPDEST PUSH2 0x1451 DUP3 PUSH2 0x16C6 JUMP JUMPDEST PUSH1 0x0 DUP2 MLOAD DUP1 DUP5 MSTORE PUSH1 0x20 DUP1 DUP6 ADD SWAP5 POP DUP1 DUP5 ADD PUSH1 0x0 JUMPDEST DUP4 DUP2 LT ISZERO PUSH2 0x17ED JUMPI DUP2 MLOAD DUP8 MSTORE SWAP6 DUP3 ADD SWAP6 SWAP1 DUP3 ADD SWAP1 PUSH1 0x1 ADD PUSH2 0x17D1 JUMP JUMPDEST POP SWAP5 SWAP6 SWAP5 POP POP POP POP POP JUMP JUMPDEST PUSH1 0x40 DUP2 MSTORE PUSH1 0x0 PUSH2 0x180B PUSH1 0x40 DUP4 ADD DUP6 PUSH2 0x17BD JUMP JUMPDEST SWAP1 POP DUP3 PUSH1 0x20 DUP4 ADD MSTORE SWAP4 SWAP3 POP POP POP JUMP JUMPDEST PUSH1 0x0 DUP1 PUSH1 0x40 DUP4 DUP6 SUB SLT ISZERO PUSH2 0x182D JUMPI PUSH1 0x0 DUP1 REVERT JUMPDEST POP POP DUP1 CALLDATALOAD SWAP3 PUSH1 0x20 SWAP1 SWAP2 ADD CALLDATALOAD SWAP2 POP JUMP JUMPDEST PUSH1 0x0 PUSH1 0x20 DUP3 DUP5 SUB SLT ISZERO PUSH2 0x184E JUMPI PUSH1 0x0 DUP1 REVERT JUMPDEST POP CALLDATALOAD SWAP2 SWAP1 POP JUMP JUMPDEST DUP1 ISZERO ISZERO DUP2 EQ PUSH2 0x113E JUMPI PUSH1 0x0 DUP1 REVERT JUMPDEST PUSH1 0x0 PUSH1 0x20 DUP3 DUP5 SUB SLT ISZERO PUSH2 0x1875 JUMPI PUSH1 0x0 DUP1 REVERT JUMPDEST DUP2 CALLDATALOAD PUSH2 0x1451 DUP2 PUSH2 0x1855 JUMP JUMPDEST PUSH4 0x4E487B71 PUSH1 0xE0 SHL PUSH1 0x0 MSTORE PUSH1 0x32 PUSH1 0x4 MSTORE PUSH1 0x24 PUSH1 0x0 REVERT JUMPDEST PUSH4 0x4E487B71 PUSH1 0xE0 SHL PUSH1 0x0 MSTORE PUSH1 0x11 PUSH1 0x4 MSTORE PUSH1 0x24 PUSH1 0x0 REVERT JUMPDEST PUSH1 0x0 DUP3 NOT DUP3 GT ISZERO PUSH2 0x18BF JUMPI PUSH2 0x18BF PUSH2 0x1896 JUMP JUMPDEST POP ADD SWAP1 JUMP JUMPDEST DUP3 DUP2 MSTORE PUSH1 0x40 PUSH1 0x20 DUP3 ADD MSTORE PUSH1 0x0 PUSH2 0x144E PUSH1 0x40 DUP4 ADD DUP5 PUSH2 0x17BD JUMP JUMPDEST PUSH1 0x0 DUP2 PUSH1 0x0 NOT DIV DUP4 GT DUP3 ISZERO ISZERO AND ISZERO PUSH2 0x18F7 JUMPI PUSH2 0x18F7 PUSH2 0x1896 JUMP JUMPDEST POP MUL SWAP1 JUMP JUMPDEST PUSH1 0x0 DUP3 DUP3 LT ISZERO PUSH2 0x190E JUMPI PUSH2 0x190E PUSH2 0x1896 JUMP JUMPDEST POP SUB SWAP1 JUMP JUMPDEST PUSH1 0x0 DUP3 PUSH2 0x1930 JUMPI PUSH4 0x4E487B71 PUSH1 0xE0 SHL PUSH1 0x0 MSTORE PUSH1 0x12 PUSH1 0x4 MSTORE PUSH1 0x24 PUSH1 0x0 REVERT JUMPDEST POP DIV SWAP1 JUMP JUMPDEST PUSH4 0x4E487B71 PUSH1 0xE0 SHL PUSH1 0x0 MSTORE PUSH1 0x31 PUSH1 0x4 MSTORE PUSH1 0x24 PUSH1 0x0 REVERT JUMPDEST PUSH1 0x0 PUSH1 0x1 DUP3 ADD PUSH2 0x195D JUMPI PUSH2 0x195D PUSH2 0x1896 JUMP JUMPDEST POP PUSH1 0x1 ADD SWAP1 JUMP JUMPDEST PUSH1 0x0 PUSH1 0x20 DUP3 DUP5 SUB SLT ISZERO PUSH2 0x1976 JUMPI PUSH1 0x0 DUP1 REVERT JUMPDEST POP MLOAD SWAP2 SWAP1 POP JUMP JUMPDEST PUSH1 0x0 PUSH1 0x20 DUP3 DUP5 SUB SLT ISZERO PUSH2 0x198F JUMPI PUSH1 0x0 DUP1 REVERT JUMPDEST DUP2 MLOAD PUSH2 0x1451 DUP2 PUSH2 0x1855 JUMP JUMPDEST PUSH1 0x0 JUMPDEST DUP4 DUP2 LT ISZERO PUSH2 0x19B5 JUMPI DUP2 DUP2 ADD MLOAD DUP4 DUP3 ADD MSTORE PUSH1 0x20 ADD PUSH2 0x199D JUMP JUMPDEST DUP4 DUP2 GT ISZERO PUSH2 0x19C4 JUMPI PUSH1 0x0 DUP5 DUP5 ADD MSTORE JUMPDEST POP POP POP POP JUMP JUMPDEST PUSH1 0x0 DUP3 MLOAD PUSH2 0x19DC DUP2 DUP5 PUSH1 0x20 DUP8 ADD PUSH2 0x199A JUMP JUMPDEST SWAP2 SWAP1 SWAP2 ADD SWAP3 SWAP2 POP POP JUMP JUMPDEST PUSH1 0x20 DUP2 MSTORE PUSH1 0x0 DUP3 MLOAD DUP1 PUSH1 0x20 DUP5 ADD MSTORE PUSH2 0x1A05 DUP2 PUSH1 0x40 DUP6 ADD PUSH1 0x20 DUP8 ADD PUSH2 0x199A JUMP JUMPDEST PUSH1 0x1F ADD PUSH1 0x1F NOT AND SWAP2 SWAP1 SWAP2 ADD PUSH1 0x40 ADD SWAP3 SWAP2 POP POP JUMP INVALID LOG2 PUSH5 0x6970667358 0x22 SLT KECCAK256 0x49 GT 0xA7 RETURN 0x4B JUMP 0xF9 SWAP16 PC 0xE 0xBA LOG1 0xD8 BYTE 0xB9 BLOCKHASH PUSH12 0x1909251E9C136498B810A78F DIV SWAP6 CREATE PUSH5 0x736F6C6343 STOP ADDMOD 0xD STOP CALLER "
    },
    "gasEstimates": {
      "creation": {
        "codeDepositCost": "1347000",
        "executionCost": "infinite",
        "totalCost": "infinite"
      },
      "external": {
        "addRewardAmount(uint256)": "infinite",
        "calculateRewards(address)": "infinite",
        "claimRewards()": "infinite",
        "claiming()": "2363",
        "getRewardForDuration()": "4556",
        "getRewardPerToken()": "4588",
        "lastTimeRewardApplicable()": "4479",
        "lastUpdateTime()": "2362",
        "nftCollection()": "2382",
        "onERC721Received(address,address,uint256,bytes)": "infinite",
        "owner()": "2376",
        "periodFinish()": "2361",
        "renounceOwnership()": "infinite",
        "rewardPerToken()": "infinite",
        "rewardRate()": "2384",
        "rewardsDuration()": "2385",
        "rewardsToken()": "2381",
        "setClaimingState(bool)": "26815",
        "setStakingPeriod(uint256,uint256)": "infinite",
        "stake(uint256[])": "infinite",
        "stakedAssets(uint256)": "2588",
        "totalStakedSupply()": "2340",
        "transferOwnership(address)": "28412",
        "userRewardPerTokenPaid(address)": "2609",
        "userStakeInfo(address)": "infinite",
        "withdraw(uint256[])": "infinite",
        "withdrawAll()": "infinite"
      },
      "internal": {
        "setRewardsDuration(uint256)": "infinite"
      }
    },
    "methodIdentifiers": {
      "addRewardAmount(uint256)": "9b7ccf4c",
      "calculateRewards(address)": "64ab8675",
      "claimRewards()": "372500ab",
      "claiming()": "0defc08a",
      "getRewardForDuration()": "1c1f78eb",
      "getRewardPerToken()": "feca3900",
      "lastTimeRewardApplicable()": "80faa57d",
      "lastUpdateTime()": "c8f33c91",
      "nftCollection()": "6588103b",
      "onERC721Received(address,address,uint256,bytes)": "150b7a02",
      "owner()": "8da5cb5b",
      "periodFinish()": "ebe2b12b",
      "renounceOwnership()": "715018a6",
      "rewardPerToken()": "cd3daf9d",
      "rewardRate()": "7b0a47ee",
      "rewardsDuration()": "386a9525",
      "rewardsToken()": "d1af0c7d",
      "setClaimingState(bool)": "9c007c75",
      "setStakingPeriod(uint256,uint256)": "518bb20e",
      "stake(uint256[])": "0fbf0a93",
      "stakedAssets(uint256)": "7d8fc88e",
      "totalStakedSupply()": "bcdc3cfc",
      "transferOwnership(address)": "f2fde38b",
      "userRewardPerTokenPaid(address)": "8b876347",
      "userStakeInfo(address)": "4ead4327",
      "withdraw(uint256[])": "983d95ce",
      "withdrawAll()": "853828b6"
    }
  },
  "storageLayout": {
    "storage": [
      {
        "astId": 847,
        "contract": "SafuERC721Staking.sol:SafuERC721Staking",
        "label": "_status",
        "offset": 0,
        "slot": "0",
        "type": "t_uint256"
      },
      {
        "astId": 731,
        "contract": "SafuERC721Staking.sol:SafuERC721Staking",
        "label": "_owner",
        "offset": 0,
        "slot": "1",
        "type": "t_address"
      },
      {
        "astId": 21,
        "contract": "SafuERC721Staking.sol:SafuERC721Staking",
        "label": "rewardsToken",
        "offset": 0,
        "slot": "2",
        "type": "t_contract(IERC20)954"
      },
      {
        "astId": 24,
        "contract": "SafuERC721Staking.sol:SafuERC721Staking",
        "label": "nftCollection",
        "offset": 0,
        "slot": "3",
        "type": "t_contract(IERC721)1351"
      },
      {
        "astId": 26,
        "contract": "SafuERC721Staking.sol:SafuERC721Staking",
        "label": "claiming",
        "offset": 20,
        "slot": "3",
        "type": "t_bool"
      },
      {
        "astId": 28,
        "contract": "SafuERC721Staking.sol:SafuERC721Staking",
        "label": "periodFinish",
        "offset": 0,
        "slot": "4",
        "type": "t_uint256"
      },
      {
        "astId": 30,
        "contract": "SafuERC721Staking.sol:SafuERC721Staking",
        "label": "rewardRate",
        "offset": 0,
        "slot": "5",
        "type": "t_uint256"
      },
      {
        "astId": 32,
        "contract": "SafuERC721Staking.sol:SafuERC721Staking",
        "label": "rewardsDuration",
        "offset": 0,
        "slot": "6",
        "type": "t_uint256"
      },
      {
        "astId": 34,
        "contract": "SafuERC721Staking.sol:SafuERC721Staking",
        "label": "lastUpdateTime",
        "offset": 0,
        "slot": "7",
        "type": "t_uint256"
      },
      {
        "astId": 36,
        "contract": "SafuERC721Staking.sol:SafuERC721Staking",
        "label": "rewardPerTokenStored",
        "offset": 0,
        "slot": "8",
        "type": "t_uint256"
      },
      {
        "astId": 38,
        "contract": "SafuERC721Staking.sol:SafuERC721Staking",
        "label": "totalStakedSupply",
        "offset": 0,
        "slot": "9",
        "type": "t_uint256"
      },
      {
        "astId": 42,
        "contract": "SafuERC721Staking.sol:SafuERC721Staking",
        "label": "userRewardPerTokenPaid",
        "offset": 0,
        "slot": "10",
        "type": "t_mapping(t_address,t_uint256)"
      },
      {
        "astId": 46,
        "contract": "SafuERC721Staking.sol:SafuERC721Staking",
        "label": "rewards",
        "offset": 0,
        "slot": "11",
        "type": "t_mapping(t_address,t_uint256)"
      },
      {
        "astId": 50,
        "contract": "SafuERC721Staking.sol:SafuERC721Staking",
        "label": "stakedAssets",
        "offset": 0,
        "slot": "12",
        "type": "t_mapping(t_uint256,t_address)"
      },
      {
        "astId": 55,
        "contract": "SafuERC721Staking.sol:SafuERC721Staking",
        "label": "tokensStaked",
        "offset": 0,
        "slot": "13",
        "type": "t_mapping(t_address,t_array(t_uint256)dyn_storage)"
      }
    ],
    "types": {
      "t_address": {
        "encoding": "inplace",
        "label": "address",
        "numberOfBytes": "20"
      },
      "t_array(t_uint256)dyn_storage": {
        "base": "t_uint256",
        "encoding": "dynamic_array",
        "label": "uint256[]",
        "numberOfBytes": "32"
      },
      "t_bool": {
        "encoding": "inplace",
        "label": "bool",
        "numberOfBytes": "1"
      },
      "t_contract(IERC20)954": {
        "encoding": "inplace",
        "label": "contract IERC20",
        "numberOfBytes": "20"
      },
      "t_contract(IERC721)1351": {
        "encoding": "inplace",
        "label": "contract IERC721",
        "numberOfBytes": "20"
      },
      "t_mapping(t_address,t_array(t_uint256)dyn_storage)": {
        "encoding": "mapping",
        "key": "t_address",
        "label": "mapping(address => uint256[])",
        "numberOfBytes": "32",
        "value": "t_array(t_uint256)dyn_storage"
      },
      "t_mapping(t_address,t_uint256)": {
        "encoding": "mapping",
        "key": "t_address",
        "label": "mapping(address => uint256)",
        "numberOfBytes": "32",
        "value": "t_uint256"
      },
      "t_mapping(t_uint256,t_address)": {
        "encoding": "mapping",
        "key": "t_uint256",
        "label": "mapping(uint256 => address)",
        "numberOfBytes": "32",
        "value": "t_address"
      },
      "t_uint256": {
        "encoding": "inplace",
        "label": "uint256",
        "numberOfBytes": "32"
      }
    }
  },
  "userdoc": {
    "kind": "user",
    "methods": {
      "addRewardAmount(uint256)": {
        "notice": "fuction used by the Owner to add rewards to be distributed in the set staking period. Rewards can be added multiple times in the same staking period; this will increase the rewards rate for the active period."
      },
      "calculateRewards(address)": {
        "notice": "used to calculate the earned rewards for a user"
      },
      "claimRewards()": {
        "notice": "function called by the user to claim his accumulated rewards"
      },
      "getRewardPerToken()": {
        "notice": "getter function to get the reward per second for staking one NFT"
      },
      "rewardPerToken()": {
        "notice": "calculates the rewards per token for the current time whenever a new deposit/withdraw is made to keep track of the correct token distribution between stakers"
      },
      "setClaimingState(bool)": {
        "notice": "function used by owner to enable or disable the claimRewards function"
      },
      "setStakingPeriod(uint256,uint256)": {
        "notice": "function for the Owner of the Contract to set the Staking to initialize a staking period and set the amount of tokens to be distributed as rewards in that period"
      },
      "stake(uint256[])": {
        "notice": "functon called by the users to Stake NFTs"
      },
      "userStakeInfo(address)": {
        "notice": "function useful for Front End to see the stake and rewards for users"
      },
      "withdraw(uint256[])": {
        "notice": "function called by the user to Withdraw NFTs from staking"
      },
      "withdrawAll()": {
        "notice": "function called by the user to withdraw all NFTs and claim the rewards in one transaction"
      }
    },
    "notice": "Staking Contract that uses the Synthetix Staking model to distribute SAFU(ERC-20) token rewards in a dynamic way, proportionally based on the amount of SAFU Guardian ERC-721 tokens staked by each staker at any given time",
    "version": 1
  }
}